{
  "_format": "hh-sol-artifact-1",
  "contractName": "MemoryStack",
  "sourceName": "src/backend/contracts/utils/MemoryStack.sol",
  "abi": [
    {
      "inputs": [],
      "name": "isEmpty",
      "outputs": [
        {
          "internalType": "bool",
          "name": "",
          "type": "bool"
        }
      ],
      "stateMutability": "view",
      "type": "function"
    },
    {
      "inputs": [],
      "name": "pop",
      "outputs": [
        {
          "internalType": "uint256",
          "name": "data",
          "type": "uint256"
        }
      ],
      "stateMutability": "nonpayable",
      "type": "function"
    },
    {
      "inputs": [
        {
          "internalType": "uint256",
          "name": "data",
          "type": "uint256"
        }
      ],
      "name": "push",
      "outputs": [],
      "stateMutability": "nonpayable",
      "type": "function"
    }
  ],
  "bytecode": "0x608060405234801561001057600080fd5b506102d2806100206000396000f3fe608060405234801561001057600080fd5b50600436106100415760003560e01c8063681fe70c14610046578063959ac48414610064578063a4ece52c14610080575b600080fd5b61004e61009e565b60405161005b919061015d565b60405180910390f35b61007e600480360381019061007991906101b3565b6100ad565b005b6100886100d9565b60405161009591906101ef565b60405180910390f35b60008060008054905014905090565b600081908060018154018082558091505060019003906000526020600020016000909190919091505550565b60008060016000805490506100ee9190610239565b815481106100ff576100fe61026d565b5b90600052602060002001549050600060016000805490506101209190610239565b815481106101315761013061026d565b5b906000526020600020016000905590565b60008115159050919050565b61015781610142565b82525050565b6000602082019050610172600083018461014e565b92915050565b600080fd5b6000819050919050565b6101908161017d565b811461019b57600080fd5b50565b6000813590506101ad81610187565b92915050565b6000602082840312156101c9576101c8610178565b5b60006101d78482850161019e565b91505092915050565b6101e98161017d565b82525050565b600060208201905061020460008301846101e0565b92915050565b7f4e487b7100000000000000000000000000000000000000000000000000000000600052601160045260246000fd5b60006102448261017d565b915061024f8361017d565b9250828210156102625761026161020a565b5b828203905092915050565b7f4e487b7100000000000000000000000000000000000000000000000000000000600052603260045260246000fdfea2646970667358221220b7702c90f5bb83499733b6f7c9f850a58a941f2a388f0326f66c01811f0df1d964736f6c634300080f0033",
  "linkReferences": {},
  "deployedLinkReferences": {}
}