{
  "_format": "hh-sol-artifact-1",
  "contractName": "MemoryStack",
  "sourceName": "src/backend/contracts/utils/MemoryStack.sol",
  "abi": [
    {
      "inputs": [],
      "name": "isEmpty",
      "outputs": [
        {
          "internalType": "bool",
          "name": "",
          "type": "bool"
        }
      ],
      "stateMutability": "view",
      "type": "function"
    },
    {
      "inputs": [],
      "name": "pop",
      "outputs": [
        {
          "internalType": "uint256",
          "name": "data",
          "type": "uint256"
        }
      ],
      "stateMutability": "nonpayable",
      "type": "function"
    },
    {
      "inputs": [
        {
          "internalType": "uint256",
          "name": "data",
          "type": "uint256"
        }
      ],
      "name": "push",
      "outputs": [],
      "stateMutability": "nonpayable",
      "type": "function"
    }
  ],
  "bytecode": "0x608060405234801561001057600080fd5b5061019b806100206000396000f3fe608060405234801561001057600080fd5b50600436106100415760003560e01c8063681fe70c14610046578063959ac4841461005d578063a4ece52c1461009f575b600080fd5b600054604051901581526020015b60405180910390f35b61009d61006b366004610111565b600080546001810182559080527f290decd9548b62a8d60345a988386fc84ba6bc95484008f6362f93160ef3e5630155565b005b6100a76100b5565b604051908152602001610054565b6000805481906100c79060019061012a565b815481106100d7576100d761014f565b600091825260208220015481549092506100f39060019061012a565b815481106101035761010361014f565b600091825260208220015590565b60006020828403121561012357600080fd5b5035919050565b60008282101561014a57634e487b7160e01b600052601160045260246000fd5b500390565b634e487b7160e01b600052603260045260246000fdfea2646970667358221220e90cd6034c5b40a712f48745b9248d222fd56382fe4939a3018976f15d01a85764736f6c634300080f0033",
  "linkReferences": {},
  "deployedLinkReferences": {}
}