{
  "_format": "hh-sol-artifact-1",
  "contractName": "MemoryQueue",
  "sourceName": "src/backend/contracts/utils/MemoryQueue.sol",
  "abi": [
    {
      "inputs": [],
      "name": "dequeue",
      "outputs": [
        {
          "internalType": "uint256",
          "name": "id",
          "type": "uint256"
        }
      ],
      "stateMutability": "nonpayable",
      "type": "function"
    },
    {
      "inputs": [
        {
          "internalType": "uint256",
          "name": "id",
          "type": "uint256"
        }
      ],
      "name": "enqueue",
      "outputs": [],
      "stateMutability": "nonpayable",
      "type": "function"
    },
    {
      "inputs": [],
      "name": "isEmpty",
      "outputs": [
        {
          "internalType": "bool",
          "name": "",
          "type": "bool"
        }
      ],
      "stateMutability": "view",
      "type": "function"
    }
  ],
  "bytecode": "0x60806040526001805560006002556001600360006101000a81548160ff02191690831515021790555034801561003457600080fd5b506103c1806100446000396000f3fe608060405234801561001057600080fd5b50600436106100415760003560e01c80631ffc735d14610046578063681fe70c14610062578063957908d114610080575b600080fd5b610060600480360381019061005b91906101fc565b61009e565b005b61006a6100ef565b6040516100779190610244565b60405180910390f35b610088610106565b604051610095919061026e565b60405180910390f35b6001600260008282546100b191906102b8565b925050819055506000600360006101000a81548160ff0219169083151502179055508060008060025481526020019081526020016000208190555050565b6000600360009054906101000a900460ff16905090565b6000600154600254101561014f576040517f08c379a00000000000000000000000000000000000000000000000000000000081526004016101469061036b565b60405180910390fd5b60008060015481526020019081526020016000205490506002546001540361018d576001600360006101000a81548160ff0219169083151502179055505b60008060015481526020019081526020016000206000905560018060008282546101b791906102b8565b9250508190555090565b600080fd5b6000819050919050565b6101d9816101c6565b81146101e457600080fd5b50565b6000813590506101f6816101d0565b92915050565b600060208284031215610212576102116101c1565b5b6000610220848285016101e7565b91505092915050565b60008115159050919050565b61023e81610229565b82525050565b60006020820190506102596000830184610235565b92915050565b610268816101c6565b82525050565b6000602082019050610283600083018461025f565b92915050565b7f4e487b7100000000000000000000000000000000000000000000000000000000600052601160045260246000fd5b60006102c3826101c6565b91506102ce836101c6565b9250827fffffffffffffffffffffffffffffffffffffffffffffffffffffffffffffffff0382111561030357610302610289565b5b828201905092915050565b600082825260208201905092915050565b7f54686520717565756520697320656d7074792e00000000000000000000000000600082015250565b600061035560138361030e565b91506103608261031f565b602082019050919050565b6000602082019050818103600083015261038481610348565b905091905056fea264697066735822122016d25e6b7e1e39c99411e607af429b2d76fb179f8b18ab4a4304a04bd9a41a1864736f6c634300080f0033",
  "linkReferences": {},
  "deployedLinkReferences": {}
}