{
  "_format": "hh-sol-artifact-1",
  "contractName": "MemoryQueue",
  "sourceName": "src/backend/contracts/utils/MemoryQueue.sol",
  "abi": [
    {
      "inputs": [],
      "name": "dequeue",
      "outputs": [
        {
          "internalType": "uint256",
          "name": "id",
          "type": "uint256"
        }
      ],
      "stateMutability": "nonpayable",
      "type": "function"
    },
    {
      "inputs": [
        {
          "internalType": "uint256",
          "name": "id",
          "type": "uint256"
        }
      ],
      "name": "enqueue",
      "outputs": [],
      "stateMutability": "nonpayable",
      "type": "function"
    },
    {
      "inputs": [],
      "name": "isEmpty",
      "outputs": [
        {
          "internalType": "bool",
          "name": "",
          "type": "bool"
        }
      ],
      "stateMutability": "view",
      "type": "function"
    }
  ],
  "bytecode": "0x6080604052600180805560006002556003805460ff1916909117905534801561002757600080fd5b506101e1806100376000396000f3fe608060405234801561001057600080fd5b50600436106100415760003560e01c80631ffc735d14610046578063681fe70c1461005b578063957908d114610076575b600080fd5b61005961005436600461016c565b61008c565b005b60035460ff1660405190151581526020015b60405180910390f35b61007e6100c2565b60405190815260200161006d565b60016002600082825461009f9190610185565b90915550506003805460ff19169055600254600090815260208190526040902055565b600060015460025410156101125760405162461bcd60e51b81526020600482015260136024820152722a34329038bab2bab29034b99032b6b83a3c9760691b604482015260640160405180910390fd5b5060015460008181526020819052604090205460025490910361013d576003805460ff191660011790555b6001805460009081526020819052604081208190558154829190610162908390610185565b9250508190555090565b60006020828403121561017e57600080fd5b5035919050565b600082198211156101a657634e487b7160e01b600052601160045260246000fd5b50019056fea26469706673582212209550a29885e1a5b57b5e05970e15a4c61ccc07e5898732b56ebd7032f6d5779f64736f6c634300080f0033",
  "linkReferences": {},
  "deployedLinkReferences": {}
}