{
  "_format": "hh-sol-artifact-1",
  "contractName": "ERC721CopyDistribution",
  "sourceName": "src/backend/contracts/ERC721CopyDistribution.sol",
  "abi": [
    {
      "inputs": [
        {
          "internalType": "string",
          "name": "name",
          "type": "string"
        },
        {
          "internalType": "string",
          "name": "symbol",
          "type": "string"
        },
        {
          "internalType": "string",
          "name": "uri",
          "type": "string"
        }
      ],
      "stateMutability": "nonpayable",
      "type": "constructor"
    },
    {
      "anonymous": false,
      "inputs": [
        {
          "indexed": true,
          "internalType": "address",
          "name": "owner",
          "type": "address"
        },
        {
          "indexed": true,
          "internalType": "address",
          "name": "approved",
          "type": "address"
        },
        {
          "indexed": true,
          "internalType": "uint256",
          "name": "tokenId",
          "type": "uint256"
        }
      ],
      "name": "Approval",
      "type": "event"
    },
    {
      "anonymous": false,
      "inputs": [
        {
          "indexed": true,
          "internalType": "address",
          "name": "owner",
          "type": "address"
        },
        {
          "indexed": true,
          "internalType": "address",
          "name": "operator",
          "type": "address"
        },
        {
          "indexed": false,
          "internalType": "bool",
          "name": "approved",
          "type": "bool"
        }
      ],
      "name": "ApprovalForAll",
      "type": "event"
    },
    {
      "anonymous": false,
      "inputs": [
        {
          "indexed": true,
          "internalType": "address",
          "name": "previousOwner",
          "type": "address"
        },
        {
          "indexed": true,
          "internalType": "address",
          "name": "newOwner",
          "type": "address"
        }
      ],
      "name": "OwnershipTransferred",
      "type": "event"
    },
    {
      "anonymous": false,
      "inputs": [
        {
          "indexed": true,
          "internalType": "address",
          "name": "from",
          "type": "address"
        },
        {
          "indexed": true,
          "internalType": "address",
          "name": "to",
          "type": "address"
        },
        {
          "indexed": true,
          "internalType": "uint256",
          "name": "tokenId",
          "type": "uint256"
        }
      ],
      "name": "Transfer",
      "type": "event"
    },
    {
      "inputs": [
        {
          "internalType": "address",
          "name": "to",
          "type": "address"
        },
        {
          "internalType": "uint256",
          "name": "tokenId",
          "type": "uint256"
        }
      ],
      "name": "approve",
      "outputs": [],
      "stateMutability": "nonpayable",
      "type": "function"
    },
    {
      "inputs": [
        {
          "internalType": "address",
          "name": "owner",
          "type": "address"
        }
      ],
      "name": "balanceOf",
      "outputs": [
        {
          "internalType": "uint256",
          "name": "",
          "type": "uint256"
        }
      ],
      "stateMutability": "view",
      "type": "function"
    },
    {
      "inputs": [],
      "name": "contractURI",
      "outputs": [
        {
          "internalType": "string",
          "name": "",
          "type": "string"
        }
      ],
      "stateMutability": "view",
      "type": "function"
    },
    {
      "inputs": [
        {
          "internalType": "uint256",
          "name": "tokenId",
          "type": "uint256"
        }
      ],
      "name": "getApproved",
      "outputs": [
        {
          "internalType": "address",
          "name": "",
          "type": "address"
        }
      ],
      "stateMutability": "view",
      "type": "function"
    },
    {
      "inputs": [
        {
          "internalType": "address",
          "name": "owner",
          "type": "address"
        },
        {
          "internalType": "address",
          "name": "operator",
          "type": "address"
        }
      ],
      "name": "isApprovedForAll",
      "outputs": [
        {
          "internalType": "bool",
          "name": "",
          "type": "bool"
        }
      ],
      "stateMutability": "view",
      "type": "function"
    },
    {
      "inputs": [],
      "name": "name",
      "outputs": [
        {
          "internalType": "string",
          "name": "",
          "type": "string"
        }
      ],
      "stateMutability": "view",
      "type": "function"
    },
    {
      "inputs": [],
      "name": "owner",
      "outputs": [
        {
          "internalType": "address",
          "name": "",
          "type": "address"
        }
      ],
      "stateMutability": "view",
      "type": "function"
    },
    {
      "inputs": [
        {
          "internalType": "uint256",
          "name": "tokenId",
          "type": "uint256"
        }
      ],
      "name": "ownerOf",
      "outputs": [
        {
          "internalType": "address",
          "name": "",
          "type": "address"
        }
      ],
      "stateMutability": "view",
      "type": "function"
    },
    {
      "inputs": [],
      "name": "renounceOwnership",
      "outputs": [],
      "stateMutability": "nonpayable",
      "type": "function"
    },
    {
      "inputs": [
        {
          "internalType": "address",
          "name": "from",
          "type": "address"
        },
        {
          "internalType": "address",
          "name": "to",
          "type": "address"
        },
        {
          "internalType": "uint256",
          "name": "tokenId",
          "type": "uint256"
        }
      ],
      "name": "safeTransferFrom",
      "outputs": [],
      "stateMutability": "nonpayable",
      "type": "function"
    },
    {
      "inputs": [
        {
          "internalType": "address",
          "name": "from",
          "type": "address"
        },
        {
          "internalType": "address",
          "name": "to",
          "type": "address"
        },
        {
          "internalType": "uint256",
          "name": "tokenId",
          "type": "uint256"
        },
        {
          "internalType": "bytes",
          "name": "_data",
          "type": "bytes"
        }
      ],
      "name": "safeTransferFrom",
      "outputs": [],
      "stateMutability": "nonpayable",
      "type": "function"
    },
    {
      "inputs": [
        {
          "internalType": "address",
          "name": "operator",
          "type": "address"
        },
        {
          "internalType": "bool",
          "name": "approved",
          "type": "bool"
        }
      ],
      "name": "setApprovalForAll",
      "outputs": [],
      "stateMutability": "nonpayable",
      "type": "function"
    },
    {
      "inputs": [
        {
          "internalType": "bytes4",
          "name": "interfaceId",
          "type": "bytes4"
        }
      ],
      "name": "supportsInterface",
      "outputs": [
        {
          "internalType": "bool",
          "name": "",
          "type": "bool"
        }
      ],
      "stateMutability": "view",
      "type": "function"
    },
    {
      "inputs": [],
      "name": "symbol",
      "outputs": [
        {
          "internalType": "string",
          "name": "",
          "type": "string"
        }
      ],
      "stateMutability": "view",
      "type": "function"
    },
    {
      "inputs": [
        {
          "internalType": "uint256",
          "name": "tokenId",
          "type": "uint256"
        }
      ],
      "name": "tokenURI",
      "outputs": [
        {
          "internalType": "string",
          "name": "",
          "type": "string"
        }
      ],
      "stateMutability": "view",
      "type": "function"
    },
    {
      "inputs": [
        {
          "internalType": "address",
          "name": "from",
          "type": "address"
        },
        {
          "internalType": "address",
          "name": "to",
          "type": "address"
        },
        {
          "internalType": "uint256",
          "name": "tokenId",
          "type": "uint256"
        }
      ],
      "name": "transferFrom",
      "outputs": [],
      "stateMutability": "nonpayable",
      "type": "function"
    },
    {
      "inputs": [
        {
          "internalType": "address",
          "name": "newOwner",
          "type": "address"
        }
      ],
      "name": "transferOwnership",
      "outputs": [],
      "stateMutability": "nonpayable",
      "type": "function"
    }
  ],
  "bytecode": "0x60806040523480156200001157600080fd5b5060405162001872380380620018728339810160408190526200003491620001ab565b82826000620000448382620002cb565b506001620000538282620002cb565b505050620000706200006a6200008860201b60201c565b6200008c565b60076200007e8282620002cb565b5050505062000397565b3390565b600680546001600160a01b038381166001600160a01b0319831681179093556040519116919082907f8be0079c531659141344cd1fd0a4f28419497f9722a3daafe3b4186f6b6457e090600090a35050565b634e487b7160e01b600052604160045260246000fd5b600082601f8301126200010657600080fd5b81516001600160401b0380821115620001235762000123620000de565b604051601f8301601f19908116603f011681019082821181831017156200014e576200014e620000de565b816040528381526020925086838588010111156200016b57600080fd5b600091505b838210156200018f578582018301518183018401529082019062000170565b83821115620001a15760008385830101525b9695505050505050565b600080600060608486031215620001c157600080fd5b83516001600160401b0380821115620001d957600080fd5b620001e787838801620000f4565b94506020860151915080821115620001fe57600080fd5b6200020c87838801620000f4565b935060408601519150808211156200022357600080fd5b506200023286828701620000f4565b9150509250925092565b600181811c908216806200025157607f821691505b6020821081036200027257634e487b7160e01b600052602260045260246000fd5b50919050565b601f821115620002c657600081815260208120601f850160051c81016020861015620002a15750805b601f850160051c820191505b81811015620002c257828155600101620002ad565b5050505b505050565b81516001600160401b03811115620002e757620002e7620000de565b620002ff81620002f884546200023c565b8462000278565b602080601f8311600181146200033757600084156200031e5750858301515b600019600386901b1c1916600185901b178555620002c2565b600085815260208120601f198616915b82811015620003685788860151825594840194600190910190840162000347565b5085821015620003875787850151600019600388901b60f8161c191681555b5050505050600190811b01905550565b6114cb80620003a76000396000f3fe608060405234801561001057600080fd5b506004361061010b5760003560e01c8063715018a6116100a2578063b88d4fde11610071578063b88d4fde1461021b578063c87b56dd1461022e578063e8a3d48514610241578063e985e9c514610249578063f2fde38b1461028557600080fd5b8063715018a6146101e75780638da5cb5b146101ef57806395d89b4114610200578063a22cb4651461020857600080fd5b806323b872dd116100de57806323b872dd1461018d57806342842e0e146101a05780636352211e146101b357806370a08231146101c657600080fd5b806301ffc9a71461011057806306fdde0314610138578063081812fc1461014d578063095ea7b314610178575b600080fd5b61012361011e366004610fde565b610298565b60405190151581526020015b60405180910390f35b6101406102ea565b60405161012f9190611053565b61016061015b366004611066565b61037c565b6040516001600160a01b03909116815260200161012f565b61018b61018636600461109b565b610416565b005b61018b61019b3660046110c5565b61052b565b61018b6101ae3660046110c5565b61055c565b6101606101c1366004611066565b610577565b6101d96101d4366004611101565b6105ee565b60405190815260200161012f565b61018b610675565b6006546001600160a01b0316610160565b6101406106db565b61018b61021636600461111c565b6106ea565b61018b61022936600461116e565b6106f9565b61014061023c366004611066565b610731565b610140610819565b61012361025736600461124a565b6001600160a01b03918216600090815260056020908152604080832093909416825291909152205460ff1690565b61018b610293366004611101565b6108a7565b60006001600160e01b031982166380ac58cd60e01b14806102c957506001600160e01b03198216635b5e139f60e01b145b806102e457506301ffc9a760e01b6001600160e01b03198316145b92915050565b6060600080546102f99061127d565b80601f01602080910402602001604051908101604052809291908181526020018280546103259061127d565b80156103725780601f1061034757610100808354040283529160200191610372565b820191906000526020600020905b81548152906001019060200180831161035557829003601f168201915b5050505050905090565b6000818152600260205260408120546001600160a01b03166103fa5760405162461bcd60e51b815260206004820152602c60248201527f4552433732313a20617070726f76656420717565727920666f72206e6f6e657860448201526b34b9ba32b73a103a37b5b2b760a11b60648201526084015b60405180910390fd5b506000908152600460205260409020546001600160a01b031690565b600061042182610577565b9050806001600160a01b0316836001600160a01b03160361048e5760405162461bcd60e51b815260206004820152602160248201527f4552433732313a20617070726f76616c20746f2063757272656e74206f776e656044820152603960f91b60648201526084016103f1565b336001600160a01b03821614806104aa57506104aa8133610257565b61051c5760405162461bcd60e51b815260206004820152603860248201527f4552433732313a20617070726f76652063616c6c6572206973206e6f74206f7760448201527f6e6572206e6f7220617070726f76656420666f7220616c6c000000000000000060648201526084016103f1565b6105268383610972565b505050565b61053533826109e0565b6105515760405162461bcd60e51b81526004016103f1906112b7565b610526838383610ad7565b610526838383604051806020016040528060008152506106f9565b6000818152600260205260408120546001600160a01b0316806102e45760405162461bcd60e51b815260206004820152602960248201527f4552433732313a206f776e657220717565727920666f72206e6f6e657869737460448201526832b73a103a37b5b2b760b91b60648201526084016103f1565b60006001600160a01b0382166106595760405162461bcd60e51b815260206004820152602a60248201527f4552433732313a2062616c616e636520717565727920666f7220746865207a65604482015269726f206164647265737360b01b60648201526084016103f1565b506001600160a01b031660009081526003602052604090205490565b6006546001600160a01b031633146106cf5760405162461bcd60e51b815260206004820181905260248201527f4f776e61626c653a2063616c6c6572206973206e6f7420746865206f776e657260448201526064016103f1565b6106d96000610c73565b565b6060600180546102f99061127d565b6106f5338383610cc5565b5050565b61070333836109e0565b61071f5760405162461bcd60e51b81526004016103f1906112b7565b61072b84848484610d93565b50505050565b6000818152600260205260409020546060906001600160a01b03166107b05760405162461bcd60e51b815260206004820152602f60248201527f4552433732314d657461646174613a2055524920717565727920666f72206e6f60448201526e3732bc34b9ba32b73a103a37b5b2b760891b60648201526084016103f1565b60006107c760408051602081019091526000815290565b905060008151116107e75760405180602001604052806000815250610812565b806107f184610dc6565b604051602001610802929190611308565b6040516020818303038152906040525b9392505050565b600780546108269061127d565b80601f01602080910402602001604051908101604052809291908181526020018280546108529061127d565b801561089f5780601f106108745761010080835404028352916020019161089f565b820191906000526020600020905b81548152906001019060200180831161088257829003601f168201915b505050505081565b6006546001600160a01b031633146109015760405162461bcd60e51b815260206004820181905260248201527f4f776e61626c653a2063616c6c6572206973206e6f7420746865206f776e657260448201526064016103f1565b6001600160a01b0381166109665760405162461bcd60e51b815260206004820152602660248201527f4f776e61626c653a206e6577206f776e657220697320746865207a65726f206160448201526564647265737360d01b60648201526084016103f1565b61096f81610c73565b50565b600081815260046020526040902080546001600160a01b0319166001600160a01b03841690811790915581906109a782610577565b6001600160a01b03167f8c5be1e5ebec7d5bd14f71427d1e84f3dd0314c0f7b2291e5b200ac8c7c3b92560405160405180910390a45050565b6000818152600260205260408120546001600160a01b0316610a595760405162461bcd60e51b815260206004820152602c60248201527f4552433732313a206f70657261746f7220717565727920666f72206e6f6e657860448201526b34b9ba32b73a103a37b5b2b760a11b60648201526084016103f1565b6000610a6483610577565b9050806001600160a01b0316846001600160a01b03161480610aab57506001600160a01b0380821660009081526005602090815260408083209388168352929052205460ff165b80610acf5750836001600160a01b0316610ac48461037c565b6001600160a01b0316145b949350505050565b826001600160a01b0316610aea82610577565b6001600160a01b031614610b4e5760405162461bcd60e51b815260206004820152602560248201527f4552433732313a207472616e736665722066726f6d20696e636f72726563742060448201526437bbb732b960d91b60648201526084016103f1565b6001600160a01b038216610bb05760405162461bcd60e51b8152602060048201526024808201527f4552433732313a207472616e7366657220746f20746865207a65726f206164646044820152637265737360e01b60648201526084016103f1565b610bbb600082610972565b6001600160a01b0383166000908152600360205260408120805460019290610be490849061134d565b90915550506001600160a01b0382166000908152600360205260408120805460019290610c12908490611364565b909155505060008181526002602052604080822080546001600160a01b0319166001600160a01b0386811691821790925591518493918716917fddf252ad1be2c89b69c2b068fc378daa952ba7f163c4a11628f55a4df523b3ef91a4505050565b600680546001600160a01b038381166001600160a01b0319831681179093556040519116919082907f8be0079c531659141344cd1fd0a4f28419497f9722a3daafe3b4186f6b6457e090600090a35050565b816001600160a01b0316836001600160a01b031603610d265760405162461bcd60e51b815260206004820152601960248201527f4552433732313a20617070726f766520746f2063616c6c65720000000000000060448201526064016103f1565b6001600160a01b03838116600081815260056020908152604080832094871680845294825291829020805460ff191686151590811790915591519182527f17307eab39ab6107e8899845ad3d59bd9653f200f220920489ca2b5937696c31910160405180910390a3505050565b610d9e848484610ad7565b610daa84848484610ec7565b61072b5760405162461bcd60e51b81526004016103f19061137c565b606081600003610ded5750506040805180820190915260018152600360fc1b602082015290565b8160005b8115610e175780610e01816113ce565b9150610e109050600a836113fd565b9150610df1565b60008167ffffffffffffffff811115610e3257610e32611158565b6040519080825280601f01601f191660200182016040528015610e5c576020820181803683370190505b5090505b8415610acf57610e7160018361134d565b9150610e7e600a86611411565b610e89906030611364565b60f81b818381518110610e9e57610e9e611425565b60200101906001600160f81b031916908160001a905350610ec0600a866113fd565b9450610e60565b60006001600160a01b0384163b15610fbd57604051630a85bd0160e11b81526001600160a01b0385169063150b7a0290610f0b90339089908890889060040161143b565b6020604051808303816000875af1925050508015610f46575060408051601f3d908101601f19168201909252610f4391810190611478565b60015b610fa3573d808015610f74576040519150601f19603f3d011682016040523d82523d6000602084013e610f79565b606091505b508051600003610f9b5760405162461bcd60e51b81526004016103f19061137c565b805181602001fd5b6001600160e01b031916630a85bd0160e11b149050610acf565b506001949350505050565b6001600160e01b03198116811461096f57600080fd5b600060208284031215610ff057600080fd5b813561081281610fc8565b60005b83811015611016578181015183820152602001610ffe565b8381111561072b5750506000910152565b6000815180845261103f816020860160208601610ffb565b601f01601f19169290920160200192915050565b6020815260006108126020830184611027565b60006020828403121561107857600080fd5b5035919050565b80356001600160a01b038116811461109657600080fd5b919050565b600080604083850312156110ae57600080fd5b6110b78361107f565b946020939093013593505050565b6000806000606084860312156110da57600080fd5b6110e38461107f565b92506110f16020850161107f565b9150604084013590509250925092565b60006020828403121561111357600080fd5b6108128261107f565b6000806040838503121561112f57600080fd5b6111388361107f565b91506020830135801515811461114d57600080fd5b809150509250929050565b634e487b7160e01b600052604160045260246000fd5b6000806000806080858703121561118457600080fd5b61118d8561107f565b935061119b6020860161107f565b925060408501359150606085013567ffffffffffffffff808211156111bf57600080fd5b818701915087601f8301126111d357600080fd5b8135818111156111e5576111e5611158565b604051601f8201601f19908116603f0116810190838211818310171561120d5761120d611158565b816040528281528a602084870101111561122657600080fd5b82602086016020830137600060208483010152809550505050505092959194509250565b6000806040838503121561125d57600080fd5b6112668361107f565b91506112746020840161107f565b90509250929050565b600181811c9082168061129157607f821691505b6020821081036112b157634e487b7160e01b600052602260045260246000fd5b50919050565b60208082526031908201527f4552433732313a207472616e736665722063616c6c6572206973206e6f74206f6040820152701ddb995c881b9bdc88185c1c1c9bdd9959607a1b606082015260800190565b6000835161131a818460208801610ffb565b83519083019061132e818360208801610ffb565b01949350505050565b634e487b7160e01b600052601160045260246000fd5b60008282101561135f5761135f611337565b500390565b6000821982111561137757611377611337565b500190565b60208082526032908201527f4552433732313a207472616e7366657220746f206e6f6e20455243373231526560408201527131b2b4bb32b91034b6b83632b6b2b73a32b960711b606082015260800190565b6000600182016113e0576113e0611337565b5060010190565b634e487b7160e01b600052601260045260246000fd5b60008261140c5761140c6113e7565b500490565b600082611420576114206113e7565b500690565b634e487b7160e01b600052603260045260246000fd5b6001600160a01b038581168252841660208201526040810183905260806060820181905260009061146e90830184611027565b9695505050505050565b60006020828403121561148a57600080fd5b815161081281610fc856fea2646970667358221220546d146fb9f7bdf5de28de91fef7b1f5afd29651c7ae3acbbd6837bfd7500f0264736f6c634300080f0033",
  "linkReferences": {},
  "deployedLinkReferences": {}
}