{
  "_format": "hh-sol-artifact-1",
  "contractName": "ERC721CopyDistribution",
  "sourceName": "src/backend/contracts/ERC721CopyDistribution.sol",
  "abi": [
    {
      "inputs": [
        {
          "internalType": "string",
          "name": "name",
          "type": "string"
        },
        {
          "internalType": "string",
          "name": "symbol",
          "type": "string"
        },
        {
          "internalType": "string",
          "name": "uri",
          "type": "string"
        }
      ],
      "stateMutability": "nonpayable",
      "type": "constructor"
    },
    {
      "anonymous": false,
      "inputs": [
        {
          "indexed": true,
          "internalType": "address",
          "name": "owner",
          "type": "address"
        },
        {
          "indexed": true,
          "internalType": "address",
          "name": "approved",
          "type": "address"
        },
        {
          "indexed": true,
          "internalType": "uint256",
          "name": "tokenId",
          "type": "uint256"
        }
      ],
      "name": "Approval",
      "type": "event"
    },
    {
      "anonymous": false,
      "inputs": [
        {
          "indexed": true,
          "internalType": "address",
          "name": "owner",
          "type": "address"
        },
        {
          "indexed": true,
          "internalType": "address",
          "name": "operator",
          "type": "address"
        },
        {
          "indexed": false,
          "internalType": "bool",
          "name": "approved",
          "type": "bool"
        }
      ],
      "name": "ApprovalForAll",
      "type": "event"
    },
    {
      "anonymous": false,
      "inputs": [
        {
          "indexed": true,
          "internalType": "address",
          "name": "previousOwner",
          "type": "address"
        },
        {
          "indexed": true,
          "internalType": "address",
          "name": "newOwner",
          "type": "address"
        }
      ],
      "name": "OwnershipTransferred",
      "type": "event"
    },
    {
      "anonymous": false,
      "inputs": [
        {
          "indexed": true,
          "internalType": "address",
          "name": "from",
          "type": "address"
        },
        {
          "indexed": true,
          "internalType": "address",
          "name": "to",
          "type": "address"
        },
        {
          "indexed": true,
          "internalType": "uint256",
          "name": "tokenId",
          "type": "uint256"
        }
      ],
      "name": "Transfer",
      "type": "event"
    },
    {
      "inputs": [
        {
          "internalType": "address",
          "name": "to",
          "type": "address"
        },
        {
          "internalType": "uint256",
          "name": "tokenId",
          "type": "uint256"
        }
      ],
      "name": "approve",
      "outputs": [],
      "stateMutability": "nonpayable",
      "type": "function"
    },
    {
      "inputs": [
        {
          "internalType": "address",
          "name": "owner",
          "type": "address"
        }
      ],
      "name": "balanceOf",
      "outputs": [
        {
          "internalType": "uint256",
          "name": "",
          "type": "uint256"
        }
      ],
      "stateMutability": "view",
      "type": "function"
    },
    {
      "inputs": [],
      "name": "contractURI",
      "outputs": [
        {
          "internalType": "string",
          "name": "",
          "type": "string"
        }
      ],
      "stateMutability": "view",
      "type": "function"
    },
    {
      "inputs": [
        {
          "internalType": "uint256",
          "name": "tokenId",
          "type": "uint256"
        }
      ],
      "name": "getApproved",
      "outputs": [
        {
          "internalType": "address",
          "name": "",
          "type": "address"
        }
      ],
      "stateMutability": "view",
      "type": "function"
    },
    {
      "inputs": [
        {
          "internalType": "address",
          "name": "owner",
          "type": "address"
        },
        {
          "internalType": "address",
          "name": "operator",
          "type": "address"
        }
      ],
      "name": "isApprovedForAll",
      "outputs": [
        {
          "internalType": "bool",
          "name": "",
          "type": "bool"
        }
      ],
      "stateMutability": "view",
      "type": "function"
    },
    {
      "inputs": [],
      "name": "name",
      "outputs": [
        {
          "internalType": "string",
          "name": "",
          "type": "string"
        }
      ],
      "stateMutability": "view",
      "type": "function"
    },
    {
      "inputs": [],
      "name": "owner",
      "outputs": [
        {
          "internalType": "address",
          "name": "",
          "type": "address"
        }
      ],
      "stateMutability": "view",
      "type": "function"
    },
    {
      "inputs": [
        {
          "internalType": "uint256",
          "name": "tokenId",
          "type": "uint256"
        }
      ],
      "name": "ownerOf",
      "outputs": [
        {
          "internalType": "address",
          "name": "",
          "type": "address"
        }
      ],
      "stateMutability": "view",
      "type": "function"
    },
    {
      "inputs": [],
      "name": "renounceOwnership",
      "outputs": [],
      "stateMutability": "nonpayable",
      "type": "function"
    },
    {
      "inputs": [
        {
          "internalType": "address",
          "name": "from",
          "type": "address"
        },
        {
          "internalType": "address",
          "name": "to",
          "type": "address"
        },
        {
          "internalType": "uint256",
          "name": "tokenId",
          "type": "uint256"
        }
      ],
      "name": "safeTransferFrom",
      "outputs": [],
      "stateMutability": "nonpayable",
      "type": "function"
    },
    {
      "inputs": [
        {
          "internalType": "address",
          "name": "from",
          "type": "address"
        },
        {
          "internalType": "address",
          "name": "to",
          "type": "address"
        },
        {
          "internalType": "uint256",
          "name": "tokenId",
          "type": "uint256"
        },
        {
          "internalType": "bytes",
          "name": "_data",
          "type": "bytes"
        }
      ],
      "name": "safeTransferFrom",
      "outputs": [],
      "stateMutability": "nonpayable",
      "type": "function"
    },
    {
      "inputs": [
        {
          "internalType": "address",
          "name": "operator",
          "type": "address"
        },
        {
          "internalType": "bool",
          "name": "approved",
          "type": "bool"
        }
      ],
      "name": "setApprovalForAll",
      "outputs": [],
      "stateMutability": "nonpayable",
      "type": "function"
    },
    {
      "inputs": [
        {
          "internalType": "bytes4",
          "name": "interfaceId",
          "type": "bytes4"
        }
      ],
      "name": "supportsInterface",
      "outputs": [
        {
          "internalType": "bool",
          "name": "",
          "type": "bool"
        }
      ],
      "stateMutability": "view",
      "type": "function"
    },
    {
      "inputs": [],
      "name": "symbol",
      "outputs": [
        {
          "internalType": "string",
          "name": "",
          "type": "string"
        }
      ],
      "stateMutability": "view",
      "type": "function"
    },
    {
      "inputs": [
        {
          "internalType": "uint256",
          "name": "tokenId",
          "type": "uint256"
        }
      ],
      "name": "tokenURI",
      "outputs": [
        {
          "internalType": "string",
          "name": "",
          "type": "string"
        }
      ],
      "stateMutability": "view",
      "type": "function"
    },
    {
      "inputs": [
        {
          "internalType": "address",
          "name": "from",
          "type": "address"
        },
        {
          "internalType": "address",
          "name": "to",
          "type": "address"
        },
        {
          "internalType": "uint256",
          "name": "tokenId",
          "type": "uint256"
        }
      ],
      "name": "transferFrom",
      "outputs": [],
      "stateMutability": "nonpayable",
      "type": "function"
    },
    {
      "inputs": [
        {
          "internalType": "address",
          "name": "newOwner",
          "type": "address"
        }
      ],
      "name": "transferOwnership",
      "outputs": [],
      "stateMutability": "nonpayable",
      "type": "function"
    }
  ],
  "bytecode": "0x60806040523480156200001157600080fd5b5060405162002f6f38038062002f6f833981810160405281019062000037919062000305565b828281600090816200004a919062000609565b5080600190816200005c919062000609565b5050506200007f620000736200009a60201b60201c565b620000a260201b60201c565b806007908162000090919062000609565b50505050620006f0565b600033905090565b6000600660009054906101000a900473ffffffffffffffffffffffffffffffffffffffff16905081600660006101000a81548173ffffffffffffffffffffffffffffffffffffffff021916908373ffffffffffffffffffffffffffffffffffffffff1602179055508173ffffffffffffffffffffffffffffffffffffffff168173ffffffffffffffffffffffffffffffffffffffff167f8be0079c531659141344cd1fd0a4f28419497f9722a3daafe3b4186f6b6457e060405160405180910390a35050565b6000604051905090565b600080fd5b600080fd5b600080fd5b600080fd5b6000601f19601f8301169050919050565b7f4e487b7100000000000000000000000000000000000000000000000000000000600052604160045260246000fd5b620001d18262000186565b810181811067ffffffffffffffff82111715620001f357620001f262000197565b5b80604052505050565b60006200020862000168565b9050620002168282620001c6565b919050565b600067ffffffffffffffff82111562000239576200023862000197565b5b620002448262000186565b9050602081019050919050565b60005b838110156200027157808201518184015260208101905062000254565b8381111562000281576000848401525b50505050565b60006200029e62000298846200021b565b620001fc565b905082815260208101848484011115620002bd57620002bc62000181565b5b620002ca84828562000251565b509392505050565b600082601f830112620002ea57620002e96200017c565b5b8151620002fc84826020860162000287565b91505092915050565b60008060006060848603121562000321576200032062000172565b5b600084015167ffffffffffffffff81111562000342576200034162000177565b5b6200035086828701620002d2565b935050602084015167ffffffffffffffff81111562000374576200037362000177565b5b6200038286828701620002d2565b925050604084015167ffffffffffffffff811115620003a657620003a562000177565b5b620003b486828701620002d2565b9150509250925092565b600081519050919050565b7f4e487b7100000000000000000000000000000000000000000000000000000000600052602260045260246000fd5b600060028204905060018216806200041157607f821691505b602082108103620004275762000426620003c9565b5b50919050565b60008190508160005260206000209050919050565b60006020601f8301049050919050565b600082821b905092915050565b600060088302620004917fffffffffffffffffffffffffffffffffffffffffffffffffffffffffffffffff8262000452565b6200049d868362000452565b95508019841693508086168417925050509392505050565b6000819050919050565b6000819050919050565b6000620004ea620004e4620004de84620004b5565b620004bf565b620004b5565b9050919050565b6000819050919050565b6200050683620004c9565b6200051e6200051582620004f1565b8484546200045f565b825550505050565b600090565b6200053562000526565b62000542818484620004fb565b505050565b5b818110156200056a576200055e6000826200052b565b60018101905062000548565b5050565b601f821115620005b95762000583816200042d565b6200058e8462000442565b810160208510156200059e578190505b620005b6620005ad8562000442565b83018262000547565b50505b505050565b600082821c905092915050565b6000620005de60001984600802620005be565b1980831691505092915050565b6000620005f98383620005cb565b9150826002028217905092915050565b6200061482620003be565b67ffffffffffffffff81111562000630576200062f62000197565b5b6200063c8254620003f8565b620006498282856200056e565b600060209050601f8311600181146200068157600084156200066c578287015190505b620006788582620005eb565b865550620006e8565b601f19841662000691866200042d565b60005b82811015620006bb5784890151825560018201915060208501945060208101905062000694565b86831015620006db5784890151620006d7601f891682620005cb565b8355505b6001600288020188555050505b505050505050565b61286f80620007006000396000f3fe608060405234801561001057600080fd5b506004361061010b5760003560e01c8063715018a6116100a2578063b88d4fde11610071578063b88d4fde146102a4578063c87b56dd146102c0578063e8a3d485146102f0578063e985e9c51461030e578063f2fde38b1461033e5761010b565b8063715018a6146102425780638da5cb5b1461024c57806395d89b411461026a578063a22cb465146102885761010b565b806323b872dd116100de57806323b872dd146101aa57806342842e0e146101c65780636352211e146101e257806370a08231146102125761010b565b806301ffc9a71461011057806306fdde0314610140578063081812fc1461015e578063095ea7b31461018e575b600080fd5b61012a600480360381019061012591906117ce565b61035a565b6040516101379190611816565b60405180910390f35b61014861043c565b60405161015591906118ca565b60405180910390f35b61017860048036038101906101739190611922565b6104ce565b6040516101859190611990565b60405180910390f35b6101a860048036038101906101a391906119d7565b610553565b005b6101c460048036038101906101bf9190611a17565b61066a565b005b6101e060048036038101906101db9190611a17565b6106ca565b005b6101fc60048036038101906101f79190611922565b6106ea565b6040516102099190611990565b60405180910390f35b61022c60048036038101906102279190611a6a565b61079b565b6040516102399190611aa6565b60405180910390f35b61024a610852565b005b6102546108da565b6040516102619190611990565b60405180910390f35b610272610904565b60405161027f91906118ca565b60405180910390f35b6102a2600480360381019061029d9190611aed565b610996565b005b6102be60048036038101906102b99190611c62565b6109ac565b005b6102da60048036038101906102d59190611922565b610a0e565b6040516102e791906118ca565b60405180910390f35b6102f8610ab5565b60405161030591906118ca565b60405180910390f35b61032860048036038101906103239190611ce5565b610b43565b6040516103359190611816565b60405180910390f35b61035860048036038101906103539190611a6a565b610bd7565b005b60007f80ac58cd000000000000000000000000000000000000000000000000000000007bffffffffffffffffffffffffffffffffffffffffffffffffffffffff1916827bffffffffffffffffffffffffffffffffffffffffffffffffffffffff1916148061042557507f5b5e139f000000000000000000000000000000000000000000000000000000007bffffffffffffffffffffffffffffffffffffffffffffffffffffffff1916827bffffffffffffffffffffffffffffffffffffffffffffffffffffffff1916145b80610435575061043482610cce565b5b9050919050565b60606000805461044b90611d54565b80601f016020809104026020016040519081016040528092919081815260200182805461047790611d54565b80156104c45780601f10610499576101008083540402835291602001916104c4565b820191906000526020600020905b8154815290600101906020018083116104a757829003601f168201915b5050505050905090565b60006104d982610d38565b610518576040517f08c379a000000000000000000000000000000000000000000000000000000000815260040161050f90611df7565b60405180910390fd5b6004600083815260200190815260200160002060009054906101000a900473ffffffffffffffffffffffffffffffffffffffff169050919050565b600061055e826106ea565b90508073ffffffffffffffffffffffffffffffffffffffff168373ffffffffffffffffffffffffffffffffffffffff16036105ce576040517f08c379a00000000000000000000000000000000000000000000000000000000081526004016105c590611e89565b60405180910390fd5b8073ffffffffffffffffffffffffffffffffffffffff166105ed610da4565b73ffffffffffffffffffffffffffffffffffffffff16148061061c575061061b81610616610da4565b610b43565b5b61065b576040517f08c379a000000000000000000000000000000000000000000000000000000000815260040161065290611f1b565b60405180910390fd5b6106658383610dac565b505050565b61067b610675610da4565b82610e65565b6106ba576040517f08c379a00000000000000000000000000000000000000000000000000000000081526004016106b190611fad565b60405180910390fd5b6106c5838383610f43565b505050565b6106e5838383604051806020016040528060008152506109ac565b505050565b6000806002600084815260200190815260200160002060009054906101000a900473ffffffffffffffffffffffffffffffffffffffff169050600073ffffffffffffffffffffffffffffffffffffffff168173ffffffffffffffffffffffffffffffffffffffff1603610792576040517f08c379a00000000000000000000000000000000000000000000000000000000081526004016107899061203f565b60405180910390fd5b80915050919050565b60008073ffffffffffffffffffffffffffffffffffffffff168273ffffffffffffffffffffffffffffffffffffffff160361080b576040517f08c379a0000000000000000000000000000000000000000000000000000000008152600401610802906120d1565b60405180910390fd5b600360008373ffffffffffffffffffffffffffffffffffffffff1673ffffffffffffffffffffffffffffffffffffffff168152602001908152602001600020549050919050565b61085a610da4565b73ffffffffffffffffffffffffffffffffffffffff166108786108da565b73ffffffffffffffffffffffffffffffffffffffff16146108ce576040517f08c379a00000000000000000000000000000000000000000000000000000000081526004016108c59061213d565b60405180910390fd5b6108d860006111a9565b565b6000600660009054906101000a900473ffffffffffffffffffffffffffffffffffffffff16905090565b60606001805461091390611d54565b80601f016020809104026020016040519081016040528092919081815260200182805461093f90611d54565b801561098c5780601f106109615761010080835404028352916020019161098c565b820191906000526020600020905b81548152906001019060200180831161096f57829003601f168201915b5050505050905090565b6109a86109a1610da4565b838361126f565b5050565b6109bd6109b7610da4565b83610e65565b6109fc576040517f08c379a00000000000000000000000000000000000000000000000000000000081526004016109f390611fad565b60405180910390fd5b610a08848484846113db565b50505050565b6060610a1982610d38565b610a58576040517f08c379a0000000000000000000000000000000000000000000000000000000008152600401610a4f906121cf565b60405180910390fd5b6000610a62611437565b90506000815111610a825760405180602001604052806000815250610aad565b80610a8c8461144e565b604051602001610a9d92919061222b565b6040516020818303038152906040525b915050919050565b60078054610ac290611d54565b80601f0160208091040260200160405190810160405280929190818152602001828054610aee90611d54565b8015610b3b5780601f10610b1057610100808354040283529160200191610b3b565b820191906000526020600020905b815481529060010190602001808311610b1e57829003601f168201915b505050505081565b6000600560008473ffffffffffffffffffffffffffffffffffffffff1673ffffffffffffffffffffffffffffffffffffffff16815260200190815260200160002060008373ffffffffffffffffffffffffffffffffffffffff1673ffffffffffffffffffffffffffffffffffffffff16815260200190815260200160002060009054906101000a900460ff16905092915050565b610bdf610da4565b73ffffffffffffffffffffffffffffffffffffffff16610bfd6108da565b73ffffffffffffffffffffffffffffffffffffffff1614610c53576040517f08c379a0000000000000000000000000000000000000000000000000000000008152600401610c4a9061213d565b60405180910390fd5b600073ffffffffffffffffffffffffffffffffffffffff168173ffffffffffffffffffffffffffffffffffffffff1603610cc2576040517f08c379a0000000000000000000000000000000000000000000000000000000008152600401610cb9906122c1565b60405180910390fd5b610ccb816111a9565b50565b60007f01ffc9a7000000000000000000000000000000000000000000000000000000007bffffffffffffffffffffffffffffffffffffffffffffffffffffffff1916827bffffffffffffffffffffffffffffffffffffffffffffffffffffffff1916149050919050565b60008073ffffffffffffffffffffffffffffffffffffffff166002600084815260200190815260200160002060009054906101000a900473ffffffffffffffffffffffffffffffffffffffff1673ffffffffffffffffffffffffffffffffffffffff1614159050919050565b600033905090565b816004600083815260200190815260200160002060006101000a81548173ffffffffffffffffffffffffffffffffffffffff021916908373ffffffffffffffffffffffffffffffffffffffff160217905550808273ffffffffffffffffffffffffffffffffffffffff16610e1f836106ea565b73ffffffffffffffffffffffffffffffffffffffff167f8c5be1e5ebec7d5bd14f71427d1e84f3dd0314c0f7b2291e5b200ac8c7c3b92560405160405180910390a45050565b6000610e7082610d38565b610eaf576040517f08c379a0000000000000000000000000000000000000000000000000000000008152600401610ea690612353565b60405180910390fd5b6000610eba836106ea565b90508073ffffffffffffffffffffffffffffffffffffffff168473ffffffffffffffffffffffffffffffffffffffff161480610efc5750610efb8185610b43565b5b80610f3a57508373ffffffffffffffffffffffffffffffffffffffff16610f22846104ce565b73ffffffffffffffffffffffffffffffffffffffff16145b91505092915050565b8273ffffffffffffffffffffffffffffffffffffffff16610f63826106ea565b73ffffffffffffffffffffffffffffffffffffffff1614610fb9576040517f08c379a0000000000000000000000000000000000000000000000000000000008152600401610fb0906123e5565b60405180910390fd5b600073ffffffffffffffffffffffffffffffffffffffff168273ffffffffffffffffffffffffffffffffffffffff1603611028576040517f08c379a000000000000000000000000000000000000000000000000000000000815260040161101f90612477565b60405180910390fd5b6110338383836115ae565b61103e600082610dac565b6001600360008573ffffffffffffffffffffffffffffffffffffffff1673ffffffffffffffffffffffffffffffffffffffff168152602001908152602001600020600082825461108e91906124c6565b925050819055506001600360008473ffffffffffffffffffffffffffffffffffffffff1673ffffffffffffffffffffffffffffffffffffffff16815260200190815260200160002060008282546110e591906124fa565b92505081905550816002600083815260200190815260200160002060006101000a81548173ffffffffffffffffffffffffffffffffffffffff021916908373ffffffffffffffffffffffffffffffffffffffff160217905550808273ffffffffffffffffffffffffffffffffffffffff168473ffffffffffffffffffffffffffffffffffffffff167fddf252ad1be2c89b69c2b068fc378daa952ba7f163c4a11628f55a4df523b3ef60405160405180910390a46111a48383836115b3565b505050565b6000600660009054906101000a900473ffffffffffffffffffffffffffffffffffffffff16905081600660006101000a81548173ffffffffffffffffffffffffffffffffffffffff021916908373ffffffffffffffffffffffffffffffffffffffff1602179055508173ffffffffffffffffffffffffffffffffffffffff168173ffffffffffffffffffffffffffffffffffffffff167f8be0079c531659141344cd1fd0a4f28419497f9722a3daafe3b4186f6b6457e060405160405180910390a35050565b8173ffffffffffffffffffffffffffffffffffffffff168373ffffffffffffffffffffffffffffffffffffffff16036112dd576040517f08c379a00000000000000000000000000000000000000000000000000000000081526004016112d49061259c565b60405180910390fd5b80600560008573ffffffffffffffffffffffffffffffffffffffff1673ffffffffffffffffffffffffffffffffffffffff16815260200190815260200160002060008473ffffffffffffffffffffffffffffffffffffffff1673ffffffffffffffffffffffffffffffffffffffff16815260200190815260200160002060006101000a81548160ff0219169083151502179055508173ffffffffffffffffffffffffffffffffffffffff168373ffffffffffffffffffffffffffffffffffffffff167f17307eab39ab6107e8899845ad3d59bd9653f200f220920489ca2b5937696c31836040516113ce9190611816565b60405180910390a3505050565b6113e6848484610f43565b6113f2848484846115b8565b611431576040517f08c379a00000000000000000000000000000000000000000000000000000000081526004016114289061262e565b60405180910390fd5b50505050565b606060405180602001604052806000815250905090565b606060008203611495576040518060400160405280600181526020017f300000000000000000000000000000000000000000000000000000000000000081525090506115a9565b600082905060005b600082146114c75780806114b09061264e565b915050600a826114c091906126c5565b915061149d565b60008167ffffffffffffffff8111156114e3576114e2611b37565b5b6040519080825280601f01601f1916602001820160405280156115155781602001600182028036833780820191505090505b5090505b600085146115a25760018261152e91906124c6565b9150600a8561153d91906126f6565b603061154991906124fa565b60f81b81838151811061155f5761155e612727565b5b60200101907effffffffffffffffffffffffffffffffffffffffffffffffffffffffffffff1916908160001a905350600a8561159b91906126c5565b9450611519565b8093505050505b919050565b505050565b505050565b60006115d98473ffffffffffffffffffffffffffffffffffffffff1661173f565b15611732578373ffffffffffffffffffffffffffffffffffffffff1663150b7a02611602610da4565b8786866040518563ffffffff1660e01b815260040161162494939291906127ab565b6020604051808303816000875af192505050801561166057506040513d601f19601f8201168201806040525081019061165d919061280c565b60015b6116e2573d8060008114611690576040519150601f19603f3d011682016040523d82523d6000602084013e611695565b606091505b5060008151036116da576040517f08c379a00000000000000000000000000000000000000000000000000000000081526004016116d19061262e565b60405180910390fd5b805181602001fd5b63150b7a0260e01b7bffffffffffffffffffffffffffffffffffffffffffffffffffffffff1916817bffffffffffffffffffffffffffffffffffffffffffffffffffffffff191614915050611737565b600190505b949350505050565b6000808273ffffffffffffffffffffffffffffffffffffffff163b119050919050565b6000604051905090565b600080fd5b600080fd5b60007fffffffff0000000000000000000000000000000000000000000000000000000082169050919050565b6117ab81611776565b81146117b657600080fd5b50565b6000813590506117c8816117a2565b92915050565b6000602082840312156117e4576117e361176c565b5b60006117f2848285016117b9565b91505092915050565b60008115159050919050565b611810816117fb565b82525050565b600060208201905061182b6000830184611807565b92915050565b600081519050919050565b600082825260208201905092915050565b60005b8381101561186b578082015181840152602081019050611850565b8381111561187a576000848401525b50505050565b6000601f19601f8301169050919050565b600061189c82611831565b6118a6818561183c565b93506118b681856020860161184d565b6118bf81611880565b840191505092915050565b600060208201905081810360008301526118e48184611891565b905092915050565b6000819050919050565b6118ff816118ec565b811461190a57600080fd5b50565b60008135905061191c816118f6565b92915050565b6000602082840312156119385761193761176c565b5b60006119468482850161190d565b91505092915050565b600073ffffffffffffffffffffffffffffffffffffffff82169050919050565b600061197a8261194f565b9050919050565b61198a8161196f565b82525050565b60006020820190506119a56000830184611981565b92915050565b6119b48161196f565b81146119bf57600080fd5b50565b6000813590506119d1816119ab565b92915050565b600080604083850312156119ee576119ed61176c565b5b60006119fc858286016119c2565b9250506020611a0d8582860161190d565b9150509250929050565b600080600060608486031215611a3057611a2f61176c565b5b6000611a3e868287016119c2565b9350506020611a4f868287016119c2565b9250506040611a608682870161190d565b9150509250925092565b600060208284031215611a8057611a7f61176c565b5b6000611a8e848285016119c2565b91505092915050565b611aa0816118ec565b82525050565b6000602082019050611abb6000830184611a97565b92915050565b611aca816117fb565b8114611ad557600080fd5b50565b600081359050611ae781611ac1565b92915050565b60008060408385031215611b0457611b0361176c565b5b6000611b12858286016119c2565b9250506020611b2385828601611ad8565b9150509250929050565b600080fd5b600080fd5b7f4e487b7100000000000000000000000000000000000000000000000000000000600052604160045260246000fd5b611b6f82611880565b810181811067ffffffffffffffff82111715611b8e57611b8d611b37565b5b80604052505050565b6000611ba1611762565b9050611bad8282611b66565b919050565b600067ffffffffffffffff821115611bcd57611bcc611b37565b5b611bd682611880565b9050602081019050919050565b82818337600083830152505050565b6000611c05611c0084611bb2565b611b97565b905082815260208101848484011115611c2157611c20611b32565b5b611c2c848285611be3565b509392505050565b600082601f830112611c4957611c48611b2d565b5b8135611c59848260208601611bf2565b91505092915050565b60008060008060808587031215611c7c57611c7b61176c565b5b6000611c8a878288016119c2565b9450506020611c9b878288016119c2565b9350506040611cac8782880161190d565b925050606085013567ffffffffffffffff811115611ccd57611ccc611771565b5b611cd987828801611c34565b91505092959194509250565b60008060408385031215611cfc57611cfb61176c565b5b6000611d0a858286016119c2565b9250506020611d1b858286016119c2565b9150509250929050565b7f4e487b7100000000000000000000000000000000000000000000000000000000600052602260045260246000fd5b60006002820490506001821680611d6c57607f821691505b602082108103611d7f57611d7e611d25565b5b50919050565b7f4552433732313a20617070726f76656420717565727920666f72206e6f6e657860008201527f697374656e7420746f6b656e0000000000000000000000000000000000000000602082015250565b6000611de1602c8361183c565b9150611dec82611d85565b604082019050919050565b60006020820190508181036000830152611e1081611dd4565b9050919050565b7f4552433732313a20617070726f76616c20746f2063757272656e74206f776e6560008201527f7200000000000000000000000000000000000000000000000000000000000000602082015250565b6000611e7360218361183c565b9150611e7e82611e17565b604082019050919050565b60006020820190508181036000830152611ea281611e66565b9050919050565b7f4552433732313a20617070726f76652063616c6c6572206973206e6f74206f7760008201527f6e6572206e6f7220617070726f76656420666f7220616c6c0000000000000000602082015250565b6000611f0560388361183c565b9150611f1082611ea9565b604082019050919050565b60006020820190508181036000830152611f3481611ef8565b9050919050565b7f4552433732313a207472616e736665722063616c6c6572206973206e6f74206f60008201527f776e6572206e6f7220617070726f766564000000000000000000000000000000602082015250565b6000611f9760318361183c565b9150611fa282611f3b565b604082019050919050565b60006020820190508181036000830152611fc681611f8a565b9050919050565b7f4552433732313a206f776e657220717565727920666f72206e6f6e657869737460008201527f656e7420746f6b656e0000000000000000000000000000000000000000000000602082015250565b600061202960298361183c565b915061203482611fcd565b604082019050919050565b600060208201905081810360008301526120588161201c565b9050919050565b7f4552433732313a2062616c616e636520717565727920666f7220746865207a6560008201527f726f206164647265737300000000000000000000000000000000000000000000602082015250565b60006120bb602a8361183c565b91506120c68261205f565b604082019050919050565b600060208201905081810360008301526120ea816120ae565b9050919050565b7f4f776e61626c653a2063616c6c6572206973206e6f7420746865206f776e6572600082015250565b600061212760208361183c565b9150612132826120f1565b602082019050919050565b600060208201905081810360008301526121568161211a565b9050919050565b7f4552433732314d657461646174613a2055524920717565727920666f72206e6f60008201527f6e6578697374656e7420746f6b656e0000000000000000000000000000000000602082015250565b60006121b9602f8361183c565b91506121c48261215d565b604082019050919050565b600060208201905081810360008301526121e8816121ac565b9050919050565b600081905092915050565b600061220582611831565b61220f81856121ef565b935061221f81856020860161184d565b80840191505092915050565b600061223782856121fa565b915061224382846121fa565b91508190509392505050565b7f4f776e61626c653a206e6577206f776e657220697320746865207a65726f206160008201527f6464726573730000000000000000000000000000000000000000000000000000602082015250565b60006122ab60268361183c565b91506122b68261224f565b604082019050919050565b600060208201905081810360008301526122da8161229e565b9050919050565b7f4552433732313a206f70657261746f7220717565727920666f72206e6f6e657860008201527f697374656e7420746f6b656e0000000000000000000000000000000000000000602082015250565b600061233d602c8361183c565b9150612348826122e1565b604082019050919050565b6000602082019050818103600083015261236c81612330565b9050919050565b7f4552433732313a207472616e736665722066726f6d20696e636f72726563742060008201527f6f776e6572000000000000000000000000000000000000000000000000000000602082015250565b60006123cf60258361183c565b91506123da82612373565b604082019050919050565b600060208201905081810360008301526123fe816123c2565b9050919050565b7f4552433732313a207472616e7366657220746f20746865207a65726f2061646460008201527f7265737300000000000000000000000000000000000000000000000000000000602082015250565b600061246160248361183c565b915061246c82612405565b604082019050919050565b6000602082019050818103600083015261249081612454565b9050919050565b7f4e487b7100000000000000000000000000000000000000000000000000000000600052601160045260246000fd5b60006124d1826118ec565b91506124dc836118ec565b9250828210156124ef576124ee612497565b5b828203905092915050565b6000612505826118ec565b9150612510836118ec565b9250827fffffffffffffffffffffffffffffffffffffffffffffffffffffffffffffffff0382111561254557612544612497565b5b828201905092915050565b7f4552433732313a20617070726f766520746f2063616c6c657200000000000000600082015250565b600061258660198361183c565b915061259182612550565b602082019050919050565b600060208201905081810360008301526125b581612579565b9050919050565b7f4552433732313a207472616e7366657220746f206e6f6e20455243373231526560008201527f63656976657220696d706c656d656e7465720000000000000000000000000000602082015250565b600061261860328361183c565b9150612623826125bc565b604082019050919050565b600060208201905081810360008301526126478161260b565b9050919050565b6000612659826118ec565b91507fffffffffffffffffffffffffffffffffffffffffffffffffffffffffffffffff820361268b5761268a612497565b5b600182019050919050565b7f4e487b7100000000000000000000000000000000000000000000000000000000600052601260045260246000fd5b60006126d0826118ec565b91506126db836118ec565b9250826126eb576126ea612696565b5b828204905092915050565b6000612701826118ec565b915061270c836118ec565b92508261271c5761271b612696565b5b828206905092915050565b7f4e487b7100000000000000000000000000000000000000000000000000000000600052603260045260246000fd5b600081519050919050565b600082825260208201905092915050565b600061277d82612756565b6127878185612761565b935061279781856020860161184d565b6127a081611880565b840191505092915050565b60006080820190506127c06000830187611981565b6127cd6020830186611981565b6127da6040830185611a97565b81810360608301526127ec8184612772565b905095945050505050565b600081519050612806816117a2565b92915050565b6000602082840312156128225761282161176c565b5b6000612830848285016127f7565b9150509291505056fea2646970667358221220599c3b049fda507c188e18baa39c84ce2e43b4096356969afad5999b2341651a64736f6c634300080f0033",
  "linkReferences": {},
  "deployedLinkReferences": {}
}