{
  "_format": "hh-sol-artifact-1",
  "contractName": "ERC721CopyDistribution",
  "sourceName": "src/backend/contracts/ERC721CopyDistribution.sol",
  "abi": [
    {
      "inputs": [
        {
          "internalType": "string",
          "name": "name",
          "type": "string"
        },
        {
          "internalType": "string",
          "name": "symbol",
          "type": "string"
        },
        {
          "internalType": "string",
          "name": "uri",
          "type": "string"
        }
      ],
      "stateMutability": "nonpayable",
      "type": "constructor"
    },
    {
      "anonymous": false,
      "inputs": [
        {
          "indexed": true,
          "internalType": "address",
          "name": "owner",
          "type": "address"
        },
        {
          "indexed": true,
          "internalType": "address",
          "name": "approved",
          "type": "address"
        },
        {
          "indexed": true,
          "internalType": "uint256",
          "name": "tokenId",
          "type": "uint256"
        }
      ],
      "name": "Approval",
      "type": "event"
    },
    {
      "anonymous": false,
      "inputs": [
        {
          "indexed": true,
          "internalType": "address",
          "name": "owner",
          "type": "address"
        },
        {
          "indexed": true,
          "internalType": "address",
          "name": "operator",
          "type": "address"
        },
        {
          "indexed": false,
          "internalType": "bool",
          "name": "approved",
          "type": "bool"
        }
      ],
      "name": "ApprovalForAll",
      "type": "event"
    },
    {
      "anonymous": false,
      "inputs": [
        {
          "indexed": true,
          "internalType": "address",
          "name": "from",
          "type": "address"
        },
        {
          "indexed": true,
          "internalType": "address",
          "name": "to",
          "type": "address"
        },
        {
          "indexed": true,
          "internalType": "uint256",
          "name": "tokenId",
          "type": "uint256"
        }
      ],
      "name": "Transfer",
      "type": "event"
    },
    {
      "inputs": [
        {
          "internalType": "address",
          "name": "to",
          "type": "address"
        },
        {
          "internalType": "uint256",
          "name": "tokenId",
          "type": "uint256"
        }
      ],
      "name": "approve",
      "outputs": [],
      "stateMutability": "nonpayable",
      "type": "function"
    },
    {
      "inputs": [
        {
          "internalType": "address",
          "name": "owner",
          "type": "address"
        }
      ],
      "name": "balanceOf",
      "outputs": [
        {
          "internalType": "uint256",
          "name": "",
          "type": "uint256"
        }
      ],
      "stateMutability": "view",
      "type": "function"
    },
    {
      "inputs": [],
      "name": "contractURI",
      "outputs": [
        {
          "internalType": "string",
          "name": "",
          "type": "string"
        }
      ],
      "stateMutability": "view",
      "type": "function"
    },
    {
      "inputs": [
        {
          "internalType": "uint256",
          "name": "tokenId",
          "type": "uint256"
        }
      ],
      "name": "getApproved",
      "outputs": [
        {
          "internalType": "address",
          "name": "",
          "type": "address"
        }
      ],
      "stateMutability": "view",
      "type": "function"
    },
    {
      "inputs": [
        {
          "internalType": "address",
          "name": "owner",
          "type": "address"
        },
        {
          "internalType": "address",
          "name": "operator",
          "type": "address"
        }
      ],
      "name": "isApprovedForAll",
      "outputs": [
        {
          "internalType": "bool",
          "name": "",
          "type": "bool"
        }
      ],
      "stateMutability": "view",
      "type": "function"
    },
    {
      "inputs": [],
      "name": "name",
      "outputs": [
        {
          "internalType": "string",
          "name": "",
          "type": "string"
        }
      ],
      "stateMutability": "view",
      "type": "function"
    },
    {
      "inputs": [
        {
          "internalType": "uint256",
          "name": "tokenId",
          "type": "uint256"
        }
      ],
      "name": "ownerOf",
      "outputs": [
        {
          "internalType": "address",
          "name": "",
          "type": "address"
        }
      ],
      "stateMutability": "view",
      "type": "function"
    },
    {
      "inputs": [
        {
          "internalType": "address",
          "name": "from",
          "type": "address"
        },
        {
          "internalType": "address",
          "name": "to",
          "type": "address"
        },
        {
          "internalType": "uint256",
          "name": "tokenId",
          "type": "uint256"
        }
      ],
      "name": "safeTransferFrom",
      "outputs": [],
      "stateMutability": "nonpayable",
      "type": "function"
    },
    {
      "inputs": [
        {
          "internalType": "address",
          "name": "from",
          "type": "address"
        },
        {
          "internalType": "address",
          "name": "to",
          "type": "address"
        },
        {
          "internalType": "uint256",
          "name": "tokenId",
          "type": "uint256"
        },
        {
          "internalType": "bytes",
          "name": "_data",
          "type": "bytes"
        }
      ],
      "name": "safeTransferFrom",
      "outputs": [],
      "stateMutability": "nonpayable",
      "type": "function"
    },
    {
      "inputs": [
        {
          "internalType": "address",
          "name": "operator",
          "type": "address"
        },
        {
          "internalType": "bool",
          "name": "approved",
          "type": "bool"
        }
      ],
      "name": "setApprovalForAll",
      "outputs": [],
      "stateMutability": "nonpayable",
      "type": "function"
    },
    {
      "inputs": [
        {
          "internalType": "bytes4",
          "name": "interfaceId",
          "type": "bytes4"
        }
      ],
      "name": "supportsInterface",
      "outputs": [
        {
          "internalType": "bool",
          "name": "",
          "type": "bool"
        }
      ],
      "stateMutability": "view",
      "type": "function"
    },
    {
      "inputs": [],
      "name": "symbol",
      "outputs": [
        {
          "internalType": "string",
          "name": "",
          "type": "string"
        }
      ],
      "stateMutability": "view",
      "type": "function"
    },
    {
      "inputs": [
        {
          "internalType": "uint256",
          "name": "tokenId",
          "type": "uint256"
        }
      ],
      "name": "tokenURI",
      "outputs": [
        {
          "internalType": "string",
          "name": "",
          "type": "string"
        }
      ],
      "stateMutability": "view",
      "type": "function"
    },
    {
      "inputs": [
        {
          "internalType": "address",
          "name": "from",
          "type": "address"
        },
        {
          "internalType": "address",
          "name": "to",
          "type": "address"
        },
        {
          "internalType": "uint256",
          "name": "tokenId",
          "type": "uint256"
        }
      ],
      "name": "transferFrom",
      "outputs": [],
      "stateMutability": "nonpayable",
      "type": "function"
    }
  ],
  "bytecode": "0x60806040523480156200001157600080fd5b5060405162002aaf38038062002aaf833981810160405281019062000037919062000217565b828281600090816200004a91906200051b565b5080600190816200005c91906200051b565b50505080600690816200007091906200051b565b5050505062000602565b6000604051905090565b600080fd5b600080fd5b600080fd5b600080fd5b6000601f19601f8301169050919050565b7f4e487b7100000000000000000000000000000000000000000000000000000000600052604160045260246000fd5b620000e38262000098565b810181811067ffffffffffffffff82111715620001055762000104620000a9565b5b80604052505050565b60006200011a6200007a565b9050620001288282620000d8565b919050565b600067ffffffffffffffff8211156200014b576200014a620000a9565b5b620001568262000098565b9050602081019050919050565b60005b838110156200018357808201518184015260208101905062000166565b8381111562000193576000848401525b50505050565b6000620001b0620001aa846200012d565b6200010e565b905082815260208101848484011115620001cf57620001ce62000093565b5b620001dc84828562000163565b509392505050565b600082601f830112620001fc57620001fb6200008e565b5b81516200020e84826020860162000199565b91505092915050565b60008060006060848603121562000233576200023262000084565b5b600084015167ffffffffffffffff81111562000254576200025362000089565b5b6200026286828701620001e4565b935050602084015167ffffffffffffffff81111562000286576200028562000089565b5b6200029486828701620001e4565b925050604084015167ffffffffffffffff811115620002b857620002b762000089565b5b620002c686828701620001e4565b9150509250925092565b600081519050919050565b7f4e487b7100000000000000000000000000000000000000000000000000000000600052602260045260246000fd5b600060028204905060018216806200032357607f821691505b602082108103620003395762000338620002db565b5b50919050565b60008190508160005260206000209050919050565b60006020601f8301049050919050565b600082821b905092915050565b600060088302620003a37fffffffffffffffffffffffffffffffffffffffffffffffffffffffffffffffff8262000364565b620003af868362000364565b95508019841693508086168417925050509392505050565b6000819050919050565b6000819050919050565b6000620003fc620003f6620003f084620003c7565b620003d1565b620003c7565b9050919050565b6000819050919050565b6200041883620003db565b62000430620004278262000403565b84845462000371565b825550505050565b600090565b6200044762000438565b620004548184846200040d565b505050565b5b818110156200047c57620004706000826200043d565b6001810190506200045a565b5050565b601f821115620004cb5762000495816200033f565b620004a08462000354565b81016020851015620004b0578190505b620004c8620004bf8562000354565b83018262000459565b50505b505050565b600082821c905092915050565b6000620004f060001984600802620004d0565b1980831691505092915050565b60006200050b8383620004dd565b9150826002028217905092915050565b6200052682620002d0565b67ffffffffffffffff811115620005425762000541620000a9565b5b6200054e82546200030a565b6200055b82828562000480565b600060209050601f8311600181146200059357600084156200057e578287015190505b6200058a8582620004fd565b865550620005fa565b601f198416620005a3866200033f565b60005b82811015620005cd57848901518255600182019150602085019450602081019050620005a6565b86831015620005ed5784890151620005e9601f891682620004dd565b8355505b6001600288020188555050505b505050505050565b61249d80620006126000396000f3fe608060405234801561001057600080fd5b50600436106100ea5760003560e01c806370a082311161008c578063b88d4fde11610066578063b88d4fde1461025b578063c87b56dd14610277578063e8a3d485146102a7578063e985e9c5146102c5576100ea565b806370a08231146101f157806395d89b4114610221578063a22cb4651461023f576100ea565b8063095ea7b3116100c8578063095ea7b31461016d57806323b872dd1461018957806342842e0e146101a55780636352211e146101c1576100ea565b806301ffc9a7146100ef57806306fdde031461011f578063081812fc1461013d575b600080fd5b610109600480360381019061010491906114fa565b6102f5565b6040516101169190611542565b60405180910390f35b6101276103d7565b60405161013491906115f6565b60405180910390f35b6101576004803603810190610152919061164e565b610469565b60405161016491906116bc565b60405180910390f35b61018760048036038101906101829190611703565b6104ee565b005b6101a3600480360381019061019e9190611743565b610605565b005b6101bf60048036038101906101ba9190611743565b610665565b005b6101db60048036038101906101d6919061164e565b610685565b6040516101e891906116bc565b60405180910390f35b61020b60048036038101906102069190611796565b610736565b60405161021891906117d2565b60405180910390f35b6102296107ed565b60405161023691906115f6565b60405180910390f35b61025960048036038101906102549190611819565b61087f565b005b6102756004803603810190610270919061198e565b610895565b005b610291600480360381019061028c919061164e565b6108f7565b60405161029e91906115f6565b60405180910390f35b6102af61099e565b6040516102bc91906115f6565b60405180910390f35b6102df60048036038101906102da9190611a11565b610a2c565b6040516102ec9190611542565b60405180910390f35b60007f80ac58cd000000000000000000000000000000000000000000000000000000007bffffffffffffffffffffffffffffffffffffffffffffffffffffffff1916827bffffffffffffffffffffffffffffffffffffffffffffffffffffffff191614806103c057507f5b5e139f000000000000000000000000000000000000000000000000000000007bffffffffffffffffffffffffffffffffffffffffffffffffffffffff1916827bffffffffffffffffffffffffffffffffffffffffffffffffffffffff1916145b806103d057506103cf82610ac0565b5b9050919050565b6060600080546103e690611a80565b80601f016020809104026020016040519081016040528092919081815260200182805461041290611a80565b801561045f5780601f106104345761010080835404028352916020019161045f565b820191906000526020600020905b81548152906001019060200180831161044257829003601f168201915b5050505050905090565b600061047482610b2a565b6104b3576040517f08c379a00000000000000000000000000000000000000000000000000000000081526004016104aa90611b23565b60405180910390fd5b6004600083815260200190815260200160002060009054906101000a900473ffffffffffffffffffffffffffffffffffffffff169050919050565b60006104f982610685565b90508073ffffffffffffffffffffffffffffffffffffffff168373ffffffffffffffffffffffffffffffffffffffff1603610569576040517f08c379a000000000000000000000000000000000000000000000000000000000815260040161056090611bb5565b60405180910390fd5b8073ffffffffffffffffffffffffffffffffffffffff16610588610b96565b73ffffffffffffffffffffffffffffffffffffffff1614806105b757506105b6816105b1610b96565b610a2c565b5b6105f6576040517f08c379a00000000000000000000000000000000000000000000000000000000081526004016105ed90611c47565b60405180910390fd5b6106008383610b9e565b505050565b610616610610610b96565b82610c57565b610655576040517f08c379a000000000000000000000000000000000000000000000000000000000815260040161064c90611cd9565b60405180910390fd5b610660838383610d35565b505050565b61068083838360405180602001604052806000815250610895565b505050565b6000806002600084815260200190815260200160002060009054906101000a900473ffffffffffffffffffffffffffffffffffffffff169050600073ffffffffffffffffffffffffffffffffffffffff168173ffffffffffffffffffffffffffffffffffffffff160361072d576040517f08c379a000000000000000000000000000000000000000000000000000000000815260040161072490611d6b565b60405180910390fd5b80915050919050565b60008073ffffffffffffffffffffffffffffffffffffffff168273ffffffffffffffffffffffffffffffffffffffff16036107a6576040517f08c379a000000000000000000000000000000000000000000000000000000000815260040161079d90611dfd565b60405180910390fd5b600360008373ffffffffffffffffffffffffffffffffffffffff1673ffffffffffffffffffffffffffffffffffffffff168152602001908152602001600020549050919050565b6060600180546107fc90611a80565b80601f016020809104026020016040519081016040528092919081815260200182805461082890611a80565b80156108755780601f1061084a57610100808354040283529160200191610875565b820191906000526020600020905b81548152906001019060200180831161085857829003601f168201915b5050505050905090565b61089161088a610b96565b8383610f9b565b5050565b6108a66108a0610b96565b83610c57565b6108e5576040517f08c379a00000000000000000000000000000000000000000000000000000000081526004016108dc90611cd9565b60405180910390fd5b6108f184848484611107565b50505050565b606061090282610b2a565b610941576040517f08c379a000000000000000000000000000000000000000000000000000000000815260040161093890611e8f565b60405180910390fd5b600061094b611163565b9050600081511161096b5760405180602001604052806000815250610996565b806109758461117a565b604051602001610986929190611eeb565b6040516020818303038152906040525b915050919050565b600680546109ab90611a80565b80601f01602080910402602001604051908101604052809291908181526020018280546109d790611a80565b8015610a245780601f106109f957610100808354040283529160200191610a24565b820191906000526020600020905b815481529060010190602001808311610a0757829003601f168201915b505050505081565b6000600560008473ffffffffffffffffffffffffffffffffffffffff1673ffffffffffffffffffffffffffffffffffffffff16815260200190815260200160002060008373ffffffffffffffffffffffffffffffffffffffff1673ffffffffffffffffffffffffffffffffffffffff16815260200190815260200160002060009054906101000a900460ff16905092915050565b60007f01ffc9a7000000000000000000000000000000000000000000000000000000007bffffffffffffffffffffffffffffffffffffffffffffffffffffffff1916827bffffffffffffffffffffffffffffffffffffffffffffffffffffffff1916149050919050565b60008073ffffffffffffffffffffffffffffffffffffffff166002600084815260200190815260200160002060009054906101000a900473ffffffffffffffffffffffffffffffffffffffff1673ffffffffffffffffffffffffffffffffffffffff1614159050919050565b600033905090565b816004600083815260200190815260200160002060006101000a81548173ffffffffffffffffffffffffffffffffffffffff021916908373ffffffffffffffffffffffffffffffffffffffff160217905550808273ffffffffffffffffffffffffffffffffffffffff16610c1183610685565b73ffffffffffffffffffffffffffffffffffffffff167f8c5be1e5ebec7d5bd14f71427d1e84f3dd0314c0f7b2291e5b200ac8c7c3b92560405160405180910390a45050565b6000610c6282610b2a565b610ca1576040517f08c379a0000000000000000000000000000000000000000000000000000000008152600401610c9890611f81565b60405180910390fd5b6000610cac83610685565b90508073ffffffffffffffffffffffffffffffffffffffff168473ffffffffffffffffffffffffffffffffffffffff161480610cee5750610ced8185610a2c565b5b80610d2c57508373ffffffffffffffffffffffffffffffffffffffff16610d1484610469565b73ffffffffffffffffffffffffffffffffffffffff16145b91505092915050565b8273ffffffffffffffffffffffffffffffffffffffff16610d5582610685565b73ffffffffffffffffffffffffffffffffffffffff1614610dab576040517f08c379a0000000000000000000000000000000000000000000000000000000008152600401610da290612013565b60405180910390fd5b600073ffffffffffffffffffffffffffffffffffffffff168273ffffffffffffffffffffffffffffffffffffffff1603610e1a576040517f08c379a0000000000000000000000000000000000000000000000000000000008152600401610e11906120a5565b60405180910390fd5b610e258383836112da565b610e30600082610b9e565b6001600360008573ffffffffffffffffffffffffffffffffffffffff1673ffffffffffffffffffffffffffffffffffffffff1681526020019081526020016000206000828254610e8091906120f4565b925050819055506001600360008473ffffffffffffffffffffffffffffffffffffffff1673ffffffffffffffffffffffffffffffffffffffff1681526020019081526020016000206000828254610ed79190612128565b92505081905550816002600083815260200190815260200160002060006101000a81548173ffffffffffffffffffffffffffffffffffffffff021916908373ffffffffffffffffffffffffffffffffffffffff160217905550808273ffffffffffffffffffffffffffffffffffffffff168473ffffffffffffffffffffffffffffffffffffffff167fddf252ad1be2c89b69c2b068fc378daa952ba7f163c4a11628f55a4df523b3ef60405160405180910390a4610f968383836112df565b505050565b8173ffffffffffffffffffffffffffffffffffffffff168373ffffffffffffffffffffffffffffffffffffffff1603611009576040517f08c379a0000000000000000000000000000000000000000000000000000000008152600401611000906121ca565b60405180910390fd5b80600560008573ffffffffffffffffffffffffffffffffffffffff1673ffffffffffffffffffffffffffffffffffffffff16815260200190815260200160002060008473ffffffffffffffffffffffffffffffffffffffff1673ffffffffffffffffffffffffffffffffffffffff16815260200190815260200160002060006101000a81548160ff0219169083151502179055508173ffffffffffffffffffffffffffffffffffffffff168373ffffffffffffffffffffffffffffffffffffffff167f17307eab39ab6107e8899845ad3d59bd9653f200f220920489ca2b5937696c31836040516110fa9190611542565b60405180910390a3505050565b611112848484610d35565b61111e848484846112e4565b61115d576040517f08c379a00000000000000000000000000000000000000000000000000000000081526004016111549061225c565b60405180910390fd5b50505050565b606060405180602001604052806000815250905090565b6060600082036111c1576040518060400160405280600181526020017f300000000000000000000000000000000000000000000000000000000000000081525090506112d5565b600082905060005b600082146111f35780806111dc9061227c565b915050600a826111ec91906122f3565b91506111c9565b60008167ffffffffffffffff81111561120f5761120e611863565b5b6040519080825280601f01601f1916602001820160405280156112415781602001600182028036833780820191505090505b5090505b600085146112ce5760018261125a91906120f4565b9150600a856112699190612324565b60306112759190612128565b60f81b81838151811061128b5761128a612355565b5b60200101907effffffffffffffffffffffffffffffffffffffffffffffffffffffffffffff1916908160001a905350600a856112c791906122f3565b9450611245565b8093505050505b919050565b505050565b505050565b60006113058473ffffffffffffffffffffffffffffffffffffffff1661146b565b1561145e578373ffffffffffffffffffffffffffffffffffffffff1663150b7a0261132e610b96565b8786866040518563ffffffff1660e01b815260040161135094939291906123d9565b6020604051808303816000875af192505050801561138c57506040513d601f19601f82011682018060405250810190611389919061243a565b60015b61140e573d80600081146113bc576040519150601f19603f3d011682016040523d82523d6000602084013e6113c1565b606091505b506000815103611406576040517f08c379a00000000000000000000000000000000000000000000000000000000081526004016113fd9061225c565b60405180910390fd5b805181602001fd5b63150b7a0260e01b7bffffffffffffffffffffffffffffffffffffffffffffffffffffffff1916817bffffffffffffffffffffffffffffffffffffffffffffffffffffffff191614915050611463565b600190505b949350505050565b6000808273ffffffffffffffffffffffffffffffffffffffff163b119050919050565b6000604051905090565b600080fd5b600080fd5b60007fffffffff0000000000000000000000000000000000000000000000000000000082169050919050565b6114d7816114a2565b81146114e257600080fd5b50565b6000813590506114f4816114ce565b92915050565b6000602082840312156115105761150f611498565b5b600061151e848285016114e5565b91505092915050565b60008115159050919050565b61153c81611527565b82525050565b60006020820190506115576000830184611533565b92915050565b600081519050919050565b600082825260208201905092915050565b60005b8381101561159757808201518184015260208101905061157c565b838111156115a6576000848401525b50505050565b6000601f19601f8301169050919050565b60006115c88261155d565b6115d28185611568565b93506115e2818560208601611579565b6115eb816115ac565b840191505092915050565b6000602082019050818103600083015261161081846115bd565b905092915050565b6000819050919050565b61162b81611618565b811461163657600080fd5b50565b60008135905061164881611622565b92915050565b60006020828403121561166457611663611498565b5b600061167284828501611639565b91505092915050565b600073ffffffffffffffffffffffffffffffffffffffff82169050919050565b60006116a68261167b565b9050919050565b6116b68161169b565b82525050565b60006020820190506116d160008301846116ad565b92915050565b6116e08161169b565b81146116eb57600080fd5b50565b6000813590506116fd816116d7565b92915050565b6000806040838503121561171a57611719611498565b5b6000611728858286016116ee565b925050602061173985828601611639565b9150509250929050565b60008060006060848603121561175c5761175b611498565b5b600061176a868287016116ee565b935050602061177b868287016116ee565b925050604061178c86828701611639565b9150509250925092565b6000602082840312156117ac576117ab611498565b5b60006117ba848285016116ee565b91505092915050565b6117cc81611618565b82525050565b60006020820190506117e760008301846117c3565b92915050565b6117f681611527565b811461180157600080fd5b50565b600081359050611813816117ed565b92915050565b600080604083850312156118305761182f611498565b5b600061183e858286016116ee565b925050602061184f85828601611804565b9150509250929050565b600080fd5b600080fd5b7f4e487b7100000000000000000000000000000000000000000000000000000000600052604160045260246000fd5b61189b826115ac565b810181811067ffffffffffffffff821117156118ba576118b9611863565b5b80604052505050565b60006118cd61148e565b90506118d98282611892565b919050565b600067ffffffffffffffff8211156118f9576118f8611863565b5b611902826115ac565b9050602081019050919050565b82818337600083830152505050565b600061193161192c846118de565b6118c3565b90508281526020810184848401111561194d5761194c61185e565b5b61195884828561190f565b509392505050565b600082601f83011261197557611974611859565b5b813561198584826020860161191e565b91505092915050565b600080600080608085870312156119a8576119a7611498565b5b60006119b6878288016116ee565b94505060206119c7878288016116ee565b93505060406119d887828801611639565b925050606085013567ffffffffffffffff8111156119f9576119f861149d565b5b611a0587828801611960565b91505092959194509250565b60008060408385031215611a2857611a27611498565b5b6000611a36858286016116ee565b9250506020611a47858286016116ee565b9150509250929050565b7f4e487b7100000000000000000000000000000000000000000000000000000000600052602260045260246000fd5b60006002820490506001821680611a9857607f821691505b602082108103611aab57611aaa611a51565b5b50919050565b7f4552433732313a20617070726f76656420717565727920666f72206e6f6e657860008201527f697374656e7420746f6b656e0000000000000000000000000000000000000000602082015250565b6000611b0d602c83611568565b9150611b1882611ab1565b604082019050919050565b60006020820190508181036000830152611b3c81611b00565b9050919050565b7f4552433732313a20617070726f76616c20746f2063757272656e74206f776e6560008201527f7200000000000000000000000000000000000000000000000000000000000000602082015250565b6000611b9f602183611568565b9150611baa82611b43565b604082019050919050565b60006020820190508181036000830152611bce81611b92565b9050919050565b7f4552433732313a20617070726f76652063616c6c6572206973206e6f74206f7760008201527f6e6572206e6f7220617070726f76656420666f7220616c6c0000000000000000602082015250565b6000611c31603883611568565b9150611c3c82611bd5565b604082019050919050565b60006020820190508181036000830152611c6081611c24565b9050919050565b7f4552433732313a207472616e736665722063616c6c6572206973206e6f74206f60008201527f776e6572206e6f7220617070726f766564000000000000000000000000000000602082015250565b6000611cc3603183611568565b9150611cce82611c67565b604082019050919050565b60006020820190508181036000830152611cf281611cb6565b9050919050565b7f4552433732313a206f776e657220717565727920666f72206e6f6e657869737460008201527f656e7420746f6b656e0000000000000000000000000000000000000000000000602082015250565b6000611d55602983611568565b9150611d6082611cf9565b604082019050919050565b60006020820190508181036000830152611d8481611d48565b9050919050565b7f4552433732313a2062616c616e636520717565727920666f7220746865207a6560008201527f726f206164647265737300000000000000000000000000000000000000000000602082015250565b6000611de7602a83611568565b9150611df282611d8b565b604082019050919050565b60006020820190508181036000830152611e1681611dda565b9050919050565b7f4552433732314d657461646174613a2055524920717565727920666f72206e6f60008201527f6e6578697374656e7420746f6b656e0000000000000000000000000000000000602082015250565b6000611e79602f83611568565b9150611e8482611e1d565b604082019050919050565b60006020820190508181036000830152611ea881611e6c565b9050919050565b600081905092915050565b6000611ec58261155d565b611ecf8185611eaf565b9350611edf818560208601611579565b80840191505092915050565b6000611ef78285611eba565b9150611f038284611eba565b91508190509392505050565b7f4552433732313a206f70657261746f7220717565727920666f72206e6f6e657860008201527f697374656e7420746f6b656e0000000000000000000000000000000000000000602082015250565b6000611f6b602c83611568565b9150611f7682611f0f565b604082019050919050565b60006020820190508181036000830152611f9a81611f5e565b9050919050565b7f4552433732313a207472616e736665722066726f6d20696e636f72726563742060008201527f6f776e6572000000000000000000000000000000000000000000000000000000602082015250565b6000611ffd602583611568565b915061200882611fa1565b604082019050919050565b6000602082019050818103600083015261202c81611ff0565b9050919050565b7f4552433732313a207472616e7366657220746f20746865207a65726f2061646460008201527f7265737300000000000000000000000000000000000000000000000000000000602082015250565b600061208f602483611568565b915061209a82612033565b604082019050919050565b600060208201905081810360008301526120be81612082565b9050919050565b7f4e487b7100000000000000000000000000000000000000000000000000000000600052601160045260246000fd5b60006120ff82611618565b915061210a83611618565b92508282101561211d5761211c6120c5565b5b828203905092915050565b600061213382611618565b915061213e83611618565b9250827fffffffffffffffffffffffffffffffffffffffffffffffffffffffffffffffff03821115612173576121726120c5565b5b828201905092915050565b7f4552433732313a20617070726f766520746f2063616c6c657200000000000000600082015250565b60006121b4601983611568565b91506121bf8261217e565b602082019050919050565b600060208201905081810360008301526121e3816121a7565b9050919050565b7f4552433732313a207472616e7366657220746f206e6f6e20455243373231526560008201527f63656976657220696d706c656d656e7465720000000000000000000000000000602082015250565b6000612246603283611568565b9150612251826121ea565b604082019050919050565b6000602082019050818103600083015261227581612239565b9050919050565b600061228782611618565b91507fffffffffffffffffffffffffffffffffffffffffffffffffffffffffffffffff82036122b9576122b86120c5565b5b600182019050919050565b7f4e487b7100000000000000000000000000000000000000000000000000000000600052601260045260246000fd5b60006122fe82611618565b915061230983611618565b925082612319576123186122c4565b5b828204905092915050565b600061232f82611618565b915061233a83611618565b92508261234a576123496122c4565b5b828206905092915050565b7f4e487b7100000000000000000000000000000000000000000000000000000000600052603260045260246000fd5b600081519050919050565b600082825260208201905092915050565b60006123ab82612384565b6123b5818561238f565b93506123c5818560208601611579565b6123ce816115ac565b840191505092915050565b60006080820190506123ee60008301876116ad565b6123fb60208301866116ad565b61240860408301856117c3565b818103606083015261241a81846123a0565b905095945050505050565b600081519050612434816114ce565b92915050565b6000602082840312156124505761244f611498565b5b600061245e84828501612425565b9150509291505056fea26469706673582212202c30f9768c5d2b67d095175fb542242dfb36fc991f7921235d3a42aee7d8418564736f6c634300080f0033",
  "linkReferences": {},
  "deployedLinkReferences": {}
}