{
  "_format": "hh-sol-artifact-1",
  "contractName": "MemoryQueue",
  "sourceName": "src/backend/contracts/MemoryQueue.sol",
  "abi": [
    {
      "inputs": [],
      "name": "dequeue",
      "outputs": [
        {
          "internalType": "uint256",
          "name": "id",
          "type": "uint256"
        }
      ],
      "stateMutability": "nonpayable",
      "type": "function"
    },
    {
      "inputs": [
        {
          "internalType": "uint256",
          "name": "id",
          "type": "uint256"
        }
      ],
      "name": "enqueue",
      "outputs": [],
      "stateMutability": "nonpayable",
      "type": "function"
    }
  ],
  "bytecode": "0x60806040526001805560006002556001600360006101000a81548160ff02191690831515021790555034801561003457600080fd5b50610298806100446000396000f3fe608060405234801561001057600080fd5b50600436106100365760003560e01c80631ffc735d1461003b578063957908d114610057575b600080fd5b61005560048036038101906100509190610186565b610075565b005b61005f6100c6565b60405161006c91906101c2565b60405180910390f35b600160026000828254610088919061020c565b925050819055506000600360006101000a81548160ff0219169083151502179055508060008060025481526020019081526020016000208190555050565b600060015460025410156100d957600080fd5b600080600154815260200190815260200160002054905060025460015403610117576001600360006101000a81548160ff0219169083151502179055505b6000806001548152602001908152602001600020600090556001806000828254610141919061020c565b9250508190555090565b600080fd5b6000819050919050565b61016381610150565b811461016e57600080fd5b50565b6000813590506101808161015a565b92915050565b60006020828403121561019c5761019b61014b565b5b60006101aa84828501610171565b91505092915050565b6101bc81610150565b82525050565b60006020820190506101d760008301846101b3565b92915050565b7f4e487b7100000000000000000000000000000000000000000000000000000000600052601160045260246000fd5b600061021782610150565b915061022283610150565b9250827fffffffffffffffffffffffffffffffffffffffffffffffffffffffffffffffff03821115610257576102566101dd565b5b82820190509291505056fea26469706673582212201f5dfce54435dd587c39b7c32541e3f91ac747e754545b685b8ce5041862f63e64736f6c634300080f0033",
  "linkReferences": {},
  "deployedLinkReferences": {}
}