{
  "_format": "hh-sol-artifact-1",
  "contractName": "MemoryQueue",
  "sourceName": "src/backend/contracts/MemoryQueue.sol",
  "abi": [
    {
      "inputs": [],
      "name": "dequeue",
      "outputs": [
        {
          "internalType": "uint256",
          "name": "id",
          "type": "uint256"
        }
      ],
      "stateMutability": "nonpayable",
      "type": "function"
    },
    {
      "inputs": [
        {
          "internalType": "uint256",
          "name": "id",
          "type": "uint256"
        }
      ],
      "name": "enqueue",
      "outputs": [],
      "stateMutability": "nonpayable",
      "type": "function"
    }
  ],
  "bytecode": "0x60806040526001805560006002556001600360006101000a81548160ff02191690831515021790555034801561003457600080fd5b5061034b806100446000396000f3fe608060405234801561001057600080fd5b50600436106100365760003560e01c80631ffc735d1461003b578063957908d114610057575b600080fd5b610055600480360381019061005091906101bc565b610075565b005b61005f6100c6565b60405161006c91906101f8565b60405180910390f35b6001600260008282546100889190610242565b925050819055506000600360006101000a81548160ff0219169083151502179055508060008060025481526020019081526020016000208190555050565b6000600154600254101561010f576040517f08c379a0000000000000000000000000000000000000000000000000000000008152600401610106906102f5565b60405180910390fd5b60008060015481526020019081526020016000205490506002546001540361014d576001600360006101000a81548160ff0219169083151502179055505b60008060015481526020019081526020016000206000905560018060008282546101779190610242565b9250508190555090565b600080fd5b6000819050919050565b61019981610186565b81146101a457600080fd5b50565b6000813590506101b681610190565b92915050565b6000602082840312156101d2576101d1610181565b5b60006101e0848285016101a7565b91505092915050565b6101f281610186565b82525050565b600060208201905061020d60008301846101e9565b92915050565b7f4e487b7100000000000000000000000000000000000000000000000000000000600052601160045260246000fd5b600061024d82610186565b915061025883610186565b9250827fffffffffffffffffffffffffffffffffffffffffffffffffffffffffffffffff0382111561028d5761028c610213565b5b828201905092915050565b600082825260208201905092915050565b7f54686520717565756520697320656d7074792e00000000000000000000000000600082015250565b60006102df601383610298565b91506102ea826102a9565b602082019050919050565b6000602082019050818103600083015261030e816102d2565b905091905056fea2646970667358221220b2d8570e71b4b6def1c8962399b9addc355465a1dc8b6abbc876bc877a9d3be664736f6c634300080f0033",
  "linkReferences": {},
  "deployedLinkReferences": {}
}