{
  "_format": "hh-sol-artifact-1",
  "contractName": "CopyrightToken",
  "sourceName": "src/backend/contracts/CopyrightToken.sol",
  "abi": [
    {
      "inputs": [],
      "stateMutability": "nonpayable",
      "type": "constructor"
    },
    {
      "anonymous": false,
      "inputs": [
        {
          "components": [
            {
              "internalType": "uint256",
              "name": "tokenWeight",
              "type": "uint256"
            },
            {
              "internalType": "uint256",
              "name": "timeStamp",
              "type": "uint256"
            },
            {
              "internalType": "bool",
              "name": "isBlacklisted",
              "type": "bool"
            },
            {
              "components": [
                {
                  "internalType": "uint256",
                  "name": "to",
                  "type": "uint256"
                },
                {
                  "internalType": "uint256",
                  "name": "weight",
                  "type": "uint256"
                }
              ],
              "internalType": "struct ICopyrightGraph.Edge[]",
              "name": "edges",
              "type": "tuple[]"
            },
            {
              "internalType": "uint256",
              "name": "numberOfTokensBehind",
              "type": "uint256"
            }
          ],
          "indexed": false,
          "internalType": "struct ICopyrightGraph.Token",
          "name": "token",
          "type": "tuple"
        }
      ],
      "name": "AddTokenToGraph",
      "type": "event"
    },
    {
      "anonymous": false,
      "inputs": [
        {
          "indexed": true,
          "internalType": "address",
          "name": "owner",
          "type": "address"
        },
        {
          "indexed": true,
          "internalType": "address",
          "name": "approved",
          "type": "address"
        },
        {
          "indexed": true,
          "internalType": "uint256",
          "name": "tokenId",
          "type": "uint256"
        }
      ],
      "name": "Approval",
      "type": "event"
    },
    {
      "anonymous": false,
      "inputs": [
        {
          "indexed": true,
          "internalType": "address",
          "name": "owner",
          "type": "address"
        },
        {
          "indexed": true,
          "internalType": "address",
          "name": "operator",
          "type": "address"
        },
        {
          "indexed": false,
          "internalType": "bool",
          "name": "approved",
          "type": "bool"
        }
      ],
      "name": "ApprovalForAll",
      "type": "event"
    },
    {
      "anonymous": false,
      "inputs": [
        {
          "indexed": false,
          "internalType": "uint256",
          "name": "id",
          "type": "uint256"
        },
        {
          "indexed": false,
          "internalType": "uint256",
          "name": "newWeight",
          "type": "uint256"
        }
      ],
      "name": "ChangeTokenWeight",
      "type": "event"
    },
    {
      "anonymous": false,
      "inputs": [
        {
          "indexed": false,
          "internalType": "uint256",
          "name": "id",
          "type": "uint256"
        },
        {
          "indexed": false,
          "internalType": "bool",
          "name": "isBlacklisted",
          "type": "bool"
        }
      ],
      "name": "TokenBlacklisted",
      "type": "event"
    },
    {
      "anonymous": false,
      "inputs": [
        {
          "indexed": true,
          "internalType": "address",
          "name": "from",
          "type": "address"
        },
        {
          "indexed": true,
          "internalType": "address",
          "name": "to",
          "type": "address"
        },
        {
          "indexed": true,
          "internalType": "uint256",
          "name": "tokenId",
          "type": "uint256"
        }
      ],
      "name": "Transfer",
      "type": "event"
    },
    {
      "inputs": [
        {
          "internalType": "address",
          "name": "to",
          "type": "address"
        },
        {
          "internalType": "uint256",
          "name": "tokenId",
          "type": "uint256"
        }
      ],
      "name": "approve",
      "outputs": [],
      "stateMutability": "nonpayable",
      "type": "function"
    },
    {
      "inputs": [
        {
          "internalType": "address",
          "name": "owner",
          "type": "address"
        }
      ],
      "name": "balanceOf",
      "outputs": [
        {
          "internalType": "uint256",
          "name": "",
          "type": "uint256"
        }
      ],
      "stateMutability": "view",
      "type": "function"
    },
    {
      "inputs": [
        {
          "internalType": "uint256",
          "name": "id",
          "type": "uint256"
        },
        {
          "internalType": "bool",
          "name": "isBlacklisted",
          "type": "bool"
        }
      ],
      "name": "blacklistToken",
      "outputs": [],
      "stateMutability": "nonpayable",
      "type": "function"
    },
    {
      "inputs": [
        {
          "internalType": "uint256",
          "name": "id",
          "type": "uint256"
        },
        {
          "internalType": "bool",
          "name": "permission",
          "type": "bool"
        }
      ],
      "name": "changeAdoptionPermission",
      "outputs": [],
      "stateMutability": "nonpayable",
      "type": "function"
    },
    {
      "inputs": [
        {
          "internalType": "uint256",
          "name": "id",
          "type": "uint256"
        },
        {
          "internalType": "bool",
          "name": "permission",
          "type": "bool"
        }
      ],
      "name": "changeDistributionPermission",
      "outputs": [],
      "stateMutability": "nonpayable",
      "type": "function"
    },
    {
      "inputs": [
        {
          "internalType": "uint256",
          "name": "id",
          "type": "uint256"
        },
        {
          "internalType": "uint256",
          "name": "newWeight",
          "type": "uint256"
        }
      ],
      "name": "changeTokenWeight",
      "outputs": [],
      "stateMutability": "nonpayable",
      "type": "function"
    },
    {
      "inputs": [
        {
          "internalType": "uint256",
          "name": "id",
          "type": "uint256"
        }
      ],
      "name": "deposit",
      "outputs": [],
      "stateMutability": "payable",
      "type": "function"
    },
    {
      "inputs": [
        {
          "internalType": "uint256",
          "name": "id",
          "type": "uint256"
        }
      ],
      "name": "distributeCopies",
      "outputs": [
        {
          "internalType": "address",
          "name": "",
          "type": "address"
        }
      ],
      "stateMutability": "nonpayable",
      "type": "function"
    },
    {
      "inputs": [
        {
          "internalType": "uint256",
          "name": "id",
          "type": "uint256"
        }
      ],
      "name": "doAllowAdoption",
      "outputs": [
        {
          "internalType": "bool",
          "name": "",
          "type": "bool"
        }
      ],
      "stateMutability": "view",
      "type": "function"
    },
    {
      "inputs": [
        {
          "internalType": "uint256",
          "name": "id",
          "type": "uint256"
        }
      ],
      "name": "doAllowDistribution",
      "outputs": [
        {
          "internalType": "bool",
          "name": "",
          "type": "bool"
        }
      ],
      "stateMutability": "view",
      "type": "function"
    },
    {
      "inputs": [
        {
          "internalType": "uint256",
          "name": "tokenId",
          "type": "uint256"
        }
      ],
      "name": "getApproved",
      "outputs": [
        {
          "internalType": "address",
          "name": "",
          "type": "address"
        }
      ],
      "stateMutability": "view",
      "type": "function"
    },
    {
      "inputs": [
        {
          "internalType": "uint256",
          "name": "id",
          "type": "uint256"
        }
      ],
      "name": "getDistributionToken",
      "outputs": [
        {
          "internalType": "contract ERC721",
          "name": "",
          "type": "address"
        }
      ],
      "stateMutability": "view",
      "type": "function"
    },
    {
      "inputs": [
        {
          "internalType": "uint256",
          "name": "id",
          "type": "uint256"
        }
      ],
      "name": "getToken",
      "outputs": [
        {
          "components": [
            {
              "internalType": "uint256",
              "name": "tokenWeight",
              "type": "uint256"
            },
            {
              "internalType": "uint256",
              "name": "timeStamp",
              "type": "uint256"
            },
            {
              "internalType": "bool",
              "name": "isBlacklisted",
              "type": "bool"
            },
            {
              "components": [
                {
                  "internalType": "uint256",
                  "name": "to",
                  "type": "uint256"
                },
                {
                  "internalType": "uint256",
                  "name": "weight",
                  "type": "uint256"
                }
              ],
              "internalType": "struct ICopyrightGraph.Edge[]",
              "name": "edges",
              "type": "tuple[]"
            },
            {
              "internalType": "uint256",
              "name": "numberOfTokensBehind",
              "type": "uint256"
            }
          ],
          "internalType": "struct ICopyrightGraph.Token",
          "name": "",
          "type": "tuple"
        }
      ],
      "stateMutability": "view",
      "type": "function"
    },
    {
      "inputs": [
        {
          "internalType": "uint256[]",
          "name": "parentIds",
          "type": "uint256[]"
        },
        {
          "internalType": "uint256[]",
          "name": "parentWeights",
          "type": "uint256[]"
        },
        {
          "internalType": "uint256",
          "name": "id",
          "type": "uint256"
        }
      ],
      "name": "insertEdges",
      "outputs": [],
      "stateMutability": "nonpayable",
      "type": "function"
    },
    {
      "inputs": [
        {
          "internalType": "uint256[]",
          "name": "parentIds",
          "type": "uint256[]"
        },
        {
          "internalType": "uint256[]",
          "name": "parentWeights",
          "type": "uint256[]"
        },
        {
          "internalType": "uint256",
          "name": "id",
          "type": "uint256"
        },
        {
          "internalType": "uint256",
          "name": "weight",
          "type": "uint256"
        }
      ],
      "name": "insertToken",
      "outputs": [],
      "stateMutability": "nonpayable",
      "type": "function"
    },
    {
      "inputs": [
        {
          "internalType": "address",
          "name": "owner",
          "type": "address"
        },
        {
          "internalType": "address",
          "name": "operator",
          "type": "address"
        }
      ],
      "name": "isApprovedForAll",
      "outputs": [
        {
          "internalType": "bool",
          "name": "",
          "type": "bool"
        }
      ],
      "stateMutability": "view",
      "type": "function"
    },
    {
      "inputs": [
        {
          "internalType": "uint256",
          "name": "id",
          "type": "uint256"
        },
        {
          "internalType": "address",
          "name": "nftAddress",
          "type": "address"
        }
      ],
      "name": "isDistributionOf",
      "outputs": [
        {
          "internalType": "bool",
          "name": "",
          "type": "bool"
        }
      ],
      "stateMutability": "view",
      "type": "function"
    },
    {
      "inputs": [
        {
          "internalType": "uint256",
          "name": "id",
          "type": "uint256"
        }
      ],
      "name": "isIndependent",
      "outputs": [
        {
          "internalType": "bool",
          "name": "",
          "type": "bool"
        }
      ],
      "stateMutability": "view",
      "type": "function"
    },
    {
      "inputs": [
        {
          "internalType": "uint256[]",
          "name": "parentIds",
          "type": "uint256[]"
        },
        {
          "internalType": "uint256",
          "name": "tokenWeight",
          "type": "uint256"
        }
      ],
      "name": "mint",
      "outputs": [],
      "stateMutability": "nonpayable",
      "type": "function"
    },
    {
      "inputs": [],
      "name": "name",
      "outputs": [
        {
          "internalType": "string",
          "name": "",
          "type": "string"
        }
      ],
      "stateMutability": "view",
      "type": "function"
    },
    {
      "inputs": [
        {
          "internalType": "uint256",
          "name": "tokenId",
          "type": "uint256"
        }
      ],
      "name": "ownerOf",
      "outputs": [
        {
          "internalType": "address",
          "name": "",
          "type": "address"
        }
      ],
      "stateMutability": "view",
      "type": "function"
    },
    {
      "inputs": [
        {
          "components": [
            {
              "internalType": "uint256",
              "name": "tokenWeight",
              "type": "uint256"
            },
            {
              "internalType": "uint256",
              "name": "timeStamp",
              "type": "uint256"
            },
            {
              "internalType": "bool",
              "name": "isBlacklisted",
              "type": "bool"
            },
            {
              "components": [
                {
                  "internalType": "uint256",
                  "name": "to",
                  "type": "uint256"
                },
                {
                  "internalType": "uint256",
                  "name": "weight",
                  "type": "uint256"
                }
              ],
              "internalType": "struct ICopyrightGraph.Edge[]",
              "name": "edges",
              "type": "tuple[]"
            },
            {
              "internalType": "uint256",
              "name": "numberOfTokensBehind",
              "type": "uint256"
            }
          ],
          "internalType": "struct ICopyrightGraph.Token",
          "name": "token",
          "type": "tuple"
        }
      ],
      "name": "returnId",
      "outputs": [
        {
          "internalType": "uint256",
          "name": "id",
          "type": "uint256"
        }
      ],
      "stateMutability": "pure",
      "type": "function"
    },
    {
      "inputs": [
        {
          "internalType": "uint256",
          "name": "id",
          "type": "uint256"
        }
      ],
      "name": "returnIsBlacklisted",
      "outputs": [
        {
          "internalType": "bool",
          "name": "isBlacklisted",
          "type": "bool"
        }
      ],
      "stateMutability": "view",
      "type": "function"
    },
    {
      "inputs": [],
      "name": "returnLeafTokenIDs",
      "outputs": [
        {
          "internalType": "uint256[]",
          "name": "leafTokenIDs",
          "type": "uint256[]"
        }
      ],
      "stateMutability": "view",
      "type": "function"
    },
    {
      "inputs": [
        {
          "internalType": "uint256",
          "name": "id",
          "type": "uint256"
        }
      ],
      "name": "returnTime",
      "outputs": [
        {
          "internalType": "uint256",
          "name": "timeStamp",
          "type": "uint256"
        }
      ],
      "stateMutability": "view",
      "type": "function"
    },
    {
      "inputs": [
        {
          "internalType": "uint256",
          "name": "id",
          "type": "uint256"
        }
      ],
      "name": "returnTokenWeight",
      "outputs": [
        {
          "internalType": "uint256",
          "name": "weight",
          "type": "uint256"
        }
      ],
      "stateMutability": "view",
      "type": "function"
    },
    {
      "inputs": [
        {
          "internalType": "address",
          "name": "from",
          "type": "address"
        },
        {
          "internalType": "address",
          "name": "to",
          "type": "address"
        },
        {
          "internalType": "uint256",
          "name": "tokenId",
          "type": "uint256"
        }
      ],
      "name": "safeTransferFrom",
      "outputs": [],
      "stateMutability": "nonpayable",
      "type": "function"
    },
    {
      "inputs": [
        {
          "internalType": "address",
          "name": "from",
          "type": "address"
        },
        {
          "internalType": "address",
          "name": "to",
          "type": "address"
        },
        {
          "internalType": "uint256",
          "name": "tokenId",
          "type": "uint256"
        },
        {
          "internalType": "bytes",
          "name": "_data",
          "type": "bytes"
        }
      ],
      "name": "safeTransferFrom",
      "outputs": [],
      "stateMutability": "nonpayable",
      "type": "function"
    },
    {
      "inputs": [
        {
          "internalType": "address",
          "name": "operator",
          "type": "address"
        },
        {
          "internalType": "bool",
          "name": "approved",
          "type": "bool"
        }
      ],
      "name": "setApprovalForAll",
      "outputs": [],
      "stateMutability": "nonpayable",
      "type": "function"
    },
    {
      "inputs": [
        {
          "internalType": "uint256",
          "name": "id",
          "type": "uint256"
        },
        {
          "internalType": "string",
          "name": "name",
          "type": "string"
        },
        {
          "internalType": "string",
          "name": "symbol",
          "type": "string"
        },
        {
          "internalType": "string",
          "name": "uri",
          "type": "string"
        }
      ],
      "name": "setDistributionInfo",
      "outputs": [],
      "stateMutability": "nonpayable",
      "type": "function"
    },
    {
      "inputs": [
        {
          "internalType": "bytes4",
          "name": "interfaceId",
          "type": "bytes4"
        }
      ],
      "name": "supportsInterface",
      "outputs": [
        {
          "internalType": "bool",
          "name": "",
          "type": "bool"
        }
      ],
      "stateMutability": "view",
      "type": "function"
    },
    {
      "inputs": [],
      "name": "symbol",
      "outputs": [
        {
          "internalType": "string",
          "name": "",
          "type": "string"
        }
      ],
      "stateMutability": "view",
      "type": "function"
    },
    {
      "inputs": [],
      "name": "tokenCount",
      "outputs": [
        {
          "internalType": "uint256",
          "name": "",
          "type": "uint256"
        }
      ],
      "stateMutability": "view",
      "type": "function"
    },
    {
      "inputs": [
        {
          "internalType": "uint256",
          "name": "id",
          "type": "uint256"
        }
      ],
      "name": "tokenExists",
      "outputs": [
        {
          "internalType": "bool",
          "name": "exists",
          "type": "bool"
        }
      ],
      "stateMutability": "view",
      "type": "function"
    },
    {
      "inputs": [
        {
          "internalType": "uint256",
          "name": "tokenId",
          "type": "uint256"
        }
      ],
      "name": "tokenURI",
      "outputs": [
        {
          "internalType": "string",
          "name": "",
          "type": "string"
        }
      ],
      "stateMutability": "view",
      "type": "function"
    },
    {
      "inputs": [
        {
          "internalType": "address",
          "name": "from",
          "type": "address"
        },
        {
          "internalType": "address",
          "name": "to",
          "type": "address"
        },
        {
          "internalType": "uint256",
          "name": "tokenId",
          "type": "uint256"
        }
      ],
      "name": "transferFrom",
      "outputs": [],
      "stateMutability": "nonpayable",
      "type": "function"
    }
  ],
  "bytecode": "0x60806040523480156200001157600080fd5b506040518060400160405280601481526020017f5465737420436f7079726967687420546f6b656e0000000000000000000000008152506040518060400160405280600381526020017f544354000000000000000000000000000000000000000000000000000000000081525081600090816200008f91906200034e565b508060019081620000a191906200034e565b50505060076000908060018154018082558091505060019003906000526020600020016000909190919091505562000435565b600081519050919050565b7f4e487b7100000000000000000000000000000000000000000000000000000000600052604160045260246000fd5b7f4e487b7100000000000000000000000000000000000000000000000000000000600052602260045260246000fd5b600060028204905060018216806200015657607f821691505b6020821081036200016c576200016b6200010e565b5b50919050565b60008190508160005260206000209050919050565b60006020601f8301049050919050565b600082821b905092915050565b600060088302620001d67fffffffffffffffffffffffffffffffffffffffffffffffffffffffffffffffff8262000197565b620001e2868362000197565b95508019841693508086168417925050509392505050565b6000819050919050565b6000819050919050565b60006200022f620002296200022384620001fa565b62000204565b620001fa565b9050919050565b6000819050919050565b6200024b836200020e565b620002636200025a8262000236565b848454620001a4565b825550505050565b600090565b6200027a6200026b565b6200028781848462000240565b505050565b5b81811015620002af57620002a360008262000270565b6001810190506200028d565b5050565b601f821115620002fe57620002c88162000172565b620002d38462000187565b81016020851015620002e3578190505b620002fb620002f28562000187565b8301826200028c565b50505b505050565b600082821c905092915050565b6000620003236000198460080262000303565b1980831691505092915050565b60006200033e838362000310565b9150826002028217905092915050565b6200035982620000d4565b67ffffffffffffffff811115620003755762000374620000df565b5b6200038182546200013d565b6200038e828285620002b3565b600060209050601f831160018114620003c65760008415620003b1578287015190505b620003bd858262000330565b8655506200042d565b601f198416620003d68662000172565b60005b828110156200040057848901518255600182019150602085019450602081019050620003d9565b868310156200042057848901516200041c601f89168262000310565b8355505b6001600288020188555050505b505050505050565b617aa080620004456000396000f3fe608060405260043610620002415760003560e01c80636352211e11620001335780639f181b5e11620000af578063beae49421162000079578063beae4942146200091c578063c87b56dd146200094a578063ce8b4afd146200098e578063e4b50cb814620009bc578063e985e9c51462000a005762000241565b80639f181b5e1462000870578063a22cb46514620008a0578063b6b55f2514620008ce578063b88d4fde14620008ee5762000241565b806375175d9811620000fd57806375175d981462000746578063866fe41a146200078a57806395d89b4114620007b8578063981ad46814620007e85780639f0fcc11146200082c5762000241565b80636352211e146200064c5780636831dc2814620006905780636e2a00ee14620006be57806370a0823114620007025762000241565b806316b407a811620001c357806342842e0e116200018d57806342842e0e146200053a578063465365b914620005685780635b236f4d14620005965780635cadf4b114620005da5780635e24391514620006085762000241565b806316b407a8146200045457806323b872dd14620004985780632657322414620004c6578063285a37e414620004f65762000241565b8063081812fc1162000211578063081812fc146200032c578063095ea7b314620003705780630ab71fb1146200039e5780630b8e12fc14620003e25780630bd0624614620004265762000241565b8062923f9e146200024657806301ffc9a7146200028a57806306fdde0314620002ce578063076fcc1f14620002fe575b600080fd5b3480156200025357600080fd5b506200027260048036038101906200026c919062002bee565b62000a44565b60405162000281919062002c3d565b60405180910390f35b3480156200029757600080fd5b50620002b66004803603810190620002b0919062002cb7565b62000a8e565b604051620002c5919062002c3d565b60405180910390f35b348015620002db57600080fd5b50620002e662000b74565b604051620002f5919062002d8d565b60405180910390f35b3480156200030b57600080fd5b506200032a600480360381019062000324919062002db1565b62000c0e565b005b3480156200033957600080fd5b5062000358600480360381019062000352919062002bee565b62000c56565b60405162000367919062002e3d565b60405180910390f35b3480156200037d57600080fd5b506200039c600480360381019062000396919062002e8b565b62000ce0565b005b348015620003ab57600080fd5b50620003ca6004803603810190620003c4919062003184565b62000e08565b604051620003d99190620031e6565b60405180910390f35b348015620003ef57600080fd5b506200040e600480360381019062000408919062002bee565b62000e52565b6040516200041d9190620031e6565b60405180910390f35b3480156200043357600080fd5b506200045260048036038101906200044c9190620032d9565b62000e9c565b005b3480156200046157600080fd5b506200048060048036038101906200047a919062002bee565b6200126a565b6040516200048f9190620031e6565b60405180910390f35b348015620004a557600080fd5b50620004c46004803603810190620004be91906200333f565b620012b4565b005b348015620004d357600080fd5b50620004de6200131d565b604051620004ed919062003469565b60405180910390f35b3480156200050357600080fd5b506200052260048036038101906200051c91906200348d565b62001377565b60405162000531919062002c3d565b60405180910390f35b3480156200054757600080fd5b506200056660048036038101906200056091906200333f565b620013e3565b005b3480156200057557600080fd5b506200059460048036038101906200058e9190620034d4565b62001405565b005b348015620005a357600080fd5b50620005c26004803603810190620005bc919062002bee565b620014af565b604051620005d1919062002c3d565b60405180910390f35b348015620005e757600080fd5b50620006066004803603810190620006009190620035e3565b620014d9565b005b3480156200061557600080fd5b506200063460048036038101906200062e919062002bee565b620015c3565b60405162000643919062002c3d565b60405180910390f35b3480156200065957600080fd5b5062000678600480360381019062000672919062002bee565b620015ed565b60405162000687919062002e3d565b60405180910390f35b3480156200069d57600080fd5b50620006bc6004803603810190620006b69190620034d4565b620016a1565b005b348015620006cb57600080fd5b50620006ea6004803603810190620006e4919062002bee565b6200174b565b604051620006f9919062002e3d565b60405180910390f35b3480156200070f57600080fd5b506200072e6004803603810190620007289190620036b2565b620018fd565b6040516200073d9190620031e6565b60405180910390f35b3480156200075357600080fd5b506200077260048036038101906200076c919062002bee565b620019b7565b6040516200078191906200374f565b60405180910390f35b3480156200079757600080fd5b50620007b66004803603810190620007b091906200376c565b620019f4565b005b348015620007c557600080fd5b50620007d062001a3e565b604051620007df919062002d8d565b60405180910390f35b348015620007f557600080fd5b506200081460048036038101906200080e919062002bee565b62001ad8565b60405162000823919062002c3d565b60405180910390f35b3480156200083957600080fd5b5062000858600480360381019062000852919062002bee565b62001b22565b60405162000867919062002c3d565b60405180910390f35b3480156200087d57600080fd5b506200088862001b41565b604051620008979190620031e6565b60405180910390f35b348015620008ad57600080fd5b50620008cc6004803603810190620008c691906200381c565b62001b47565b005b620008ec6004803603810190620008e6919062002bee565b62001b61565b005b348015620008fb57600080fd5b506200091a600480360381019062000914919062003917565b62001bb1565b005b3480156200092957600080fd5b50620009486004803603810190620009429190620039a8565b62001c1c565b005b3480156200095757600080fd5b5062000976600480360381019062000970919062002bee565b62001c65565b60405162000985919062002d8d565b60405180910390f35b3480156200099b57600080fd5b50620009ba6004803603810190620009b49190620034d4565b62001d19565b005b348015620009c957600080fd5b50620009e86004803603810190620009e2919062002bee565b62001d61565b604051620009f7919062003bc3565b60405180910390f35b34801562000a0d57600080fd5b5062000a2c600480360381019062000a26919062003be7565b62001e3e565b60405162000a3b919062002c3d565b60405180910390f35b60008062000a89576040517f08c379a000000000000000000000000000000000000000000000000000000000815260040162000a809062003c7e565b60405180910390fd5b919050565b60007f80ac58cd000000000000000000000000000000000000000000000000000000007bffffffffffffffffffffffffffffffffffffffffffffffffffffffff1916827bffffffffffffffffffffffffffffffffffffffffffffffffffffffff1916148062000b5a57507f5b5e139f000000000000000000000000000000000000000000000000000000007bffffffffffffffffffffffffffffffffffffffffffffffffffffffff1916827bffffffffffffffffffffffffffffffffffffffffffffffffffffffff1916145b8062000b6d575062000b6c8262001ed2565b5b9050919050565b60606000805462000b859062003ccf565b80601f016020809104026020016040519081016040528092919081815260200182805462000bb39062003ccf565b801562000c045780601f1062000bd85761010080835404028352916020019162000c04565b820191906000526020600020905b81548152906001019060200180831162000be657829003601f168201915b5050505050905090565b600062000c52576040517f08c379a000000000000000000000000000000000000000000000000000000000815260040162000c499062003c7e565b60405180910390fd5b5050565b600062000c638262001f3c565b62000ca5576040517f08c379a000000000000000000000000000000000000000000000000000000000815260040162000c9c9062003d7a565b60405180910390fd5b6004600083815260200190815260200160002060009054906101000a900473ffffffffffffffffffffffffffffffffffffffff169050919050565b600062000ced82620015ed565b90508073ffffffffffffffffffffffffffffffffffffffff168373ffffffffffffffffffffffffffffffffffffffff160362000d60576040517f08c379a000000000000000000000000000000000000000000000000000000000815260040162000d579062003e12565b60405180910390fd5b8073ffffffffffffffffffffffffffffffffffffffff1662000d8162001fa8565b73ffffffffffffffffffffffffffffffffffffffff16148062000db5575062000db48162000dae62001fa8565b62001e3e565b5b62000df7576040517f08c379a000000000000000000000000000000000000000000000000000000000815260040162000dee9062003eaa565b60405180910390fd5b62000e03838362001fb0565b505050565b60008062000e4d576040517f08c379a000000000000000000000000000000000000000000000000000000000815260040162000e449062003c7e565b60405180910390fd5b919050565b60008062000e97576040517f08c379a000000000000000000000000000000000000000000000000000000000815260040162000e8e9062003c7e565b60405180910390fd5b919050565b600060066000815462000eaf9062003efb565b919050819055905062000ecc62000ec562001fa8565b826200206b565b81600960008381526020019081526020016000206000018190555042600960008381526020019081526020016000206001018190555060005b83518110156200107257600084828151811062000f275762000f2662003f48565b5b60200260200101510362000f72576040517f08c379a000000000000000000000000000000000000000000000000000000000815260040162000f699062003fed565b60405180910390fd5b62000f9a84828151811062000f8c5762000f8b62003f48565b5b602002602001015162001f3c565b62000fdc576040517f08c379a000000000000000000000000000000000000000000000000000000000815260040162000fd3906200405f565b60405180910390fd5b600b600085838151811062000ff65762000ff562003f48565b5b6020026020010151815260200190815260200160002060009054906101000a900460ff166200105c576040517f08c379a00000000000000000000000000000000000000000000000000000000081526004016200105390620040f7565b60405180910390fd5b8080620010699062003efb565b91505062000f05565b50600083511115620012105760005b835181101562001209576000848281518110620010a357620010a262003f48565b5b6020026020010151905060006040518060400160405280838152602001600960008581526020019081526020016000206000015481525090506009600060065481526020019081526020016000206003018190806001815401808255809150506001900390600052602060002090600202016000909190919091506000820151816000015560208201518160010155505060096000600654815260200190815260200160002060040160008154809291906200115f9062003efb565b91905055506000600860008481526020019081526020016000205414620011f157600060086000848152602001908152602001600020549050600060086000858152602001908152602001600020819055508060086000878152602001908152602001600020819055508460078281548110620011e157620011e062003f48565b5b9060005260206000200181905550505b50508080620012009062003efb565b91505062001081565b5062001265565b600781908060018154018082558091505060019003906000526020600020016000909190919091505560016007805490506200124d919062004119565b60086000838152602001908152602001600020819055505b505050565b600080620012af576040517f08c379a0000000000000000000000000000000000000000000000000000000008152600401620012a69062003c7e565b60405180910390fd5b919050565b620012c9620012c262001fa8565b826200208b565b6200130b576040517f08c379a00000000000000000000000000000000000000000000000000000000081526004016200130290620041ca565b60405180910390fd5b6200131883838362002176565b505050565b606060078054806020026020016040519081016040528092919081815260200182805480156200136d57602002820191906000526020600020905b81548152602001906001019080831162001358575b5050505050905090565b60008173ffffffffffffffffffffffffffffffffffffffff16600c600085815260200190815260200160002060009054906101000a900473ffffffffffffffffffffffffffffffffffffffff1673ffffffffffffffffffffffffffffffffffffffff1614905092915050565b620014008383836040518060200160405280600081525062001bb1565b505050565b3373ffffffffffffffffffffffffffffffffffffffff166200142783620015ed565b73ffffffffffffffffffffffffffffffffffffffff161462001480576040517f08c379a0000000000000000000000000000000000000000000000000000000008152600401620014779062004262565b60405180910390fd5b80600b600084815260200190815260200160002060006101000a81548160ff0219169083151502179055505050565b6000600b600083815260200190815260200160002060009054906101000a900460ff169050919050565b3373ffffffffffffffffffffffffffffffffffffffff16620014fb85620015ed565b73ffffffffffffffffffffffffffffffffffffffff161462001554576040517f08c379a00000000000000000000000000000000000000000000000000000000081526004016200154b90620042fa565b60405180910390fd5b82600d60008681526020019081526020016000209081620015769190620044e4565b5081600e60008681526020019081526020016000209081620015999190620044e4565b5080600f60008681526020019081526020016000209081620015bc9190620044e4565b5050505050565b6000600a600083815260200190815260200160002060009054906101000a900460ff169050919050565b6000806002600084815260200190815260200160002060009054906101000a900473ffffffffffffffffffffffffffffffffffffffff169050600073ffffffffffffffffffffffffffffffffffffffff168173ffffffffffffffffffffffffffffffffffffffff160362001698576040517f08c379a00000000000000000000000000000000000000000000000000000000081526004016200168f9062004641565b60405180910390fd5b80915050919050565b3373ffffffffffffffffffffffffffffffffffffffff16620016c383620015ed565b73ffffffffffffffffffffffffffffffffffffffff16146200171c576040517f08c379a0000000000000000000000000000000000000000000000000000000008152600401620017139062004262565b60405180910390fd5b80600a600084815260200190815260200160002060006101000a81548160ff0219169083151502179055505050565b6000600a600083815260200190815260200160002060009054906101000a900460ff16620017b0576040517f08c379a0000000000000000000000000000000000000000000000000000000008152600401620017a790620046d9565b60405180910390fd5b3373ffffffffffffffffffffffffffffffffffffffff16620017d283620015ed565b73ffffffffffffffffffffffffffffffffffffffff16146200182b576040517f08c379a00000000000000000000000000000000000000000000000000000000081526004016200182290620042fa565b60405180910390fd5b6000600d6000848152602001908152602001600020600e6000858152602001908152602001600020600f6000868152602001908152602001600020604051620018749062002b60565b62001882939291906200478b565b604051809103906000f0801580156200189f573d6000803e3d6000fd5b50905080600c600085815260200190815260200160002060006101000a81548173ffffffffffffffffffffffffffffffffffffffff021916908373ffffffffffffffffffffffffffffffffffffffff16021790555080915050919050565b60008073ffffffffffffffffffffffffffffffffffffffff168273ffffffffffffffffffffffffffffffffffffffff160362001970576040517f08c379a0000000000000000000000000000000000000000000000000000000008152600401620019679062004853565b60405180910390fd5b600360008373ffffffffffffffffffffffffffffffffffffffff1673ffffffffffffffffffffffffffffffffffffffff168152602001908152602001600020549050919050565b6000600c600083815260200190815260200160002060009054906101000a900473ffffffffffffffffffffffffffffffffffffffff169050919050565b600062001a38576040517f08c379a000000000000000000000000000000000000000000000000000000000815260040162001a2f9062003c7e565b60405180910390fd5b50505050565b60606001805462001a4f9062003ccf565b80601f016020809104026020016040519081016040528092919081815260200182805462001a7d9062003ccf565b801562001ace5780601f1062001aa25761010080835404028352916020019162001ace565b820191906000526020600020905b81548152906001019060200180831162001ab057829003601f168201915b5050505050905090565b60008062001b1d576040517f08c379a000000000000000000000000000000000000000000000000000000000815260040162001b149062003c7e565b60405180910390fd5b919050565b6000806008600084815260200190815260200160002054119050919050565b60065481565b62001b5d62001b5562001fa8565b8383620023ee565b5050565b62001b6c8162001f3c565b62001bae576040517f08c379a000000000000000000000000000000000000000000000000000000000815260040162001ba590620048eb565b60405180910390fd5b50565b62001bc662001bbf62001fa8565b836200208b565b62001c08576040517f08c379a000000000000000000000000000000000000000000000000000000000815260040162001bff90620041ca565b60405180910390fd5b62001c16848484846200255f565b50505050565b600062001c60576040517f08c379a000000000000000000000000000000000000000000000000000000000815260040162001c579062003c7e565b60405180910390fd5b505050565b606062001c728262001f3c565b62001cb4576040517f08c379a000000000000000000000000000000000000000000000000000000000815260040162001cab9062004983565b60405180910390fd5b600062001cc0620025c2565b9050600081511162001ce2576040518060200160405280600081525062001d11565b8062001cee84620025d9565b60405160200162001d01929190620049e7565b6040516020818303038152906040525b915050919050565b600062001d5d576040517f08c379a000000000000000000000000000000000000000000000000000000000815260040162001d549062003c7e565b60405180910390fd5b5050565b62001d6b62002b6e565b600960008381526020019081526020016000206040518060a001604052908160008201548152602001600182015481526020016002820160009054906101000a900460ff1615151515815260200160038201805480602002602001604051908101604052809291908181526020016000905b8282101562001e255783829060005260206000209060020201604051806040016040529081600082015481526020016001820154815250508152602001906001019062001ddd565b5050505081526020016004820154815250509050919050565b6000600560008473ffffffffffffffffffffffffffffffffffffffff1673ffffffffffffffffffffffffffffffffffffffff16815260200190815260200160002060008373ffffffffffffffffffffffffffffffffffffffff1673ffffffffffffffffffffffffffffffffffffffff16815260200190815260200160002060009054906101000a900460ff16905092915050565b60007f01ffc9a7000000000000000000000000000000000000000000000000000000007bffffffffffffffffffffffffffffffffffffffffffffffffffffffff1916827bffffffffffffffffffffffffffffffffffffffffffffffffffffffff1916149050919050565b60008073ffffffffffffffffffffffffffffffffffffffff166002600084815260200190815260200160002060009054906101000a900473ffffffffffffffffffffffffffffffffffffffff1673ffffffffffffffffffffffffffffffffffffffff1614159050919050565b600033905090565b816004600083815260200190815260200160002060006101000a81548173ffffffffffffffffffffffffffffffffffffffff021916908373ffffffffffffffffffffffffffffffffffffffff160217905550808273ffffffffffffffffffffffffffffffffffffffff166200202583620015ed565b73ffffffffffffffffffffffffffffffffffffffff167f8c5be1e5ebec7d5bd14f71427d1e84f3dd0314c0f7b2291e5b200ac8c7c3b92560405160405180910390a45050565b6200208782826040518060200160405280600081525062002752565b5050565b6000620020988262001f3c565b620020da576040517f08c379a0000000000000000000000000000000000000000000000000000000008152600401620020d19062004a85565b60405180910390fd5b6000620020e783620015ed565b90508073ffffffffffffffffffffffffffffffffffffffff168473ffffffffffffffffffffffffffffffffffffffff1614806200212c57506200212b818562001e3e565b5b806200216d57508373ffffffffffffffffffffffffffffffffffffffff16620021558462000c56565b73ffffffffffffffffffffffffffffffffffffffff16145b91505092915050565b8273ffffffffffffffffffffffffffffffffffffffff166200219882620015ed565b73ffffffffffffffffffffffffffffffffffffffff1614620021f1576040517f08c379a0000000000000000000000000000000000000000000000000000000008152600401620021e89062004b1d565b60405180910390fd5b600073ffffffffffffffffffffffffffffffffffffffff168273ffffffffffffffffffffffffffffffffffffffff160362002263576040517f08c379a00000000000000000000000000000000000000000000000000000000081526004016200225a9062004bb5565b60405180910390fd5b62002270838383620027b4565b6200227d60008262001fb0565b6001600360008573ffffffffffffffffffffffffffffffffffffffff1673ffffffffffffffffffffffffffffffffffffffff1681526020019081526020016000206000828254620022cf919062004119565b925050819055506001600360008473ffffffffffffffffffffffffffffffffffffffff1673ffffffffffffffffffffffffffffffffffffffff168152602001908152602001600020600082825462002328919062004bd7565b92505081905550816002600083815260200190815260200160002060006101000a81548173ffffffffffffffffffffffffffffffffffffffff021916908373ffffffffffffffffffffffffffffffffffffffff160217905550808273ffffffffffffffffffffffffffffffffffffffff168473ffffffffffffffffffffffffffffffffffffffff167fddf252ad1be2c89b69c2b068fc378daa952ba7f163c4a11628f55a4df523b3ef60405160405180910390a4620023e9838383620027b9565b505050565b8173ffffffffffffffffffffffffffffffffffffffff168373ffffffffffffffffffffffffffffffffffffffff16036200245f576040517f08c379a0000000000000000000000000000000000000000000000000000000008152600401620024569062004c84565b60405180910390fd5b80600560008573ffffffffffffffffffffffffffffffffffffffff1673ffffffffffffffffffffffffffffffffffffffff16815260200190815260200160002060008473ffffffffffffffffffffffffffffffffffffffff1673ffffffffffffffffffffffffffffffffffffffff16815260200190815260200160002060006101000a81548160ff0219169083151502179055508173ffffffffffffffffffffffffffffffffffffffff168373ffffffffffffffffffffffffffffffffffffffff167f17307eab39ab6107e8899845ad3d59bd9653f200f220920489ca2b5937696c318360405162002552919062002c3d565b60405180910390a3505050565b6200256c84848462002176565b6200257a84848484620027be565b620025bc576040517f08c379a0000000000000000000000000000000000000000000000000000000008152600401620025b39062004d1c565b60405180910390fd5b50505050565b606060405180602001604052806000815250905090565b60606000820362002622576040518060400160405280600181526020017f300000000000000000000000000000000000000000000000000000000000000081525090506200274d565b600082905060005b600082146200265a578080620026409062003efb565b915050600a8262002652919062004d6d565b91506200262a565b60008167ffffffffffffffff81111562002679576200267862002ed7565b5b6040519080825280601f01601f191660200182016040528015620026ac5781602001600182028036833780820191505090505b5090505b600085146200274657600182620026c8919062004119565b9150600a85620026d9919062004da5565b6030620026e7919062004bd7565b60f81b8183815181106200270057620026ff62003f48565b5b60200101907effffffffffffffffffffffffffffffffffffffffffffffffffffffffffffff1916908160001a905350600a856200273e919062004d6d565b9450620026b0565b8093505050505b919050565b6200275e838362002956565b6200276d6000848484620027be565b620027af576040517f08c379a0000000000000000000000000000000000000000000000000000000008152600401620027a69062004d1c565b60405180910390fd5b505050565b505050565b505050565b6000620027e18473ffffffffffffffffffffffffffffffffffffffff1662002b3d565b1562002949578373ffffffffffffffffffffffffffffffffffffffff1663150b7a026200280d62001fa8565b8786866040518563ffffffff1660e01b815260040162002831949392919062004e3a565b6020604051808303816000875af19250505080156200287057506040513d601f19601f820116820180604052508101906200286d919062004ea5565b60015b620028f8573d8060008114620028a3576040519150601f19603f3d011682016040523d82523d6000602084013e620028a8565b606091505b506000815103620028f0576040517f08c379a0000000000000000000000000000000000000000000000000000000008152600401620028e79062004d1c565b60405180910390fd5b805181602001fd5b63150b7a0260e01b7bffffffffffffffffffffffffffffffffffffffffffffffffffffffff1916817bffffffffffffffffffffffffffffffffffffffffffffffffffffffff1916149150506200294e565b600190505b949350505050565b600073ffffffffffffffffffffffffffffffffffffffff168273ffffffffffffffffffffffffffffffffffffffff1603620029c8576040517f08c379a0000000000000000000000000000000000000000000000000000000008152600401620029bf9062004f27565b60405180910390fd5b620029d38162001f3c565b1562002a16576040517f08c379a000000000000000000000000000000000000000000000000000000000815260040162002a0d9062004f99565b60405180910390fd5b62002a2460008383620027b4565b6001600360008473ffffffffffffffffffffffffffffffffffffffff1673ffffffffffffffffffffffffffffffffffffffff168152602001908152602001600020600082825462002a76919062004bd7565b92505081905550816002600083815260200190815260200160002060006101000a81548173ffffffffffffffffffffffffffffffffffffffff021916908373ffffffffffffffffffffffffffffffffffffffff160217905550808273ffffffffffffffffffffffffffffffffffffffff16600073ffffffffffffffffffffffffffffffffffffffff167fddf252ad1be2c89b69c2b068fc378daa952ba7f163c4a11628f55a4df523b3ef60405160405180910390a462002b3960008383620027b9565b5050565b6000808273ffffffffffffffffffffffffffffffffffffffff163b119050919050565b612aaf8062004fbc83390190565b6040518060a00160405280600081526020016000815260200160001515815260200160608152602001600081525090565b6000604051905090565b600080fd5b600080fd5b6000819050919050565b62002bc88162002bb3565b811462002bd457600080fd5b50565b60008135905062002be88162002bbd565b92915050565b60006020828403121562002c075762002c0662002ba9565b5b600062002c178482850162002bd7565b91505092915050565b60008115159050919050565b62002c378162002c20565b82525050565b600060208201905062002c54600083018462002c2c565b92915050565b60007fffffffff0000000000000000000000000000000000000000000000000000000082169050919050565b62002c918162002c5a565b811462002c9d57600080fd5b50565b60008135905062002cb18162002c86565b92915050565b60006020828403121562002cd05762002ccf62002ba9565b5b600062002ce08482850162002ca0565b91505092915050565b600081519050919050565b600082825260208201905092915050565b60005b8381101562002d2557808201518184015260208101905062002d08565b8381111562002d35576000848401525b50505050565b6000601f19601f8301169050919050565b600062002d598262002ce9565b62002d65818562002cf4565b935062002d7781856020860162002d05565b62002d828162002d3b565b840191505092915050565b6000602082019050818103600083015262002da9818462002d4c565b905092915050565b6000806040838503121562002dcb5762002dca62002ba9565b5b600062002ddb8582860162002bd7565b925050602062002dee8582860162002bd7565b9150509250929050565b600073ffffffffffffffffffffffffffffffffffffffff82169050919050565b600062002e258262002df8565b9050919050565b62002e378162002e18565b82525050565b600060208201905062002e54600083018462002e2c565b92915050565b62002e658162002e18565b811462002e7157600080fd5b50565b60008135905062002e858162002e5a565b92915050565b6000806040838503121562002ea55762002ea462002ba9565b5b600062002eb58582860162002e74565b925050602062002ec88582860162002bd7565b9150509250929050565b600080fd5b7f4e487b7100000000000000000000000000000000000000000000000000000000600052604160045260246000fd5b62002f118262002d3b565b810181811067ffffffffffffffff8211171562002f335762002f3262002ed7565b5b80604052505050565b600062002f4862002b9f565b905062002f56828262002f06565b919050565b600080fd5b62002f6b8162002c20565b811462002f7757600080fd5b50565b60008135905062002f8b8162002f60565b92915050565b600080fd5b600067ffffffffffffffff82111562002fb45762002fb362002ed7565b5b602082029050602081019050919050565b600080fd5b60006040828403121562002fe35762002fe262002ed2565b5b62002fef604062002f3c565b90506000620030018482850162002bd7565b6000830152506020620030178482850162002bd7565b60208301525092915050565b60006200303a620030348462002f96565b62002f3c565b9050808382526020820190506040840283018581111562003060576200305f62002fc5565b5b835b818110156200308d578062003078888262002fca565b84526020840193505060408101905062003062565b5050509392505050565b600082601f830112620030af57620030ae62002f91565b5b8135620030c184826020860162003023565b91505092915050565b600060a08284031215620030e357620030e262002ed2565b5b620030ef60a062002f3c565b90506000620031018482850162002bd7565b6000830152506020620031178482850162002bd7565b60208301525060406200312d8482850162002f7a565b604083015250606082013567ffffffffffffffff81111562003154576200315362002f5b565b5b620031628482850162003097565b6060830152506080620031788482850162002bd7565b60808301525092915050565b6000602082840312156200319d576200319c62002ba9565b5b600082013567ffffffffffffffff811115620031be57620031bd62002bae565b5b620031cc84828501620030ca565b91505092915050565b620031e08162002bb3565b82525050565b6000602082019050620031fd6000830184620031d5565b92915050565b600067ffffffffffffffff82111562003221576200322062002ed7565b5b602082029050602081019050919050565b600062003249620032438462003203565b62002f3c565b905080838252602082019050602084028301858111156200326f576200326e62002fc5565b5b835b818110156200329c578062003287888262002bd7565b84526020840193505060208101905062003271565b5050509392505050565b600082601f830112620032be57620032bd62002f91565b5b8135620032d084826020860162003232565b91505092915050565b60008060408385031215620032f357620032f262002ba9565b5b600083013567ffffffffffffffff81111562003314576200331362002bae565b5b6200332285828601620032a6565b9250506020620033358582860162002bd7565b9150509250929050565b6000806000606084860312156200335b576200335a62002ba9565b5b60006200336b8682870162002e74565b93505060206200337e8682870162002e74565b9250506040620033918682870162002bd7565b9150509250925092565b600081519050919050565b600082825260208201905092915050565b6000819050602082019050919050565b620033d28162002bb3565b82525050565b6000620033e68383620033c7565b60208301905092915050565b6000602082019050919050565b60006200340c826200339b565b620034188185620033a6565b93506200342583620033b7565b8060005b838110156200345c578151620034408882620033d8565b97506200344d83620033f2565b92505060018101905062003429565b5085935050505092915050565b60006020820190508181036000830152620034858184620033ff565b905092915050565b60008060408385031215620034a757620034a662002ba9565b5b6000620034b78582860162002bd7565b9250506020620034ca8582860162002e74565b9150509250929050565b60008060408385031215620034ee57620034ed62002ba9565b5b6000620034fe8582860162002bd7565b9250506020620035118582860162002f7a565b9150509250929050565b600080fd5b600067ffffffffffffffff8211156200353e576200353d62002ed7565b5b620035498262002d3b565b9050602081019050919050565b82818337600083830152505050565b60006200357c620035768462003520565b62002f3c565b9050828152602081018484840111156200359b576200359a6200351b565b5b620035a884828562003556565b509392505050565b600082601f830112620035c857620035c762002f91565b5b8135620035da84826020860162003565565b91505092915050565b600080600080608085870312156200360057620035ff62002ba9565b5b6000620036108782880162002bd7565b945050602085013567ffffffffffffffff81111562003634576200363362002bae565b5b6200364287828801620035b0565b935050604085013567ffffffffffffffff81111562003666576200366562002bae565b5b6200367487828801620035b0565b925050606085013567ffffffffffffffff81111562003698576200369762002bae565b5b620036a687828801620035b0565b91505092959194509250565b600060208284031215620036cb57620036ca62002ba9565b5b6000620036db8482850162002e74565b91505092915050565b6000819050919050565b60006200370f62003709620037038462002df8565b620036e4565b62002df8565b9050919050565b60006200372382620036ee565b9050919050565b6000620037378262003716565b9050919050565b62003749816200372a565b82525050565b60006020820190506200376660008301846200373e565b92915050565b6000806000806080858703121562003789576200378862002ba9565b5b600085013567ffffffffffffffff811115620037aa57620037a962002bae565b5b620037b887828801620032a6565b945050602085013567ffffffffffffffff811115620037dc57620037db62002bae565b5b620037ea87828801620032a6565b9350506040620037fd8782880162002bd7565b9250506060620038108782880162002bd7565b91505092959194509250565b6000806040838503121562003836576200383562002ba9565b5b6000620038468582860162002e74565b9250506020620038598582860162002f7a565b9150509250929050565b600067ffffffffffffffff82111562003881576200388062002ed7565b5b6200388c8262002d3b565b9050602081019050919050565b6000620038b0620038aa8462003863565b62002f3c565b905082815260208101848484011115620038cf57620038ce6200351b565b5b620038dc84828562003556565b509392505050565b600082601f830112620038fc57620038fb62002f91565b5b81356200390e84826020860162003899565b91505092915050565b6000806000806080858703121562003934576200393362002ba9565b5b6000620039448782880162002e74565b9450506020620039578782880162002e74565b93505060406200396a8782880162002bd7565b925050606085013567ffffffffffffffff8111156200398e576200398d62002bae565b5b6200399c87828801620038e4565b91505092959194509250565b600080600060608486031215620039c457620039c362002ba9565b5b600084013567ffffffffffffffff811115620039e557620039e462002bae565b5b620039f386828701620032a6565b935050602084013567ffffffffffffffff81111562003a175762003a1662002bae565b5b62003a2586828701620032a6565b925050604062003a388682870162002bd7565b9150509250925092565b62003a4d8162002c20565b82525050565b600081519050919050565b600082825260208201905092915050565b6000819050602082019050919050565b60408201600082015162003a976000850182620033c7565b50602082015162003aac6020850182620033c7565b50505050565b600062003ac0838362003a7f565b60408301905092915050565b6000602082019050919050565b600062003ae68262003a53565b62003af2818562003a5e565b935062003aff8362003a6f565b8060005b8381101562003b3657815162003b1a888262003ab2565b975062003b278362003acc565b92505060018101905062003b03565b5085935050505092915050565b600060a08301600083015162003b5d6000860182620033c7565b50602083015162003b726020860182620033c7565b50604083015162003b87604086018262003a42565b506060830151848203606086015262003ba1828262003ad9565b915050608083015162003bb86080860182620033c7565b508091505092915050565b6000602082019050818103600083015262003bdf818462003b43565b905092915050565b6000806040838503121562003c015762003c0062002ba9565b5b600062003c118582860162002e74565b925050602062003c248582860162002e74565b9150509250929050565b7f4e6f7420696d706c656d656e746564207965742e000000000000000000000000600082015250565b600062003c6660148362002cf4565b915062003c738262003c2e565b602082019050919050565b6000602082019050818103600083015262003c998162003c57565b9050919050565b7f4e487b7100000000000000000000000000000000000000000000000000000000600052602260045260246000fd5b6000600282049050600182168062003ce857607f821691505b60208210810362003cfe5762003cfd62003ca0565b5b50919050565b7f4552433732313a20617070726f76656420717565727920666f72206e6f6e657860008201527f697374656e7420746f6b656e0000000000000000000000000000000000000000602082015250565b600062003d62602c8362002cf4565b915062003d6f8262003d04565b604082019050919050565b6000602082019050818103600083015262003d958162003d53565b9050919050565b7f4552433732313a20617070726f76616c20746f2063757272656e74206f776e6560008201527f7200000000000000000000000000000000000000000000000000000000000000602082015250565b600062003dfa60218362002cf4565b915062003e078262003d9c565b604082019050919050565b6000602082019050818103600083015262003e2d8162003deb565b9050919050565b7f4552433732313a20617070726f76652063616c6c6572206973206e6f74206f7760008201527f6e6572206e6f7220617070726f76656420666f7220616c6c0000000000000000602082015250565b600062003e9260388362002cf4565b915062003e9f8262003e34565b604082019050919050565b6000602082019050818103600083015262003ec58162003e83565b9050919050565b7f4e487b7100000000000000000000000000000000000000000000000000000000600052601160045260246000fd5b600062003f088262002bb3565b91507fffffffffffffffffffffffffffffffffffffffffffffffffffffffffffffffff820362003f3d5762003f3c62003ecc565b5b600182019050919050565b7f4e487b7100000000000000000000000000000000000000000000000000000000600052603260045260246000fd5b7f506172656e7420746f6b656e204944206f66206120706172656e74206973207a60008201527f65726f2e00000000000000000000000000000000000000000000000000000000602082015250565b600062003fd560248362002cf4565b915062003fe28262003f77565b604082019050919050565b60006020820190508181036000830152620040088162003fc6565b9050919050565b7f506172656e7420746f6b656e20646f6573206e6f742065786973742e00000000600082015250565b600062004047601c8362002cf4565b915062004054826200400f565b602082019050919050565b600060208201905081810360008301526200407a8162004038565b9050919050565b7f506172656e7420746f6b656e20646f6573206e6f7420616c6c6f772061646f7060008201527f74696f6e2e000000000000000000000000000000000000000000000000000000602082015250565b6000620040df60258362002cf4565b9150620040ec8262004081565b604082019050919050565b600060208201905081810360008301526200411281620040d0565b9050919050565b6000620041268262002bb3565b9150620041338362002bb3565b92508282101562004149576200414862003ecc565b5b828203905092915050565b7f4552433732313a207472616e736665722063616c6c6572206973206e6f74206f60008201527f776e6572206e6f7220617070726f766564000000000000000000000000000000602082015250565b6000620041b260318362002cf4565b9150620041bf8262004154565b604082019050919050565b60006020820190508181036000830152620041e581620041a3565b9050919050565b7f596f7520646f6e27742068617665207065726d697373696f6e20746f2063686160008201527f6e6765207065726d697373696f6e2e0000000000000000000000000000000000602082015250565b60006200424a602f8362002cf4565b91506200425782620041ec565b604082019050919050565b600060208201905081810360008301526200427d816200423b565b9050919050565b7f596f7520646f6e27742068617665207065726d697373696f6e20746f2063686160008201527f6e676520696e666f2e0000000000000000000000000000000000000000000000602082015250565b6000620042e260298362002cf4565b9150620042ef8262004284565b604082019050919050565b600060208201905081810360008301526200431581620042d3565b9050919050565b60008190508160005260206000209050919050565b60006020601f8301049050919050565b600082821b905092915050565b600060088302620043807fffffffffffffffffffffffffffffffffffffffffffffffffffffffffffffffff8262004341565b6200438c868362004341565b95508019841693508086168417925050509392505050565b6000620043c5620043bf620043b98462002bb3565b620036e4565b62002bb3565b9050919050565b6000819050919050565b620043e183620043a4565b620043f9620043f082620043cc565b8484546200434e565b825550505050565b600090565b6200441062004401565b6200441d818484620043d6565b505050565b5b8181101562004445576200443960008262004406565b60018101905062004423565b5050565b601f82111562004494576200445e816200431c565b620044698462004331565b8101602085101562004479578190505b62004491620044888562004331565b83018262004422565b50505b505050565b600082821c905092915050565b6000620044b96000198460080262004499565b1980831691505092915050565b6000620044d48383620044a6565b9150826002028217905092915050565b620044ef8262002ce9565b67ffffffffffffffff8111156200450b576200450a62002ed7565b5b62004517825462003ccf565b6200452482828562004449565b600060209050601f8311600181146200455c576000841562004547578287015190505b620045538582620044c6565b865550620045c3565b601f1984166200456c866200431c565b60005b8281101562004596578489015182556001820191506020850194506020810190506200456f565b86831015620045b65784890151620045b2601f891682620044a6565b8355505b6001600288020188555050505b505050505050565b7f4552433732313a206f776e657220717565727920666f72206e6f6e657869737460008201527f656e7420746f6b656e0000000000000000000000000000000000000000000000602082015250565b60006200462960298362002cf4565b91506200463682620045cb565b604082019050919050565b600060208201905081810360008301526200465c816200461a565b9050919050565b7f54686520636f70797269676874206f776e657220646f6573206e6f7420616c6c60008201527f6f7720646973747269627574696f6e2e00000000000000000000000000000000602082015250565b6000620046c160308362002cf4565b9150620046ce8262004663565b604082019050919050565b60006020820190508181036000830152620046f481620046b2565b9050919050565b600081546200470a8162003ccf565b62004716818662002cf4565b945060018216600081146200473457600181146200474b5762004782565b60ff19831686528115156020028601935062004782565b62004756856200431c565b60005b838110156200477a5781548189015260018201915060208101905062004759565b808801955050505b50505092915050565b60006060820190508181036000830152620047a78186620046fb565b90508181036020830152620047bd8185620046fb565b90508181036040830152620047d38184620046fb565b9050949350505050565b7f4552433732313a2062616c616e636520717565727920666f7220746865207a6560008201527f726f206164647265737300000000000000000000000000000000000000000000602082015250565b60006200483b602a8362002cf4565b91506200484882620047dd565b604082019050919050565b600060208201905081810360008301526200486e816200482c565b9050919050565b7f54686520746f6b656e20796f75206d616b65206465706f73697420746f20646f60008201527f6573206e6f742065786973742e00000000000000000000000000000000000000602082015250565b6000620048d3602d8362002cf4565b9150620048e08262004875565b604082019050919050565b600060208201905081810360008301526200490681620048c4565b9050919050565b7f4552433732314d657461646174613a2055524920717565727920666f72206e6f60008201527f6e6578697374656e7420746f6b656e0000000000000000000000000000000000602082015250565b60006200496b602f8362002cf4565b915062004978826200490d565b604082019050919050565b600060208201905081810360008301526200499e816200495c565b9050919050565b600081905092915050565b6000620049bd8262002ce9565b620049c98185620049a5565b9350620049db81856020860162002d05565b80840191505092915050565b6000620049f58285620049b0565b915062004a038284620049b0565b91508190509392505050565b7f4552433732313a206f70657261746f7220717565727920666f72206e6f6e657860008201527f697374656e7420746f6b656e0000000000000000000000000000000000000000602082015250565b600062004a6d602c8362002cf4565b915062004a7a8262004a0f565b604082019050919050565b6000602082019050818103600083015262004aa08162004a5e565b9050919050565b7f4552433732313a207472616e736665722066726f6d20696e636f72726563742060008201527f6f776e6572000000000000000000000000000000000000000000000000000000602082015250565b600062004b0560258362002cf4565b915062004b128262004aa7565b604082019050919050565b6000602082019050818103600083015262004b388162004af6565b9050919050565b7f4552433732313a207472616e7366657220746f20746865207a65726f2061646460008201527f7265737300000000000000000000000000000000000000000000000000000000602082015250565b600062004b9d60248362002cf4565b915062004baa8262004b3f565b604082019050919050565b6000602082019050818103600083015262004bd08162004b8e565b9050919050565b600062004be48262002bb3565b915062004bf18362002bb3565b9250827fffffffffffffffffffffffffffffffffffffffffffffffffffffffffffffffff0382111562004c295762004c2862003ecc565b5b828201905092915050565b7f4552433732313a20617070726f766520746f2063616c6c657200000000000000600082015250565b600062004c6c60198362002cf4565b915062004c798262004c34565b602082019050919050565b6000602082019050818103600083015262004c9f8162004c5d565b9050919050565b7f4552433732313a207472616e7366657220746f206e6f6e20455243373231526560008201527f63656976657220696d706c656d656e7465720000000000000000000000000000602082015250565b600062004d0460328362002cf4565b915062004d118262004ca6565b604082019050919050565b6000602082019050818103600083015262004d378162004cf5565b9050919050565b7f4e487b7100000000000000000000000000000000000000000000000000000000600052601260045260246000fd5b600062004d7a8262002bb3565b915062004d878362002bb3565b92508262004d9a5762004d9962004d3e565b5b828204905092915050565b600062004db28262002bb3565b915062004dbf8362002bb3565b92508262004dd25762004dd162004d3e565b5b828206905092915050565b600081519050919050565b600082825260208201905092915050565b600062004e068262004ddd565b62004e12818562004de8565b935062004e2481856020860162002d05565b62004e2f8162002d3b565b840191505092915050565b600060808201905062004e51600083018762002e2c565b62004e60602083018662002e2c565b62004e6f6040830185620031d5565b818103606083015262004e83818462004df9565b905095945050505050565b60008151905062004e9f8162002c86565b92915050565b60006020828403121562004ebe5762004ebd62002ba9565b5b600062004ece8482850162004e8e565b91505092915050565b7f4552433732313a206d696e7420746f20746865207a65726f2061646472657373600082015250565b600062004f0f60208362002cf4565b915062004f1c8262004ed7565b602082019050919050565b6000602082019050818103600083015262004f428162004f00565b9050919050565b7f4552433732313a20746f6b656e20616c7265616479206d696e74656400000000600082015250565b600062004f81601c8362002cf4565b915062004f8e8262004f49565b602082019050919050565b6000602082019050818103600083015262004fb48162004f72565b905091905056fe60806040523480156200001157600080fd5b5060405162002aaf38038062002aaf833981810160405281019062000037919062000217565b828281600090816200004a91906200051b565b5080600190816200005c91906200051b565b50505080600690816200007091906200051b565b5050505062000602565b6000604051905090565b600080fd5b600080fd5b600080fd5b600080fd5b6000601f19601f8301169050919050565b7f4e487b7100000000000000000000000000000000000000000000000000000000600052604160045260246000fd5b620000e38262000098565b810181811067ffffffffffffffff82111715620001055762000104620000a9565b5b80604052505050565b60006200011a6200007a565b9050620001288282620000d8565b919050565b600067ffffffffffffffff8211156200014b576200014a620000a9565b5b620001568262000098565b9050602081019050919050565b60005b838110156200018357808201518184015260208101905062000166565b8381111562000193576000848401525b50505050565b6000620001b0620001aa846200012d565b6200010e565b905082815260208101848484011115620001cf57620001ce62000093565b5b620001dc84828562000163565b509392505050565b600082601f830112620001fc57620001fb6200008e565b5b81516200020e84826020860162000199565b91505092915050565b60008060006060848603121562000233576200023262000084565b5b600084015167ffffffffffffffff81111562000254576200025362000089565b5b6200026286828701620001e4565b935050602084015167ffffffffffffffff81111562000286576200028562000089565b5b6200029486828701620001e4565b925050604084015167ffffffffffffffff811115620002b857620002b762000089565b5b620002c686828701620001e4565b9150509250925092565b600081519050919050565b7f4e487b7100000000000000000000000000000000000000000000000000000000600052602260045260246000fd5b600060028204905060018216806200032357607f821691505b602082108103620003395762000338620002db565b5b50919050565b60008190508160005260206000209050919050565b60006020601f8301049050919050565b600082821b905092915050565b600060088302620003a37fffffffffffffffffffffffffffffffffffffffffffffffffffffffffffffffff8262000364565b620003af868362000364565b95508019841693508086168417925050509392505050565b6000819050919050565b6000819050919050565b6000620003fc620003f6620003f084620003c7565b620003d1565b620003c7565b9050919050565b6000819050919050565b6200041883620003db565b62000430620004278262000403565b84845462000371565b825550505050565b600090565b6200044762000438565b620004548184846200040d565b505050565b5b818110156200047c57620004706000826200043d565b6001810190506200045a565b5050565b601f821115620004cb5762000495816200033f565b620004a08462000354565b81016020851015620004b0578190505b620004c8620004bf8562000354565b83018262000459565b50505b505050565b600082821c905092915050565b6000620004f060001984600802620004d0565b1980831691505092915050565b60006200050b8383620004dd565b9150826002028217905092915050565b6200052682620002d0565b67ffffffffffffffff811115620005425762000541620000a9565b5b6200054e82546200030a565b6200055b82828562000480565b600060209050601f8311600181146200059357600084156200057e578287015190505b6200058a8582620004fd565b865550620005fa565b601f198416620005a3866200033f565b60005b82811015620005cd57848901518255600182019150602085019450602081019050620005a6565b86831015620005ed5784890151620005e9601f891682620004dd565b8355505b6001600288020188555050505b505050505050565b61249d80620006126000396000f3fe608060405234801561001057600080fd5b50600436106100ea5760003560e01c806370a082311161008c578063b88d4fde11610066578063b88d4fde1461025b578063c87b56dd14610277578063e8a3d485146102a7578063e985e9c5146102c5576100ea565b806370a08231146101f157806395d89b4114610221578063a22cb4651461023f576100ea565b8063095ea7b3116100c8578063095ea7b31461016d57806323b872dd1461018957806342842e0e146101a55780636352211e146101c1576100ea565b806301ffc9a7146100ef57806306fdde031461011f578063081812fc1461013d575b600080fd5b610109600480360381019061010491906114fa565b6102f5565b6040516101169190611542565b60405180910390f35b6101276103d7565b60405161013491906115f6565b60405180910390f35b6101576004803603810190610152919061164e565b610469565b60405161016491906116bc565b60405180910390f35b61018760048036038101906101829190611703565b6104ee565b005b6101a3600480360381019061019e9190611743565b610605565b005b6101bf60048036038101906101ba9190611743565b610665565b005b6101db60048036038101906101d6919061164e565b610685565b6040516101e891906116bc565b60405180910390f35b61020b60048036038101906102069190611796565b610736565b60405161021891906117d2565b60405180910390f35b6102296107ed565b60405161023691906115f6565b60405180910390f35b61025960048036038101906102549190611819565b61087f565b005b6102756004803603810190610270919061198e565b610895565b005b610291600480360381019061028c919061164e565b6108f7565b60405161029e91906115f6565b60405180910390f35b6102af61099e565b6040516102bc91906115f6565b60405180910390f35b6102df60048036038101906102da9190611a11565b610a2c565b6040516102ec9190611542565b60405180910390f35b60007f80ac58cd000000000000000000000000000000000000000000000000000000007bffffffffffffffffffffffffffffffffffffffffffffffffffffffff1916827bffffffffffffffffffffffffffffffffffffffffffffffffffffffff191614806103c057507f5b5e139f000000000000000000000000000000000000000000000000000000007bffffffffffffffffffffffffffffffffffffffffffffffffffffffff1916827bffffffffffffffffffffffffffffffffffffffffffffffffffffffff1916145b806103d057506103cf82610ac0565b5b9050919050565b6060600080546103e690611a80565b80601f016020809104026020016040519081016040528092919081815260200182805461041290611a80565b801561045f5780601f106104345761010080835404028352916020019161045f565b820191906000526020600020905b81548152906001019060200180831161044257829003601f168201915b5050505050905090565b600061047482610b2a565b6104b3576040517f08c379a00000000000000000000000000000000000000000000000000000000081526004016104aa90611b23565b60405180910390fd5b6004600083815260200190815260200160002060009054906101000a900473ffffffffffffffffffffffffffffffffffffffff169050919050565b60006104f982610685565b90508073ffffffffffffffffffffffffffffffffffffffff168373ffffffffffffffffffffffffffffffffffffffff1603610569576040517f08c379a000000000000000000000000000000000000000000000000000000000815260040161056090611bb5565b60405180910390fd5b8073ffffffffffffffffffffffffffffffffffffffff16610588610b96565b73ffffffffffffffffffffffffffffffffffffffff1614806105b757506105b6816105b1610b96565b610a2c565b5b6105f6576040517f08c379a00000000000000000000000000000000000000000000000000000000081526004016105ed90611c47565b60405180910390fd5b6106008383610b9e565b505050565b610616610610610b96565b82610c57565b610655576040517f08c379a000000000000000000000000000000000000000000000000000000000815260040161064c90611cd9565b60405180910390fd5b610660838383610d35565b505050565b61068083838360405180602001604052806000815250610895565b505050565b6000806002600084815260200190815260200160002060009054906101000a900473ffffffffffffffffffffffffffffffffffffffff169050600073ffffffffffffffffffffffffffffffffffffffff168173ffffffffffffffffffffffffffffffffffffffff160361072d576040517f08c379a000000000000000000000000000000000000000000000000000000000815260040161072490611d6b565b60405180910390fd5b80915050919050565b60008073ffffffffffffffffffffffffffffffffffffffff168273ffffffffffffffffffffffffffffffffffffffff16036107a6576040517f08c379a000000000000000000000000000000000000000000000000000000000815260040161079d90611dfd565b60405180910390fd5b600360008373ffffffffffffffffffffffffffffffffffffffff1673ffffffffffffffffffffffffffffffffffffffff168152602001908152602001600020549050919050565b6060600180546107fc90611a80565b80601f016020809104026020016040519081016040528092919081815260200182805461082890611a80565b80156108755780601f1061084a57610100808354040283529160200191610875565b820191906000526020600020905b81548152906001019060200180831161085857829003601f168201915b5050505050905090565b61089161088a610b96565b8383610f9b565b5050565b6108a66108a0610b96565b83610c57565b6108e5576040517f08c379a00000000000000000000000000000000000000000000000000000000081526004016108dc90611cd9565b60405180910390fd5b6108f184848484611107565b50505050565b606061090282610b2a565b610941576040517f08c379a000000000000000000000000000000000000000000000000000000000815260040161093890611e8f565b60405180910390fd5b600061094b611163565b9050600081511161096b5760405180602001604052806000815250610996565b806109758461117a565b604051602001610986929190611eeb565b6040516020818303038152906040525b915050919050565b600680546109ab90611a80565b80601f01602080910402602001604051908101604052809291908181526020018280546109d790611a80565b8015610a245780601f106109f957610100808354040283529160200191610a24565b820191906000526020600020905b815481529060010190602001808311610a0757829003601f168201915b505050505081565b6000600560008473ffffffffffffffffffffffffffffffffffffffff1673ffffffffffffffffffffffffffffffffffffffff16815260200190815260200160002060008373ffffffffffffffffffffffffffffffffffffffff1673ffffffffffffffffffffffffffffffffffffffff16815260200190815260200160002060009054906101000a900460ff16905092915050565b60007f01ffc9a7000000000000000000000000000000000000000000000000000000007bffffffffffffffffffffffffffffffffffffffffffffffffffffffff1916827bffffffffffffffffffffffffffffffffffffffffffffffffffffffff1916149050919050565b60008073ffffffffffffffffffffffffffffffffffffffff166002600084815260200190815260200160002060009054906101000a900473ffffffffffffffffffffffffffffffffffffffff1673ffffffffffffffffffffffffffffffffffffffff1614159050919050565b600033905090565b816004600083815260200190815260200160002060006101000a81548173ffffffffffffffffffffffffffffffffffffffff021916908373ffffffffffffffffffffffffffffffffffffffff160217905550808273ffffffffffffffffffffffffffffffffffffffff16610c1183610685565b73ffffffffffffffffffffffffffffffffffffffff167f8c5be1e5ebec7d5bd14f71427d1e84f3dd0314c0f7b2291e5b200ac8c7c3b92560405160405180910390a45050565b6000610c6282610b2a565b610ca1576040517f08c379a0000000000000000000000000000000000000000000000000000000008152600401610c9890611f81565b60405180910390fd5b6000610cac83610685565b90508073ffffffffffffffffffffffffffffffffffffffff168473ffffffffffffffffffffffffffffffffffffffff161480610cee5750610ced8185610a2c565b5b80610d2c57508373ffffffffffffffffffffffffffffffffffffffff16610d1484610469565b73ffffffffffffffffffffffffffffffffffffffff16145b91505092915050565b8273ffffffffffffffffffffffffffffffffffffffff16610d5582610685565b73ffffffffffffffffffffffffffffffffffffffff1614610dab576040517f08c379a0000000000000000000000000000000000000000000000000000000008152600401610da290612013565b60405180910390fd5b600073ffffffffffffffffffffffffffffffffffffffff168273ffffffffffffffffffffffffffffffffffffffff1603610e1a576040517f08c379a0000000000000000000000000000000000000000000000000000000008152600401610e11906120a5565b60405180910390fd5b610e258383836112da565b610e30600082610b9e565b6001600360008573ffffffffffffffffffffffffffffffffffffffff1673ffffffffffffffffffffffffffffffffffffffff1681526020019081526020016000206000828254610e8091906120f4565b925050819055506001600360008473ffffffffffffffffffffffffffffffffffffffff1673ffffffffffffffffffffffffffffffffffffffff1681526020019081526020016000206000828254610ed79190612128565b92505081905550816002600083815260200190815260200160002060006101000a81548173ffffffffffffffffffffffffffffffffffffffff021916908373ffffffffffffffffffffffffffffffffffffffff160217905550808273ffffffffffffffffffffffffffffffffffffffff168473ffffffffffffffffffffffffffffffffffffffff167fddf252ad1be2c89b69c2b068fc378daa952ba7f163c4a11628f55a4df523b3ef60405160405180910390a4610f968383836112df565b505050565b8173ffffffffffffffffffffffffffffffffffffffff168373ffffffffffffffffffffffffffffffffffffffff1603611009576040517f08c379a0000000000000000000000000000000000000000000000000000000008152600401611000906121ca565b60405180910390fd5b80600560008573ffffffffffffffffffffffffffffffffffffffff1673ffffffffffffffffffffffffffffffffffffffff16815260200190815260200160002060008473ffffffffffffffffffffffffffffffffffffffff1673ffffffffffffffffffffffffffffffffffffffff16815260200190815260200160002060006101000a81548160ff0219169083151502179055508173ffffffffffffffffffffffffffffffffffffffff168373ffffffffffffffffffffffffffffffffffffffff167f17307eab39ab6107e8899845ad3d59bd9653f200f220920489ca2b5937696c31836040516110fa9190611542565b60405180910390a3505050565b611112848484610d35565b61111e848484846112e4565b61115d576040517f08c379a00000000000000000000000000000000000000000000000000000000081526004016111549061225c565b60405180910390fd5b50505050565b606060405180602001604052806000815250905090565b6060600082036111c1576040518060400160405280600181526020017f300000000000000000000000000000000000000000000000000000000000000081525090506112d5565b600082905060005b600082146111f35780806111dc9061227c565b915050600a826111ec91906122f3565b91506111c9565b60008167ffffffffffffffff81111561120f5761120e611863565b5b6040519080825280601f01601f1916602001820160405280156112415781602001600182028036833780820191505090505b5090505b600085146112ce5760018261125a91906120f4565b9150600a856112699190612324565b60306112759190612128565b60f81b81838151811061128b5761128a612355565b5b60200101907effffffffffffffffffffffffffffffffffffffffffffffffffffffffffffff1916908160001a905350600a856112c791906122f3565b9450611245565b8093505050505b919050565b505050565b505050565b60006113058473ffffffffffffffffffffffffffffffffffffffff1661146b565b1561145e578373ffffffffffffffffffffffffffffffffffffffff1663150b7a0261132e610b96565b8786866040518563ffffffff1660e01b815260040161135094939291906123d9565b6020604051808303816000875af192505050801561138c57506040513d601f19601f82011682018060405250810190611389919061243a565b60015b61140e573d80600081146113bc576040519150601f19603f3d011682016040523d82523d6000602084013e6113c1565b606091505b506000815103611406576040517f08c379a00000000000000000000000000000000000000000000000000000000081526004016113fd9061225c565b60405180910390fd5b805181602001fd5b63150b7a0260e01b7bffffffffffffffffffffffffffffffffffffffffffffffffffffffff1916817bffffffffffffffffffffffffffffffffffffffffffffffffffffffff191614915050611463565b600190505b949350505050565b6000808273ffffffffffffffffffffffffffffffffffffffff163b119050919050565b6000604051905090565b600080fd5b600080fd5b60007fffffffff0000000000000000000000000000000000000000000000000000000082169050919050565b6114d7816114a2565b81146114e257600080fd5b50565b6000813590506114f4816114ce565b92915050565b6000602082840312156115105761150f611498565b5b600061151e848285016114e5565b91505092915050565b60008115159050919050565b61153c81611527565b82525050565b60006020820190506115576000830184611533565b92915050565b600081519050919050565b600082825260208201905092915050565b60005b8381101561159757808201518184015260208101905061157c565b838111156115a6576000848401525b50505050565b6000601f19601f8301169050919050565b60006115c88261155d565b6115d28185611568565b93506115e2818560208601611579565b6115eb816115ac565b840191505092915050565b6000602082019050818103600083015261161081846115bd565b905092915050565b6000819050919050565b61162b81611618565b811461163657600080fd5b50565b60008135905061164881611622565b92915050565b60006020828403121561166457611663611498565b5b600061167284828501611639565b91505092915050565b600073ffffffffffffffffffffffffffffffffffffffff82169050919050565b60006116a68261167b565b9050919050565b6116b68161169b565b82525050565b60006020820190506116d160008301846116ad565b92915050565b6116e08161169b565b81146116eb57600080fd5b50565b6000813590506116fd816116d7565b92915050565b6000806040838503121561171a57611719611498565b5b6000611728858286016116ee565b925050602061173985828601611639565b9150509250929050565b60008060006060848603121561175c5761175b611498565b5b600061176a868287016116ee565b935050602061177b868287016116ee565b925050604061178c86828701611639565b9150509250925092565b6000602082840312156117ac576117ab611498565b5b60006117ba848285016116ee565b91505092915050565b6117cc81611618565b82525050565b60006020820190506117e760008301846117c3565b92915050565b6117f681611527565b811461180157600080fd5b50565b600081359050611813816117ed565b92915050565b600080604083850312156118305761182f611498565b5b600061183e858286016116ee565b925050602061184f85828601611804565b9150509250929050565b600080fd5b600080fd5b7f4e487b7100000000000000000000000000000000000000000000000000000000600052604160045260246000fd5b61189b826115ac565b810181811067ffffffffffffffff821117156118ba576118b9611863565b5b80604052505050565b60006118cd61148e565b90506118d98282611892565b919050565b600067ffffffffffffffff8211156118f9576118f8611863565b5b611902826115ac565b9050602081019050919050565b82818337600083830152505050565b600061193161192c846118de565b6118c3565b90508281526020810184848401111561194d5761194c61185e565b5b61195884828561190f565b509392505050565b600082601f83011261197557611974611859565b5b813561198584826020860161191e565b91505092915050565b600080600080608085870312156119a8576119a7611498565b5b60006119b6878288016116ee565b94505060206119c7878288016116ee565b93505060406119d887828801611639565b925050606085013567ffffffffffffffff8111156119f9576119f861149d565b5b611a0587828801611960565b91505092959194509250565b60008060408385031215611a2857611a27611498565b5b6000611a36858286016116ee565b9250506020611a47858286016116ee565b9150509250929050565b7f4e487b7100000000000000000000000000000000000000000000000000000000600052602260045260246000fd5b60006002820490506001821680611a9857607f821691505b602082108103611aab57611aaa611a51565b5b50919050565b7f4552433732313a20617070726f76656420717565727920666f72206e6f6e657860008201527f697374656e7420746f6b656e0000000000000000000000000000000000000000602082015250565b6000611b0d602c83611568565b9150611b1882611ab1565b604082019050919050565b60006020820190508181036000830152611b3c81611b00565b9050919050565b7f4552433732313a20617070726f76616c20746f2063757272656e74206f776e6560008201527f7200000000000000000000000000000000000000000000000000000000000000602082015250565b6000611b9f602183611568565b9150611baa82611b43565b604082019050919050565b60006020820190508181036000830152611bce81611b92565b9050919050565b7f4552433732313a20617070726f76652063616c6c6572206973206e6f74206f7760008201527f6e6572206e6f7220617070726f76656420666f7220616c6c0000000000000000602082015250565b6000611c31603883611568565b9150611c3c82611bd5565b604082019050919050565b60006020820190508181036000830152611c6081611c24565b9050919050565b7f4552433732313a207472616e736665722063616c6c6572206973206e6f74206f60008201527f776e6572206e6f7220617070726f766564000000000000000000000000000000602082015250565b6000611cc3603183611568565b9150611cce82611c67565b604082019050919050565b60006020820190508181036000830152611cf281611cb6565b9050919050565b7f4552433732313a206f776e657220717565727920666f72206e6f6e657869737460008201527f656e7420746f6b656e0000000000000000000000000000000000000000000000602082015250565b6000611d55602983611568565b9150611d6082611cf9565b604082019050919050565b60006020820190508181036000830152611d8481611d48565b9050919050565b7f4552433732313a2062616c616e636520717565727920666f7220746865207a6560008201527f726f206164647265737300000000000000000000000000000000000000000000602082015250565b6000611de7602a83611568565b9150611df282611d8b565b604082019050919050565b60006020820190508181036000830152611e1681611dda565b9050919050565b7f4552433732314d657461646174613a2055524920717565727920666f72206e6f60008201527f6e6578697374656e7420746f6b656e0000000000000000000000000000000000602082015250565b6000611e79602f83611568565b9150611e8482611e1d565b604082019050919050565b60006020820190508181036000830152611ea881611e6c565b9050919050565b600081905092915050565b6000611ec58261155d565b611ecf8185611eaf565b9350611edf818560208601611579565b80840191505092915050565b6000611ef78285611eba565b9150611f038284611eba565b91508190509392505050565b7f4552433732313a206f70657261746f7220717565727920666f72206e6f6e657860008201527f697374656e7420746f6b656e0000000000000000000000000000000000000000602082015250565b6000611f6b602c83611568565b9150611f7682611f0f565b604082019050919050565b60006020820190508181036000830152611f9a81611f5e565b9050919050565b7f4552433732313a207472616e736665722066726f6d20696e636f72726563742060008201527f6f776e6572000000000000000000000000000000000000000000000000000000602082015250565b6000611ffd602583611568565b915061200882611fa1565b604082019050919050565b6000602082019050818103600083015261202c81611ff0565b9050919050565b7f4552433732313a207472616e7366657220746f20746865207a65726f2061646460008201527f7265737300000000000000000000000000000000000000000000000000000000602082015250565b600061208f602483611568565b915061209a82612033565b604082019050919050565b600060208201905081810360008301526120be81612082565b9050919050565b7f4e487b7100000000000000000000000000000000000000000000000000000000600052601160045260246000fd5b60006120ff82611618565b915061210a83611618565b92508282101561211d5761211c6120c5565b5b828203905092915050565b600061213382611618565b915061213e83611618565b9250827fffffffffffffffffffffffffffffffffffffffffffffffffffffffffffffffff03821115612173576121726120c5565b5b828201905092915050565b7f4552433732313a20617070726f766520746f2063616c6c657200000000000000600082015250565b60006121b4601983611568565b91506121bf8261217e565b602082019050919050565b600060208201905081810360008301526121e3816121a7565b9050919050565b7f4552433732313a207472616e7366657220746f206e6f6e20455243373231526560008201527f63656976657220696d706c656d656e7465720000000000000000000000000000602082015250565b6000612246603283611568565b9150612251826121ea565b604082019050919050565b6000602082019050818103600083015261227581612239565b9050919050565b600061228782611618565b91507fffffffffffffffffffffffffffffffffffffffffffffffffffffffffffffffff82036122b9576122b86120c5565b5b600182019050919050565b7f4e487b7100000000000000000000000000000000000000000000000000000000600052601260045260246000fd5b60006122fe82611618565b915061230983611618565b925082612319576123186122c4565b5b828204905092915050565b600061232f82611618565b915061233a83611618565b92508261234a576123496122c4565b5b828206905092915050565b7f4e487b7100000000000000000000000000000000000000000000000000000000600052603260045260246000fd5b600081519050919050565b600082825260208201905092915050565b60006123ab82612384565b6123b5818561238f565b93506123c5818560208601611579565b6123ce816115ac565b840191505092915050565b60006080820190506123ee60008301876116ad565b6123fb60208301866116ad565b61240860408301856117c3565b818103606083015261241a81846123a0565b905095945050505050565b600081519050612434816114ce565b92915050565b6000602082840312156124505761244f611498565b5b600061245e84828501612425565b9150509291505056fea26469706673582212202c30f9768c5d2b67d095175fb542242dfb36fc991f7921235d3a42aee7d8418564736f6c634300080f0033a26469706673582212208c6e673f2a3f0b3d453a3139b3610a97742a1138fb86e26258ce020e2722fa8864736f6c634300080f0033",
  "linkReferences": {},
  "deployedLinkReferences": {}
}