{
  "_format": "hh-sol-artifact-1",
  "contractName": "CopyrightToken",
  "sourceName": "src/backend/contracts/CopyrightToken.sol",
  "abi": [
    {
      "inputs": [],
      "stateMutability": "nonpayable",
      "type": "constructor"
    },
    {
      "anonymous": false,
      "inputs": [
        {
          "components": [
            {
              "internalType": "uint256",
              "name": "tokenWeight",
              "type": "uint256"
            },
            {
              "internalType": "uint256",
              "name": "timeStamp",
              "type": "uint256"
            },
            {
              "internalType": "bool",
              "name": "isBlacklisted",
              "type": "bool"
            },
            {
              "components": [
                {
                  "internalType": "uint256",
                  "name": "to",
                  "type": "uint256"
                },
                {
                  "internalType": "uint256",
                  "name": "weight",
                  "type": "uint256"
                }
              ],
              "internalType": "struct ICopyrightGraph.Edge[]",
              "name": "edges",
              "type": "tuple[]"
            },
            {
              "internalType": "uint256",
              "name": "numberOfTokensBehind",
              "type": "uint256"
            }
          ],
          "indexed": false,
          "internalType": "struct ICopyrightGraph.Token",
          "name": "token",
          "type": "tuple"
        }
      ],
      "name": "AddTokenToGraph",
      "type": "event"
    },
    {
      "anonymous": false,
      "inputs": [
        {
          "indexed": true,
          "internalType": "address",
          "name": "owner",
          "type": "address"
        },
        {
          "indexed": true,
          "internalType": "address",
          "name": "approved",
          "type": "address"
        },
        {
          "indexed": true,
          "internalType": "uint256",
          "name": "tokenId",
          "type": "uint256"
        }
      ],
      "name": "Approval",
      "type": "event"
    },
    {
      "anonymous": false,
      "inputs": [
        {
          "indexed": true,
          "internalType": "address",
          "name": "owner",
          "type": "address"
        },
        {
          "indexed": true,
          "internalType": "address",
          "name": "operator",
          "type": "address"
        },
        {
          "indexed": false,
          "internalType": "bool",
          "name": "approved",
          "type": "bool"
        }
      ],
      "name": "ApprovalForAll",
      "type": "event"
    },
    {
      "anonymous": false,
      "inputs": [
        {
          "indexed": false,
          "internalType": "uint256",
          "name": "id",
          "type": "uint256"
        },
        {
          "indexed": false,
          "internalType": "uint256",
          "name": "newWeight",
          "type": "uint256"
        }
      ],
      "name": "ChangeTokenWeight",
      "type": "event"
    },
    {
      "anonymous": false,
      "inputs": [
        {
          "indexed": false,
          "internalType": "uint256",
          "name": "id",
          "type": "uint256"
        },
        {
          "indexed": false,
          "internalType": "bool",
          "name": "isBlacklisted",
          "type": "bool"
        }
      ],
      "name": "TokenBlacklisted",
      "type": "event"
    },
    {
      "anonymous": false,
      "inputs": [
        {
          "indexed": true,
          "internalType": "address",
          "name": "from",
          "type": "address"
        },
        {
          "indexed": true,
          "internalType": "address",
          "name": "to",
          "type": "address"
        },
        {
          "indexed": true,
          "internalType": "uint256",
          "name": "tokenId",
          "type": "uint256"
        }
      ],
      "name": "Transfer",
      "type": "event"
    },
    {
      "inputs": [
        {
          "internalType": "address",
          "name": "to",
          "type": "address"
        },
        {
          "internalType": "uint256",
          "name": "tokenId",
          "type": "uint256"
        }
      ],
      "name": "approve",
      "outputs": [],
      "stateMutability": "nonpayable",
      "type": "function"
    },
    {
      "inputs": [
        {
          "internalType": "address",
          "name": "owner",
          "type": "address"
        }
      ],
      "name": "balanceOf",
      "outputs": [
        {
          "internalType": "uint256",
          "name": "",
          "type": "uint256"
        }
      ],
      "stateMutability": "view",
      "type": "function"
    },
    {
      "inputs": [
        {
          "internalType": "uint256",
          "name": "id",
          "type": "uint256"
        },
        {
          "internalType": "bool",
          "name": "isBlacklisted",
          "type": "bool"
        }
      ],
      "name": "blacklistToken",
      "outputs": [],
      "stateMutability": "nonpayable",
      "type": "function"
    },
    {
      "inputs": [
        {
          "internalType": "uint256",
          "name": "id",
          "type": "uint256"
        },
        {
          "internalType": "uint256",
          "name": "newWeight",
          "type": "uint256"
        }
      ],
      "name": "changeTokenWeight",
      "outputs": [],
      "stateMutability": "nonpayable",
      "type": "function"
    },
    {
      "inputs": [
        {
          "internalType": "uint256",
          "name": "id",
          "type": "uint256"
        }
      ],
      "name": "deposit",
      "outputs": [],
      "stateMutability": "payable",
      "type": "function"
    },
    {
      "inputs": [
        {
          "internalType": "uint256",
          "name": "id",
          "type": "uint256"
        }
      ],
      "name": "distributeCopies",
      "outputs": [
        {
          "internalType": "address",
          "name": "",
          "type": "address"
        }
      ],
      "stateMutability": "nonpayable",
      "type": "function"
    },
    {
      "inputs": [
        {
          "internalType": "uint256",
          "name": "tokenId",
          "type": "uint256"
        }
      ],
      "name": "getApproved",
      "outputs": [
        {
          "internalType": "address",
          "name": "",
          "type": "address"
        }
      ],
      "stateMutability": "view",
      "type": "function"
    },
    {
      "inputs": [
        {
          "internalType": "uint256[]",
          "name": "parentIds",
          "type": "uint256[]"
        },
        {
          "internalType": "uint256[]",
          "name": "parentWeights",
          "type": "uint256[]"
        },
        {
          "internalType": "uint256",
          "name": "id",
          "type": "uint256"
        }
      ],
      "name": "insertEdges",
      "outputs": [],
      "stateMutability": "nonpayable",
      "type": "function"
    },
    {
      "inputs": [
        {
          "internalType": "uint256[]",
          "name": "parentIds",
          "type": "uint256[]"
        },
        {
          "internalType": "uint256[]",
          "name": "parentWeights",
          "type": "uint256[]"
        },
        {
          "internalType": "uint256",
          "name": "id",
          "type": "uint256"
        },
        {
          "internalType": "uint256",
          "name": "weight",
          "type": "uint256"
        }
      ],
      "name": "insertToken",
      "outputs": [],
      "stateMutability": "nonpayable",
      "type": "function"
    },
    {
      "inputs": [
        {
          "internalType": "address",
          "name": "owner",
          "type": "address"
        },
        {
          "internalType": "address",
          "name": "operator",
          "type": "address"
        }
      ],
      "name": "isApprovedForAll",
      "outputs": [
        {
          "internalType": "bool",
          "name": "",
          "type": "bool"
        }
      ],
      "stateMutability": "view",
      "type": "function"
    },
    {
      "inputs": [
        {
          "internalType": "uint256[]",
          "name": "parentIds",
          "type": "uint256[]"
        },
        {
          "internalType": "uint256",
          "name": "tokenWeight",
          "type": "uint256"
        }
      ],
      "name": "mint",
      "outputs": [],
      "stateMutability": "nonpayable",
      "type": "function"
    },
    {
      "inputs": [],
      "name": "name",
      "outputs": [
        {
          "internalType": "string",
          "name": "",
          "type": "string"
        }
      ],
      "stateMutability": "view",
      "type": "function"
    },
    {
      "inputs": [
        {
          "internalType": "uint256",
          "name": "tokenId",
          "type": "uint256"
        }
      ],
      "name": "ownerOf",
      "outputs": [
        {
          "internalType": "address",
          "name": "",
          "type": "address"
        }
      ],
      "stateMutability": "view",
      "type": "function"
    },
    {
      "inputs": [
        {
          "components": [
            {
              "internalType": "uint256",
              "name": "tokenWeight",
              "type": "uint256"
            },
            {
              "internalType": "uint256",
              "name": "timeStamp",
              "type": "uint256"
            },
            {
              "internalType": "bool",
              "name": "isBlacklisted",
              "type": "bool"
            },
            {
              "components": [
                {
                  "internalType": "uint256",
                  "name": "to",
                  "type": "uint256"
                },
                {
                  "internalType": "uint256",
                  "name": "weight",
                  "type": "uint256"
                }
              ],
              "internalType": "struct ICopyrightGraph.Edge[]",
              "name": "edges",
              "type": "tuple[]"
            },
            {
              "internalType": "uint256",
              "name": "numberOfTokensBehind",
              "type": "uint256"
            }
          ],
          "internalType": "struct ICopyrightGraph.Token",
          "name": "token",
          "type": "tuple"
        }
      ],
      "name": "returnId",
      "outputs": [
        {
          "internalType": "uint256",
          "name": "id",
          "type": "uint256"
        }
      ],
      "stateMutability": "pure",
      "type": "function"
    },
    {
      "inputs": [
        {
          "internalType": "uint256",
          "name": "id",
          "type": "uint256"
        }
      ],
      "name": "returnIsBlacklisted",
      "outputs": [
        {
          "internalType": "bool",
          "name": "isBlacklisted",
          "type": "bool"
        }
      ],
      "stateMutability": "view",
      "type": "function"
    },
    {
      "inputs": [],
      "name": "returnLeafTokenIDs",
      "outputs": [
        {
          "internalType": "uint256[]",
          "name": "leafTokenIDs",
          "type": "uint256[]"
        }
      ],
      "stateMutability": "view",
      "type": "function"
    },
    {
      "inputs": [
        {
          "internalType": "uint256",
          "name": "id",
          "type": "uint256"
        }
      ],
      "name": "returnTime",
      "outputs": [
        {
          "internalType": "uint256",
          "name": "timeStamp",
          "type": "uint256"
        }
      ],
      "stateMutability": "view",
      "type": "function"
    },
    {
      "inputs": [
        {
          "internalType": "uint256",
          "name": "id",
          "type": "uint256"
        }
      ],
      "name": "returnTokenWeight",
      "outputs": [
        {
          "internalType": "uint256",
          "name": "weight",
          "type": "uint256"
        }
      ],
      "stateMutability": "view",
      "type": "function"
    },
    {
      "inputs": [
        {
          "internalType": "address",
          "name": "from",
          "type": "address"
        },
        {
          "internalType": "address",
          "name": "to",
          "type": "address"
        },
        {
          "internalType": "uint256",
          "name": "tokenId",
          "type": "uint256"
        }
      ],
      "name": "safeTransferFrom",
      "outputs": [],
      "stateMutability": "nonpayable",
      "type": "function"
    },
    {
      "inputs": [
        {
          "internalType": "address",
          "name": "from",
          "type": "address"
        },
        {
          "internalType": "address",
          "name": "to",
          "type": "address"
        },
        {
          "internalType": "uint256",
          "name": "tokenId",
          "type": "uint256"
        },
        {
          "internalType": "bytes",
          "name": "_data",
          "type": "bytes"
        }
      ],
      "name": "safeTransferFrom",
      "outputs": [],
      "stateMutability": "nonpayable",
      "type": "function"
    },
    {
      "inputs": [
        {
          "internalType": "address",
          "name": "operator",
          "type": "address"
        },
        {
          "internalType": "bool",
          "name": "approved",
          "type": "bool"
        }
      ],
      "name": "setApprovalForAll",
      "outputs": [],
      "stateMutability": "nonpayable",
      "type": "function"
    },
    {
      "inputs": [
        {
          "internalType": "bytes4",
          "name": "interfaceId",
          "type": "bytes4"
        }
      ],
      "name": "supportsInterface",
      "outputs": [
        {
          "internalType": "bool",
          "name": "",
          "type": "bool"
        }
      ],
      "stateMutability": "view",
      "type": "function"
    },
    {
      "inputs": [],
      "name": "symbol",
      "outputs": [
        {
          "internalType": "string",
          "name": "",
          "type": "string"
        }
      ],
      "stateMutability": "view",
      "type": "function"
    },
    {
      "inputs": [],
      "name": "tokenCount",
      "outputs": [
        {
          "internalType": "uint256",
          "name": "",
          "type": "uint256"
        }
      ],
      "stateMutability": "view",
      "type": "function"
    },
    {
      "inputs": [
        {
          "internalType": "uint256",
          "name": "id",
          "type": "uint256"
        }
      ],
      "name": "tokenExists",
      "outputs": [
        {
          "internalType": "bool",
          "name": "exists",
          "type": "bool"
        }
      ],
      "stateMutability": "view",
      "type": "function"
    },
    {
      "inputs": [
        {
          "internalType": "uint256",
          "name": "tokenId",
          "type": "uint256"
        }
      ],
      "name": "tokenURI",
      "outputs": [
        {
          "internalType": "string",
          "name": "",
          "type": "string"
        }
      ],
      "stateMutability": "view",
      "type": "function"
    },
    {
      "inputs": [
        {
          "internalType": "address",
          "name": "from",
          "type": "address"
        },
        {
          "internalType": "address",
          "name": "to",
          "type": "address"
        },
        {
          "internalType": "uint256",
          "name": "tokenId",
          "type": "uint256"
        }
      ],
      "name": "transferFrom",
      "outputs": [],
      "stateMutability": "nonpayable",
      "type": "function"
    }
  ],
  "bytecode": "0x60806040523480156200001157600080fd5b506040518060400160405280601481526020017f5465737420436f7079726967687420546f6b656e0000000000000000000000008152506040518060400160405280600381526020017f544354000000000000000000000000000000000000000000000000000000000081525081600090816200008f919062000324565b508060019081620000a1919062000324565b5050506200040b565b600081519050919050565b7f4e487b7100000000000000000000000000000000000000000000000000000000600052604160045260246000fd5b7f4e487b7100000000000000000000000000000000000000000000000000000000600052602260045260246000fd5b600060028204905060018216806200012c57607f821691505b602082108103620001425762000141620000e4565b5b50919050565b60008190508160005260206000209050919050565b60006020601f8301049050919050565b600082821b905092915050565b600060088302620001ac7fffffffffffffffffffffffffffffffffffffffffffffffffffffffffffffffff826200016d565b620001b886836200016d565b95508019841693508086168417925050509392505050565b6000819050919050565b6000819050919050565b600062000205620001ff620001f984620001d0565b620001da565b620001d0565b9050919050565b6000819050919050565b6200022183620001e4565b6200023962000230826200020c565b8484546200017a565b825550505050565b600090565b6200025062000241565b6200025d81848462000216565b505050565b5b8181101562000285576200027960008262000246565b60018101905062000263565b5050565b601f821115620002d4576200029e8162000148565b620002a9846200015d565b81016020851015620002b9578190505b620002d1620002c8856200015d565b83018262000262565b50505b505050565b600082821c905092915050565b6000620002f960001984600802620002d9565b1980831691505092915050565b6000620003148383620002e6565b9150826002028217905092915050565b6200032f82620000aa565b67ffffffffffffffff8111156200034b576200034a620000b5565b5b62000357825462000113565b6200036482828562000289565b600060209050601f8311600181146200039c576000841562000387578287015190505b62000393858262000306565b86555062000403565b601f198416620003ac8662000148565b60005b82811015620003d657848901518255600182019150602085019450602081019050620003af565b86831015620003f65784890151620003f2601f891682620002e6565b8355505b6001600288020188555050505b505050505050565b613b4b806200041b6000396000f3fe60806040526004361061019b5760003560e01c80636352211e116100ec578063a22cb4651161008a578063beae494211610064578063beae494214610612578063c87b56dd1461063b578063ce8b4afd14610678578063e985e9c5146106a15761019b565b8063a22cb465146105a4578063b6b55f25146105cd578063b88d4fde146105e95761019b565b8063866fe41a116100c6578063866fe41a146104e857806395d89b4114610511578063981ad4681461053c5780639f181b5e146105795761019b565b80636352211e146104315780636e2a00ee1461046e57806370a08231146104ab5761019b565b80630ab71fb11161015957806316b407a81161013357806316b407a81461037757806323b872dd146103b457806326573224146103dd57806342842e0e146104085761019b565b80630ab71fb1146102d45780630b8e12fc146103115780630bd062461461034e5761019b565b8062923f9e146101a057806301ffc9a7146101dd57806306fdde031461021a578063076fcc1f14610245578063081812fc1461026e578063095ea7b3146102ab575b600080fd5b3480156101ac57600080fd5b506101c760048036038101906101c291906121d2565b6106de565b6040516101d4919061221a565b60405180910390f35b3480156101e957600080fd5b5061020460048036038101906101ff919061228d565b610725565b604051610211919061221a565b60405180910390f35b34801561022657600080fd5b5061022f610807565b60405161023c9190612353565b60405180910390f35b34801561025157600080fd5b5061026c60048036038101906102679190612375565b610899565b005b34801561027a57600080fd5b50610295600480360381019061029091906121d2565b6108de565b6040516102a291906123f6565b60405180910390f35b3480156102b757600080fd5b506102d260048036038101906102cd919061243d565b610963565b005b3480156102e057600080fd5b506102fb60048036038101906102f691906126f3565b610a7a565b604051610308919061274b565b60405180910390f35b34801561031d57600080fd5b50610338600480360381019061033391906121d2565b610ac1565b604051610345919061274b565b60405180910390f35b34801561035a57600080fd5b5061037560048036038101906103709190612829565b610b08565b005b34801561038357600080fd5b5061039e600480360381019061039991906121d2565b610ecb565b6040516103ab919061274b565b60405180910390f35b3480156103c057600080fd5b506103db60048036038101906103d69190612885565b610f12565b005b3480156103e957600080fd5b506103f2610f72565b6040516103ff9190612996565b60405180910390f35b34801561041457600080fd5b5061042f600480360381019061042a9190612885565b610fca565b005b34801561043d57600080fd5b50610458600480360381019061045391906121d2565b610fea565b60405161046591906123f6565b60405180910390f35b34801561047a57600080fd5b50610495600480360381019061049091906121d2565b61109b565b6040516104a291906123f6565b60405180910390f35b3480156104b757600080fd5b506104d260048036038101906104cd91906129b8565b611102565b6040516104df919061274b565b60405180910390f35b3480156104f457600080fd5b5061050f600480360381019061050a91906129e5565b6111b9565b005b34801561051d57600080fd5b50610526611200565b6040516105339190612353565b60405180910390f35b34801561054857600080fd5b50610563600480360381019061055e91906121d2565b611292565b604051610570919061221a565b60405180910390f35b34801561058557600080fd5b5061058e6112d9565b60405161059b919061274b565b60405180910390f35b3480156105b057600080fd5b506105cb60048036038101906105c69190612a84565b6112df565b005b6105e760048036038101906105e291906121d2565b6112f5565b005b3480156105f557600080fd5b50610610600480360381019061060b9190612b79565b611340565b005b34801561061e57600080fd5b5061063960048036038101906106349190612bfc565b6113a2565b005b34801561064757600080fd5b50610662600480360381019061065d91906121d2565b6113e8565b60405161066f9190612353565b60405180910390f35b34801561068457600080fd5b5061069f600480360381019061069a9190612c87565b61148f565b005b3480156106ad57600080fd5b506106c860048036038101906106c39190612cc7565b6114d4565b6040516106d5919061221a565b60405180910390f35b600080610720576040517f08c379a000000000000000000000000000000000000000000000000000000000815260040161071790612d53565b60405180910390fd5b919050565b60007f80ac58cd000000000000000000000000000000000000000000000000000000007bffffffffffffffffffffffffffffffffffffffffffffffffffffffff1916827bffffffffffffffffffffffffffffffffffffffffffffffffffffffff191614806107f057507f5b5e139f000000000000000000000000000000000000000000000000000000007bffffffffffffffffffffffffffffffffffffffffffffffffffffffff1916827bffffffffffffffffffffffffffffffffffffffffffffffffffffffff1916145b8061080057506107ff82611568565b5b9050919050565b60606000805461081690612da2565b80601f016020809104026020016040519081016040528092919081815260200182805461084290612da2565b801561088f5780601f106108645761010080835404028352916020019161088f565b820191906000526020600020905b81548152906001019060200180831161087257829003601f168201915b5050505050905090565b60006108da576040517f08c379a00000000000000000000000000000000000000000000000000000000081526004016108d190612d53565b60405180910390fd5b5050565b60006108e9826115d2565b610928576040517f08c379a000000000000000000000000000000000000000000000000000000000815260040161091f90612e45565b60405180910390fd5b6004600083815260200190815260200160002060009054906101000a900473ffffffffffffffffffffffffffffffffffffffff169050919050565b600061096e82610fea565b90508073ffffffffffffffffffffffffffffffffffffffff168373ffffffffffffffffffffffffffffffffffffffff16036109de576040517f08c379a00000000000000000000000000000000000000000000000000000000081526004016109d590612ed7565b60405180910390fd5b8073ffffffffffffffffffffffffffffffffffffffff166109fd61163e565b73ffffffffffffffffffffffffffffffffffffffff161480610a2c5750610a2b81610a2661163e565b6114d4565b5b610a6b576040517f08c379a0000000000000000000000000000000000000000000000000000000008152600401610a6290612f69565b60405180910390fd5b610a758383611646565b505050565b600080610abc576040517f08c379a0000000000000000000000000000000000000000000000000000000008152600401610ab390612d53565b60405180910390fd5b919050565b600080610b03576040517f08c379a0000000000000000000000000000000000000000000000000000000008152600401610afa90612d53565b60405180910390fd5b919050565b600060066000815480929190610b1d90612fb8565b919050559050610b34610b2e61163e565b826116ff565b81600960008381526020019081526020016000206000018190555042600960008381526020019081526020016000206001018190555060005b8351811015610cc2576000848281518110610b8b57610b8a613000565b5b602002602001015103610bd3576040517f08c379a0000000000000000000000000000000000000000000000000000000008152600401610bca906130a1565b60405180910390fd5b610bf6848281518110610be957610be8613000565b5b60200260200101516115d2565b610c35576040517f08c379a0000000000000000000000000000000000000000000000000000000008152600401610c2c9061310d565b60405180910390fd5b600b6000858381518110610c4c57610c4b613000565b5b6020026020010151815260200190815260200160002060009054906101000a900460ff16610caf576040517f08c379a0000000000000000000000000000000000000000000000000000000008152600401610ca69061319f565b60405180910390fd5b8080610cba90612fb8565b915050610b6d565b50600083511115610e7f5760005b8351811015610e79576000848281518110610cee57610ced613000565b5b602002602001015190506000604051806040016040528083815260200160096000858152602001908152602001600020600001548152509050600960006006548152602001908152602001600020600301819080600181540180825580915050600190039060005260206000209060020201600090919091909150600082015181600001556020820151816001015550506009600060065481526020019081526020016000206004016000815480929190610da890612fb8565b919050555060006008600084815260200190815260200160002054148015610de457506000600860008681526020019081526020016000205414155b15610e64576008600083815260200190815260200160002054600860008681526020019081526020016000208190555060006008600084815260200190815260200160002081905550836007600860008781526020019081526020016000205481548110610e5557610e54613000565b5b90600052602060002001819055505b50508080610e7190612fb8565b915050610cd0565b50610ec6565b600781908060018154018082558091505060019003906000526020600020016000909190919091505560078054905060086000838152602001908152602001600020819055505b505050565b600080610f0d576040517f08c379a0000000000000000000000000000000000000000000000000000000008152600401610f0490612d53565b60405180910390fd5b919050565b610f23610f1d61163e565b8261171d565b610f62576040517f08c379a0000000000000000000000000000000000000000000000000000000008152600401610f5990613231565b60405180910390fd5b610f6d8383836117fb565b505050565b60606007805480602002602001604051908101604052809291908181526020018280548015610fc057602002820191906000526020600020905b815481526020019060010190808311610fac575b5050505050905090565b610fe583838360405180602001604052806000815250611340565b505050565b6000806002600084815260200190815260200160002060009054906101000a900473ffffffffffffffffffffffffffffffffffffffff169050600073ffffffffffffffffffffffffffffffffffffffff168173ffffffffffffffffffffffffffffffffffffffff1603611092576040517f08c379a0000000000000000000000000000000000000000000000000000000008152600401611089906132c3565b60405180910390fd5b80915050919050565b6000600a600083815260200190815260200160002060009054906101000a900460ff166110fd576040517f08c379a00000000000000000000000000000000000000000000000000000000081526004016110f490613355565b60405180910390fd5b919050565b60008073ffffffffffffffffffffffffffffffffffffffff168273ffffffffffffffffffffffffffffffffffffffff1603611172576040517f08c379a0000000000000000000000000000000000000000000000000000000008152600401611169906133e7565b60405180910390fd5b600360008373ffffffffffffffffffffffffffffffffffffffff1673ffffffffffffffffffffffffffffffffffffffff168152602001908152602001600020549050919050565b60006111fa576040517f08c379a00000000000000000000000000000000000000000000000000000000081526004016111f190612d53565b60405180910390fd5b50505050565b60606001805461120f90612da2565b80601f016020809104026020016040519081016040528092919081815260200182805461123b90612da2565b80156112885780601f1061125d57610100808354040283529160200191611288565b820191906000526020600020905b81548152906001019060200180831161126b57829003601f168201915b5050505050905090565b6000806112d4576040517f08c379a00000000000000000000000000000000000000000000000000000000081526004016112cb90612d53565b60405180910390fd5b919050565b60065481565b6112f16112ea61163e565b8383611a61565b5050565b6112fe816115d2565b61133d576040517f08c379a000000000000000000000000000000000000000000000000000000000815260040161133490613479565b60405180910390fd5b50565b61135161134b61163e565b8361171d565b611390576040517f08c379a000000000000000000000000000000000000000000000000000000000815260040161138790613231565b60405180910390fd5b61139c84848484611bcd565b50505050565b60006113e3576040517f08c379a00000000000000000000000000000000000000000000000000000000081526004016113da90612d53565b60405180910390fd5b505050565b60606113f3826115d2565b611432576040517f08c379a00000000000000000000000000000000000000000000000000000000081526004016114299061350b565b60405180910390fd5b600061143c611c29565b9050600081511161145c5760405180602001604052806000815250611487565b8061146684611c40565b604051602001611477929190613567565b6040516020818303038152906040525b915050919050565b60006114d0576040517f08c379a00000000000000000000000000000000000000000000000000000000081526004016114c790612d53565b60405180910390fd5b5050565b6000600560008473ffffffffffffffffffffffffffffffffffffffff1673ffffffffffffffffffffffffffffffffffffffff16815260200190815260200160002060008373ffffffffffffffffffffffffffffffffffffffff1673ffffffffffffffffffffffffffffffffffffffff16815260200190815260200160002060009054906101000a900460ff16905092915050565b60007f01ffc9a7000000000000000000000000000000000000000000000000000000007bffffffffffffffffffffffffffffffffffffffffffffffffffffffff1916827bffffffffffffffffffffffffffffffffffffffffffffffffffffffff1916149050919050565b60008073ffffffffffffffffffffffffffffffffffffffff166002600084815260200190815260200160002060009054906101000a900473ffffffffffffffffffffffffffffffffffffffff1673ffffffffffffffffffffffffffffffffffffffff1614159050919050565b600033905090565b816004600083815260200190815260200160002060006101000a81548173ffffffffffffffffffffffffffffffffffffffff021916908373ffffffffffffffffffffffffffffffffffffffff160217905550808273ffffffffffffffffffffffffffffffffffffffff166116b983610fea565b73ffffffffffffffffffffffffffffffffffffffff167f8c5be1e5ebec7d5bd14f71427d1e84f3dd0314c0f7b2291e5b200ac8c7c3b92560405160405180910390a45050565b611719828260405180602001604052806000815250611da0565b5050565b6000611728826115d2565b611767576040517f08c379a000000000000000000000000000000000000000000000000000000000815260040161175e906135fd565b60405180910390fd5b600061177283610fea565b90508073ffffffffffffffffffffffffffffffffffffffff168473ffffffffffffffffffffffffffffffffffffffff1614806117b457506117b381856114d4565b5b806117f257508373ffffffffffffffffffffffffffffffffffffffff166117da846108de565b73ffffffffffffffffffffffffffffffffffffffff16145b91505092915050565b8273ffffffffffffffffffffffffffffffffffffffff1661181b82610fea565b73ffffffffffffffffffffffffffffffffffffffff1614611871576040517f08c379a00000000000000000000000000000000000000000000000000000000081526004016118689061368f565b60405180910390fd5b600073ffffffffffffffffffffffffffffffffffffffff168273ffffffffffffffffffffffffffffffffffffffff16036118e0576040517f08c379a00000000000000000000000000000000000000000000000000000000081526004016118d790613721565b60405180910390fd5b6118eb838383611dfb565b6118f6600082611646565b6001600360008573ffffffffffffffffffffffffffffffffffffffff1673ffffffffffffffffffffffffffffffffffffffff16815260200190815260200160002060008282546119469190613741565b925050819055506001600360008473ffffffffffffffffffffffffffffffffffffffff1673ffffffffffffffffffffffffffffffffffffffff168152602001908152602001600020600082825461199d9190613775565b92505081905550816002600083815260200190815260200160002060006101000a81548173ffffffffffffffffffffffffffffffffffffffff021916908373ffffffffffffffffffffffffffffffffffffffff160217905550808273ffffffffffffffffffffffffffffffffffffffff168473ffffffffffffffffffffffffffffffffffffffff167fddf252ad1be2c89b69c2b068fc378daa952ba7f163c4a11628f55a4df523b3ef60405160405180910390a4611a5c838383611e00565b505050565b8173ffffffffffffffffffffffffffffffffffffffff168373ffffffffffffffffffffffffffffffffffffffff1603611acf576040517f08c379a0000000000000000000000000000000000000000000000000000000008152600401611ac690613817565b60405180910390fd5b80600560008573ffffffffffffffffffffffffffffffffffffffff1673ffffffffffffffffffffffffffffffffffffffff16815260200190815260200160002060008473ffffffffffffffffffffffffffffffffffffffff1673ffffffffffffffffffffffffffffffffffffffff16815260200190815260200160002060006101000a81548160ff0219169083151502179055508173ffffffffffffffffffffffffffffffffffffffff168373ffffffffffffffffffffffffffffffffffffffff167f17307eab39ab6107e8899845ad3d59bd9653f200f220920489ca2b5937696c3183604051611bc0919061221a565b60405180910390a3505050565b611bd88484846117fb565b611be484848484611e05565b611c23576040517f08c379a0000000000000000000000000000000000000000000000000000000008152600401611c1a906138a9565b60405180910390fd5b50505050565b606060405180602001604052806000815250905090565b606060008203611c87576040518060400160405280600181526020017f30000000000000000000000000000000000000000000000000000000000000008152509050611d9b565b600082905060005b60008214611cb9578080611ca290612fb8565b915050600a82611cb291906138f8565b9150611c8f565b60008167ffffffffffffffff811115611cd557611cd4612482565b5b6040519080825280601f01601f191660200182016040528015611d075781602001600182028036833780820191505090505b5090505b60008514611d9457600182611d209190613741565b9150600a85611d2f9190613929565b6030611d3b9190613775565b60f81b818381518110611d5157611d50613000565b5b60200101907effffffffffffffffffffffffffffffffffffffffffffffffffffffffffffff1916908160001a905350600a85611d8d91906138f8565b9450611d0b565b8093505050505b919050565b611daa8383611f8c565b611db76000848484611e05565b611df6576040517f08c379a0000000000000000000000000000000000000000000000000000000008152600401611ded906138a9565b60405180910390fd5b505050565b505050565b505050565b6000611e268473ffffffffffffffffffffffffffffffffffffffff16612165565b15611f7f578373ffffffffffffffffffffffffffffffffffffffff1663150b7a02611e4f61163e565b8786866040518563ffffffff1660e01b8152600401611e7194939291906139af565b6020604051808303816000875af1925050508015611ead57506040513d601f19601f82011682018060405250810190611eaa9190613a10565b60015b611f2f573d8060008114611edd576040519150601f19603f3d011682016040523d82523d6000602084013e611ee2565b606091505b506000815103611f27576040517f08c379a0000000000000000000000000000000000000000000000000000000008152600401611f1e906138a9565b60405180910390fd5b805181602001fd5b63150b7a0260e01b7bffffffffffffffffffffffffffffffffffffffffffffffffffffffff1916817bffffffffffffffffffffffffffffffffffffffffffffffffffffffff191614915050611f84565b600190505b949350505050565b600073ffffffffffffffffffffffffffffffffffffffff168273ffffffffffffffffffffffffffffffffffffffff1603611ffb576040517f08c379a0000000000000000000000000000000000000000000000000000000008152600401611ff290613a89565b60405180910390fd5b612004816115d2565b15612044576040517f08c379a000000000000000000000000000000000000000000000000000000000815260040161203b90613af5565b60405180910390fd5b61205060008383611dfb565b6001600360008473ffffffffffffffffffffffffffffffffffffffff1673ffffffffffffffffffffffffffffffffffffffff16815260200190815260200160002060008282546120a09190613775565b92505081905550816002600083815260200190815260200160002060006101000a81548173ffffffffffffffffffffffffffffffffffffffff021916908373ffffffffffffffffffffffffffffffffffffffff160217905550808273ffffffffffffffffffffffffffffffffffffffff16600073ffffffffffffffffffffffffffffffffffffffff167fddf252ad1be2c89b69c2b068fc378daa952ba7f163c4a11628f55a4df523b3ef60405160405180910390a461216160008383611e00565b5050565b6000808273ffffffffffffffffffffffffffffffffffffffff163b119050919050565b6000604051905090565b600080fd5b600080fd5b6000819050919050565b6121af8161219c565b81146121ba57600080fd5b50565b6000813590506121cc816121a6565b92915050565b6000602082840312156121e8576121e7612192565b5b60006121f6848285016121bd565b91505092915050565b60008115159050919050565b612214816121ff565b82525050565b600060208201905061222f600083018461220b565b92915050565b60007fffffffff0000000000000000000000000000000000000000000000000000000082169050919050565b61226a81612235565b811461227557600080fd5b50565b60008135905061228781612261565b92915050565b6000602082840312156122a3576122a2612192565b5b60006122b184828501612278565b91505092915050565b600081519050919050565b600082825260208201905092915050565b60005b838110156122f45780820151818401526020810190506122d9565b83811115612303576000848401525b50505050565b6000601f19601f8301169050919050565b6000612325826122ba565b61232f81856122c5565b935061233f8185602086016122d6565b61234881612309565b840191505092915050565b6000602082019050818103600083015261236d818461231a565b905092915050565b6000806040838503121561238c5761238b612192565b5b600061239a858286016121bd565b92505060206123ab858286016121bd565b9150509250929050565b600073ffffffffffffffffffffffffffffffffffffffff82169050919050565b60006123e0826123b5565b9050919050565b6123f0816123d5565b82525050565b600060208201905061240b60008301846123e7565b92915050565b61241a816123d5565b811461242557600080fd5b50565b60008135905061243781612411565b92915050565b6000806040838503121561245457612453612192565b5b600061246285828601612428565b9250506020612473858286016121bd565b9150509250929050565b600080fd5b7f4e487b7100000000000000000000000000000000000000000000000000000000600052604160045260246000fd5b6124ba82612309565b810181811067ffffffffffffffff821117156124d9576124d8612482565b5b80604052505050565b60006124ec612188565b90506124f882826124b1565b919050565b600080fd5b61250b816121ff565b811461251657600080fd5b50565b60008135905061252881612502565b92915050565b600080fd5b600067ffffffffffffffff82111561254e5761254d612482565b5b602082029050602081019050919050565b600080fd5b60006040828403121561257a5761257961247d565b5b61258460406124e2565b90506000612594848285016121bd565b60008301525060206125a8848285016121bd565b60208301525092915050565b60006125c76125c284612533565b6124e2565b905080838252602082019050604084028301858111156125ea576125e961255f565b5b835b8181101561261357806125ff8882612564565b8452602084019350506040810190506125ec565b5050509392505050565b600082601f8301126126325761263161252e565b5b81356126428482602086016125b4565b91505092915050565b600060a082840312156126615761266061247d565b5b61266b60a06124e2565b9050600061267b848285016121bd565b600083015250602061268f848285016121bd565b60208301525060406126a384828501612519565b604083015250606082013567ffffffffffffffff8111156126c7576126c66124fd565b5b6126d38482850161261d565b60608301525060806126e7848285016121bd565b60808301525092915050565b60006020828403121561270957612708612192565b5b600082013567ffffffffffffffff81111561272757612726612197565b5b6127338482850161264b565b91505092915050565b6127458161219c565b82525050565b6000602082019050612760600083018461273c565b92915050565b600067ffffffffffffffff82111561278157612780612482565b5b602082029050602081019050919050565b60006127a56127a084612766565b6124e2565b905080838252602082019050602084028301858111156127c8576127c761255f565b5b835b818110156127f157806127dd88826121bd565b8452602084019350506020810190506127ca565b5050509392505050565b600082601f8301126128105761280f61252e565b5b8135612820848260208601612792565b91505092915050565b600080604083850312156128405761283f612192565b5b600083013567ffffffffffffffff81111561285e5761285d612197565b5b61286a858286016127fb565b925050602061287b858286016121bd565b9150509250929050565b60008060006060848603121561289e5761289d612192565b5b60006128ac86828701612428565b93505060206128bd86828701612428565b92505060406128ce868287016121bd565b9150509250925092565b600081519050919050565b600082825260208201905092915050565b6000819050602082019050919050565b61290d8161219c565b82525050565b600061291f8383612904565b60208301905092915050565b6000602082019050919050565b6000612943826128d8565b61294d81856128e3565b9350612958836128f4565b8060005b838110156129895781516129708882612913565b975061297b8361292b565b92505060018101905061295c565b5085935050505092915050565b600060208201905081810360008301526129b08184612938565b905092915050565b6000602082840312156129ce576129cd612192565b5b60006129dc84828501612428565b91505092915050565b600080600080608085870312156129ff576129fe612192565b5b600085013567ffffffffffffffff811115612a1d57612a1c612197565b5b612a29878288016127fb565b945050602085013567ffffffffffffffff811115612a4a57612a49612197565b5b612a56878288016127fb565b9350506040612a67878288016121bd565b9250506060612a78878288016121bd565b91505092959194509250565b60008060408385031215612a9b57612a9a612192565b5b6000612aa985828601612428565b9250506020612aba85828601612519565b9150509250929050565b600080fd5b600067ffffffffffffffff821115612ae457612ae3612482565b5b612aed82612309565b9050602081019050919050565b82818337600083830152505050565b6000612b1c612b1784612ac9565b6124e2565b905082815260208101848484011115612b3857612b37612ac4565b5b612b43848285612afa565b509392505050565b600082601f830112612b6057612b5f61252e565b5b8135612b70848260208601612b09565b91505092915050565b60008060008060808587031215612b9357612b92612192565b5b6000612ba187828801612428565b9450506020612bb287828801612428565b9350506040612bc3878288016121bd565b925050606085013567ffffffffffffffff811115612be457612be3612197565b5b612bf087828801612b4b565b91505092959194509250565b600080600060608486031215612c1557612c14612192565b5b600084013567ffffffffffffffff811115612c3357612c32612197565b5b612c3f868287016127fb565b935050602084013567ffffffffffffffff811115612c6057612c5f612197565b5b612c6c868287016127fb565b9250506040612c7d868287016121bd565b9150509250925092565b60008060408385031215612c9e57612c9d612192565b5b6000612cac858286016121bd565b9250506020612cbd85828601612519565b9150509250929050565b60008060408385031215612cde57612cdd612192565b5b6000612cec85828601612428565b9250506020612cfd85828601612428565b9150509250929050565b7f4e6f7420696d706c656d656e746564207965742e000000000000000000000000600082015250565b6000612d3d6014836122c5565b9150612d4882612d07565b602082019050919050565b60006020820190508181036000830152612d6c81612d30565b9050919050565b7f4e487b7100000000000000000000000000000000000000000000000000000000600052602260045260246000fd5b60006002820490506001821680612dba57607f821691505b602082108103612dcd57612dcc612d73565b5b50919050565b7f4552433732313a20617070726f76656420717565727920666f72206e6f6e657860008201527f697374656e7420746f6b656e0000000000000000000000000000000000000000602082015250565b6000612e2f602c836122c5565b9150612e3a82612dd3565b604082019050919050565b60006020820190508181036000830152612e5e81612e22565b9050919050565b7f4552433732313a20617070726f76616c20746f2063757272656e74206f776e6560008201527f7200000000000000000000000000000000000000000000000000000000000000602082015250565b6000612ec16021836122c5565b9150612ecc82612e65565b604082019050919050565b60006020820190508181036000830152612ef081612eb4565b9050919050565b7f4552433732313a20617070726f76652063616c6c6572206973206e6f74206f7760008201527f6e6572206e6f7220617070726f76656420666f7220616c6c0000000000000000602082015250565b6000612f536038836122c5565b9150612f5e82612ef7565b604082019050919050565b60006020820190508181036000830152612f8281612f46565b9050919050565b7f4e487b7100000000000000000000000000000000000000000000000000000000600052601160045260246000fd5b6000612fc38261219c565b91507fffffffffffffffffffffffffffffffffffffffffffffffffffffffffffffffff8203612ff557612ff4612f89565b5b600182019050919050565b7f4e487b7100000000000000000000000000000000000000000000000000000000600052603260045260246000fd5b7f506172656e7420746f6b656e204944206f66206120706172656e74206973207a60008201527f65726f2e00000000000000000000000000000000000000000000000000000000602082015250565b600061308b6024836122c5565b91506130968261302f565b604082019050919050565b600060208201905081810360008301526130ba8161307e565b9050919050565b7f506172656e7420746f6b656e20646f6573206e6f742065786973742e00000000600082015250565b60006130f7601c836122c5565b9150613102826130c1565b602082019050919050565b60006020820190508181036000830152613126816130ea565b9050919050565b7f506172656e7420746f6b656e20646f6573206e6f7420616c6c6f772061646f7060008201527f74696f6e2e000000000000000000000000000000000000000000000000000000602082015250565b60006131896025836122c5565b91506131948261312d565b604082019050919050565b600060208201905081810360008301526131b88161317c565b9050919050565b7f4552433732313a207472616e736665722063616c6c6572206973206e6f74206f60008201527f776e6572206e6f7220617070726f766564000000000000000000000000000000602082015250565b600061321b6031836122c5565b9150613226826131bf565b604082019050919050565b6000602082019050818103600083015261324a8161320e565b9050919050565b7f4552433732313a206f776e657220717565727920666f72206e6f6e657869737460008201527f656e7420746f6b656e0000000000000000000000000000000000000000000000602082015250565b60006132ad6029836122c5565b91506132b882613251565b604082019050919050565b600060208201905081810360008301526132dc816132a0565b9050919050565b7f54686520636f70797269676874206f776e657220646f6573206e6f7420616c6c60008201527f6f7720646973747269627574696f6e2e00000000000000000000000000000000602082015250565b600061333f6030836122c5565b915061334a826132e3565b604082019050919050565b6000602082019050818103600083015261336e81613332565b9050919050565b7f4552433732313a2062616c616e636520717565727920666f7220746865207a6560008201527f726f206164647265737300000000000000000000000000000000000000000000602082015250565b60006133d1602a836122c5565b91506133dc82613375565b604082019050919050565b60006020820190508181036000830152613400816133c4565b9050919050565b7f54686520746f6b656e20796f75206d616b65206465706f73697420746f20646f60008201527f6573206e6f742065786973742e00000000000000000000000000000000000000602082015250565b6000613463602d836122c5565b915061346e82613407565b604082019050919050565b6000602082019050818103600083015261349281613456565b9050919050565b7f4552433732314d657461646174613a2055524920717565727920666f72206e6f60008201527f6e6578697374656e7420746f6b656e0000000000000000000000000000000000602082015250565b60006134f5602f836122c5565b915061350082613499565b604082019050919050565b60006020820190508181036000830152613524816134e8565b9050919050565b600081905092915050565b6000613541826122ba565b61354b818561352b565b935061355b8185602086016122d6565b80840191505092915050565b60006135738285613536565b915061357f8284613536565b91508190509392505050565b7f4552433732313a206f70657261746f7220717565727920666f72206e6f6e657860008201527f697374656e7420746f6b656e0000000000000000000000000000000000000000602082015250565b60006135e7602c836122c5565b91506135f28261358b565b604082019050919050565b60006020820190508181036000830152613616816135da565b9050919050565b7f4552433732313a207472616e736665722066726f6d20696e636f72726563742060008201527f6f776e6572000000000000000000000000000000000000000000000000000000602082015250565b60006136796025836122c5565b91506136848261361d565b604082019050919050565b600060208201905081810360008301526136a88161366c565b9050919050565b7f4552433732313a207472616e7366657220746f20746865207a65726f2061646460008201527f7265737300000000000000000000000000000000000000000000000000000000602082015250565b600061370b6024836122c5565b9150613716826136af565b604082019050919050565b6000602082019050818103600083015261373a816136fe565b9050919050565b600061374c8261219c565b91506137578361219c565b92508282101561376a57613769612f89565b5b828203905092915050565b60006137808261219c565b915061378b8361219c565b9250827fffffffffffffffffffffffffffffffffffffffffffffffffffffffffffffffff038211156137c0576137bf612f89565b5b828201905092915050565b7f4552433732313a20617070726f766520746f2063616c6c657200000000000000600082015250565b60006138016019836122c5565b915061380c826137cb565b602082019050919050565b60006020820190508181036000830152613830816137f4565b9050919050565b7f4552433732313a207472616e7366657220746f206e6f6e20455243373231526560008201527f63656976657220696d706c656d656e7465720000000000000000000000000000602082015250565b60006138936032836122c5565b915061389e82613837565b604082019050919050565b600060208201905081810360008301526138c281613886565b9050919050565b7f4e487b7100000000000000000000000000000000000000000000000000000000600052601260045260246000fd5b60006139038261219c565b915061390e8361219c565b92508261391e5761391d6138c9565b5b828204905092915050565b60006139348261219c565b915061393f8361219c565b92508261394f5761394e6138c9565b5b828206905092915050565b600081519050919050565b600082825260208201905092915050565b60006139818261395a565b61398b8185613965565b935061399b8185602086016122d6565b6139a481612309565b840191505092915050565b60006080820190506139c460008301876123e7565b6139d160208301866123e7565b6139de604083018561273c565b81810360608301526139f08184613976565b905095945050505050565b600081519050613a0a81612261565b92915050565b600060208284031215613a2657613a25612192565b5b6000613a34848285016139fb565b91505092915050565b7f4552433732313a206d696e7420746f20746865207a65726f2061646472657373600082015250565b6000613a736020836122c5565b9150613a7e82613a3d565b602082019050919050565b60006020820190508181036000830152613aa281613a66565b9050919050565b7f4552433732313a20746f6b656e20616c7265616479206d696e74656400000000600082015250565b6000613adf601c836122c5565b9150613aea82613aa9565b602082019050919050565b60006020820190508181036000830152613b0e81613ad2565b905091905056fea2646970667358221220c55a719189e01179697088b073dae588ed8dbc49809a8662513e3734be06242d64736f6c634300080f0033",
  "linkReferences": {},
  "deployedLinkReferences": {}
}