{
  "_format": "hh-sol-artifact-1",
  "contractName": "CopyrightToken",
  "sourceName": "src/backend/contracts/CopyrightToken.sol",
  "abi": [
    {
      "inputs": [],
      "stateMutability": "nonpayable",
      "type": "constructor"
    },
    {
      "anonymous": false,
      "inputs": [
        {
          "components": [
            {
              "internalType": "uint256",
              "name": "tokenWeight",
              "type": "uint256"
            },
            {
              "internalType": "uint256",
              "name": "timeStamp",
              "type": "uint256"
            },
            {
              "internalType": "bool",
              "name": "isBlacklisted",
              "type": "bool"
            },
            {
              "components": [
                {
                  "internalType": "uint256",
                  "name": "to",
                  "type": "uint256"
                },
                {
                  "internalType": "uint256",
                  "name": "weight",
                  "type": "uint256"
                }
              ],
              "internalType": "struct ICopyrightGraph.Edge[]",
              "name": "edges",
              "type": "tuple[]"
            },
            {
              "internalType": "uint256",
              "name": "numberOfTokensBehind",
              "type": "uint256"
            }
          ],
          "indexed": false,
          "internalType": "struct ICopyrightGraph.Token",
          "name": "token",
          "type": "tuple"
        }
      ],
      "name": "AddTokenToGraph",
      "type": "event"
    },
    {
      "anonymous": false,
      "inputs": [
        {
          "indexed": true,
          "internalType": "address",
          "name": "owner",
          "type": "address"
        },
        {
          "indexed": true,
          "internalType": "address",
          "name": "approved",
          "type": "address"
        },
        {
          "indexed": true,
          "internalType": "uint256",
          "name": "tokenId",
          "type": "uint256"
        }
      ],
      "name": "Approval",
      "type": "event"
    },
    {
      "anonymous": false,
      "inputs": [
        {
          "indexed": true,
          "internalType": "address",
          "name": "owner",
          "type": "address"
        },
        {
          "indexed": true,
          "internalType": "address",
          "name": "operator",
          "type": "address"
        },
        {
          "indexed": false,
          "internalType": "bool",
          "name": "approved",
          "type": "bool"
        }
      ],
      "name": "ApprovalForAll",
      "type": "event"
    },
    {
      "anonymous": false,
      "inputs": [
        {
          "indexed": false,
          "internalType": "uint256",
          "name": "id",
          "type": "uint256"
        },
        {
          "indexed": false,
          "internalType": "uint256",
          "name": "newWeight",
          "type": "uint256"
        }
      ],
      "name": "ChangeTokenWeight",
      "type": "event"
    },
    {
      "anonymous": false,
      "inputs": [
        {
          "indexed": false,
          "internalType": "uint256",
          "name": "id",
          "type": "uint256"
        },
        {
          "indexed": false,
          "internalType": "bool",
          "name": "isBlacklisted",
          "type": "bool"
        }
      ],
      "name": "TokenBlacklisted",
      "type": "event"
    },
    {
      "anonymous": false,
      "inputs": [
        {
          "indexed": true,
          "internalType": "address",
          "name": "from",
          "type": "address"
        },
        {
          "indexed": true,
          "internalType": "address",
          "name": "to",
          "type": "address"
        },
        {
          "indexed": true,
          "internalType": "uint256",
          "name": "tokenId",
          "type": "uint256"
        }
      ],
      "name": "Transfer",
      "type": "event"
    },
    {
      "inputs": [
        {
          "internalType": "address",
          "name": "to",
          "type": "address"
        },
        {
          "internalType": "uint256",
          "name": "tokenId",
          "type": "uint256"
        }
      ],
      "name": "approve",
      "outputs": [],
      "stateMutability": "nonpayable",
      "type": "function"
    },
    {
      "inputs": [
        {
          "internalType": "address",
          "name": "owner",
          "type": "address"
        }
      ],
      "name": "balanceOf",
      "outputs": [
        {
          "internalType": "uint256",
          "name": "",
          "type": "uint256"
        }
      ],
      "stateMutability": "view",
      "type": "function"
    },
    {
      "inputs": [
        {
          "internalType": "uint256",
          "name": "id",
          "type": "uint256"
        },
        {
          "internalType": "bool",
          "name": "isBlacklisted",
          "type": "bool"
        }
      ],
      "name": "blacklistToken",
      "outputs": [],
      "stateMutability": "nonpayable",
      "type": "function"
    },
    {
      "inputs": [
        {
          "internalType": "uint256",
          "name": "id",
          "type": "uint256"
        },
        {
          "internalType": "uint256",
          "name": "newWeight",
          "type": "uint256"
        }
      ],
      "name": "changeTokenWeight",
      "outputs": [],
      "stateMutability": "nonpayable",
      "type": "function"
    },
    {
      "inputs": [
        {
          "internalType": "uint256",
          "name": "id",
          "type": "uint256"
        }
      ],
      "name": "deposit",
      "outputs": [],
      "stateMutability": "payable",
      "type": "function"
    },
    {
      "inputs": [
        {
          "internalType": "uint256",
          "name": "tokenId",
          "type": "uint256"
        }
      ],
      "name": "getApproved",
      "outputs": [
        {
          "internalType": "address",
          "name": "",
          "type": "address"
        }
      ],
      "stateMutability": "view",
      "type": "function"
    },
    {
      "inputs": [
        {
          "internalType": "uint256[]",
          "name": "parentIds",
          "type": "uint256[]"
        },
        {
          "internalType": "uint256[]",
          "name": "parentWeights",
          "type": "uint256[]"
        },
        {
          "internalType": "uint256",
          "name": "id",
          "type": "uint256"
        }
      ],
      "name": "insertEdges",
      "outputs": [],
      "stateMutability": "nonpayable",
      "type": "function"
    },
    {
      "inputs": [
        {
          "internalType": "uint256[]",
          "name": "parentIds",
          "type": "uint256[]"
        },
        {
          "internalType": "uint256[]",
          "name": "parentWeights",
          "type": "uint256[]"
        },
        {
          "internalType": "uint256",
          "name": "id",
          "type": "uint256"
        },
        {
          "internalType": "uint256",
          "name": "weight",
          "type": "uint256"
        }
      ],
      "name": "insertToken",
      "outputs": [],
      "stateMutability": "nonpayable",
      "type": "function"
    },
    {
      "inputs": [
        {
          "internalType": "address",
          "name": "owner",
          "type": "address"
        },
        {
          "internalType": "address",
          "name": "operator",
          "type": "address"
        }
      ],
      "name": "isApprovedForAll",
      "outputs": [
        {
          "internalType": "bool",
          "name": "",
          "type": "bool"
        }
      ],
      "stateMutability": "view",
      "type": "function"
    },
    {
      "inputs": [],
      "name": "name",
      "outputs": [
        {
          "internalType": "string",
          "name": "",
          "type": "string"
        }
      ],
      "stateMutability": "view",
      "type": "function"
    },
    {
      "inputs": [
        {
          "internalType": "uint256",
          "name": "tokenId",
          "type": "uint256"
        }
      ],
      "name": "ownerOf",
      "outputs": [
        {
          "internalType": "address",
          "name": "",
          "type": "address"
        }
      ],
      "stateMutability": "view",
      "type": "function"
    },
    {
      "inputs": [
        {
          "components": [
            {
              "internalType": "uint256",
              "name": "tokenWeight",
              "type": "uint256"
            },
            {
              "internalType": "uint256",
              "name": "timeStamp",
              "type": "uint256"
            },
            {
              "internalType": "bool",
              "name": "isBlacklisted",
              "type": "bool"
            },
            {
              "components": [
                {
                  "internalType": "uint256",
                  "name": "to",
                  "type": "uint256"
                },
                {
                  "internalType": "uint256",
                  "name": "weight",
                  "type": "uint256"
                }
              ],
              "internalType": "struct ICopyrightGraph.Edge[]",
              "name": "edges",
              "type": "tuple[]"
            },
            {
              "internalType": "uint256",
              "name": "numberOfTokensBehind",
              "type": "uint256"
            }
          ],
          "internalType": "struct ICopyrightGraph.Token",
          "name": "token",
          "type": "tuple"
        }
      ],
      "name": "returnId",
      "outputs": [
        {
          "internalType": "uint256",
          "name": "id",
          "type": "uint256"
        }
      ],
      "stateMutability": "pure",
      "type": "function"
    },
    {
      "inputs": [
        {
          "internalType": "uint256",
          "name": "id",
          "type": "uint256"
        }
      ],
      "name": "returnIsBlacklisted",
      "outputs": [
        {
          "internalType": "bool",
          "name": "isBlacklisted",
          "type": "bool"
        }
      ],
      "stateMutability": "view",
      "type": "function"
    },
    {
      "inputs": [],
      "name": "returnLeafTokenIDs",
      "outputs": [
        {
          "internalType": "uint256[]",
          "name": "leafTokenIDs",
          "type": "uint256[]"
        }
      ],
      "stateMutability": "view",
      "type": "function"
    },
    {
      "inputs": [
        {
          "internalType": "uint256",
          "name": "id",
          "type": "uint256"
        }
      ],
      "name": "returnTime",
      "outputs": [
        {
          "internalType": "uint256",
          "name": "timeStamp",
          "type": "uint256"
        }
      ],
      "stateMutability": "view",
      "type": "function"
    },
    {
      "inputs": [
        {
          "internalType": "uint256",
          "name": "id",
          "type": "uint256"
        }
      ],
      "name": "returnTokenWeight",
      "outputs": [
        {
          "internalType": "uint256",
          "name": "weight",
          "type": "uint256"
        }
      ],
      "stateMutability": "view",
      "type": "function"
    },
    {
      "inputs": [
        {
          "internalType": "address",
          "name": "from",
          "type": "address"
        },
        {
          "internalType": "address",
          "name": "to",
          "type": "address"
        },
        {
          "internalType": "uint256",
          "name": "tokenId",
          "type": "uint256"
        }
      ],
      "name": "safeTransferFrom",
      "outputs": [],
      "stateMutability": "nonpayable",
      "type": "function"
    },
    {
      "inputs": [
        {
          "internalType": "address",
          "name": "from",
          "type": "address"
        },
        {
          "internalType": "address",
          "name": "to",
          "type": "address"
        },
        {
          "internalType": "uint256",
          "name": "tokenId",
          "type": "uint256"
        },
        {
          "internalType": "bytes",
          "name": "_data",
          "type": "bytes"
        }
      ],
      "name": "safeTransferFrom",
      "outputs": [],
      "stateMutability": "nonpayable",
      "type": "function"
    },
    {
      "inputs": [
        {
          "internalType": "address",
          "name": "operator",
          "type": "address"
        },
        {
          "internalType": "bool",
          "name": "approved",
          "type": "bool"
        }
      ],
      "name": "setApprovalForAll",
      "outputs": [],
      "stateMutability": "nonpayable",
      "type": "function"
    },
    {
      "inputs": [
        {
          "internalType": "bytes4",
          "name": "interfaceId",
          "type": "bytes4"
        }
      ],
      "name": "supportsInterface",
      "outputs": [
        {
          "internalType": "bool",
          "name": "",
          "type": "bool"
        }
      ],
      "stateMutability": "view",
      "type": "function"
    },
    {
      "inputs": [],
      "name": "symbol",
      "outputs": [
        {
          "internalType": "string",
          "name": "",
          "type": "string"
        }
      ],
      "stateMutability": "view",
      "type": "function"
    },
    {
      "inputs": [],
      "name": "tokenCount",
      "outputs": [
        {
          "internalType": "uint256",
          "name": "",
          "type": "uint256"
        }
      ],
      "stateMutability": "view",
      "type": "function"
    },
    {
      "inputs": [
        {
          "internalType": "uint256",
          "name": "id",
          "type": "uint256"
        }
      ],
      "name": "tokenExists",
      "outputs": [
        {
          "internalType": "bool",
          "name": "exists",
          "type": "bool"
        }
      ],
      "stateMutability": "view",
      "type": "function"
    },
    {
      "inputs": [
        {
          "internalType": "uint256",
          "name": "tokenId",
          "type": "uint256"
        }
      ],
      "name": "tokenURI",
      "outputs": [
        {
          "internalType": "string",
          "name": "",
          "type": "string"
        }
      ],
      "stateMutability": "view",
      "type": "function"
    },
    {
      "inputs": [
        {
          "internalType": "address",
          "name": "from",
          "type": "address"
        },
        {
          "internalType": "address",
          "name": "to",
          "type": "address"
        },
        {
          "internalType": "uint256",
          "name": "tokenId",
          "type": "uint256"
        }
      ],
      "name": "transferFrom",
      "outputs": [],
      "stateMutability": "nonpayable",
      "type": "function"
    }
  ],
  "bytecode": "0x60806040523480156200001157600080fd5b506040518060400160405280601481526020017f5465737420436f7079726967687420546f6b656e0000000000000000000000008152506040518060400160405280600381526020017f544354000000000000000000000000000000000000000000000000000000000081525081600090816200008f919062000324565b508060019081620000a1919062000324565b5050506200040b565b600081519050919050565b7f4e487b7100000000000000000000000000000000000000000000000000000000600052604160045260246000fd5b7f4e487b7100000000000000000000000000000000000000000000000000000000600052602260045260246000fd5b600060028204905060018216806200012c57607f821691505b602082108103620001425762000141620000e4565b5b50919050565b60008190508160005260206000209050919050565b60006020601f8301049050919050565b600082821b905092915050565b600060088302620001ac7fffffffffffffffffffffffffffffffffffffffffffffffffffffffffffffffff826200016d565b620001b886836200016d565b95508019841693508086168417925050509392505050565b6000819050919050565b6000819050919050565b600062000205620001ff620001f984620001d0565b620001da565b620001d0565b9050919050565b6000819050919050565b6200022183620001e4565b6200023962000230826200020c565b8484546200017a565b825550505050565b600090565b6200025062000241565b6200025d81848462000216565b505050565b5b8181101562000285576200027960008262000246565b60018101905062000263565b5050565b601f821115620002d4576200029e8162000148565b620002a9846200015d565b81016020851015620002b9578190505b620002d1620002c8856200015d565b83018262000262565b50505b505050565b600082821c905092915050565b6000620002f960001984600802620002d9565b1980831691505092915050565b6000620003148383620002e6565b9150826002028217905092915050565b6200032f82620000aa565b67ffffffffffffffff8111156200034b576200034a620000b5565b5b62000357825462000113565b6200036482828562000289565b600060209050601f8311600181146200039c576000841562000387578287015190505b62000393858262000306565b86555062000403565b601f198416620003ac8662000148565b60005b82811015620003d657848901518255600182019150602085019450602081019050620003af565b86831015620003f65784890151620003f2601f891682620002e6565b8355505b6001600288020188555050505b505050505050565b612fc0806200041b6000396000f3fe6080604052600436106101655760003560e01c80636352211e116100d1578063a22cb4651161008a578063beae494211610064578063beae494214610576578063c87b56dd1461059f578063ce8b4afd146105dc578063e985e9c51461060557610165565b8063a22cb46514610508578063b6b55f2514610531578063b88d4fde1461054d57610165565b80636352211e146103d257806370a082311461040f578063866fe41a1461044c57806395d89b4114610475578063981ad468146104a05780639f181b5e146104dd57610165565b80630ab71fb1116101235780630ab71fb11461029e5780630b8e12fc146102db57806316b407a81461031857806323b872dd14610355578063265732241461037e57806342842e0e146103a957610165565b8062923f9e1461016a57806301ffc9a7146101a757806306fdde03146101e4578063076fcc1f1461020f578063081812fc14610238578063095ea7b314610275575b600080fd5b34801561017657600080fd5b50610191600480360381019061018c9190611a2f565b610642565b60405161019e9190611a77565b60405180910390f35b3480156101b357600080fd5b506101ce60048036038101906101c99190611aea565b610689565b6040516101db9190611a77565b60405180910390f35b3480156101f057600080fd5b506101f961076b565b6040516102069190611bb0565b60405180910390f35b34801561021b57600080fd5b5061023660048036038101906102319190611bd2565b6107fd565b005b34801561024457600080fd5b5061025f600480360381019061025a9190611a2f565b610842565b60405161026c9190611c53565b60405180910390f35b34801561028157600080fd5b5061029c60048036038101906102979190611c9a565b6108c7565b005b3480156102aa57600080fd5b506102c560048036038101906102c09190611f50565b6109de565b6040516102d29190611fa8565b60405180910390f35b3480156102e757600080fd5b5061030260048036038101906102fd9190611a2f565b610a25565b60405161030f9190611fa8565b60405180910390f35b34801561032457600080fd5b5061033f600480360381019061033a9190611a2f565b610a6c565b60405161034c9190611fa8565b60405180910390f35b34801561036157600080fd5b5061037c60048036038101906103779190611fc3565b610ab3565b005b34801561038a57600080fd5b50610393610b13565b6040516103a091906120d4565b60405180910390f35b3480156103b557600080fd5b506103d060048036038101906103cb9190611fc3565b610b6b565b005b3480156103de57600080fd5b506103f960048036038101906103f49190611a2f565b610b8b565b6040516104069190611c53565b60405180910390f35b34801561041b57600080fd5b50610436600480360381019061043191906120f6565b610c3c565b6040516104439190611fa8565b60405180910390f35b34801561045857600080fd5b50610473600480360381019061046e91906121e6565b610cf3565b005b34801561048157600080fd5b5061048a610cf9565b6040516104979190611bb0565b60405180910390f35b3480156104ac57600080fd5b506104c760048036038101906104c29190611a2f565b610d8b565b6040516104d49190611a77565b60405180910390f35b3480156104e957600080fd5b506104f2610dd2565b6040516104ff9190611fa8565b60405180910390f35b34801561051457600080fd5b5061052f600480360381019061052a9190612285565b610e17565b005b61054b60048036038101906105469190611a2f565b610e2d565b005b34801561055957600080fd5b50610574600480360381019061056f919061237a565b610e30565b005b34801561058257600080fd5b5061059d600480360381019061059891906123fd565b610e92565b005b3480156105ab57600080fd5b506105c660048036038101906105c19190611a2f565b610e97565b6040516105d39190611bb0565b60405180910390f35b3480156105e857600080fd5b5061060360048036038101906105fe9190612488565b610f3e565b005b34801561061157600080fd5b5061062c600480360381019061062791906124c8565b610f83565b6040516106399190611a77565b60405180910390f35b600080610684576040517f08c379a000000000000000000000000000000000000000000000000000000000815260040161067b90612554565b60405180910390fd5b919050565b60007f80ac58cd000000000000000000000000000000000000000000000000000000007bffffffffffffffffffffffffffffffffffffffffffffffffffffffff1916827bffffffffffffffffffffffffffffffffffffffffffffffffffffffff1916148061075457507f5b5e139f000000000000000000000000000000000000000000000000000000007bffffffffffffffffffffffffffffffffffffffffffffffffffffffff1916827bffffffffffffffffffffffffffffffffffffffffffffffffffffffff1916145b80610764575061076382611017565b5b9050919050565b60606000805461077a906125a3565b80601f01602080910402602001604051908101604052809291908181526020018280546107a6906125a3565b80156107f35780601f106107c8576101008083540402835291602001916107f3565b820191906000526020600020905b8154815290600101906020018083116107d657829003601f168201915b5050505050905090565b600061083e576040517f08c379a000000000000000000000000000000000000000000000000000000000815260040161083590612554565b60405180910390fd5b5050565b600061084d82611081565b61088c576040517f08c379a000000000000000000000000000000000000000000000000000000000815260040161088390612646565b60405180910390fd5b6004600083815260200190815260200160002060009054906101000a900473ffffffffffffffffffffffffffffffffffffffff169050919050565b60006108d282610b8b565b90508073ffffffffffffffffffffffffffffffffffffffff168373ffffffffffffffffffffffffffffffffffffffff1603610942576040517f08c379a0000000000000000000000000000000000000000000000000000000008152600401610939906126d8565b60405180910390fd5b8073ffffffffffffffffffffffffffffffffffffffff166109616110ed565b73ffffffffffffffffffffffffffffffffffffffff161480610990575061098f8161098a6110ed565b610f83565b5b6109cf576040517f08c379a00000000000000000000000000000000000000000000000000000000081526004016109c69061276a565b60405180910390fd5b6109d983836110f5565b505050565b600080610a20576040517f08c379a0000000000000000000000000000000000000000000000000000000008152600401610a1790612554565b60405180910390fd5b919050565b600080610a67576040517f08c379a0000000000000000000000000000000000000000000000000000000008152600401610a5e90612554565b60405180910390fd5b919050565b600080610aae576040517f08c379a0000000000000000000000000000000000000000000000000000000008152600401610aa590612554565b60405180910390fd5b919050565b610ac4610abe6110ed565b826111ae565b610b03576040517f08c379a0000000000000000000000000000000000000000000000000000000008152600401610afa906127fc565b60405180910390fd5b610b0e83838361128c565b505050565b60606006805480602002602001604051908101604052809291908181526020018280548015610b6157602002820191906000526020600020905b815481526020019060010190808311610b4d575b5050505050905090565b610b8683838360405180602001604052806000815250610e30565b505050565b6000806002600084815260200190815260200160002060009054906101000a900473ffffffffffffffffffffffffffffffffffffffff169050600073ffffffffffffffffffffffffffffffffffffffff168173ffffffffffffffffffffffffffffffffffffffff1603610c33576040517f08c379a0000000000000000000000000000000000000000000000000000000008152600401610c2a9061288e565b60405180910390fd5b80915050919050565b60008073ffffffffffffffffffffffffffffffffffffffff168273ffffffffffffffffffffffffffffffffffffffff1603610cac576040517f08c379a0000000000000000000000000000000000000000000000000000000008152600401610ca390612920565b60405180910390fd5b600360008373ffffffffffffffffffffffffffffffffffffffff1673ffffffffffffffffffffffffffffffffffffffff168152602001908152602001600020549050919050565b50505050565b606060018054610d08906125a3565b80601f0160208091040260200160405190810160405280929190818152602001828054610d34906125a3565b8015610d815780601f10610d5657610100808354040283529160200191610d81565b820191906000526020600020905b815481529060010190602001808311610d6457829003601f168201915b5050505050905090565b600080610dcd576040517f08c379a0000000000000000000000000000000000000000000000000000000008152600401610dc490612554565b60405180910390fd5b919050565b600080610e14576040517f08c379a0000000000000000000000000000000000000000000000000000000008152600401610e0b90612554565b60405180910390fd5b90565b610e29610e226110ed565b83836114f2565b5050565b50565b610e41610e3b6110ed565b836111ae565b610e80576040517f08c379a0000000000000000000000000000000000000000000000000000000008152600401610e77906127fc565b60405180910390fd5b610e8c8484848461165e565b50505050565b505050565b6060610ea282611081565b610ee1576040517f08c379a0000000000000000000000000000000000000000000000000000000008152600401610ed8906129b2565b60405180910390fd5b6000610eeb6116ba565b90506000815111610f0b5760405180602001604052806000815250610f36565b80610f15846116d1565b604051602001610f26929190612a0e565b6040516020818303038152906040525b915050919050565b6000610f7f576040517f08c379a0000000000000000000000000000000000000000000000000000000008152600401610f7690612554565b60405180910390fd5b5050565b6000600560008473ffffffffffffffffffffffffffffffffffffffff1673ffffffffffffffffffffffffffffffffffffffff16815260200190815260200160002060008373ffffffffffffffffffffffffffffffffffffffff1673ffffffffffffffffffffffffffffffffffffffff16815260200190815260200160002060009054906101000a900460ff16905092915050565b60007f01ffc9a7000000000000000000000000000000000000000000000000000000007bffffffffffffffffffffffffffffffffffffffffffffffffffffffff1916827bffffffffffffffffffffffffffffffffffffffffffffffffffffffff1916149050919050565b60008073ffffffffffffffffffffffffffffffffffffffff166002600084815260200190815260200160002060009054906101000a900473ffffffffffffffffffffffffffffffffffffffff1673ffffffffffffffffffffffffffffffffffffffff1614159050919050565b600033905090565b816004600083815260200190815260200160002060006101000a81548173ffffffffffffffffffffffffffffffffffffffff021916908373ffffffffffffffffffffffffffffffffffffffff160217905550808273ffffffffffffffffffffffffffffffffffffffff1661116883610b8b565b73ffffffffffffffffffffffffffffffffffffffff167f8c5be1e5ebec7d5bd14f71427d1e84f3dd0314c0f7b2291e5b200ac8c7c3b92560405160405180910390a45050565b60006111b982611081565b6111f8576040517f08c379a00000000000000000000000000000000000000000000000000000000081526004016111ef90612aa4565b60405180910390fd5b600061120383610b8b565b90508073ffffffffffffffffffffffffffffffffffffffff168473ffffffffffffffffffffffffffffffffffffffff16148061124557506112448185610f83565b5b8061128357508373ffffffffffffffffffffffffffffffffffffffff1661126b84610842565b73ffffffffffffffffffffffffffffffffffffffff16145b91505092915050565b8273ffffffffffffffffffffffffffffffffffffffff166112ac82610b8b565b73ffffffffffffffffffffffffffffffffffffffff1614611302576040517f08c379a00000000000000000000000000000000000000000000000000000000081526004016112f990612b36565b60405180910390fd5b600073ffffffffffffffffffffffffffffffffffffffff168273ffffffffffffffffffffffffffffffffffffffff1603611371576040517f08c379a000000000000000000000000000000000000000000000000000000000815260040161136890612bc8565b60405180910390fd5b61137c838383611831565b6113876000826110f5565b6001600360008573ffffffffffffffffffffffffffffffffffffffff1673ffffffffffffffffffffffffffffffffffffffff16815260200190815260200160002060008282546113d79190612c17565b925050819055506001600360008473ffffffffffffffffffffffffffffffffffffffff1673ffffffffffffffffffffffffffffffffffffffff168152602001908152602001600020600082825461142e9190612c4b565b92505081905550816002600083815260200190815260200160002060006101000a81548173ffffffffffffffffffffffffffffffffffffffff021916908373ffffffffffffffffffffffffffffffffffffffff160217905550808273ffffffffffffffffffffffffffffffffffffffff168473ffffffffffffffffffffffffffffffffffffffff167fddf252ad1be2c89b69c2b068fc378daa952ba7f163c4a11628f55a4df523b3ef60405160405180910390a46114ed838383611836565b505050565b8173ffffffffffffffffffffffffffffffffffffffff168373ffffffffffffffffffffffffffffffffffffffff1603611560576040517f08c379a000000000000000000000000000000000000000000000000000000000815260040161155790612ced565b60405180910390fd5b80600560008573ffffffffffffffffffffffffffffffffffffffff1673ffffffffffffffffffffffffffffffffffffffff16815260200190815260200160002060008473ffffffffffffffffffffffffffffffffffffffff1673ffffffffffffffffffffffffffffffffffffffff16815260200190815260200160002060006101000a81548160ff0219169083151502179055508173ffffffffffffffffffffffffffffffffffffffff168373ffffffffffffffffffffffffffffffffffffffff167f17307eab39ab6107e8899845ad3d59bd9653f200f220920489ca2b5937696c31836040516116519190611a77565b60405180910390a3505050565b61166984848461128c565b6116758484848461183b565b6116b4576040517f08c379a00000000000000000000000000000000000000000000000000000000081526004016116ab90612d7f565b60405180910390fd5b50505050565b606060405180602001604052806000815250905090565b606060008203611718576040518060400160405280600181526020017f3000000000000000000000000000000000000000000000000000000000000000815250905061182c565b600082905060005b6000821461174a57808061173390612d9f565b915050600a826117439190612e16565b9150611720565b60008167ffffffffffffffff81111561176657611765611cdf565b5b6040519080825280601f01601f1916602001820160405280156117985781602001600182028036833780820191505090505b5090505b60008514611825576001826117b19190612c17565b9150600a856117c09190612e47565b60306117cc9190612c4b565b60f81b8183815181106117e2576117e1612e78565b5b60200101907effffffffffffffffffffffffffffffffffffffffffffffffffffffffffffff1916908160001a905350600a8561181e9190612e16565b945061179c565b8093505050505b919050565b505050565b505050565b600061185c8473ffffffffffffffffffffffffffffffffffffffff166119c2565b156119b5578373ffffffffffffffffffffffffffffffffffffffff1663150b7a026118856110ed565b8786866040518563ffffffff1660e01b81526004016118a79493929190612efc565b6020604051808303816000875af19250505080156118e357506040513d601f19601f820116820180604052508101906118e09190612f5d565b60015b611965573d8060008114611913576040519150601f19603f3d011682016040523d82523d6000602084013e611918565b606091505b50600081510361195d576040517f08c379a000000000000000000000000000000000000000000000000000000000815260040161195490612d7f565b60405180910390fd5b805181602001fd5b63150b7a0260e01b7bffffffffffffffffffffffffffffffffffffffffffffffffffffffff1916817bffffffffffffffffffffffffffffffffffffffffffffffffffffffff1916149150506119ba565b600190505b949350505050565b6000808273ffffffffffffffffffffffffffffffffffffffff163b119050919050565b6000604051905090565b600080fd5b600080fd5b6000819050919050565b611a0c816119f9565b8114611a1757600080fd5b50565b600081359050611a2981611a03565b92915050565b600060208284031215611a4557611a446119ef565b5b6000611a5384828501611a1a565b91505092915050565b60008115159050919050565b611a7181611a5c565b82525050565b6000602082019050611a8c6000830184611a68565b92915050565b60007fffffffff0000000000000000000000000000000000000000000000000000000082169050919050565b611ac781611a92565b8114611ad257600080fd5b50565b600081359050611ae481611abe565b92915050565b600060208284031215611b0057611aff6119ef565b5b6000611b0e84828501611ad5565b91505092915050565b600081519050919050565b600082825260208201905092915050565b60005b83811015611b51578082015181840152602081019050611b36565b83811115611b60576000848401525b50505050565b6000601f19601f8301169050919050565b6000611b8282611b17565b611b8c8185611b22565b9350611b9c818560208601611b33565b611ba581611b66565b840191505092915050565b60006020820190508181036000830152611bca8184611b77565b905092915050565b60008060408385031215611be957611be86119ef565b5b6000611bf785828601611a1a565b9250506020611c0885828601611a1a565b9150509250929050565b600073ffffffffffffffffffffffffffffffffffffffff82169050919050565b6000611c3d82611c12565b9050919050565b611c4d81611c32565b82525050565b6000602082019050611c686000830184611c44565b92915050565b611c7781611c32565b8114611c8257600080fd5b50565b600081359050611c9481611c6e565b92915050565b60008060408385031215611cb157611cb06119ef565b5b6000611cbf85828601611c85565b9250506020611cd085828601611a1a565b9150509250929050565b600080fd5b7f4e487b7100000000000000000000000000000000000000000000000000000000600052604160045260246000fd5b611d1782611b66565b810181811067ffffffffffffffff82111715611d3657611d35611cdf565b5b80604052505050565b6000611d496119e5565b9050611d558282611d0e565b919050565b600080fd5b611d6881611a5c565b8114611d7357600080fd5b50565b600081359050611d8581611d5f565b92915050565b600080fd5b600067ffffffffffffffff821115611dab57611daa611cdf565b5b602082029050602081019050919050565b600080fd5b600060408284031215611dd757611dd6611cda565b5b611de16040611d3f565b90506000611df184828501611a1a565b6000830152506020611e0584828501611a1a565b60208301525092915050565b6000611e24611e1f84611d90565b611d3f565b90508083825260208201905060408402830185811115611e4757611e46611dbc565b5b835b81811015611e705780611e5c8882611dc1565b845260208401935050604081019050611e49565b5050509392505050565b600082601f830112611e8f57611e8e611d8b565b5b8135611e9f848260208601611e11565b91505092915050565b600060a08284031215611ebe57611ebd611cda565b5b611ec860a0611d3f565b90506000611ed884828501611a1a565b6000830152506020611eec84828501611a1a565b6020830152506040611f0084828501611d76565b604083015250606082013567ffffffffffffffff811115611f2457611f23611d5a565b5b611f3084828501611e7a565b6060830152506080611f4484828501611a1a565b60808301525092915050565b600060208284031215611f6657611f656119ef565b5b600082013567ffffffffffffffff811115611f8457611f836119f4565b5b611f9084828501611ea8565b91505092915050565b611fa2816119f9565b82525050565b6000602082019050611fbd6000830184611f99565b92915050565b600080600060608486031215611fdc57611fdb6119ef565b5b6000611fea86828701611c85565b9350506020611ffb86828701611c85565b925050604061200c86828701611a1a565b9150509250925092565b600081519050919050565b600082825260208201905092915050565b6000819050602082019050919050565b61204b816119f9565b82525050565b600061205d8383612042565b60208301905092915050565b6000602082019050919050565b600061208182612016565b61208b8185612021565b935061209683612032565b8060005b838110156120c75781516120ae8882612051565b97506120b983612069565b92505060018101905061209a565b5085935050505092915050565b600060208201905081810360008301526120ee8184612076565b905092915050565b60006020828403121561210c5761210b6119ef565b5b600061211a84828501611c85565b91505092915050565b600067ffffffffffffffff82111561213e5761213d611cdf565b5b602082029050602081019050919050565b600061216261215d84612123565b611d3f565b9050808382526020820190506020840283018581111561218557612184611dbc565b5b835b818110156121ae578061219a8882611a1a565b845260208401935050602081019050612187565b5050509392505050565b600082601f8301126121cd576121cc611d8b565b5b81356121dd84826020860161214f565b91505092915050565b60008060008060808587031215612200576121ff6119ef565b5b600085013567ffffffffffffffff81111561221e5761221d6119f4565b5b61222a878288016121b8565b945050602085013567ffffffffffffffff81111561224b5761224a6119f4565b5b612257878288016121b8565b935050604061226887828801611a1a565b925050606061227987828801611a1a565b91505092959194509250565b6000806040838503121561229c5761229b6119ef565b5b60006122aa85828601611c85565b92505060206122bb85828601611d76565b9150509250929050565b600080fd5b600067ffffffffffffffff8211156122e5576122e4611cdf565b5b6122ee82611b66565b9050602081019050919050565b82818337600083830152505050565b600061231d612318846122ca565b611d3f565b905082815260208101848484011115612339576123386122c5565b5b6123448482856122fb565b509392505050565b600082601f83011261236157612360611d8b565b5b813561237184826020860161230a565b91505092915050565b60008060008060808587031215612394576123936119ef565b5b60006123a287828801611c85565b94505060206123b387828801611c85565b93505060406123c487828801611a1a565b925050606085013567ffffffffffffffff8111156123e5576123e46119f4565b5b6123f18782880161234c565b91505092959194509250565b600080600060608486031215612416576124156119ef565b5b600084013567ffffffffffffffff811115612434576124336119f4565b5b612440868287016121b8565b935050602084013567ffffffffffffffff811115612461576124606119f4565b5b61246d868287016121b8565b925050604061247e86828701611a1a565b9150509250925092565b6000806040838503121561249f5761249e6119ef565b5b60006124ad85828601611a1a565b92505060206124be85828601611d76565b9150509250929050565b600080604083850312156124df576124de6119ef565b5b60006124ed85828601611c85565b92505060206124fe85828601611c85565b9150509250929050565b7f4e6f7420696d706c656d656e7465642079657400000000000000000000000000600082015250565b600061253e601383611b22565b915061254982612508565b602082019050919050565b6000602082019050818103600083015261256d81612531565b9050919050565b7f4e487b7100000000000000000000000000000000000000000000000000000000600052602260045260246000fd5b600060028204905060018216806125bb57607f821691505b6020821081036125ce576125cd612574565b5b50919050565b7f4552433732313a20617070726f76656420717565727920666f72206e6f6e657860008201527f697374656e7420746f6b656e0000000000000000000000000000000000000000602082015250565b6000612630602c83611b22565b915061263b826125d4565b604082019050919050565b6000602082019050818103600083015261265f81612623565b9050919050565b7f4552433732313a20617070726f76616c20746f2063757272656e74206f776e6560008201527f7200000000000000000000000000000000000000000000000000000000000000602082015250565b60006126c2602183611b22565b91506126cd82612666565b604082019050919050565b600060208201905081810360008301526126f1816126b5565b9050919050565b7f4552433732313a20617070726f76652063616c6c6572206973206e6f74206f7760008201527f6e6572206e6f7220617070726f76656420666f7220616c6c0000000000000000602082015250565b6000612754603883611b22565b915061275f826126f8565b604082019050919050565b6000602082019050818103600083015261278381612747565b9050919050565b7f4552433732313a207472616e736665722063616c6c6572206973206e6f74206f60008201527f776e6572206e6f7220617070726f766564000000000000000000000000000000602082015250565b60006127e6603183611b22565b91506127f18261278a565b604082019050919050565b60006020820190508181036000830152612815816127d9565b9050919050565b7f4552433732313a206f776e657220717565727920666f72206e6f6e657869737460008201527f656e7420746f6b656e0000000000000000000000000000000000000000000000602082015250565b6000612878602983611b22565b91506128838261281c565b604082019050919050565b600060208201905081810360008301526128a78161286b565b9050919050565b7f4552433732313a2062616c616e636520717565727920666f7220746865207a6560008201527f726f206164647265737300000000000000000000000000000000000000000000602082015250565b600061290a602a83611b22565b9150612915826128ae565b604082019050919050565b60006020820190508181036000830152612939816128fd565b9050919050565b7f4552433732314d657461646174613a2055524920717565727920666f72206e6f60008201527f6e6578697374656e7420746f6b656e0000000000000000000000000000000000602082015250565b600061299c602f83611b22565b91506129a782612940565b604082019050919050565b600060208201905081810360008301526129cb8161298f565b9050919050565b600081905092915050565b60006129e882611b17565b6129f281856129d2565b9350612a02818560208601611b33565b80840191505092915050565b6000612a1a82856129dd565b9150612a2682846129dd565b91508190509392505050565b7f4552433732313a206f70657261746f7220717565727920666f72206e6f6e657860008201527f697374656e7420746f6b656e0000000000000000000000000000000000000000602082015250565b6000612a8e602c83611b22565b9150612a9982612a32565b604082019050919050565b60006020820190508181036000830152612abd81612a81565b9050919050565b7f4552433732313a207472616e736665722066726f6d20696e636f72726563742060008201527f6f776e6572000000000000000000000000000000000000000000000000000000602082015250565b6000612b20602583611b22565b9150612b2b82612ac4565b604082019050919050565b60006020820190508181036000830152612b4f81612b13565b9050919050565b7f4552433732313a207472616e7366657220746f20746865207a65726f2061646460008201527f7265737300000000000000000000000000000000000000000000000000000000602082015250565b6000612bb2602483611b22565b9150612bbd82612b56565b604082019050919050565b60006020820190508181036000830152612be181612ba5565b9050919050565b7f4e487b7100000000000000000000000000000000000000000000000000000000600052601160045260246000fd5b6000612c22826119f9565b9150612c2d836119f9565b925082821015612c4057612c3f612be8565b5b828203905092915050565b6000612c56826119f9565b9150612c61836119f9565b9250827fffffffffffffffffffffffffffffffffffffffffffffffffffffffffffffffff03821115612c9657612c95612be8565b5b828201905092915050565b7f4552433732313a20617070726f766520746f2063616c6c657200000000000000600082015250565b6000612cd7601983611b22565b9150612ce282612ca1565b602082019050919050565b60006020820190508181036000830152612d0681612cca565b9050919050565b7f4552433732313a207472616e7366657220746f206e6f6e20455243373231526560008201527f63656976657220696d706c656d656e7465720000000000000000000000000000602082015250565b6000612d69603283611b22565b9150612d7482612d0d565b604082019050919050565b60006020820190508181036000830152612d9881612d5c565b9050919050565b6000612daa826119f9565b91507fffffffffffffffffffffffffffffffffffffffffffffffffffffffffffffffff8203612ddc57612ddb612be8565b5b600182019050919050565b7f4e487b7100000000000000000000000000000000000000000000000000000000600052601260045260246000fd5b6000612e21826119f9565b9150612e2c836119f9565b925082612e3c57612e3b612de7565b5b828204905092915050565b6000612e52826119f9565b9150612e5d836119f9565b925082612e6d57612e6c612de7565b5b828206905092915050565b7f4e487b7100000000000000000000000000000000000000000000000000000000600052603260045260246000fd5b600081519050919050565b600082825260208201905092915050565b6000612ece82612ea7565b612ed88185612eb2565b9350612ee8818560208601611b33565b612ef181611b66565b840191505092915050565b6000608082019050612f116000830187611c44565b612f1e6020830186611c44565b612f2b6040830185611f99565b8181036060830152612f3d8184612ec3565b905095945050505050565b600081519050612f5781611abe565b92915050565b600060208284031215612f7357612f726119ef565b5b6000612f8184828501612f48565b9150509291505056fea26469706673582212203625561820dfd9191e76bc7385c60fc6d79df0a393e7d7551df8b744c9c95ed364736f6c634300080f0033",
  "linkReferences": {},
  "deployedLinkReferences": {}
}