{
  "_format": "hh-sol-artifact-1",
  "contractName": "CopyrightToken",
  "sourceName": "src/backend/contracts/CopyrightToken.sol",
  "abi": [
    {
      "inputs": [],
      "stateMutability": "nonpayable",
      "type": "constructor"
    },
    {
      "anonymous": false,
      "inputs": [
        {
          "components": [
            {
              "internalType": "uint256",
              "name": "tokenWeight",
              "type": "uint256"
            },
            {
              "internalType": "uint256",
              "name": "timeStamp",
              "type": "uint256"
            },
            {
              "internalType": "bool",
              "name": "isBlacklisted",
              "type": "bool"
            },
            {
              "components": [
                {
                  "internalType": "uint256",
                  "name": "to",
                  "type": "uint256"
                },
                {
                  "internalType": "uint256",
                  "name": "weight",
                  "type": "uint256"
                }
              ],
              "internalType": "struct ICopyrightGraph.Edge[]",
              "name": "edges",
              "type": "tuple[]"
            },
            {
              "internalType": "uint256",
              "name": "numberOfTokensBehind",
              "type": "uint256"
            }
          ],
          "indexed": false,
          "internalType": "struct ICopyrightGraph.Token",
          "name": "token",
          "type": "tuple"
        }
      ],
      "name": "AddTokenToGraph",
      "type": "event"
    },
    {
      "anonymous": false,
      "inputs": [
        {
          "indexed": true,
          "internalType": "address",
          "name": "owner",
          "type": "address"
        },
        {
          "indexed": true,
          "internalType": "address",
          "name": "approved",
          "type": "address"
        },
        {
          "indexed": true,
          "internalType": "uint256",
          "name": "tokenId",
          "type": "uint256"
        }
      ],
      "name": "Approval",
      "type": "event"
    },
    {
      "anonymous": false,
      "inputs": [
        {
          "indexed": true,
          "internalType": "address",
          "name": "owner",
          "type": "address"
        },
        {
          "indexed": true,
          "internalType": "address",
          "name": "operator",
          "type": "address"
        },
        {
          "indexed": false,
          "internalType": "bool",
          "name": "approved",
          "type": "bool"
        }
      ],
      "name": "ApprovalForAll",
      "type": "event"
    },
    {
      "anonymous": false,
      "inputs": [
        {
          "indexed": false,
          "internalType": "uint256",
          "name": "id",
          "type": "uint256"
        },
        {
          "indexed": false,
          "internalType": "uint256",
          "name": "newWeight",
          "type": "uint256"
        }
      ],
      "name": "ChangeTokenWeight",
      "type": "event"
    },
    {
      "anonymous": false,
      "inputs": [
        {
          "indexed": false,
          "internalType": "uint256",
          "name": "id",
          "type": "uint256"
        },
        {
          "indexed": false,
          "internalType": "bool",
          "name": "isBlacklisted",
          "type": "bool"
        }
      ],
      "name": "TokenBlacklisted",
      "type": "event"
    },
    {
      "anonymous": false,
      "inputs": [
        {
          "indexed": true,
          "internalType": "address",
          "name": "from",
          "type": "address"
        },
        {
          "indexed": true,
          "internalType": "address",
          "name": "to",
          "type": "address"
        },
        {
          "indexed": true,
          "internalType": "uint256",
          "name": "tokenId",
          "type": "uint256"
        }
      ],
      "name": "Transfer",
      "type": "event"
    },
    {
      "inputs": [
        {
          "internalType": "address",
          "name": "to",
          "type": "address"
        },
        {
          "internalType": "uint256",
          "name": "tokenId",
          "type": "uint256"
        }
      ],
      "name": "approve",
      "outputs": [],
      "stateMutability": "nonpayable",
      "type": "function"
    },
    {
      "inputs": [
        {
          "internalType": "address",
          "name": "owner",
          "type": "address"
        }
      ],
      "name": "balanceOf",
      "outputs": [
        {
          "internalType": "uint256",
          "name": "",
          "type": "uint256"
        }
      ],
      "stateMutability": "view",
      "type": "function"
    },
    {
      "inputs": [
        {
          "internalType": "uint256",
          "name": "id",
          "type": "uint256"
        },
        {
          "internalType": "bool",
          "name": "isBlacklisted",
          "type": "bool"
        }
      ],
      "name": "blacklistToken",
      "outputs": [],
      "stateMutability": "nonpayable",
      "type": "function"
    },
    {
      "inputs": [
        {
          "internalType": "uint256",
          "name": "id",
          "type": "uint256"
        },
        {
          "internalType": "uint256",
          "name": "newWeight",
          "type": "uint256"
        }
      ],
      "name": "changeTokenWeight",
      "outputs": [],
      "stateMutability": "nonpayable",
      "type": "function"
    },
    {
      "inputs": [
        {
          "internalType": "uint256",
          "name": "tokenId",
          "type": "uint256"
        }
      ],
      "name": "getApproved",
      "outputs": [
        {
          "internalType": "address",
          "name": "",
          "type": "address"
        }
      ],
      "stateMutability": "view",
      "type": "function"
    },
    {
      "inputs": [
        {
          "internalType": "uint256[]",
          "name": "parentIds",
          "type": "uint256[]"
        },
        {
          "internalType": "uint256[]",
          "name": "parentWeights",
          "type": "uint256[]"
        },
        {
          "internalType": "uint256",
          "name": "id",
          "type": "uint256"
        }
      ],
      "name": "insertEdges",
      "outputs": [],
      "stateMutability": "nonpayable",
      "type": "function"
    },
    {
      "inputs": [
        {
          "internalType": "uint256[]",
          "name": "parentIds",
          "type": "uint256[]"
        },
        {
          "internalType": "uint256[]",
          "name": "parentWeights",
          "type": "uint256[]"
        },
        {
          "internalType": "uint256",
          "name": "id",
          "type": "uint256"
        },
        {
          "internalType": "uint256",
          "name": "weight",
          "type": "uint256"
        }
      ],
      "name": "insertToken",
      "outputs": [],
      "stateMutability": "nonpayable",
      "type": "function"
    },
    {
      "inputs": [
        {
          "internalType": "address",
          "name": "owner",
          "type": "address"
        },
        {
          "internalType": "address",
          "name": "operator",
          "type": "address"
        }
      ],
      "name": "isApprovedForAll",
      "outputs": [
        {
          "internalType": "bool",
          "name": "",
          "type": "bool"
        }
      ],
      "stateMutability": "view",
      "type": "function"
    },
    {
      "inputs": [],
      "name": "name",
      "outputs": [
        {
          "internalType": "string",
          "name": "",
          "type": "string"
        }
      ],
      "stateMutability": "view",
      "type": "function"
    },
    {
      "inputs": [
        {
          "internalType": "uint256",
          "name": "tokenId",
          "type": "uint256"
        }
      ],
      "name": "ownerOf",
      "outputs": [
        {
          "internalType": "address",
          "name": "",
          "type": "address"
        }
      ],
      "stateMutability": "view",
      "type": "function"
    },
    {
      "inputs": [
        {
          "components": [
            {
              "internalType": "uint256",
              "name": "tokenWeight",
              "type": "uint256"
            },
            {
              "internalType": "uint256",
              "name": "timeStamp",
              "type": "uint256"
            },
            {
              "internalType": "bool",
              "name": "isBlacklisted",
              "type": "bool"
            },
            {
              "components": [
                {
                  "internalType": "uint256",
                  "name": "to",
                  "type": "uint256"
                },
                {
                  "internalType": "uint256",
                  "name": "weight",
                  "type": "uint256"
                }
              ],
              "internalType": "struct ICopyrightGraph.Edge[]",
              "name": "edges",
              "type": "tuple[]"
            },
            {
              "internalType": "uint256",
              "name": "numberOfTokensBehind",
              "type": "uint256"
            }
          ],
          "internalType": "struct ICopyrightGraph.Token",
          "name": "token",
          "type": "tuple"
        }
      ],
      "name": "returnId",
      "outputs": [
        {
          "internalType": "uint256",
          "name": "id",
          "type": "uint256"
        }
      ],
      "stateMutability": "pure",
      "type": "function"
    },
    {
      "inputs": [
        {
          "internalType": "uint256",
          "name": "id",
          "type": "uint256"
        }
      ],
      "name": "returnIsBlacklisted",
      "outputs": [
        {
          "internalType": "bool",
          "name": "isBlacklisted",
          "type": "bool"
        }
      ],
      "stateMutability": "view",
      "type": "function"
    },
    {
      "inputs": [],
      "name": "returnLeafTokenIDs",
      "outputs": [
        {
          "internalType": "uint256[]",
          "name": "leafTokenIDs",
          "type": "uint256[]"
        }
      ],
      "stateMutability": "view",
      "type": "function"
    },
    {
      "inputs": [
        {
          "internalType": "uint256",
          "name": "id",
          "type": "uint256"
        }
      ],
      "name": "returnTime",
      "outputs": [
        {
          "internalType": "uint256",
          "name": "timeStamp",
          "type": "uint256"
        }
      ],
      "stateMutability": "view",
      "type": "function"
    },
    {
      "inputs": [
        {
          "internalType": "uint256",
          "name": "id",
          "type": "uint256"
        }
      ],
      "name": "returnTokenWeight",
      "outputs": [
        {
          "internalType": "uint256",
          "name": "weight",
          "type": "uint256"
        }
      ],
      "stateMutability": "view",
      "type": "function"
    },
    {
      "inputs": [
        {
          "internalType": "address",
          "name": "from",
          "type": "address"
        },
        {
          "internalType": "address",
          "name": "to",
          "type": "address"
        },
        {
          "internalType": "uint256",
          "name": "tokenId",
          "type": "uint256"
        }
      ],
      "name": "safeTransferFrom",
      "outputs": [],
      "stateMutability": "nonpayable",
      "type": "function"
    },
    {
      "inputs": [
        {
          "internalType": "address",
          "name": "from",
          "type": "address"
        },
        {
          "internalType": "address",
          "name": "to",
          "type": "address"
        },
        {
          "internalType": "uint256",
          "name": "tokenId",
          "type": "uint256"
        },
        {
          "internalType": "bytes",
          "name": "_data",
          "type": "bytes"
        }
      ],
      "name": "safeTransferFrom",
      "outputs": [],
      "stateMutability": "nonpayable",
      "type": "function"
    },
    {
      "inputs": [
        {
          "internalType": "address",
          "name": "operator",
          "type": "address"
        },
        {
          "internalType": "bool",
          "name": "approved",
          "type": "bool"
        }
      ],
      "name": "setApprovalForAll",
      "outputs": [],
      "stateMutability": "nonpayable",
      "type": "function"
    },
    {
      "inputs": [
        {
          "internalType": "bytes4",
          "name": "interfaceId",
          "type": "bytes4"
        }
      ],
      "name": "supportsInterface",
      "outputs": [
        {
          "internalType": "bool",
          "name": "",
          "type": "bool"
        }
      ],
      "stateMutability": "view",
      "type": "function"
    },
    {
      "inputs": [],
      "name": "symbol",
      "outputs": [
        {
          "internalType": "string",
          "name": "",
          "type": "string"
        }
      ],
      "stateMutability": "view",
      "type": "function"
    },
    {
      "inputs": [],
      "name": "tokenCount",
      "outputs": [
        {
          "internalType": "uint256",
          "name": "",
          "type": "uint256"
        }
      ],
      "stateMutability": "view",
      "type": "function"
    },
    {
      "inputs": [
        {
          "internalType": "uint256",
          "name": "id",
          "type": "uint256"
        }
      ],
      "name": "tokenExists",
      "outputs": [
        {
          "internalType": "bool",
          "name": "exists",
          "type": "bool"
        }
      ],
      "stateMutability": "view",
      "type": "function"
    },
    {
      "inputs": [
        {
          "internalType": "uint256",
          "name": "tokenId",
          "type": "uint256"
        }
      ],
      "name": "tokenURI",
      "outputs": [
        {
          "internalType": "string",
          "name": "",
          "type": "string"
        }
      ],
      "stateMutability": "view",
      "type": "function"
    },
    {
      "inputs": [
        {
          "internalType": "address",
          "name": "from",
          "type": "address"
        },
        {
          "internalType": "address",
          "name": "to",
          "type": "address"
        },
        {
          "internalType": "uint256",
          "name": "tokenId",
          "type": "uint256"
        }
      ],
      "name": "transferFrom",
      "outputs": [],
      "stateMutability": "nonpayable",
      "type": "function"
    }
  ],
  "bytecode": "0x60806040523480156200001157600080fd5b506040518060400160405280601481526020017f5465737420436f7079726967687420546f6b656e0000000000000000000000008152506040518060400160405280600381526020017f544354000000000000000000000000000000000000000000000000000000000081525081600090816200008f919062000324565b508060019081620000a1919062000324565b5050506200040b565b600081519050919050565b7f4e487b7100000000000000000000000000000000000000000000000000000000600052604160045260246000fd5b7f4e487b7100000000000000000000000000000000000000000000000000000000600052602260045260246000fd5b600060028204905060018216806200012c57607f821691505b602082108103620001425762000141620000e4565b5b50919050565b60008190508160005260206000209050919050565b60006020601f8301049050919050565b600082821b905092915050565b600060088302620001ac7fffffffffffffffffffffffffffffffffffffffffffffffffffffffffffffffff826200016d565b620001b886836200016d565b95508019841693508086168417925050509392505050565b6000819050919050565b6000819050919050565b600062000205620001ff620001f984620001d0565b620001da565b620001d0565b9050919050565b6000819050919050565b6200022183620001e4565b6200023962000230826200020c565b8484546200017a565b825550505050565b600090565b6200025062000241565b6200025d81848462000216565b505050565b5b8181101562000285576200027960008262000246565b60018101905062000263565b5050565b601f821115620002d4576200029e8162000148565b620002a9846200015d565b81016020851015620002b9578190505b620002d1620002c8856200015d565b83018262000262565b50505b505050565b600082821c905092915050565b6000620002f960001984600802620002d9565b1980831691505092915050565b6000620003148383620002e6565b9150826002028217905092915050565b6200032f82620000aa565b67ffffffffffffffff8111156200034b576200034a620000b5565b5b62000357825462000113565b6200036482828562000289565b600060209050601f8311600181146200039c576000841562000387578287015190505b62000393858262000306565b86555062000403565b601f198416620003ac8662000148565b60005b82811015620003d657848901518255600182019150602085019450602081019050620003af565b86831015620003f65784890151620003f2601f891682620002e6565b8355505b6001600288020188555050505b505050505050565b612e1b806200041b6000396000f3fe608060405234801561001057600080fd5b50600436106101575760003560e01c80636352211e116100c3578063a22cb4651161007c578063a22cb46514610410578063b88d4fde1461042c578063beae494214610448578063c87b56dd14610464578063ce8b4afd14610494578063e985e9c5146104b057610157565b80636352211e1461032857806370a0823114610358578063866fe41a1461038857806395d89b41146103a4578063981ad468146103c25780639f181b5e146103f257610157565b80630ab71fb1116101155780630ab71fb1146102425780630b8e12fc1461027257806316b407a8146102a257806323b872dd146102d257806326573224146102ee57806342842e0e1461030c57610157565b8062923f9e1461015c57806301ffc9a71461018c57806306fdde03146101bc578063076fcc1f146101da578063081812fc146101f6578063095ea7b314610226575b600080fd5b6101766004803603810190610171919061188a565b6104e0565b60405161018391906118d2565b60405180910390f35b6101a660048036038101906101a19190611945565b610527565b6040516101b391906118d2565b60405180910390f35b6101c4610609565b6040516101d19190611a0b565b60405180910390f35b6101f460048036038101906101ef9190611a2d565b61069b565b005b610210600480360381019061020b919061188a565b6106e0565b60405161021d9190611aae565b60405180910390f35b610240600480360381019061023b9190611af5565b610765565b005b61025c60048036038101906102579190611dab565b61087c565b6040516102699190611e03565b60405180910390f35b61028c6004803603810190610287919061188a565b6108c3565b6040516102999190611e03565b60405180910390f35b6102bc60048036038101906102b7919061188a565b61090a565b6040516102c99190611e03565b60405180910390f35b6102ec60048036038101906102e79190611e1e565b610911565b005b6102f6610971565b6040516103039190611f2f565b60405180910390f35b61032660048036038101906103219190611e1e565b6109c9565b005b610342600480360381019061033d919061188a565b6109e9565b60405161034f9190611aae565b60405180910390f35b610372600480360381019061036d9190611f51565b610a9a565b60405161037f9190611e03565b60405180910390f35b6103a2600480360381019061039d9190612041565b610b51565b005b6103ac610b57565b6040516103b99190611a0b565b60405180910390f35b6103dc60048036038101906103d7919061188a565b610be9565b6040516103e991906118d2565b60405180910390f35b6103fa610c30565b6040516104079190611e03565b60405180910390f35b61042a600480360381019061042591906120e0565b610c75565b005b610446600480360381019061044191906121d5565b610c8b565b005b610462600480360381019061045d9190612258565b610ced565b005b61047e6004803603810190610479919061188a565b610cf2565b60405161048b9190611a0b565b60405180910390f35b6104ae60048036038101906104a991906122e3565b610d99565b005b6104ca60048036038101906104c59190612323565b610dde565b6040516104d791906118d2565b60405180910390f35b600080610522576040517f08c379a0000000000000000000000000000000000000000000000000000000008152600401610519906123af565b60405180910390fd5b919050565b60007f80ac58cd000000000000000000000000000000000000000000000000000000007bffffffffffffffffffffffffffffffffffffffffffffffffffffffff1916827bffffffffffffffffffffffffffffffffffffffffffffffffffffffff191614806105f257507f5b5e139f000000000000000000000000000000000000000000000000000000007bffffffffffffffffffffffffffffffffffffffffffffffffffffffff1916827bffffffffffffffffffffffffffffffffffffffffffffffffffffffff1916145b80610602575061060182610e72565b5b9050919050565b606060008054610618906123fe565b80601f0160208091040260200160405190810160405280929190818152602001828054610644906123fe565b80156106915780601f1061066657610100808354040283529160200191610691565b820191906000526020600020905b81548152906001019060200180831161067457829003601f168201915b5050505050905090565b60006106dc576040517f08c379a00000000000000000000000000000000000000000000000000000000081526004016106d3906123af565b60405180910390fd5b5050565b60006106eb82610edc565b61072a576040517f08c379a0000000000000000000000000000000000000000000000000000000008152600401610721906124a1565b60405180910390fd5b6004600083815260200190815260200160002060009054906101000a900473ffffffffffffffffffffffffffffffffffffffff169050919050565b6000610770826109e9565b90508073ffffffffffffffffffffffffffffffffffffffff168373ffffffffffffffffffffffffffffffffffffffff16036107e0576040517f08c379a00000000000000000000000000000000000000000000000000000000081526004016107d790612533565b60405180910390fd5b8073ffffffffffffffffffffffffffffffffffffffff166107ff610f48565b73ffffffffffffffffffffffffffffffffffffffff16148061082e575061082d81610828610f48565b610dde565b5b61086d576040517f08c379a0000000000000000000000000000000000000000000000000000000008152600401610864906125c5565b60405180910390fd5b6108778383610f50565b505050565b6000806108be576040517f08c379a00000000000000000000000000000000000000000000000000000000081526004016108b5906123af565b60405180910390fd5b919050565b600080610905576040517f08c379a00000000000000000000000000000000000000000000000000000000081526004016108fc906123af565b60405180910390fd5b919050565b6000919050565b61092261091c610f48565b82611009565b610961576040517f08c379a000000000000000000000000000000000000000000000000000000000815260040161095890612657565b60405180910390fd5b61096c8383836110e7565b505050565b606060068054806020026020016040519081016040528092919081815260200182805480156109bf57602002820191906000526020600020905b8154815260200190600101908083116109ab575b5050505050905090565b6109e483838360405180602001604052806000815250610c8b565b505050565b6000806002600084815260200190815260200160002060009054906101000a900473ffffffffffffffffffffffffffffffffffffffff169050600073ffffffffffffffffffffffffffffffffffffffff168173ffffffffffffffffffffffffffffffffffffffff1603610a91576040517f08c379a0000000000000000000000000000000000000000000000000000000008152600401610a88906126e9565b60405180910390fd5b80915050919050565b60008073ffffffffffffffffffffffffffffffffffffffff168273ffffffffffffffffffffffffffffffffffffffff1603610b0a576040517f08c379a0000000000000000000000000000000000000000000000000000000008152600401610b019061277b565b60405180910390fd5b600360008373ffffffffffffffffffffffffffffffffffffffff1673ffffffffffffffffffffffffffffffffffffffff168152602001908152602001600020549050919050565b50505050565b606060018054610b66906123fe565b80601f0160208091040260200160405190810160405280929190818152602001828054610b92906123fe565b8015610bdf5780601f10610bb457610100808354040283529160200191610bdf565b820191906000526020600020905b815481529060010190602001808311610bc257829003601f168201915b5050505050905090565b600080610c2b576040517f08c379a0000000000000000000000000000000000000000000000000000000008152600401610c22906123af565b60405180910390fd5b919050565b600080610c72576040517f08c379a0000000000000000000000000000000000000000000000000000000008152600401610c69906123af565b60405180910390fd5b90565b610c87610c80610f48565b838361134d565b5050565b610c9c610c96610f48565b83611009565b610cdb576040517f08c379a0000000000000000000000000000000000000000000000000000000008152600401610cd290612657565b60405180910390fd5b610ce7848484846114b9565b50505050565b505050565b6060610cfd82610edc565b610d3c576040517f08c379a0000000000000000000000000000000000000000000000000000000008152600401610d339061280d565b60405180910390fd5b6000610d46611515565b90506000815111610d665760405180602001604052806000815250610d91565b80610d708461152c565b604051602001610d81929190612869565b6040516020818303038152906040525b915050919050565b6000610dda576040517f08c379a0000000000000000000000000000000000000000000000000000000008152600401610dd1906123af565b60405180910390fd5b5050565b6000600560008473ffffffffffffffffffffffffffffffffffffffff1673ffffffffffffffffffffffffffffffffffffffff16815260200190815260200160002060008373ffffffffffffffffffffffffffffffffffffffff1673ffffffffffffffffffffffffffffffffffffffff16815260200190815260200160002060009054906101000a900460ff16905092915050565b60007f01ffc9a7000000000000000000000000000000000000000000000000000000007bffffffffffffffffffffffffffffffffffffffffffffffffffffffff1916827bffffffffffffffffffffffffffffffffffffffffffffffffffffffff1916149050919050565b60008073ffffffffffffffffffffffffffffffffffffffff166002600084815260200190815260200160002060009054906101000a900473ffffffffffffffffffffffffffffffffffffffff1673ffffffffffffffffffffffffffffffffffffffff1614159050919050565b600033905090565b816004600083815260200190815260200160002060006101000a81548173ffffffffffffffffffffffffffffffffffffffff021916908373ffffffffffffffffffffffffffffffffffffffff160217905550808273ffffffffffffffffffffffffffffffffffffffff16610fc3836109e9565b73ffffffffffffffffffffffffffffffffffffffff167f8c5be1e5ebec7d5bd14f71427d1e84f3dd0314c0f7b2291e5b200ac8c7c3b92560405160405180910390a45050565b600061101482610edc565b611053576040517f08c379a000000000000000000000000000000000000000000000000000000000815260040161104a906128ff565b60405180910390fd5b600061105e836109e9565b90508073ffffffffffffffffffffffffffffffffffffffff168473ffffffffffffffffffffffffffffffffffffffff1614806110a0575061109f8185610dde565b5b806110de57508373ffffffffffffffffffffffffffffffffffffffff166110c6846106e0565b73ffffffffffffffffffffffffffffffffffffffff16145b91505092915050565b8273ffffffffffffffffffffffffffffffffffffffff16611107826109e9565b73ffffffffffffffffffffffffffffffffffffffff161461115d576040517f08c379a000000000000000000000000000000000000000000000000000000000815260040161115490612991565b60405180910390fd5b600073ffffffffffffffffffffffffffffffffffffffff168273ffffffffffffffffffffffffffffffffffffffff16036111cc576040517f08c379a00000000000000000000000000000000000000000000000000000000081526004016111c390612a23565b60405180910390fd5b6111d783838361168c565b6111e2600082610f50565b6001600360008573ffffffffffffffffffffffffffffffffffffffff1673ffffffffffffffffffffffffffffffffffffffff16815260200190815260200160002060008282546112329190612a72565b925050819055506001600360008473ffffffffffffffffffffffffffffffffffffffff1673ffffffffffffffffffffffffffffffffffffffff16815260200190815260200160002060008282546112899190612aa6565b92505081905550816002600083815260200190815260200160002060006101000a81548173ffffffffffffffffffffffffffffffffffffffff021916908373ffffffffffffffffffffffffffffffffffffffff160217905550808273ffffffffffffffffffffffffffffffffffffffff168473ffffffffffffffffffffffffffffffffffffffff167fddf252ad1be2c89b69c2b068fc378daa952ba7f163c4a11628f55a4df523b3ef60405160405180910390a4611348838383611691565b505050565b8173ffffffffffffffffffffffffffffffffffffffff168373ffffffffffffffffffffffffffffffffffffffff16036113bb576040517f08c379a00000000000000000000000000000000000000000000000000000000081526004016113b290612b48565b60405180910390fd5b80600560008573ffffffffffffffffffffffffffffffffffffffff1673ffffffffffffffffffffffffffffffffffffffff16815260200190815260200160002060008473ffffffffffffffffffffffffffffffffffffffff1673ffffffffffffffffffffffffffffffffffffffff16815260200190815260200160002060006101000a81548160ff0219169083151502179055508173ffffffffffffffffffffffffffffffffffffffff168373ffffffffffffffffffffffffffffffffffffffff167f17307eab39ab6107e8899845ad3d59bd9653f200f220920489ca2b5937696c31836040516114ac91906118d2565b60405180910390a3505050565b6114c48484846110e7565b6114d084848484611696565b61150f576040517f08c379a000000000000000000000000000000000000000000000000000000000815260040161150690612bda565b60405180910390fd5b50505050565b606060405180602001604052806000815250905090565b606060008203611573576040518060400160405280600181526020017f30000000000000000000000000000000000000000000000000000000000000008152509050611687565b600082905060005b600082146115a557808061158e90612bfa565b915050600a8261159e9190612c71565b915061157b565b60008167ffffffffffffffff8111156115c1576115c0611b3a565b5b6040519080825280601f01601f1916602001820160405280156115f35781602001600182028036833780820191505090505b5090505b600085146116805760018261160c9190612a72565b9150600a8561161b9190612ca2565b60306116279190612aa6565b60f81b81838151811061163d5761163c612cd3565b5b60200101907effffffffffffffffffffffffffffffffffffffffffffffffffffffffffffff1916908160001a905350600a856116799190612c71565b94506115f7565b8093505050505b919050565b505050565b505050565b60006116b78473ffffffffffffffffffffffffffffffffffffffff1661181d565b15611810578373ffffffffffffffffffffffffffffffffffffffff1663150b7a026116e0610f48565b8786866040518563ffffffff1660e01b81526004016117029493929190612d57565b6020604051808303816000875af192505050801561173e57506040513d601f19601f8201168201806040525081019061173b9190612db8565b60015b6117c0573d806000811461176e576040519150601f19603f3d011682016040523d82523d6000602084013e611773565b606091505b5060008151036117b8576040517f08c379a00000000000000000000000000000000000000000000000000000000081526004016117af90612bda565b60405180910390fd5b805181602001fd5b63150b7a0260e01b7bffffffffffffffffffffffffffffffffffffffffffffffffffffffff1916817bffffffffffffffffffffffffffffffffffffffffffffffffffffffff191614915050611815565b600190505b949350505050565b6000808273ffffffffffffffffffffffffffffffffffffffff163b119050919050565b6000604051905090565b600080fd5b600080fd5b6000819050919050565b61186781611854565b811461187257600080fd5b50565b6000813590506118848161185e565b92915050565b6000602082840312156118a05761189f61184a565b5b60006118ae84828501611875565b91505092915050565b60008115159050919050565b6118cc816118b7565b82525050565b60006020820190506118e760008301846118c3565b92915050565b60007fffffffff0000000000000000000000000000000000000000000000000000000082169050919050565b611922816118ed565b811461192d57600080fd5b50565b60008135905061193f81611919565b92915050565b60006020828403121561195b5761195a61184a565b5b600061196984828501611930565b91505092915050565b600081519050919050565b600082825260208201905092915050565b60005b838110156119ac578082015181840152602081019050611991565b838111156119bb576000848401525b50505050565b6000601f19601f8301169050919050565b60006119dd82611972565b6119e7818561197d565b93506119f781856020860161198e565b611a00816119c1565b840191505092915050565b60006020820190508181036000830152611a2581846119d2565b905092915050565b60008060408385031215611a4457611a4361184a565b5b6000611a5285828601611875565b9250506020611a6385828601611875565b9150509250929050565b600073ffffffffffffffffffffffffffffffffffffffff82169050919050565b6000611a9882611a6d565b9050919050565b611aa881611a8d565b82525050565b6000602082019050611ac36000830184611a9f565b92915050565b611ad281611a8d565b8114611add57600080fd5b50565b600081359050611aef81611ac9565b92915050565b60008060408385031215611b0c57611b0b61184a565b5b6000611b1a85828601611ae0565b9250506020611b2b85828601611875565b9150509250929050565b600080fd5b7f4e487b7100000000000000000000000000000000000000000000000000000000600052604160045260246000fd5b611b72826119c1565b810181811067ffffffffffffffff82111715611b9157611b90611b3a565b5b80604052505050565b6000611ba4611840565b9050611bb08282611b69565b919050565b600080fd5b611bc3816118b7565b8114611bce57600080fd5b50565b600081359050611be081611bba565b92915050565b600080fd5b600067ffffffffffffffff821115611c0657611c05611b3a565b5b602082029050602081019050919050565b600080fd5b600060408284031215611c3257611c31611b35565b5b611c3c6040611b9a565b90506000611c4c84828501611875565b6000830152506020611c6084828501611875565b60208301525092915050565b6000611c7f611c7a84611beb565b611b9a565b90508083825260208201905060408402830185811115611ca257611ca1611c17565b5b835b81811015611ccb5780611cb78882611c1c565b845260208401935050604081019050611ca4565b5050509392505050565b600082601f830112611cea57611ce9611be6565b5b8135611cfa848260208601611c6c565b91505092915050565b600060a08284031215611d1957611d18611b35565b5b611d2360a0611b9a565b90506000611d3384828501611875565b6000830152506020611d4784828501611875565b6020830152506040611d5b84828501611bd1565b604083015250606082013567ffffffffffffffff811115611d7f57611d7e611bb5565b5b611d8b84828501611cd5565b6060830152506080611d9f84828501611875565b60808301525092915050565b600060208284031215611dc157611dc061184a565b5b600082013567ffffffffffffffff811115611ddf57611dde61184f565b5b611deb84828501611d03565b91505092915050565b611dfd81611854565b82525050565b6000602082019050611e186000830184611df4565b92915050565b600080600060608486031215611e3757611e3661184a565b5b6000611e4586828701611ae0565b9350506020611e5686828701611ae0565b9250506040611e6786828701611875565b9150509250925092565b600081519050919050565b600082825260208201905092915050565b6000819050602082019050919050565b611ea681611854565b82525050565b6000611eb88383611e9d565b60208301905092915050565b6000602082019050919050565b6000611edc82611e71565b611ee68185611e7c565b9350611ef183611e8d565b8060005b83811015611f22578151611f098882611eac565b9750611f1483611ec4565b925050600181019050611ef5565b5085935050505092915050565b60006020820190508181036000830152611f498184611ed1565b905092915050565b600060208284031215611f6757611f6661184a565b5b6000611f7584828501611ae0565b91505092915050565b600067ffffffffffffffff821115611f9957611f98611b3a565b5b602082029050602081019050919050565b6000611fbd611fb884611f7e565b611b9a565b90508083825260208201905060208402830185811115611fe057611fdf611c17565b5b835b818110156120095780611ff58882611875565b845260208401935050602081019050611fe2565b5050509392505050565b600082601f83011261202857612027611be6565b5b8135612038848260208601611faa565b91505092915050565b6000806000806080858703121561205b5761205a61184a565b5b600085013567ffffffffffffffff8111156120795761207861184f565b5b61208587828801612013565b945050602085013567ffffffffffffffff8111156120a6576120a561184f565b5b6120b287828801612013565b93505060406120c387828801611875565b92505060606120d487828801611875565b91505092959194509250565b600080604083850312156120f7576120f661184a565b5b600061210585828601611ae0565b925050602061211685828601611bd1565b9150509250929050565b600080fd5b600067ffffffffffffffff8211156121405761213f611b3a565b5b612149826119c1565b9050602081019050919050565b82818337600083830152505050565b600061217861217384612125565b611b9a565b90508281526020810184848401111561219457612193612120565b5b61219f848285612156565b509392505050565b600082601f8301126121bc576121bb611be6565b5b81356121cc848260208601612165565b91505092915050565b600080600080608085870312156121ef576121ee61184a565b5b60006121fd87828801611ae0565b945050602061220e87828801611ae0565b935050604061221f87828801611875565b925050606085013567ffffffffffffffff8111156122405761223f61184f565b5b61224c878288016121a7565b91505092959194509250565b6000806000606084860312156122715761227061184a565b5b600084013567ffffffffffffffff81111561228f5761228e61184f565b5b61229b86828701612013565b935050602084013567ffffffffffffffff8111156122bc576122bb61184f565b5b6122c886828701612013565b92505060406122d986828701611875565b9150509250925092565b600080604083850312156122fa576122f961184a565b5b600061230885828601611875565b925050602061231985828601611bd1565b9150509250929050565b6000806040838503121561233a5761233961184a565b5b600061234885828601611ae0565b925050602061235985828601611ae0565b9150509250929050565b7f4e6f7420696d706c656d656e7465642079657400000000000000000000000000600082015250565b600061239960138361197d565b91506123a482612363565b602082019050919050565b600060208201905081810360008301526123c88161238c565b9050919050565b7f4e487b7100000000000000000000000000000000000000000000000000000000600052602260045260246000fd5b6000600282049050600182168061241657607f821691505b602082108103612429576124286123cf565b5b50919050565b7f4552433732313a20617070726f76656420717565727920666f72206e6f6e657860008201527f697374656e7420746f6b656e0000000000000000000000000000000000000000602082015250565b600061248b602c8361197d565b91506124968261242f565b604082019050919050565b600060208201905081810360008301526124ba8161247e565b9050919050565b7f4552433732313a20617070726f76616c20746f2063757272656e74206f776e6560008201527f7200000000000000000000000000000000000000000000000000000000000000602082015250565b600061251d60218361197d565b9150612528826124c1565b604082019050919050565b6000602082019050818103600083015261254c81612510565b9050919050565b7f4552433732313a20617070726f76652063616c6c6572206973206e6f74206f7760008201527f6e6572206e6f7220617070726f76656420666f7220616c6c0000000000000000602082015250565b60006125af60388361197d565b91506125ba82612553565b604082019050919050565b600060208201905081810360008301526125de816125a2565b9050919050565b7f4552433732313a207472616e736665722063616c6c6572206973206e6f74206f60008201527f776e6572206e6f7220617070726f766564000000000000000000000000000000602082015250565b600061264160318361197d565b915061264c826125e5565b604082019050919050565b6000602082019050818103600083015261267081612634565b9050919050565b7f4552433732313a206f776e657220717565727920666f72206e6f6e657869737460008201527f656e7420746f6b656e0000000000000000000000000000000000000000000000602082015250565b60006126d360298361197d565b91506126de82612677565b604082019050919050565b60006020820190508181036000830152612702816126c6565b9050919050565b7f4552433732313a2062616c616e636520717565727920666f7220746865207a6560008201527f726f206164647265737300000000000000000000000000000000000000000000602082015250565b6000612765602a8361197d565b915061277082612709565b604082019050919050565b6000602082019050818103600083015261279481612758565b9050919050565b7f4552433732314d657461646174613a2055524920717565727920666f72206e6f60008201527f6e6578697374656e7420746f6b656e0000000000000000000000000000000000602082015250565b60006127f7602f8361197d565b91506128028261279b565b604082019050919050565b60006020820190508181036000830152612826816127ea565b9050919050565b600081905092915050565b600061284382611972565b61284d818561282d565b935061285d81856020860161198e565b80840191505092915050565b60006128758285612838565b91506128818284612838565b91508190509392505050565b7f4552433732313a206f70657261746f7220717565727920666f72206e6f6e657860008201527f697374656e7420746f6b656e0000000000000000000000000000000000000000602082015250565b60006128e9602c8361197d565b91506128f48261288d565b604082019050919050565b60006020820190508181036000830152612918816128dc565b9050919050565b7f4552433732313a207472616e736665722066726f6d20696e636f72726563742060008201527f6f776e6572000000000000000000000000000000000000000000000000000000602082015250565b600061297b60258361197d565b91506129868261291f565b604082019050919050565b600060208201905081810360008301526129aa8161296e565b9050919050565b7f4552433732313a207472616e7366657220746f20746865207a65726f2061646460008201527f7265737300000000000000000000000000000000000000000000000000000000602082015250565b6000612a0d60248361197d565b9150612a18826129b1565b604082019050919050565b60006020820190508181036000830152612a3c81612a00565b9050919050565b7f4e487b7100000000000000000000000000000000000000000000000000000000600052601160045260246000fd5b6000612a7d82611854565b9150612a8883611854565b925082821015612a9b57612a9a612a43565b5b828203905092915050565b6000612ab182611854565b9150612abc83611854565b9250827fffffffffffffffffffffffffffffffffffffffffffffffffffffffffffffffff03821115612af157612af0612a43565b5b828201905092915050565b7f4552433732313a20617070726f766520746f2063616c6c657200000000000000600082015250565b6000612b3260198361197d565b9150612b3d82612afc565b602082019050919050565b60006020820190508181036000830152612b6181612b25565b9050919050565b7f4552433732313a207472616e7366657220746f206e6f6e20455243373231526560008201527f63656976657220696d706c656d656e7465720000000000000000000000000000602082015250565b6000612bc460328361197d565b9150612bcf82612b68565b604082019050919050565b60006020820190508181036000830152612bf381612bb7565b9050919050565b6000612c0582611854565b91507fffffffffffffffffffffffffffffffffffffffffffffffffffffffffffffffff8203612c3757612c36612a43565b5b600182019050919050565b7f4e487b7100000000000000000000000000000000000000000000000000000000600052601260045260246000fd5b6000612c7c82611854565b9150612c8783611854565b925082612c9757612c96612c42565b5b828204905092915050565b6000612cad82611854565b9150612cb883611854565b925082612cc857612cc7612c42565b5b828206905092915050565b7f4e487b7100000000000000000000000000000000000000000000000000000000600052603260045260246000fd5b600081519050919050565b600082825260208201905092915050565b6000612d2982612d02565b612d338185612d0d565b9350612d4381856020860161198e565b612d4c816119c1565b840191505092915050565b6000608082019050612d6c6000830187611a9f565b612d796020830186611a9f565b612d866040830185611df4565b8181036060830152612d988184612d1e565b905095945050505050565b600081519050612db281611919565b92915050565b600060208284031215612dce57612dcd61184a565b5b6000612ddc84828501612da3565b9150509291505056fea264697066735822122003fd1649bf2e5bc8f7756d7a171d1f4c4a3002facf135cdc24a65b18df402a3064736f6c634300080f0033",
  "linkReferences": {},
  "deployedLinkReferences": {}
}