{
  "_format": "hh-sol-artifact-1",
  "contractName": "CopyrightToken",
  "sourceName": "src/backend/contracts/CopyrightToken.sol",
  "abi": [
    {
      "inputs": [],
      "stateMutability": "nonpayable",
      "type": "constructor"
    },
    {
      "anonymous": false,
      "inputs": [
        {
          "components": [
            {
              "internalType": "uint256",
              "name": "tokenWeight",
              "type": "uint256"
            },
            {
              "internalType": "uint256",
              "name": "timeStamp",
              "type": "uint256"
            },
            {
              "internalType": "bool",
              "name": "isBlacklisted",
              "type": "bool"
            },
            {
              "components": [
                {
                  "internalType": "uint256",
                  "name": "to",
                  "type": "uint256"
                },
                {
                  "internalType": "uint256",
                  "name": "weight",
                  "type": "uint256"
                }
              ],
              "internalType": "struct ICopyrightGraph.Edge[]",
              "name": "edges",
              "type": "tuple[]"
            },
            {
              "internalType": "uint256",
              "name": "numberOfTokensBehind",
              "type": "uint256"
            }
          ],
          "indexed": false,
          "internalType": "struct ICopyrightGraph.Token",
          "name": "token",
          "type": "tuple"
        }
      ],
      "name": "AddTokenToGraph",
      "type": "event"
    },
    {
      "anonymous": false,
      "inputs": [
        {
          "indexed": true,
          "internalType": "address",
          "name": "owner",
          "type": "address"
        },
        {
          "indexed": true,
          "internalType": "address",
          "name": "approved",
          "type": "address"
        },
        {
          "indexed": true,
          "internalType": "uint256",
          "name": "tokenId",
          "type": "uint256"
        }
      ],
      "name": "Approval",
      "type": "event"
    },
    {
      "anonymous": false,
      "inputs": [
        {
          "indexed": true,
          "internalType": "address",
          "name": "owner",
          "type": "address"
        },
        {
          "indexed": true,
          "internalType": "address",
          "name": "operator",
          "type": "address"
        },
        {
          "indexed": false,
          "internalType": "bool",
          "name": "approved",
          "type": "bool"
        }
      ],
      "name": "ApprovalForAll",
      "type": "event"
    },
    {
      "anonymous": false,
      "inputs": [
        {
          "indexed": false,
          "internalType": "uint256",
          "name": "id",
          "type": "uint256"
        },
        {
          "indexed": false,
          "internalType": "uint256",
          "name": "newWeight",
          "type": "uint256"
        }
      ],
      "name": "ChangeTokenWeight",
      "type": "event"
    },
    {
      "anonymous": false,
      "inputs": [
        {
          "indexed": false,
          "internalType": "uint256",
          "name": "id",
          "type": "uint256"
        },
        {
          "indexed": false,
          "internalType": "bool",
          "name": "isBlacklisted",
          "type": "bool"
        }
      ],
      "name": "TokenBlacklisted",
      "type": "event"
    },
    {
      "anonymous": false,
      "inputs": [
        {
          "indexed": true,
          "internalType": "address",
          "name": "from",
          "type": "address"
        },
        {
          "indexed": true,
          "internalType": "address",
          "name": "to",
          "type": "address"
        },
        {
          "indexed": true,
          "internalType": "uint256",
          "name": "tokenId",
          "type": "uint256"
        }
      ],
      "name": "Transfer",
      "type": "event"
    },
    {
      "inputs": [
        {
          "internalType": "address",
          "name": "to",
          "type": "address"
        },
        {
          "internalType": "uint256",
          "name": "tokenId",
          "type": "uint256"
        }
      ],
      "name": "approve",
      "outputs": [],
      "stateMutability": "nonpayable",
      "type": "function"
    },
    {
      "inputs": [
        {
          "internalType": "address",
          "name": "owner",
          "type": "address"
        }
      ],
      "name": "balanceOf",
      "outputs": [
        {
          "internalType": "uint256",
          "name": "",
          "type": "uint256"
        }
      ],
      "stateMutability": "view",
      "type": "function"
    },
    {
      "inputs": [
        {
          "internalType": "uint256",
          "name": "id",
          "type": "uint256"
        },
        {
          "internalType": "bool",
          "name": "isBlacklisted",
          "type": "bool"
        }
      ],
      "name": "blacklistToken",
      "outputs": [],
      "stateMutability": "nonpayable",
      "type": "function"
    },
    {
      "inputs": [
        {
          "internalType": "uint256",
          "name": "id",
          "type": "uint256"
        },
        {
          "internalType": "bool",
          "name": "permission",
          "type": "bool"
        }
      ],
      "name": "changeAdoptionPermission",
      "outputs": [],
      "stateMutability": "nonpayable",
      "type": "function"
    },
    {
      "inputs": [
        {
          "internalType": "uint256",
          "name": "id",
          "type": "uint256"
        },
        {
          "internalType": "bool",
          "name": "permission",
          "type": "bool"
        }
      ],
      "name": "changeDistributionPermission",
      "outputs": [],
      "stateMutability": "nonpayable",
      "type": "function"
    },
    {
      "inputs": [
        {
          "internalType": "uint256",
          "name": "id",
          "type": "uint256"
        },
        {
          "internalType": "uint256",
          "name": "newWeight",
          "type": "uint256"
        }
      ],
      "name": "changeTokenWeight",
      "outputs": [],
      "stateMutability": "nonpayable",
      "type": "function"
    },
    {
      "inputs": [
        {
          "internalType": "uint256",
          "name": "id",
          "type": "uint256"
        }
      ],
      "name": "deposit",
      "outputs": [],
      "stateMutability": "payable",
      "type": "function"
    },
    {
      "inputs": [
        {
          "internalType": "uint256",
          "name": "id",
          "type": "uint256"
        }
      ],
      "name": "distributeCopies",
      "outputs": [
        {
          "internalType": "address",
          "name": "",
          "type": "address"
        }
      ],
      "stateMutability": "nonpayable",
      "type": "function"
    },
    {
      "inputs": [
        {
          "internalType": "uint256",
          "name": "id",
          "type": "uint256"
        }
      ],
      "name": "doAllowAdoption",
      "outputs": [
        {
          "internalType": "bool",
          "name": "",
          "type": "bool"
        }
      ],
      "stateMutability": "view",
      "type": "function"
    },
    {
      "inputs": [
        {
          "internalType": "uint256",
          "name": "id",
          "type": "uint256"
        }
      ],
      "name": "doAllowDistribution",
      "outputs": [
        {
          "internalType": "bool",
          "name": "",
          "type": "bool"
        }
      ],
      "stateMutability": "view",
      "type": "function"
    },
    {
      "inputs": [
        {
          "internalType": "uint256",
          "name": "tokenId",
          "type": "uint256"
        }
      ],
      "name": "getApproved",
      "outputs": [
        {
          "internalType": "address",
          "name": "",
          "type": "address"
        }
      ],
      "stateMutability": "view",
      "type": "function"
    },
    {
      "inputs": [
        {
          "internalType": "uint256[]",
          "name": "parentIds",
          "type": "uint256[]"
        },
        {
          "internalType": "uint256[]",
          "name": "parentWeights",
          "type": "uint256[]"
        },
        {
          "internalType": "uint256",
          "name": "id",
          "type": "uint256"
        }
      ],
      "name": "insertEdges",
      "outputs": [],
      "stateMutability": "nonpayable",
      "type": "function"
    },
    {
      "inputs": [
        {
          "internalType": "uint256[]",
          "name": "parentIds",
          "type": "uint256[]"
        },
        {
          "internalType": "uint256[]",
          "name": "parentWeights",
          "type": "uint256[]"
        },
        {
          "internalType": "uint256",
          "name": "id",
          "type": "uint256"
        },
        {
          "internalType": "uint256",
          "name": "weight",
          "type": "uint256"
        }
      ],
      "name": "insertToken",
      "outputs": [],
      "stateMutability": "nonpayable",
      "type": "function"
    },
    {
      "inputs": [
        {
          "internalType": "address",
          "name": "owner",
          "type": "address"
        },
        {
          "internalType": "address",
          "name": "operator",
          "type": "address"
        }
      ],
      "name": "isApprovedForAll",
      "outputs": [
        {
          "internalType": "bool",
          "name": "",
          "type": "bool"
        }
      ],
      "stateMutability": "view",
      "type": "function"
    },
    {
      "inputs": [
        {
          "internalType": "uint256",
          "name": "id",
          "type": "uint256"
        }
      ],
      "name": "isIndependent",
      "outputs": [
        {
          "internalType": "bool",
          "name": "",
          "type": "bool"
        }
      ],
      "stateMutability": "view",
      "type": "function"
    },
    {
      "inputs": [
        {
          "internalType": "uint256[]",
          "name": "parentIds",
          "type": "uint256[]"
        },
        {
          "internalType": "uint256",
          "name": "tokenWeight",
          "type": "uint256"
        }
      ],
      "name": "mint",
      "outputs": [],
      "stateMutability": "nonpayable",
      "type": "function"
    },
    {
      "inputs": [],
      "name": "name",
      "outputs": [
        {
          "internalType": "string",
          "name": "",
          "type": "string"
        }
      ],
      "stateMutability": "view",
      "type": "function"
    },
    {
      "inputs": [
        {
          "internalType": "uint256",
          "name": "tokenId",
          "type": "uint256"
        }
      ],
      "name": "ownerOf",
      "outputs": [
        {
          "internalType": "address",
          "name": "",
          "type": "address"
        }
      ],
      "stateMutability": "view",
      "type": "function"
    },
    {
      "inputs": [
        {
          "components": [
            {
              "internalType": "uint256",
              "name": "tokenWeight",
              "type": "uint256"
            },
            {
              "internalType": "uint256",
              "name": "timeStamp",
              "type": "uint256"
            },
            {
              "internalType": "bool",
              "name": "isBlacklisted",
              "type": "bool"
            },
            {
              "components": [
                {
                  "internalType": "uint256",
                  "name": "to",
                  "type": "uint256"
                },
                {
                  "internalType": "uint256",
                  "name": "weight",
                  "type": "uint256"
                }
              ],
              "internalType": "struct ICopyrightGraph.Edge[]",
              "name": "edges",
              "type": "tuple[]"
            },
            {
              "internalType": "uint256",
              "name": "numberOfTokensBehind",
              "type": "uint256"
            }
          ],
          "internalType": "struct ICopyrightGraph.Token",
          "name": "token",
          "type": "tuple"
        }
      ],
      "name": "returnId",
      "outputs": [
        {
          "internalType": "uint256",
          "name": "id",
          "type": "uint256"
        }
      ],
      "stateMutability": "pure",
      "type": "function"
    },
    {
      "inputs": [
        {
          "internalType": "uint256",
          "name": "id",
          "type": "uint256"
        }
      ],
      "name": "returnIsBlacklisted",
      "outputs": [
        {
          "internalType": "bool",
          "name": "isBlacklisted",
          "type": "bool"
        }
      ],
      "stateMutability": "view",
      "type": "function"
    },
    {
      "inputs": [],
      "name": "returnLeafTokenIDs",
      "outputs": [
        {
          "internalType": "uint256[]",
          "name": "leafTokenIDs",
          "type": "uint256[]"
        }
      ],
      "stateMutability": "view",
      "type": "function"
    },
    {
      "inputs": [
        {
          "internalType": "uint256",
          "name": "id",
          "type": "uint256"
        }
      ],
      "name": "returnTime",
      "outputs": [
        {
          "internalType": "uint256",
          "name": "timeStamp",
          "type": "uint256"
        }
      ],
      "stateMutability": "view",
      "type": "function"
    },
    {
      "inputs": [
        {
          "internalType": "uint256",
          "name": "id",
          "type": "uint256"
        }
      ],
      "name": "returnTokenWeight",
      "outputs": [
        {
          "internalType": "uint256",
          "name": "weight",
          "type": "uint256"
        }
      ],
      "stateMutability": "view",
      "type": "function"
    },
    {
      "inputs": [
        {
          "internalType": "address",
          "name": "from",
          "type": "address"
        },
        {
          "internalType": "address",
          "name": "to",
          "type": "address"
        },
        {
          "internalType": "uint256",
          "name": "tokenId",
          "type": "uint256"
        }
      ],
      "name": "safeTransferFrom",
      "outputs": [],
      "stateMutability": "nonpayable",
      "type": "function"
    },
    {
      "inputs": [
        {
          "internalType": "address",
          "name": "from",
          "type": "address"
        },
        {
          "internalType": "address",
          "name": "to",
          "type": "address"
        },
        {
          "internalType": "uint256",
          "name": "tokenId",
          "type": "uint256"
        },
        {
          "internalType": "bytes",
          "name": "_data",
          "type": "bytes"
        }
      ],
      "name": "safeTransferFrom",
      "outputs": [],
      "stateMutability": "nonpayable",
      "type": "function"
    },
    {
      "inputs": [
        {
          "internalType": "address",
          "name": "operator",
          "type": "address"
        },
        {
          "internalType": "bool",
          "name": "approved",
          "type": "bool"
        }
      ],
      "name": "setApprovalForAll",
      "outputs": [],
      "stateMutability": "nonpayable",
      "type": "function"
    },
    {
      "inputs": [
        {
          "internalType": "bytes4",
          "name": "interfaceId",
          "type": "bytes4"
        }
      ],
      "name": "supportsInterface",
      "outputs": [
        {
          "internalType": "bool",
          "name": "",
          "type": "bool"
        }
      ],
      "stateMutability": "view",
      "type": "function"
    },
    {
      "inputs": [],
      "name": "symbol",
      "outputs": [
        {
          "internalType": "string",
          "name": "",
          "type": "string"
        }
      ],
      "stateMutability": "view",
      "type": "function"
    },
    {
      "inputs": [],
      "name": "tokenCount",
      "outputs": [
        {
          "internalType": "uint256",
          "name": "",
          "type": "uint256"
        }
      ],
      "stateMutability": "view",
      "type": "function"
    },
    {
      "inputs": [
        {
          "internalType": "uint256",
          "name": "id",
          "type": "uint256"
        }
      ],
      "name": "tokenExists",
      "outputs": [
        {
          "internalType": "bool",
          "name": "exists",
          "type": "bool"
        }
      ],
      "stateMutability": "view",
      "type": "function"
    },
    {
      "inputs": [
        {
          "internalType": "uint256",
          "name": "tokenId",
          "type": "uint256"
        }
      ],
      "name": "tokenURI",
      "outputs": [
        {
          "internalType": "string",
          "name": "",
          "type": "string"
        }
      ],
      "stateMutability": "view",
      "type": "function"
    },
    {
      "inputs": [
        {
          "internalType": "address",
          "name": "from",
          "type": "address"
        },
        {
          "internalType": "address",
          "name": "to",
          "type": "address"
        },
        {
          "internalType": "uint256",
          "name": "tokenId",
          "type": "uint256"
        }
      ],
      "name": "transferFrom",
      "outputs": [],
      "stateMutability": "nonpayable",
      "type": "function"
    }
  ],
  "bytecode": "0x60806040523480156200001157600080fd5b506040518060400160405280601481526020017f5465737420436f7079726967687420546f6b656e0000000000000000000000008152506040518060400160405280600381526020017f544354000000000000000000000000000000000000000000000000000000000081525081600090816200008f91906200034e565b508060019081620000a191906200034e565b50505060076000908060018154018082558091505060019003906000526020600020016000909190919091505562000435565b600081519050919050565b7f4e487b7100000000000000000000000000000000000000000000000000000000600052604160045260246000fd5b7f4e487b7100000000000000000000000000000000000000000000000000000000600052602260045260246000fd5b600060028204905060018216806200015657607f821691505b6020821081036200016c576200016b6200010e565b5b50919050565b60008190508160005260206000209050919050565b60006020601f8301049050919050565b600082821b905092915050565b600060088302620001d67fffffffffffffffffffffffffffffffffffffffffffffffffffffffffffffffff8262000197565b620001e2868362000197565b95508019841693508086168417925050509392505050565b6000819050919050565b6000819050919050565b60006200022f620002296200022384620001fa565b62000204565b620001fa565b9050919050565b6000819050919050565b6200024b836200020e565b620002636200025a8262000236565b848454620001a4565b825550505050565b600090565b6200027a6200026b565b6200028781848462000240565b505050565b5b81811015620002af57620002a360008262000270565b6001810190506200028d565b5050565b601f821115620002fe57620002c88162000172565b620002d38462000187565b81016020851015620002e3578190505b620002fb620002f28562000187565b8301826200028c565b50505b505050565b600082821c905092915050565b6000620003236000198460080262000303565b1980831691505092915050565b60006200033e838362000310565b9150826002028217905092915050565b6200035982620000d4565b67ffffffffffffffff811115620003755762000374620000df565b5b6200038182546200013d565b6200038e828285620002b3565b600060209050601f831160018114620003c65760008415620003b1578287015190505b620003bd858262000330565b8655506200042d565b601f198416620003d68662000172565b60005b828110156200040057848901518255600182019150602085019450602081019050620003d9565b868310156200042057848901516200041c601f89168262000310565b8355505b6001600288020188555050505b505050505050565b613ec680620004456000396000f3fe6080604052600436106101e25760003560e01c80636352211e116101025780639f181b5e11610095578063beae494211610064578063beae494214610762578063c87b56dd1461078b578063ce8b4afd146107c8578063e985e9c5146107f1576101e2565b80639f181b5e146106c9578063a22cb465146106f4578063b6b55f251461071d578063b88d4fde14610739576101e2565b8063866fe41a116100d1578063866fe41a146105fb57806395d89b4114610624578063981ad4681461064f5780639f0fcc111461068c576101e2565b80636352211e1461051b5780636831dc28146105585780636e2a00ee1461058157806370a08231146105be576101e2565b80630bd062461161017a57806342842e0e1161014957806342842e0e1461044f578063465365b9146104785780635b236f4d146104a15780635e243915146104de576101e2565b80630bd062461461039557806316b407a8146103be57806323b872dd146103fb5780632657322414610424576101e2565b8063081812fc116101b6578063081812fc146102b5578063095ea7b3146102f25780630ab71fb11461031b5780630b8e12fc14610358576101e2565b8062923f9e146101e757806301ffc9a71461022457806306fdde0314610261578063076fcc1f1461028c575b600080fd5b3480156101f357600080fd5b5061020e600480360381019061020991906124bb565b61082e565b60405161021b9190612503565b60405180910390f35b34801561023057600080fd5b5061024b60048036038101906102469190612576565b610875565b6040516102589190612503565b60405180910390f35b34801561026d57600080fd5b50610276610957565b604051610283919061263c565b60405180910390f35b34801561029857600080fd5b506102b360048036038101906102ae919061265e565b6109e9565b005b3480156102c157600080fd5b506102dc60048036038101906102d791906124bb565b610a2e565b6040516102e991906126df565b60405180910390f35b3480156102fe57600080fd5b5061031960048036038101906103149190612726565b610ab3565b005b34801561032757600080fd5b50610342600480360381019061033d91906129dc565b610bca565b60405161034f9190612a34565b60405180910390f35b34801561036457600080fd5b5061037f600480360381019061037a91906124bb565b610c11565b60405161038c9190612a34565b60405180910390f35b3480156103a157600080fd5b506103bc60048036038101906103b79190612b12565b610c58565b005b3480156103ca57600080fd5b506103e560048036038101906103e091906124bb565b610ff7565b6040516103f29190612a34565b60405180910390f35b34801561040757600080fd5b50610422600480360381019061041d9190612b6e565b61103e565b005b34801561043057600080fd5b5061043961109e565b6040516104469190612c7f565b60405180910390f35b34801561045b57600080fd5b5061047660048036038101906104719190612b6e565b6110f6565b005b34801561048457600080fd5b5061049f600480360381019061049a9190612ca1565b611116565b005b3480156104ad57600080fd5b506104c860048036038101906104c391906124bb565b6111bb565b6040516104d59190612503565b60405180910390f35b3480156104ea57600080fd5b50610505600480360381019061050091906124bb565b6111e5565b6040516105129190612503565b60405180910390f35b34801561052757600080fd5b50610542600480360381019061053d91906124bb565b61120f565b60405161054f91906126df565b60405180910390f35b34801561056457600080fd5b5061057f600480360381019061057a9190612ca1565b6112c0565b005b34801561058d57600080fd5b506105a860048036038101906105a391906124bb565b611365565b6040516105b591906126df565b60405180910390f35b3480156105ca57600080fd5b506105e560048036038101906105e09190612ce1565b6113cc565b6040516105f29190612a34565b60405180910390f35b34801561060757600080fd5b50610622600480360381019061061d9190612d0e565b611483565b005b34801561063057600080fd5b506106396114ca565b604051610646919061263c565b60405180910390f35b34801561065b57600080fd5b50610676600480360381019061067191906124bb565b61155c565b6040516106839190612503565b60405180910390f35b34801561069857600080fd5b506106b360048036038101906106ae91906124bb565b6115a3565b6040516106c09190612503565b60405180910390f35b3480156106d557600080fd5b506106de6115c2565b6040516106eb9190612a34565b60405180910390f35b34801561070057600080fd5b5061071b60048036038101906107169190612dad565b6115c8565b005b610737600480360381019061073291906124bb565b6115de565b005b34801561074557600080fd5b50610760600480360381019061075b9190612ea2565b611629565b005b34801561076e57600080fd5b5061078960048036038101906107849190612f25565b61168b565b005b34801561079757600080fd5b506107b260048036038101906107ad91906124bb565b6116d1565b6040516107bf919061263c565b60405180910390f35b3480156107d457600080fd5b506107ef60048036038101906107ea9190612ca1565b611778565b005b3480156107fd57600080fd5b5061081860048036038101906108139190612fb0565b6117bd565b6040516108259190612503565b60405180910390f35b600080610870576040517f08c379a00000000000000000000000000000000000000000000000000000000081526004016108679061303c565b60405180910390fd5b919050565b60007f80ac58cd000000000000000000000000000000000000000000000000000000007bffffffffffffffffffffffffffffffffffffffffffffffffffffffff1916827bffffffffffffffffffffffffffffffffffffffffffffffffffffffff1916148061094057507f5b5e139f000000000000000000000000000000000000000000000000000000007bffffffffffffffffffffffffffffffffffffffffffffffffffffffff1916827bffffffffffffffffffffffffffffffffffffffffffffffffffffffff1916145b80610950575061094f82611851565b5b9050919050565b6060600080546109669061308b565b80601f01602080910402602001604051908101604052809291908181526020018280546109929061308b565b80156109df5780601f106109b4576101008083540402835291602001916109df565b820191906000526020600020905b8154815290600101906020018083116109c257829003601f168201915b5050505050905090565b6000610a2a576040517f08c379a0000000000000000000000000000000000000000000000000000000008152600401610a219061303c565b60405180910390fd5b5050565b6000610a39826118bb565b610a78576040517f08c379a0000000000000000000000000000000000000000000000000000000008152600401610a6f9061312e565b60405180910390fd5b6004600083815260200190815260200160002060009054906101000a900473ffffffffffffffffffffffffffffffffffffffff169050919050565b6000610abe8261120f565b90508073ffffffffffffffffffffffffffffffffffffffff168373ffffffffffffffffffffffffffffffffffffffff1603610b2e576040517f08c379a0000000000000000000000000000000000000000000000000000000008152600401610b25906131c0565b60405180910390fd5b8073ffffffffffffffffffffffffffffffffffffffff16610b4d611927565b73ffffffffffffffffffffffffffffffffffffffff161480610b7c5750610b7b81610b76611927565b6117bd565b5b610bbb576040517f08c379a0000000000000000000000000000000000000000000000000000000008152600401610bb290613252565b60405180910390fd5b610bc5838361192f565b505050565b600080610c0c576040517f08c379a0000000000000000000000000000000000000000000000000000000008152600401610c039061303c565b60405180910390fd5b919050565b600080610c53576040517f08c379a0000000000000000000000000000000000000000000000000000000008152600401610c4a9061303c565b60405180910390fd5b919050565b6000600660008154610c69906132a1565b9190508190559050610c82610c7c611927565b826119e8565b81600960008381526020019081526020016000206000018190555042600960008381526020019081526020016000206001018190555060005b8351811015610e10576000848281518110610cd957610cd86132e9565b5b602002602001015103610d21576040517f08c379a0000000000000000000000000000000000000000000000000000000008152600401610d189061338a565b60405180910390fd5b610d44848281518110610d3757610d366132e9565b5b60200260200101516118bb565b610d83576040517f08c379a0000000000000000000000000000000000000000000000000000000008152600401610d7a906133f6565b60405180910390fd5b600b6000858381518110610d9a57610d996132e9565b5b6020026020010151815260200190815260200160002060009054906101000a900460ff16610dfd576040517f08c379a0000000000000000000000000000000000000000000000000000000008152600401610df490613488565b60405180910390fd5b8080610e08906132a1565b915050610cbb565b50600083511115610f9f5760005b8351811015610f99576000848281518110610e3c57610e3b6132e9565b5b602002602001015190506000604051806040016040528083815260200160096000858152602001908152602001600020600001548152509050600960006006548152602001908152602001600020600301819080600181540180825580915050600190039060005260206000209060020201600090919091909150600082015181600001556020820151816001015550506009600060065481526020019081526020016000206004016000815480929190610ef6906132a1565b91905055506000600860008481526020019081526020016000205414610f8457600060086000848152602001908152602001600020549050600060086000858152602001908152602001600020819055508060086000878152602001908152602001600020819055508460078281548110610f7457610f736132e9565b5b9060005260206000200181905550505b50508080610f91906132a1565b915050610e1e565b50610ff2565b60078190806001815401808255809150506001900390600052602060002001600090919091909150556001600780549050610fda91906134a8565b60086000838152602001908152602001600020819055505b505050565b600080611039576040517f08c379a00000000000000000000000000000000000000000000000000000000081526004016110309061303c565b60405180910390fd5b919050565b61104f611049611927565b82611a06565b61108e576040517f08c379a00000000000000000000000000000000000000000000000000000000081526004016110859061354e565b60405180910390fd5b611099838383611ae4565b505050565b606060078054806020026020016040519081016040528092919081815260200182805480156110ec57602002820191906000526020600020905b8154815260200190600101908083116110d8575b5050505050905090565b61111183838360405180602001604052806000815250611629565b505050565b3373ffffffffffffffffffffffffffffffffffffffff166111368361120f565b73ffffffffffffffffffffffffffffffffffffffff161461118c576040517f08c379a0000000000000000000000000000000000000000000000000000000008152600401611183906135e0565b60405180910390fd5b80600b600084815260200190815260200160002060006101000a81548160ff0219169083151502179055505050565b6000600b600083815260200190815260200160002060009054906101000a900460ff169050919050565b6000600a600083815260200190815260200160002060009054906101000a900460ff169050919050565b6000806002600084815260200190815260200160002060009054906101000a900473ffffffffffffffffffffffffffffffffffffffff169050600073ffffffffffffffffffffffffffffffffffffffff168173ffffffffffffffffffffffffffffffffffffffff16036112b7576040517f08c379a00000000000000000000000000000000000000000000000000000000081526004016112ae90613672565b60405180910390fd5b80915050919050565b3373ffffffffffffffffffffffffffffffffffffffff166112e08361120f565b73ffffffffffffffffffffffffffffffffffffffff1614611336576040517f08c379a000000000000000000000000000000000000000000000000000000000815260040161132d906135e0565b60405180910390fd5b80600b600084815260200190815260200160002060006101000a81548160ff0219169083151502179055505050565b6000600a600083815260200190815260200160002060009054906101000a900460ff166113c7576040517f08c379a00000000000000000000000000000000000000000000000000000000081526004016113be90613704565b60405180910390fd5b919050565b60008073ffffffffffffffffffffffffffffffffffffffff168273ffffffffffffffffffffffffffffffffffffffff160361143c576040517f08c379a000000000000000000000000000000000000000000000000000000000815260040161143390613796565b60405180910390fd5b600360008373ffffffffffffffffffffffffffffffffffffffff1673ffffffffffffffffffffffffffffffffffffffff168152602001908152602001600020549050919050565b60006114c4576040517f08c379a00000000000000000000000000000000000000000000000000000000081526004016114bb9061303c565b60405180910390fd5b50505050565b6060600180546114d99061308b565b80601f01602080910402602001604051908101604052809291908181526020018280546115059061308b565b80156115525780601f1061152757610100808354040283529160200191611552565b820191906000526020600020905b81548152906001019060200180831161153557829003601f168201915b5050505050905090565b60008061159e576040517f08c379a00000000000000000000000000000000000000000000000000000000081526004016115959061303c565b60405180910390fd5b919050565b6000806008600084815260200190815260200160002054119050919050565b60065481565b6115da6115d3611927565b8383611d4a565b5050565b6115e7816118bb565b611626576040517f08c379a000000000000000000000000000000000000000000000000000000000815260040161161d90613828565b60405180910390fd5b50565b61163a611634611927565b83611a06565b611679576040517f08c379a00000000000000000000000000000000000000000000000000000000081526004016116709061354e565b60405180910390fd5b61168584848484611eb6565b50505050565b60006116cc576040517f08c379a00000000000000000000000000000000000000000000000000000000081526004016116c39061303c565b60405180910390fd5b505050565b60606116dc826118bb565b61171b576040517f08c379a0000000000000000000000000000000000000000000000000000000008152600401611712906138ba565b60405180910390fd5b6000611725611f12565b905060008151116117455760405180602001604052806000815250611770565b8061174f84611f29565b604051602001611760929190613916565b6040516020818303038152906040525b915050919050565b60006117b9576040517f08c379a00000000000000000000000000000000000000000000000000000000081526004016117b09061303c565b60405180910390fd5b5050565b6000600560008473ffffffffffffffffffffffffffffffffffffffff1673ffffffffffffffffffffffffffffffffffffffff16815260200190815260200160002060008373ffffffffffffffffffffffffffffffffffffffff1673ffffffffffffffffffffffffffffffffffffffff16815260200190815260200160002060009054906101000a900460ff16905092915050565b60007f01ffc9a7000000000000000000000000000000000000000000000000000000007bffffffffffffffffffffffffffffffffffffffffffffffffffffffff1916827bffffffffffffffffffffffffffffffffffffffffffffffffffffffff1916149050919050565b60008073ffffffffffffffffffffffffffffffffffffffff166002600084815260200190815260200160002060009054906101000a900473ffffffffffffffffffffffffffffffffffffffff1673ffffffffffffffffffffffffffffffffffffffff1614159050919050565b600033905090565b816004600083815260200190815260200160002060006101000a81548173ffffffffffffffffffffffffffffffffffffffff021916908373ffffffffffffffffffffffffffffffffffffffff160217905550808273ffffffffffffffffffffffffffffffffffffffff166119a28361120f565b73ffffffffffffffffffffffffffffffffffffffff167f8c5be1e5ebec7d5bd14f71427d1e84f3dd0314c0f7b2291e5b200ac8c7c3b92560405160405180910390a45050565b611a02828260405180602001604052806000815250612089565b5050565b6000611a11826118bb565b611a50576040517f08c379a0000000000000000000000000000000000000000000000000000000008152600401611a47906139ac565b60405180910390fd5b6000611a5b8361120f565b90508073ffffffffffffffffffffffffffffffffffffffff168473ffffffffffffffffffffffffffffffffffffffff161480611a9d5750611a9c81856117bd565b5b80611adb57508373ffffffffffffffffffffffffffffffffffffffff16611ac384610a2e565b73ffffffffffffffffffffffffffffffffffffffff16145b91505092915050565b8273ffffffffffffffffffffffffffffffffffffffff16611b048261120f565b73ffffffffffffffffffffffffffffffffffffffff1614611b5a576040517f08c379a0000000000000000000000000000000000000000000000000000000008152600401611b5190613a3e565b60405180910390fd5b600073ffffffffffffffffffffffffffffffffffffffff168273ffffffffffffffffffffffffffffffffffffffff1603611bc9576040517f08c379a0000000000000000000000000000000000000000000000000000000008152600401611bc090613ad0565b60405180910390fd5b611bd48383836120e4565b611bdf60008261192f565b6001600360008573ffffffffffffffffffffffffffffffffffffffff1673ffffffffffffffffffffffffffffffffffffffff1681526020019081526020016000206000828254611c2f91906134a8565b925050819055506001600360008473ffffffffffffffffffffffffffffffffffffffff1673ffffffffffffffffffffffffffffffffffffffff1681526020019081526020016000206000828254611c869190613af0565b92505081905550816002600083815260200190815260200160002060006101000a81548173ffffffffffffffffffffffffffffffffffffffff021916908373ffffffffffffffffffffffffffffffffffffffff160217905550808273ffffffffffffffffffffffffffffffffffffffff168473ffffffffffffffffffffffffffffffffffffffff167fddf252ad1be2c89b69c2b068fc378daa952ba7f163c4a11628f55a4df523b3ef60405160405180910390a4611d458383836120e9565b505050565b8173ffffffffffffffffffffffffffffffffffffffff168373ffffffffffffffffffffffffffffffffffffffff1603611db8576040517f08c379a0000000000000000000000000000000000000000000000000000000008152600401611daf90613b92565b60405180910390fd5b80600560008573ffffffffffffffffffffffffffffffffffffffff1673ffffffffffffffffffffffffffffffffffffffff16815260200190815260200160002060008473ffffffffffffffffffffffffffffffffffffffff1673ffffffffffffffffffffffffffffffffffffffff16815260200190815260200160002060006101000a81548160ff0219169083151502179055508173ffffffffffffffffffffffffffffffffffffffff168373ffffffffffffffffffffffffffffffffffffffff167f17307eab39ab6107e8899845ad3d59bd9653f200f220920489ca2b5937696c3183604051611ea99190612503565b60405180910390a3505050565b611ec1848484611ae4565b611ecd848484846120ee565b611f0c576040517f08c379a0000000000000000000000000000000000000000000000000000000008152600401611f0390613c24565b60405180910390fd5b50505050565b606060405180602001604052806000815250905090565b606060008203611f70576040518060400160405280600181526020017f30000000000000000000000000000000000000000000000000000000000000008152509050612084565b600082905060005b60008214611fa2578080611f8b906132a1565b915050600a82611f9b9190613c73565b9150611f78565b60008167ffffffffffffffff811115611fbe57611fbd61276b565b5b6040519080825280601f01601f191660200182016040528015611ff05781602001600182028036833780820191505090505b5090505b6000851461207d5760018261200991906134a8565b9150600a856120189190613ca4565b60306120249190613af0565b60f81b81838151811061203a576120396132e9565b5b60200101907effffffffffffffffffffffffffffffffffffffffffffffffffffffffffffff1916908160001a905350600a856120769190613c73565b9450611ff4565b8093505050505b919050565b6120938383612275565b6120a060008484846120ee565b6120df576040517f08c379a00000000000000000000000000000000000000000000000000000000081526004016120d690613c24565b60405180910390fd5b505050565b505050565b505050565b600061210f8473ffffffffffffffffffffffffffffffffffffffff1661244e565b15612268578373ffffffffffffffffffffffffffffffffffffffff1663150b7a02612138611927565b8786866040518563ffffffff1660e01b815260040161215a9493929190613d2a565b6020604051808303816000875af192505050801561219657506040513d601f19601f820116820180604052508101906121939190613d8b565b60015b612218573d80600081146121c6576040519150601f19603f3d011682016040523d82523d6000602084013e6121cb565b606091505b506000815103612210576040517f08c379a000000000000000000000000000000000000000000000000000000000815260040161220790613c24565b60405180910390fd5b805181602001fd5b63150b7a0260e01b7bffffffffffffffffffffffffffffffffffffffffffffffffffffffff1916817bffffffffffffffffffffffffffffffffffffffffffffffffffffffff19161491505061226d565b600190505b949350505050565b600073ffffffffffffffffffffffffffffffffffffffff168273ffffffffffffffffffffffffffffffffffffffff16036122e4576040517f08c379a00000000000000000000000000000000000000000000000000000000081526004016122db90613e04565b60405180910390fd5b6122ed816118bb565b1561232d576040517f08c379a000000000000000000000000000000000000000000000000000000000815260040161232490613e70565b60405180910390fd5b612339600083836120e4565b6001600360008473ffffffffffffffffffffffffffffffffffffffff1673ffffffffffffffffffffffffffffffffffffffff16815260200190815260200160002060008282546123899190613af0565b92505081905550816002600083815260200190815260200160002060006101000a81548173ffffffffffffffffffffffffffffffffffffffff021916908373ffffffffffffffffffffffffffffffffffffffff160217905550808273ffffffffffffffffffffffffffffffffffffffff16600073ffffffffffffffffffffffffffffffffffffffff167fddf252ad1be2c89b69c2b068fc378daa952ba7f163c4a11628f55a4df523b3ef60405160405180910390a461244a600083836120e9565b5050565b6000808273ffffffffffffffffffffffffffffffffffffffff163b119050919050565b6000604051905090565b600080fd5b600080fd5b6000819050919050565b61249881612485565b81146124a357600080fd5b50565b6000813590506124b58161248f565b92915050565b6000602082840312156124d1576124d061247b565b5b60006124df848285016124a6565b91505092915050565b60008115159050919050565b6124fd816124e8565b82525050565b600060208201905061251860008301846124f4565b92915050565b60007fffffffff0000000000000000000000000000000000000000000000000000000082169050919050565b6125538161251e565b811461255e57600080fd5b50565b6000813590506125708161254a565b92915050565b60006020828403121561258c5761258b61247b565b5b600061259a84828501612561565b91505092915050565b600081519050919050565b600082825260208201905092915050565b60005b838110156125dd5780820151818401526020810190506125c2565b838111156125ec576000848401525b50505050565b6000601f19601f8301169050919050565b600061260e826125a3565b61261881856125ae565b93506126288185602086016125bf565b612631816125f2565b840191505092915050565b600060208201905081810360008301526126568184612603565b905092915050565b600080604083850312156126755761267461247b565b5b6000612683858286016124a6565b9250506020612694858286016124a6565b9150509250929050565b600073ffffffffffffffffffffffffffffffffffffffff82169050919050565b60006126c98261269e565b9050919050565b6126d9816126be565b82525050565b60006020820190506126f460008301846126d0565b92915050565b612703816126be565b811461270e57600080fd5b50565b600081359050612720816126fa565b92915050565b6000806040838503121561273d5761273c61247b565b5b600061274b85828601612711565b925050602061275c858286016124a6565b9150509250929050565b600080fd5b7f4e487b7100000000000000000000000000000000000000000000000000000000600052604160045260246000fd5b6127a3826125f2565b810181811067ffffffffffffffff821117156127c2576127c161276b565b5b80604052505050565b60006127d5612471565b90506127e1828261279a565b919050565b600080fd5b6127f4816124e8565b81146127ff57600080fd5b50565b600081359050612811816127eb565b92915050565b600080fd5b600067ffffffffffffffff8211156128375761283661276b565b5b602082029050602081019050919050565b600080fd5b60006040828403121561286357612862612766565b5b61286d60406127cb565b9050600061287d848285016124a6565b6000830152506020612891848285016124a6565b60208301525092915050565b60006128b06128ab8461281c565b6127cb565b905080838252602082019050604084028301858111156128d3576128d2612848565b5b835b818110156128fc57806128e8888261284d565b8452602084019350506040810190506128d5565b5050509392505050565b600082601f83011261291b5761291a612817565b5b813561292b84826020860161289d565b91505092915050565b600060a0828403121561294a57612949612766565b5b61295460a06127cb565b90506000612964848285016124a6565b6000830152506020612978848285016124a6565b602083015250604061298c84828501612802565b604083015250606082013567ffffffffffffffff8111156129b0576129af6127e6565b5b6129bc84828501612906565b60608301525060806129d0848285016124a6565b60808301525092915050565b6000602082840312156129f2576129f161247b565b5b600082013567ffffffffffffffff811115612a1057612a0f612480565b5b612a1c84828501612934565b91505092915050565b612a2e81612485565b82525050565b6000602082019050612a496000830184612a25565b92915050565b600067ffffffffffffffff821115612a6a57612a6961276b565b5b602082029050602081019050919050565b6000612a8e612a8984612a4f565b6127cb565b90508083825260208201905060208402830185811115612ab157612ab0612848565b5b835b81811015612ada5780612ac688826124a6565b845260208401935050602081019050612ab3565b5050509392505050565b600082601f830112612af957612af8612817565b5b8135612b09848260208601612a7b565b91505092915050565b60008060408385031215612b2957612b2861247b565b5b600083013567ffffffffffffffff811115612b4757612b46612480565b5b612b5385828601612ae4565b9250506020612b64858286016124a6565b9150509250929050565b600080600060608486031215612b8757612b8661247b565b5b6000612b9586828701612711565b9350506020612ba686828701612711565b9250506040612bb7868287016124a6565b9150509250925092565b600081519050919050565b600082825260208201905092915050565b6000819050602082019050919050565b612bf681612485565b82525050565b6000612c088383612bed565b60208301905092915050565b6000602082019050919050565b6000612c2c82612bc1565b612c368185612bcc565b9350612c4183612bdd565b8060005b83811015612c72578151612c598882612bfc565b9750612c6483612c14565b925050600181019050612c45565b5085935050505092915050565b60006020820190508181036000830152612c998184612c21565b905092915050565b60008060408385031215612cb857612cb761247b565b5b6000612cc6858286016124a6565b9250506020612cd785828601612802565b9150509250929050565b600060208284031215612cf757612cf661247b565b5b6000612d0584828501612711565b91505092915050565b60008060008060808587031215612d2857612d2761247b565b5b600085013567ffffffffffffffff811115612d4657612d45612480565b5b612d5287828801612ae4565b945050602085013567ffffffffffffffff811115612d7357612d72612480565b5b612d7f87828801612ae4565b9350506040612d90878288016124a6565b9250506060612da1878288016124a6565b91505092959194509250565b60008060408385031215612dc457612dc361247b565b5b6000612dd285828601612711565b9250506020612de385828601612802565b9150509250929050565b600080fd5b600067ffffffffffffffff821115612e0d57612e0c61276b565b5b612e16826125f2565b9050602081019050919050565b82818337600083830152505050565b6000612e45612e4084612df2565b6127cb565b905082815260208101848484011115612e6157612e60612ded565b5b612e6c848285612e23565b509392505050565b600082601f830112612e8957612e88612817565b5b8135612e99848260208601612e32565b91505092915050565b60008060008060808587031215612ebc57612ebb61247b565b5b6000612eca87828801612711565b9450506020612edb87828801612711565b9350506040612eec878288016124a6565b925050606085013567ffffffffffffffff811115612f0d57612f0c612480565b5b612f1987828801612e74565b91505092959194509250565b600080600060608486031215612f3e57612f3d61247b565b5b600084013567ffffffffffffffff811115612f5c57612f5b612480565b5b612f6886828701612ae4565b935050602084013567ffffffffffffffff811115612f8957612f88612480565b5b612f9586828701612ae4565b9250506040612fa6868287016124a6565b9150509250925092565b60008060408385031215612fc757612fc661247b565b5b6000612fd585828601612711565b9250506020612fe685828601612711565b9150509250929050565b7f4e6f7420696d706c656d656e746564207965742e000000000000000000000000600082015250565b60006130266014836125ae565b915061303182612ff0565b602082019050919050565b6000602082019050818103600083015261305581613019565b9050919050565b7f4e487b7100000000000000000000000000000000000000000000000000000000600052602260045260246000fd5b600060028204905060018216806130a357607f821691505b6020821081036130b6576130b561305c565b5b50919050565b7f4552433732313a20617070726f76656420717565727920666f72206e6f6e657860008201527f697374656e7420746f6b656e0000000000000000000000000000000000000000602082015250565b6000613118602c836125ae565b9150613123826130bc565b604082019050919050565b600060208201905081810360008301526131478161310b565b9050919050565b7f4552433732313a20617070726f76616c20746f2063757272656e74206f776e6560008201527f7200000000000000000000000000000000000000000000000000000000000000602082015250565b60006131aa6021836125ae565b91506131b58261314e565b604082019050919050565b600060208201905081810360008301526131d98161319d565b9050919050565b7f4552433732313a20617070726f76652063616c6c6572206973206e6f74206f7760008201527f6e6572206e6f7220617070726f76656420666f7220616c6c0000000000000000602082015250565b600061323c6038836125ae565b9150613247826131e0565b604082019050919050565b6000602082019050818103600083015261326b8161322f565b9050919050565b7f4e487b7100000000000000000000000000000000000000000000000000000000600052601160045260246000fd5b60006132ac82612485565b91507fffffffffffffffffffffffffffffffffffffffffffffffffffffffffffffffff82036132de576132dd613272565b5b600182019050919050565b7f4e487b7100000000000000000000000000000000000000000000000000000000600052603260045260246000fd5b7f506172656e7420746f6b656e204944206f66206120706172656e74206973207a60008201527f65726f2e00000000000000000000000000000000000000000000000000000000602082015250565b60006133746024836125ae565b915061337f82613318565b604082019050919050565b600060208201905081810360008301526133a381613367565b9050919050565b7f506172656e7420746f6b656e20646f6573206e6f742065786973742e00000000600082015250565b60006133e0601c836125ae565b91506133eb826133aa565b602082019050919050565b6000602082019050818103600083015261340f816133d3565b9050919050565b7f506172656e7420746f6b656e20646f6573206e6f7420616c6c6f772061646f7060008201527f74696f6e2e000000000000000000000000000000000000000000000000000000602082015250565b60006134726025836125ae565b915061347d82613416565b604082019050919050565b600060208201905081810360008301526134a181613465565b9050919050565b60006134b382612485565b91506134be83612485565b9250828210156134d1576134d0613272565b5b828203905092915050565b7f4552433732313a207472616e736665722063616c6c6572206973206e6f74206f60008201527f776e6572206e6f7220617070726f766564000000000000000000000000000000602082015250565b60006135386031836125ae565b9150613543826134dc565b604082019050919050565b600060208201905081810360008301526135678161352b565b9050919050565b7f596f7520646f6e27742068617665207065726d697373696f6e20746f2063686160008201527f6e6765207065726d697373696f6e2e0000000000000000000000000000000000602082015250565b60006135ca602f836125ae565b91506135d58261356e565b604082019050919050565b600060208201905081810360008301526135f9816135bd565b9050919050565b7f4552433732313a206f776e657220717565727920666f72206e6f6e657869737460008201527f656e7420746f6b656e0000000000000000000000000000000000000000000000602082015250565b600061365c6029836125ae565b915061366782613600565b604082019050919050565b6000602082019050818103600083015261368b8161364f565b9050919050565b7f54686520636f70797269676874206f776e657220646f6573206e6f7420616c6c60008201527f6f7720646973747269627574696f6e2e00000000000000000000000000000000602082015250565b60006136ee6030836125ae565b91506136f982613692565b604082019050919050565b6000602082019050818103600083015261371d816136e1565b9050919050565b7f4552433732313a2062616c616e636520717565727920666f7220746865207a6560008201527f726f206164647265737300000000000000000000000000000000000000000000602082015250565b6000613780602a836125ae565b915061378b82613724565b604082019050919050565b600060208201905081810360008301526137af81613773565b9050919050565b7f54686520746f6b656e20796f75206d616b65206465706f73697420746f20646f60008201527f6573206e6f742065786973742e00000000000000000000000000000000000000602082015250565b6000613812602d836125ae565b915061381d826137b6565b604082019050919050565b6000602082019050818103600083015261384181613805565b9050919050565b7f4552433732314d657461646174613a2055524920717565727920666f72206e6f60008201527f6e6578697374656e7420746f6b656e0000000000000000000000000000000000602082015250565b60006138a4602f836125ae565b91506138af82613848565b604082019050919050565b600060208201905081810360008301526138d381613897565b9050919050565b600081905092915050565b60006138f0826125a3565b6138fa81856138da565b935061390a8185602086016125bf565b80840191505092915050565b600061392282856138e5565b915061392e82846138e5565b91508190509392505050565b7f4552433732313a206f70657261746f7220717565727920666f72206e6f6e657860008201527f697374656e7420746f6b656e0000000000000000000000000000000000000000602082015250565b6000613996602c836125ae565b91506139a18261393a565b604082019050919050565b600060208201905081810360008301526139c581613989565b9050919050565b7f4552433732313a207472616e736665722066726f6d20696e636f72726563742060008201527f6f776e6572000000000000000000000000000000000000000000000000000000602082015250565b6000613a286025836125ae565b9150613a33826139cc565b604082019050919050565b60006020820190508181036000830152613a5781613a1b565b9050919050565b7f4552433732313a207472616e7366657220746f20746865207a65726f2061646460008201527f7265737300000000000000000000000000000000000000000000000000000000602082015250565b6000613aba6024836125ae565b9150613ac582613a5e565b604082019050919050565b60006020820190508181036000830152613ae981613aad565b9050919050565b6000613afb82612485565b9150613b0683612485565b9250827fffffffffffffffffffffffffffffffffffffffffffffffffffffffffffffffff03821115613b3b57613b3a613272565b5b828201905092915050565b7f4552433732313a20617070726f766520746f2063616c6c657200000000000000600082015250565b6000613b7c6019836125ae565b9150613b8782613b46565b602082019050919050565b60006020820190508181036000830152613bab81613b6f565b9050919050565b7f4552433732313a207472616e7366657220746f206e6f6e20455243373231526560008201527f63656976657220696d706c656d656e7465720000000000000000000000000000602082015250565b6000613c0e6032836125ae565b9150613c1982613bb2565b604082019050919050565b60006020820190508181036000830152613c3d81613c01565b9050919050565b7f4e487b7100000000000000000000000000000000000000000000000000000000600052601260045260246000fd5b6000613c7e82612485565b9150613c8983612485565b925082613c9957613c98613c44565b5b828204905092915050565b6000613caf82612485565b9150613cba83612485565b925082613cca57613cc9613c44565b5b828206905092915050565b600081519050919050565b600082825260208201905092915050565b6000613cfc82613cd5565b613d068185613ce0565b9350613d168185602086016125bf565b613d1f816125f2565b840191505092915050565b6000608082019050613d3f60008301876126d0565b613d4c60208301866126d0565b613d596040830185612a25565b8181036060830152613d6b8184613cf1565b905095945050505050565b600081519050613d858161254a565b92915050565b600060208284031215613da157613da061247b565b5b6000613daf84828501613d76565b91505092915050565b7f4552433732313a206d696e7420746f20746865207a65726f2061646472657373600082015250565b6000613dee6020836125ae565b9150613df982613db8565b602082019050919050565b60006020820190508181036000830152613e1d81613de1565b9050919050565b7f4552433732313a20746f6b656e20616c7265616479206d696e74656400000000600082015250565b6000613e5a601c836125ae565b9150613e6582613e24565b602082019050919050565b60006020820190508181036000830152613e8981613e4d565b905091905056fea2646970667358221220ba2b36b485c96016f820e54c85c6c21163c06e1ae39631a167bb9b8bab04e3f764736f6c634300080f0033",
  "linkReferences": {},
  "deployedLinkReferences": {}
}