{
  "_format": "hh-sol-artifact-1",
  "contractName": "CopyrightToken",
  "sourceName": "src/backend/contracts/CopyrightToken.sol",
  "abi": [
    {
      "inputs": [],
      "stateMutability": "nonpayable",
      "type": "constructor"
    },
    {
      "anonymous": false,
      "inputs": [
        {
          "components": [
            {
              "internalType": "uint256",
              "name": "tokenWeight",
              "type": "uint256"
            },
            {
              "internalType": "uint256",
              "name": "timeStamp",
              "type": "uint256"
            },
            {
              "internalType": "bool",
              "name": "isBlacklisted",
              "type": "bool"
            },
            {
              "components": [
                {
                  "internalType": "uint256",
                  "name": "to",
                  "type": "uint256"
                },
                {
                  "internalType": "uint256",
                  "name": "weight",
                  "type": "uint256"
                }
              ],
              "internalType": "struct ICopyrightGraph.Edge[]",
              "name": "edges",
              "type": "tuple[]"
            },
            {
              "internalType": "uint256",
              "name": "numberOfTokensBehind",
              "type": "uint256"
            }
          ],
          "indexed": false,
          "internalType": "struct ICopyrightGraph.Token",
          "name": "token",
          "type": "tuple"
        }
      ],
      "name": "AddTokenToGraph",
      "type": "event"
    },
    {
      "anonymous": false,
      "inputs": [
        {
          "indexed": true,
          "internalType": "address",
          "name": "owner",
          "type": "address"
        },
        {
          "indexed": true,
          "internalType": "address",
          "name": "approved",
          "type": "address"
        },
        {
          "indexed": true,
          "internalType": "uint256",
          "name": "tokenId",
          "type": "uint256"
        }
      ],
      "name": "Approval",
      "type": "event"
    },
    {
      "anonymous": false,
      "inputs": [
        {
          "indexed": true,
          "internalType": "address",
          "name": "owner",
          "type": "address"
        },
        {
          "indexed": true,
          "internalType": "address",
          "name": "operator",
          "type": "address"
        },
        {
          "indexed": false,
          "internalType": "bool",
          "name": "approved",
          "type": "bool"
        }
      ],
      "name": "ApprovalForAll",
      "type": "event"
    },
    {
      "anonymous": false,
      "inputs": [
        {
          "indexed": false,
          "internalType": "uint256",
          "name": "id",
          "type": "uint256"
        },
        {
          "indexed": false,
          "internalType": "uint256",
          "name": "newWeight",
          "type": "uint256"
        }
      ],
      "name": "ChangeTokenWeight",
      "type": "event"
    },
    {
      "anonymous": false,
      "inputs": [
        {
          "indexed": true,
          "internalType": "address",
          "name": "previousOwner",
          "type": "address"
        },
        {
          "indexed": true,
          "internalType": "address",
          "name": "newOwner",
          "type": "address"
        }
      ],
      "name": "OwnershipTransferred",
      "type": "event"
    },
    {
      "anonymous": false,
      "inputs": [
        {
          "indexed": false,
          "internalType": "uint256",
          "name": "id",
          "type": "uint256"
        },
        {
          "indexed": false,
          "internalType": "bool",
          "name": "isBlacklisted",
          "type": "bool"
        }
      ],
      "name": "TokenBlacklisted",
      "type": "event"
    },
    {
      "anonymous": false,
      "inputs": [
        {
          "indexed": true,
          "internalType": "address",
          "name": "from",
          "type": "address"
        },
        {
          "indexed": true,
          "internalType": "address",
          "name": "to",
          "type": "address"
        },
        {
          "indexed": true,
          "internalType": "uint256",
          "name": "tokenId",
          "type": "uint256"
        }
      ],
      "name": "Transfer",
      "type": "event"
    },
    {
      "inputs": [
        {
          "internalType": "address",
          "name": "to",
          "type": "address"
        },
        {
          "internalType": "uint256",
          "name": "tokenId",
          "type": "uint256"
        }
      ],
      "name": "approve",
      "outputs": [],
      "stateMutability": "nonpayable",
      "type": "function"
    },
    {
      "inputs": [
        {
          "internalType": "address",
          "name": "owner",
          "type": "address"
        }
      ],
      "name": "balanceOf",
      "outputs": [
        {
          "internalType": "uint256",
          "name": "",
          "type": "uint256"
        }
      ],
      "stateMutability": "view",
      "type": "function"
    },
    {
      "inputs": [
        {
          "internalType": "uint256",
          "name": "id",
          "type": "uint256"
        },
        {
          "internalType": "bool",
          "name": "isBlacklisted",
          "type": "bool"
        }
      ],
      "name": "blacklistToken",
      "outputs": [],
      "stateMutability": "nonpayable",
      "type": "function"
    },
    {
      "inputs": [
        {
          "internalType": "uint256",
          "name": "id",
          "type": "uint256"
        },
        {
          "internalType": "bool",
          "name": "permission",
          "type": "bool"
        }
      ],
      "name": "changeAdoptionPermission",
      "outputs": [],
      "stateMutability": "nonpayable",
      "type": "function"
    },
    {
      "inputs": [
        {
          "internalType": "uint256",
          "name": "id",
          "type": "uint256"
        },
        {
          "internalType": "bool",
          "name": "permission",
          "type": "bool"
        }
      ],
      "name": "changeDistributionPermission",
      "outputs": [],
      "stateMutability": "nonpayable",
      "type": "function"
    },
    {
      "inputs": [
        {
          "internalType": "uint256",
          "name": "id",
          "type": "uint256"
        },
        {
          "internalType": "uint256",
          "name": "newWeight",
          "type": "uint256"
        }
      ],
      "name": "changeTokenWeight",
      "outputs": [],
      "stateMutability": "nonpayable",
      "type": "function"
    },
    {
      "inputs": [
        {
          "internalType": "uint256",
          "name": "id",
          "type": "uint256"
        }
      ],
      "name": "deposit",
      "outputs": [],
      "stateMutability": "payable",
      "type": "function"
    },
    {
      "inputs": [
        {
          "internalType": "uint256",
          "name": "id",
          "type": "uint256"
        }
      ],
      "name": "distributeCopies",
      "outputs": [
        {
          "internalType": "address",
          "name": "",
          "type": "address"
        }
      ],
      "stateMutability": "nonpayable",
      "type": "function"
    },
    {
      "inputs": [
        {
          "internalType": "uint256",
          "name": "id",
          "type": "uint256"
        }
      ],
      "name": "doAllowAdoption",
      "outputs": [
        {
          "internalType": "bool",
          "name": "",
          "type": "bool"
        }
      ],
      "stateMutability": "view",
      "type": "function"
    },
    {
      "inputs": [
        {
          "internalType": "uint256",
          "name": "id",
          "type": "uint256"
        }
      ],
      "name": "doAllowDistribution",
      "outputs": [
        {
          "internalType": "bool",
          "name": "",
          "type": "bool"
        }
      ],
      "stateMutability": "view",
      "type": "function"
    },
    {
      "inputs": [
        {
          "internalType": "uint256",
          "name": "tokenId",
          "type": "uint256"
        }
      ],
      "name": "getApproved",
      "outputs": [
        {
          "internalType": "address",
          "name": "",
          "type": "address"
        }
      ],
      "stateMutability": "view",
      "type": "function"
    },
    {
      "inputs": [
        {
          "internalType": "uint256",
          "name": "id",
          "type": "uint256"
        }
      ],
      "name": "getDistributionToken",
      "outputs": [
        {
          "internalType": "contract ERC721",
          "name": "",
          "type": "address"
        }
      ],
      "stateMutability": "view",
      "type": "function"
    },
    {
      "inputs": [
        {
          "internalType": "uint256",
          "name": "id",
          "type": "uint256"
        }
      ],
      "name": "getToken",
      "outputs": [
        {
          "components": [
            {
              "internalType": "uint256",
              "name": "tokenWeight",
              "type": "uint256"
            },
            {
              "internalType": "uint256",
              "name": "timeStamp",
              "type": "uint256"
            },
            {
              "internalType": "bool",
              "name": "isBlacklisted",
              "type": "bool"
            },
            {
              "components": [
                {
                  "internalType": "uint256",
                  "name": "to",
                  "type": "uint256"
                },
                {
                  "internalType": "uint256",
                  "name": "weight",
                  "type": "uint256"
                }
              ],
              "internalType": "struct ICopyrightGraph.Edge[]",
              "name": "edges",
              "type": "tuple[]"
            },
            {
              "internalType": "uint256",
              "name": "numberOfTokensBehind",
              "type": "uint256"
            }
          ],
          "internalType": "struct ICopyrightGraph.Token",
          "name": "",
          "type": "tuple"
        }
      ],
      "stateMutability": "view",
      "type": "function"
    },
    {
      "inputs": [
        {
          "internalType": "uint256[]",
          "name": "parentIds",
          "type": "uint256[]"
        },
        {
          "internalType": "uint256[]",
          "name": "parentWeights",
          "type": "uint256[]"
        },
        {
          "internalType": "uint256",
          "name": "id",
          "type": "uint256"
        }
      ],
      "name": "insertEdges",
      "outputs": [],
      "stateMutability": "nonpayable",
      "type": "function"
    },
    {
      "inputs": [
        {
          "internalType": "uint256[]",
          "name": "parentIds",
          "type": "uint256[]"
        },
        {
          "internalType": "uint256[]",
          "name": "parentWeights",
          "type": "uint256[]"
        },
        {
          "internalType": "uint256",
          "name": "id",
          "type": "uint256"
        },
        {
          "internalType": "uint256",
          "name": "weight",
          "type": "uint256"
        }
      ],
      "name": "insertToken",
      "outputs": [],
      "stateMutability": "nonpayable",
      "type": "function"
    },
    {
      "inputs": [
        {
          "internalType": "address",
          "name": "owner",
          "type": "address"
        },
        {
          "internalType": "address",
          "name": "operator",
          "type": "address"
        }
      ],
      "name": "isApprovedForAll",
      "outputs": [
        {
          "internalType": "bool",
          "name": "",
          "type": "bool"
        }
      ],
      "stateMutability": "view",
      "type": "function"
    },
    {
      "inputs": [
        {
          "internalType": "uint256",
          "name": "id",
          "type": "uint256"
        },
        {
          "internalType": "address",
          "name": "nftAddress",
          "type": "address"
        }
      ],
      "name": "isDistributionOf",
      "outputs": [
        {
          "internalType": "bool",
          "name": "",
          "type": "bool"
        }
      ],
      "stateMutability": "view",
      "type": "function"
    },
    {
      "inputs": [
        {
          "internalType": "uint256",
          "name": "id",
          "type": "uint256"
        }
      ],
      "name": "isIndependent",
      "outputs": [
        {
          "internalType": "bool",
          "name": "",
          "type": "bool"
        }
      ],
      "stateMutability": "view",
      "type": "function"
    },
    {
      "inputs": [
        {
          "internalType": "uint256[]",
          "name": "parentIds",
          "type": "uint256[]"
        },
        {
          "internalType": "uint256",
          "name": "tokenWeight",
          "type": "uint256"
        }
      ],
      "name": "mint",
      "outputs": [],
      "stateMutability": "nonpayable",
      "type": "function"
    },
    {
      "inputs": [],
      "name": "name",
      "outputs": [
        {
          "internalType": "string",
          "name": "",
          "type": "string"
        }
      ],
      "stateMutability": "view",
      "type": "function"
    },
    {
      "inputs": [],
      "name": "owner",
      "outputs": [
        {
          "internalType": "address",
          "name": "",
          "type": "address"
        }
      ],
      "stateMutability": "view",
      "type": "function"
    },
    {
      "inputs": [
        {
          "internalType": "uint256",
          "name": "tokenId",
          "type": "uint256"
        }
      ],
      "name": "ownerOf",
      "outputs": [
        {
          "internalType": "address",
          "name": "",
          "type": "address"
        }
      ],
      "stateMutability": "view",
      "type": "function"
    },
    {
      "inputs": [],
      "name": "renounceOwnership",
      "outputs": [],
      "stateMutability": "nonpayable",
      "type": "function"
    },
    {
      "inputs": [
        {
          "components": [
            {
              "internalType": "uint256",
              "name": "tokenWeight",
              "type": "uint256"
            },
            {
              "internalType": "uint256",
              "name": "timeStamp",
              "type": "uint256"
            },
            {
              "internalType": "bool",
              "name": "isBlacklisted",
              "type": "bool"
            },
            {
              "components": [
                {
                  "internalType": "uint256",
                  "name": "to",
                  "type": "uint256"
                },
                {
                  "internalType": "uint256",
                  "name": "weight",
                  "type": "uint256"
                }
              ],
              "internalType": "struct ICopyrightGraph.Edge[]",
              "name": "edges",
              "type": "tuple[]"
            },
            {
              "internalType": "uint256",
              "name": "numberOfTokensBehind",
              "type": "uint256"
            }
          ],
          "internalType": "struct ICopyrightGraph.Token",
          "name": "token",
          "type": "tuple"
        }
      ],
      "name": "returnId",
      "outputs": [
        {
          "internalType": "uint256",
          "name": "id",
          "type": "uint256"
        }
      ],
      "stateMutability": "pure",
      "type": "function"
    },
    {
      "inputs": [
        {
          "internalType": "uint256",
          "name": "id",
          "type": "uint256"
        }
      ],
      "name": "returnIsBlacklisted",
      "outputs": [
        {
          "internalType": "bool",
          "name": "isBlacklisted",
          "type": "bool"
        }
      ],
      "stateMutability": "view",
      "type": "function"
    },
    {
      "inputs": [],
      "name": "returnLeafTokenIDs",
      "outputs": [
        {
          "internalType": "uint256[]",
          "name": "leafTokenIDs",
          "type": "uint256[]"
        }
      ],
      "stateMutability": "view",
      "type": "function"
    },
    {
      "inputs": [
        {
          "internalType": "uint256",
          "name": "id",
          "type": "uint256"
        }
      ],
      "name": "returnTime",
      "outputs": [
        {
          "internalType": "uint256",
          "name": "timeStamp",
          "type": "uint256"
        }
      ],
      "stateMutability": "view",
      "type": "function"
    },
    {
      "inputs": [
        {
          "internalType": "uint256",
          "name": "id",
          "type": "uint256"
        }
      ],
      "name": "returnTokenWeight",
      "outputs": [
        {
          "internalType": "uint256",
          "name": "weight",
          "type": "uint256"
        }
      ],
      "stateMutability": "view",
      "type": "function"
    },
    {
      "inputs": [
        {
          "internalType": "address",
          "name": "from",
          "type": "address"
        },
        {
          "internalType": "address",
          "name": "to",
          "type": "address"
        },
        {
          "internalType": "uint256",
          "name": "tokenId",
          "type": "uint256"
        }
      ],
      "name": "safeTransferFrom",
      "outputs": [],
      "stateMutability": "nonpayable",
      "type": "function"
    },
    {
      "inputs": [
        {
          "internalType": "address",
          "name": "from",
          "type": "address"
        },
        {
          "internalType": "address",
          "name": "to",
          "type": "address"
        },
        {
          "internalType": "uint256",
          "name": "tokenId",
          "type": "uint256"
        },
        {
          "internalType": "bytes",
          "name": "_data",
          "type": "bytes"
        }
      ],
      "name": "safeTransferFrom",
      "outputs": [],
      "stateMutability": "nonpayable",
      "type": "function"
    },
    {
      "inputs": [
        {
          "internalType": "address",
          "name": "operator",
          "type": "address"
        },
        {
          "internalType": "bool",
          "name": "approved",
          "type": "bool"
        }
      ],
      "name": "setApprovalForAll",
      "outputs": [],
      "stateMutability": "nonpayable",
      "type": "function"
    },
    {
      "inputs": [
        {
          "internalType": "uint256",
          "name": "id",
          "type": "uint256"
        },
        {
          "internalType": "string",
          "name": "name",
          "type": "string"
        },
        {
          "internalType": "string",
          "name": "symbol",
          "type": "string"
        },
        {
          "internalType": "string",
          "name": "uri",
          "type": "string"
        }
      ],
      "name": "setDistributionInfo",
      "outputs": [],
      "stateMutability": "nonpayable",
      "type": "function"
    },
    {
      "inputs": [
        {
          "internalType": "bytes4",
          "name": "interfaceId",
          "type": "bytes4"
        }
      ],
      "name": "supportsInterface",
      "outputs": [
        {
          "internalType": "bool",
          "name": "",
          "type": "bool"
        }
      ],
      "stateMutability": "view",
      "type": "function"
    },
    {
      "inputs": [],
      "name": "symbol",
      "outputs": [
        {
          "internalType": "string",
          "name": "",
          "type": "string"
        }
      ],
      "stateMutability": "view",
      "type": "function"
    },
    {
      "inputs": [],
      "name": "tokenCount",
      "outputs": [
        {
          "internalType": "uint256",
          "name": "",
          "type": "uint256"
        }
      ],
      "stateMutability": "view",
      "type": "function"
    },
    {
      "inputs": [
        {
          "internalType": "uint256",
          "name": "id",
          "type": "uint256"
        }
      ],
      "name": "tokenExists",
      "outputs": [
        {
          "internalType": "bool",
          "name": "exists",
          "type": "bool"
        }
      ],
      "stateMutability": "view",
      "type": "function"
    },
    {
      "inputs": [
        {
          "internalType": "uint256",
          "name": "tokenId",
          "type": "uint256"
        }
      ],
      "name": "tokenURI",
      "outputs": [
        {
          "internalType": "string",
          "name": "",
          "type": "string"
        }
      ],
      "stateMutability": "view",
      "type": "function"
    },
    {
      "inputs": [
        {
          "internalType": "address",
          "name": "from",
          "type": "address"
        },
        {
          "internalType": "address",
          "name": "to",
          "type": "address"
        },
        {
          "internalType": "uint256",
          "name": "tokenId",
          "type": "uint256"
        }
      ],
      "name": "transferFrom",
      "outputs": [],
      "stateMutability": "nonpayable",
      "type": "function"
    },
    {
      "inputs": [
        {
          "internalType": "address",
          "name": "newOwner",
          "type": "address"
        }
      ],
      "name": "transferOwnership",
      "outputs": [],
      "stateMutability": "nonpayable",
      "type": "function"
    }
  ],
  "bytecode": "0x60806040523480156200001157600080fd5b506040518060400160405280601c81526020017f4e6f6e2d46756e6769626c6520436f7079726967687420546f6b656e0000000081525060405180604001604052806004815260200163139190d560e21b8152508160009081620000769190620001d5565b506001620000858282620001d5565b505050620000a26200009c620000da60201b60201c565b620000de565b6008805460018101825560009182527ff3f7a9fe364faab93b216da50a3214154f22a0a2b415b23a84c8169e8b636ee30155620002a1565b3390565b600680546001600160a01b038381166001600160a01b0319831681179093556040519116919082907f8be0079c531659141344cd1fd0a4f28419497f9722a3daafe3b4186f6b6457e090600090a35050565b634e487b7160e01b600052604160045260246000fd5b600181811c908216806200015b57607f821691505b6020821081036200017c57634e487b7160e01b600052602260045260246000fd5b50919050565b601f821115620001d057600081815260208120601f850160051c81016020861015620001ab5750805b601f850160051c820191505b81811015620001cc57828155600101620001b7565b5050505b505050565b81516001600160401b03811115620001f157620001f162000130565b620002098162000202845462000146565b8462000182565b602080601f831160018114620002415760008415620002285750858301515b600019600386901b1c1916600185901b178555620001cc565b600085815260208120601f198616915b82811015620002725788860151825594840194600190910190840162000251565b5085821015620002915787850151600019600388901b60f8161c191681555b5050505050600190811b01905550565b61510080620002b16000396000f3fe6080604052600436106200025e5760003560e01c80636831dc2811620001475780639f181b5e11620000b9578063c87b56dd1162000078578063c87b56dd14620006f4578063ce8b4afd1462000719578063e4b50cb81462000738578063e985e9c5146200076c578063f2fde38b14620007b957600080fd5b80639f181b5e146200065c578063a22cb4651462000674578063b6b55f251462000699578063b88d4fde14620006b0578063beae494214620006d557600080fd5b8063866fe41a1162000106578063866fe41a14620005e05780638da5cb5b14620005ff57806395d89b41146200061f578063981ad46814620002635780639f0fcc11146200063757600080fd5b80636831dc2814620005345780636e2a00ee146200055957806370a08231146200057e578063715018a614620005a357806375175d9814620005bb57600080fd5b806316b407a811620001e1578063465365b911620001a0578063465365b9146200047b5780635b236f4d14620004a05780635cadf4b114620004c55780635e24391514620004ea5780636352211e146200050f57600080fd5b806316b407a814620003a157806323b872dd14620003e557806326573224146200040a578063285a37e4146200043157806342842e0e146200045657600080fd5b8063081812fc116200022e578063081812fc1462000310578063095ea7b3146200034e5780630ab71fb114620003735780630b8e12fc14620003a15780630bd0624614620003c057600080fd5b8062923f9e146200026357806301ffc9a7146200029d57806306fdde0314620002c2578063076fcc1f14620002e9575b600080fd5b3480156200027057600080fd5b50620002886200028236600462002709565b620007de565b60405190151581526020015b60405180910390f35b348015620002aa57600080fd5b5062000288620002bc3660046200273a565b6200082a565b348015620002cf57600080fd5b50620002da6200087e565b604051620002949190620027b7565b348015620002f657600080fd5b506200030e62000308366004620027cc565b62000918565b005b3480156200031d57600080fd5b50620003356200032f36600462002709565b6200095c565b6040516001600160a01b03909116815260200162000294565b3480156200035b57600080fd5b506200030e6200036d36600462002807565b620009e8565b3480156200038057600080fd5b50620003926200028236600462002902565b60405190815260200162000294565b348015620003ae57600080fd5b50620003926200028236600462002709565b348015620003cd57600080fd5b506200030e620003df36600462002a9c565b62000b08565b348015620003f257600080fd5b506200030e6200040436600462002ae4565b62000e64565b3480156200041757600080fd5b506200042262000e9c565b60405162000294919062002b25565b3480156200043e57600080fd5b50620002886200045036600462002b6b565b62000ef5565b3480156200046357600080fd5b506200030e6200047536600462002ae4565b62000f43565b3480156200048857600080fd5b506200030e6200049a36600462002b9a565b62000f60565b348015620004ad57600080fd5b5062000288620004bf36600462002709565b62000fdf565b348015620004d257600080fd5b506200030e620004e436600462002c4d565b62001021565b348015620004f757600080fd5b50620002886200050936600462002709565b620010d7565b3480156200051c57600080fd5b50620003356200052e36600462002709565b62001119565b3480156200054157600080fd5b506200030e6200055336600462002b9a565b62001192565b3480156200056657600080fd5b50620003356200057836600462002709565b62001211565b3480156200058b57600080fd5b50620003926200059d36600462002ce8565b62001377565b348015620005b057600080fd5b506200030e62001400565b348015620005c857600080fd5b5062000335620005da36600462002709565b6200146a565b348015620005ed57600080fd5b506200030e6200030836600462002d06565b3480156200060c57600080fd5b506006546001600160a01b031662000335565b3480156200062c57600080fd5b50620002da620014b2565b3480156200064457600080fd5b50620002886200065636600462002709565b620014c3565b3480156200066957600080fd5b506200039260075481565b3480156200068157600080fd5b506200030e6200069336600462002d80565b62001504565b6200030e620006aa36600462002709565b62001511565b348015620006bd57600080fd5b506200030e620006cf36600462002db1565b62001b9c565b348015620006e257600080fd5b506200030e6200030836600462002e29565b3480156200070157600080fd5b50620002da6200071336600462002709565b62001bd5565b3480156200072657600080fd5b506200030e6200030836600462002b9a565b3480156200074557600080fd5b506200075d6200075736600462002709565b62001cb8565b60405162000294919062002e9c565b3480156200077957600080fd5b50620002886200078b36600462002f2b565b6001600160a01b03918216600090815260056020908152604080832093909416825291909152205460ff1690565b348015620007c657600080fd5b506200030e620007d836600462002ce8565b62001dd2565b60405162461bcd60e51b81526020600482015260146024820152732737ba1034b6b83632b6b2b73a32b2103cb2ba1760611b60448201526000906064015b60405180910390fd5b919050565b60006001600160e01b031982166380ac58cd60e01b14806200085c57506001600160e01b03198216635b5e139f60e01b145b806200087857506301ffc9a760e01b6001600160e01b03198316145b92915050565b6060600080546200088f9062002f5a565b80601f0160208091040260200160405190810160405280929190818152602001828054620008bd9062002f5a565b80156200090e5780601f10620008e2576101008083540402835291602001916200090e565b820191906000526020600020905b815481529060010190602001808311620008f057829003601f168201915b5050505050905090565b60405162461bcd60e51b81526020600482015260146024820152732737ba1034b6b83632b6b2b73a32b2103cb2ba1760611b60448201526064016200081c565b5050565b6000620009698262001ea3565b620009cc5760405162461bcd60e51b815260206004820152602c60248201527f4552433732313a20617070726f76656420717565727920666f72206e6f6e657860448201526b34b9ba32b73a103a37b5b2b760a11b60648201526084016200081c565b506000908152600460205260409020546001600160a01b031690565b6000620009f58262001119565b9050806001600160a01b0316836001600160a01b03160362000a645760405162461bcd60e51b815260206004820152602160248201527f4552433732313a20617070726f76616c20746f2063757272656e74206f776e656044820152603960f91b60648201526084016200081c565b336001600160a01b038216148062000a83575062000a8381336200078b565b62000af75760405162461bcd60e51b815260206004820152603860248201527f4552433732313a20617070726f76652063616c6c6572206973206e6f74206f7760448201527f6e6572206e6f7220617070726f76656420666f7220616c6c000000000000000060648201526084016200081c565b62000b03838362001ec0565b505050565b600060076000815462000b1b9062002fac565b9182905550905062000b2e338262001f30565b6000818152600a60205260408120838155426001909101555b835181101562000ce85783818151811062000b665762000b6662002fc8565b602002602001015160000362000bcb5760405162461bcd60e51b8152602060048201526024808201527f506172656e7420746f6b656e204944206f66206120706172656e74206973207a60448201526332b9379760e11b60648201526084016200081c565b62000bf284828151811062000be45762000be462002fc8565b602002602001015162001ea3565b62000c405760405162461bcd60e51b815260206004820152601c60248201527f506172656e7420746f6b656e20646f6573206e6f742065786973742e0000000060448201526064016200081c565b600c600085838151811062000c595762000c5962002fc8565b60209081029190910181015182528101919091526040016000205460ff1662000cd35760405162461bcd60e51b815260206004820152602560248201527f506172656e7420746f6b656e20646f6573206e6f7420616c6c6f772061646f706044820152643a34b7b71760d91b60648201526084016200081c565b8062000cdf8162002fac565b91505062000b47565b5082511562000e0b5760005b835181101562000e0557600084828151811062000d155762000d1562002fc8565b6020908102919091018101516040805180820182528281526000838152600a8086528382205483870190815260078054845291875284832060030180546001818101835591855297842085516002909902019788559051960195909555935484529083206004018054929450909262000d8e8362002fac565b90915550506000828152600960205260409020541562000ded576000828152600960205260408082208054908390558683529120819055600880548691908390811062000ddf5762000ddf62002fc8565b600091825260209091200155505b5050808062000dfc9062002fac565b91505062000cf4565b50505050565b600880546001818101835560008390527ff3f7a9fe364faab93b216da50a3214154f22a0a2b415b23a84c8169e8b636ee3909101839055905462000e50919062002fde565b600082815260096020526040902055505050565b62000e70338262001f4c565b62000e8f5760405162461bcd60e51b81526004016200081c9062002ff8565b62000b0383838362002040565b606060088054806020026020016040519081016040528092919081815260200182805480156200090e57602002820191906000526020600020905b81548152602001906001019080831162000ed7575050505050905090565b600062000f028362001ea3565b62000f215760405162461bcd60e51b81526004016200081c9062003049565b506000918252600d6020526040909120546001600160a01b0391821691161490565b62000b038383836040518060200160405280600081525062001b9c565b62000f6b8262001ea3565b62000f8a5760405162461bcd60e51b81526004016200081c9062003049565b3362000f968362001119565b6001600160a01b03161462000fbf5760405162461bcd60e51b81526004016200081c9062003096565b6000918252600c6020526040909120805460ff1916911515919091179055565b600062000fec8262001ea3565b6200100b5760405162461bcd60e51b81526004016200081c9062003049565b506000908152600c602052604090205460ff1690565b6200102c8462001ea3565b6200104b5760405162461bcd60e51b81526004016200081c9062003049565b33620010578562001119565b6001600160a01b031614620010805760405162461bcd60e51b81526004016200081c90620030e5565b6000848152600e602052604090206200109a848262003178565b506000848152600f60205260409020620010b5838262003178565b506000848152601060205260409020620010d0828262003178565b5050505050565b6000620010e48262001ea3565b620011035760405162461bcd60e51b81526004016200081c9062003049565b506000908152600b602052604090205460ff1690565b6000818152600260205260408120546001600160a01b031680620008785760405162461bcd60e51b815260206004820152602960248201527f4552433732313a206f776e657220717565727920666f72206e6f6e657869737460448201526832b73a103a37b5b2b760b91b60648201526084016200081c565b6200119d8262001ea3565b620011bc5760405162461bcd60e51b81526004016200081c9062003049565b33620011c88362001119565b6001600160a01b031614620011f15760405162461bcd60e51b81526004016200081c9062003096565b6000918252600b6020526040909120805460ff1916911515919091179055565b60006200121e8262001ea3565b6200123d5760405162461bcd60e51b81526004016200081c9062003049565b6000828152600b602052604090205460ff16620012b65760405162461bcd60e51b815260206004820152603060248201527f54686520636f70797269676874206f776e657220646f6573206e6f7420616c6c60448201526f37bb903234b9ba3934b13aba34b7b71760811b60648201526084016200081c565b33620012c28362001119565b6001600160a01b031614620012eb5760405162461bcd60e51b81526004016200081c90620030e5565b6000828152600e60209081526040808320600f835281842060109093528184209151909291906200131c90620026df565b6200132a93929190620032c9565b604051809103906000f08015801562001347573d6000803e3d6000fd5b506000938452600d602052604090932080546001600160a01b0319166001600160a01b0385161790555090919050565b60006001600160a01b038216620013e45760405162461bcd60e51b815260206004820152602a60248201527f4552433732313a2062616c616e636520717565727920666f7220746865207a65604482015269726f206164647265737360b01b60648201526084016200081c565b506001600160a01b031660009081526003602052604090205490565b6006546001600160a01b031633146200145c5760405162461bcd60e51b815260206004820181905260248201527f4f776e61626c653a2063616c6c6572206973206e6f7420746865206f776e657260448201526064016200081c565b620014686000620021e8565b565b6000620014778262001ea3565b620014965760405162461bcd60e51b81526004016200081c9062003049565b506000908152600d60205260409020546001600160a01b031690565b6060600180546200088f9062002f5a565b6000620014d08262001ea3565b620014ef5760405162461bcd60e51b81526004016200081c9062003049565b50600090815260096020526040902054151590565b620009583383836200223a565b6200151c8162001ea3565b6200153b5760405162461bcd60e51b81526004016200081c9062003049565b60006040516200154b90620026ed565b604051809103906000f08015801562001568573d6000803e3d6000fd5b50905060006040516200157b90620026fb565b604051809103906000f08015801562001598573d6000803e3d6000fd5b5090506000604051620015ab90620026fb565b604051809103906000f080158015620015c8573d6000803e3d6000fd5b50604051631ffc735d60e01b8152600481018690529091506001600160a01b03841690631ffc735d90602401600060405180830381600087803b1580156200160f57600080fd5b505af115801562001624573d6000803e3d6000fd5b505050505b826001600160a01b031663681fe70c6040518163ffffffff1660e01b8152600401602060405180830381865afa15801562001668573d6000803e3d6000fd5b505050506040513d601f19601f820116820180604052508101906200168e919062003312565b62001954576000836001600160a01b031663957908d16040518163ffffffff1660e01b81526004016020604051808303816000875af1158015620016d6573d6000803e3d6000fd5b505050506040513d601f19601f82011682018060405250810190620016fc919062003332565b6000818152600a60209081526040808320815160a08101835281548152600182015481850152600282015460ff161515818401526003820180548451818702810187019095528085529697509495909491936060860193929190879084015b82821015620017a3578382906000526020600020906002020160405180604001604052908160008201548152602001600182015481525050815260200190600101906200175b565b505050508152602001600482015481525050905060008160600151905060005b81518110156200194a576000828281518110620017e457620017e462002fc8565b6020026020010151602001519050600083838151811062001809576200180962002fc8565b6020026020010151600001519050886001600160a01b0316631ffc735d826040518263ffffffff1660e01b81526004016200184691815260200190565b600060405180830381600087803b1580156200186157600080fd5b505af115801562001876573d6000803e3d6000fd5b5050604051632566b12160e21b8152600481018490526001600160a01b038b16925063959ac4849150602401600060405180830381600087803b158015620018bd57600080fd5b505af1158015620018d2573d6000803e3d6000fd5b5050604051632566b12160e21b8152600481018590526001600160a01b038a16925063959ac4849150602401600060405180830381600087803b1580156200191957600080fd5b505af11580156200192e573d6000803e3d6000fd5b5050505050508080620019419062002fac565b915050620017c3565b5050505062001629565b345b826001600160a01b031663681fe70c6040518163ffffffff1660e01b8152600401602060405180830381865afa15801562001995573d6000803e3d6000fd5b505050506040513d601f19601f82011682018060405250810190620019bb919062003312565b62001b49576000836001600160a01b031663a4ece52c6040518163ffffffff1660e01b81526004016020604051808303816000875af115801562001a03573d6000803e3d6000fd5b505050506040513d601f19601f8201168201806040525081019062001a29919062003332565b90506000836001600160a01b031663a4ece52c6040518163ffffffff1660e01b81526004016020604051808303816000875af115801562001a6e573d6000803e3d6000fd5b505050506040513d601f19601f8201168201806040525081019062001a94919062003332565b90508083101562001aee57508162001aac8262001119565b6001600160a01b03166108fc829081150290604051600060405180830381858888f1935050505015801562001ae5573d6000803e3d6000fd5b50505062001b49565b62001afa818462002fde565b925062001b078262001119565b6001600160a01b03166108fc829081150290604051600060405180830381858888f1935050505015801562001b40573d6000803e3d6000fd5b50505062001956565b8015620010d05762001b5b8562001119565b6001600160a01b03166108fc829081150290604051600060405180830381858888f1935050505015801562001b94573d6000803e3d6000fd5b505050505050565b62001ba8338362001f4c565b62001bc75760405162461bcd60e51b81526004016200081c9062002ff8565b62000e05848484846200230a565b606062001be28262001ea3565b62001c485760405162461bcd60e51b815260206004820152602f60248201527f4552433732314d657461646174613a2055524920717565727920666f72206e6f60448201526e3732bc34b9ba32b73a103a37b5b2b760891b60648201526084016200081c565b600062001c6060408051602081019091526000815290565b9050600081511162001c82576040518060200160405280600081525062001cb1565b8062001c8e8462002344565b60405160200162001ca19291906200334c565b6040516020818303038152906040525b9392505050565b62001ced6040518060a00160405280600081526020016000815260200160001515815260200160608152602001600081525090565b62001cf88262001ea3565b62001d175760405162461bcd60e51b81526004016200081c9062003049565b6000828152600a60209081526040808320815160a08101835281548152600182015481850152600282015460ff16151581840152600382018054845181870281018701909552808552919592946060870194939192919084015b8282101562001db95783829060005260206000209060020201604051806040016040529081600082015481526020016001820154815250508152602001906001019062001d71565b5050505081526020016004820154815250509050919050565b6006546001600160a01b0316331462001e2e5760405162461bcd60e51b815260206004820181905260248201527f4f776e61626c653a2063616c6c6572206973206e6f7420746865206f776e657260448201526064016200081c565b6001600160a01b03811662001e955760405162461bcd60e51b815260206004820152602660248201527f4f776e61626c653a206e6577206f776e657220697320746865207a65726f206160448201526564647265737360d01b60648201526084016200081c565b62001ea081620021e8565b50565b6000908152600260205260409020546001600160a01b0316151590565b600081815260046020526040902080546001600160a01b0319166001600160a01b038416908117909155819062001ef78262001119565b6001600160a01b03167f8c5be1e5ebec7d5bd14f71427d1e84f3dd0314c0f7b2291e5b200ac8c7c3b92560405160405180910390a45050565b620009588282604051806020016040528060008152506200245c565b600062001f598262001ea3565b62001fbc5760405162461bcd60e51b815260206004820152602c60248201527f4552433732313a206f70657261746f7220717565727920666f72206e6f6e657860448201526b34b9ba32b73a103a37b5b2b760a11b60648201526084016200081c565b600062001fc98362001119565b9050806001600160a01b0316846001600160a01b031614806200201157506001600160a01b0380821660009081526005602090815260408083209388168352929052205460ff165b80620020385750836001600160a01b03166200202d846200095c565b6001600160a01b0316145b949350505050565b826001600160a01b0316620020558262001119565b6001600160a01b031614620020bb5760405162461bcd60e51b815260206004820152602560248201527f4552433732313a207472616e736665722066726f6d20696e636f72726563742060448201526437bbb732b960d91b60648201526084016200081c565b6001600160a01b0382166200211f5760405162461bcd60e51b8152602060048201526024808201527f4552433732313a207472616e7366657220746f20746865207a65726f206164646044820152637265737360e01b60648201526084016200081c565b6200212c60008262001ec0565b6001600160a01b03831660009081526003602052604081208054600192906200215790849062002fde565b90915550506001600160a01b0382166000908152600360205260408120805460019290620021879084906200337f565b909155505060008181526002602052604080822080546001600160a01b0319166001600160a01b0386811691821790925591518493918716917fddf252ad1be2c89b69c2b068fc378daa952ba7f163c4a11628f55a4df523b3ef91a4505050565b600680546001600160a01b038381166001600160a01b0319831681179093556040519116919082907f8be0079c531659141344cd1fd0a4f28419497f9722a3daafe3b4186f6b6457e090600090a35050565b816001600160a01b0316836001600160a01b0316036200229d5760405162461bcd60e51b815260206004820152601960248201527f4552433732313a20617070726f766520746f2063616c6c65720000000000000060448201526064016200081c565b6001600160a01b03838116600081815260056020908152604080832094871680845294825291829020805460ff191686151590811790915591519182527f17307eab39ab6107e8899845ad3d59bd9653f200f220920489ca2b5937696c31910160405180910390a3505050565b6200231784848462002040565b620023258484848462002496565b62000e055760405162461bcd60e51b81526004016200081c906200339a565b6060816000036200236c5750506040805180820190915260018152600360fc1b602082015290565b8160005b81156200239c5780620023838162002fac565b9150620023949050600a8362003402565b915062002370565b6000816001600160401b03811115620023b957620023b962002834565b6040519080825280601f01601f191660200182016040528015620023e4576020820181803683370190505b5090505b84156200203857620023fc60018362002fde565b91506200240b600a8662003419565b620024189060306200337f565b60f81b81838151811062002430576200243062002fc8565b60200101906001600160f81b031916908160001a90535062002454600a8662003402565b9450620023e8565b620024688383620025a4565b62002477600084848462002496565b62000b035760405162461bcd60e51b81526004016200081c906200339a565b60006001600160a01b0384163b156200259957604051630a85bd0160e11b81526001600160a01b0385169063150b7a0290620024dd90339089908890889060040162003430565b6020604051808303816000875af19250505080156200251b575060408051601f3d908101601f19168201909252620025189181019062003465565b60015b6200257e573d8080156200254c576040519150601f19603f3d011682016040523d82523d6000602084013e62002551565b606091505b508051600003620025765760405162461bcd60e51b81526004016200081c906200339a565b805181602001fd5b6001600160e01b031916630a85bd0160e11b14905062002038565b506001949350505050565b6001600160a01b038216620025fc5760405162461bcd60e51b815260206004820181905260248201527f4552433732313a206d696e7420746f20746865207a65726f206164647265737360448201526064016200081c565b620026078162001ea3565b15620026565760405162461bcd60e51b815260206004820152601c60248201527f4552433732313a20746f6b656e20616c7265616479206d696e7465640000000060448201526064016200081c565b6001600160a01b0382166000908152600360205260408120805460019290620026819084906200337f565b909155505060008181526002602052604080822080546001600160a01b0319166001600160a01b03861690811790915590518392907fddf252ad1be2c89b69c2b068fc378daa952ba7f163c4a11628f55a4df523b3ef908290a45050565b611872806200348683390190565b6102188062004cf883390190565b6101bb8062004f1083390190565b6000602082840312156200271c57600080fd5b5035919050565b6001600160e01b03198116811462001ea057600080fd5b6000602082840312156200274d57600080fd5b813562001cb18162002723565b60005b83811015620027775781810151838201526020016200275d565b8381111562000e055750506000910152565b60008151808452620027a38160208601602086016200275a565b601f01601f19169290920160200192915050565b60208152600062001cb1602083018462002789565b60008060408385031215620027e057600080fd5b50508035926020909101359150565b80356001600160a01b03811681146200082557600080fd5b600080604083850312156200281b57600080fd5b6200282683620027ef565b946020939093013593505050565b634e487b7160e01b600052604160045260246000fd5b60405160a081016001600160401b03811182821017156200286f576200286f62002834565b60405290565b604080519081016001600160401b03811182821017156200286f576200286f62002834565b604051601f8201601f191681016001600160401b0381118282101715620028c557620028c562002834565b604052919050565b801515811462001ea057600080fd5b60006001600160401b03821115620028f857620028f862002834565b5060051b60200190565b600060208083850312156200291657600080fd5b82356001600160401b03808211156200292e57600080fd5b9084019060a082870312156200294357600080fd5b6200294d6200284a565b8235815283830135848201526040808401356200296a81620028cd565b828201526060840135838111156200298157600080fd5b84019250601f830188136200299557600080fd5b8235620029ac620029a682620028dc565b6200289a565b81815260069190911b8401860190868101908a831115620029cc57600080fd5b948701945b8286101562002a115783868c031215620029eb5760008081fd5b620029f562002875565b86358152888701358982015282529483019490870190620029d1565b60608501525050506080928301359281019290925250949350505050565b600082601f83011262002a4157600080fd5b8135602062002a54620029a683620028dc565b82815260059290921b8401810191818101908684111562002a7457600080fd5b8286015b8481101562002a91578035835291830191830162002a78565b509695505050505050565b6000806040838503121562002ab057600080fd5b82356001600160401b0381111562002ac757600080fd5b62002ad58582860162002a2f565b95602094909401359450505050565b60008060006060848603121562002afa57600080fd5b62002b0584620027ef565b925062002b1560208501620027ef565b9150604084013590509250925092565b6020808252825182820181905260009190848201906040850190845b8181101562002b5f5783518352928401929184019160010162002b41565b50909695505050505050565b6000806040838503121562002b7f57600080fd5b8235915062002b9160208401620027ef565b90509250929050565b6000806040838503121562002bae57600080fd5b82359150602083013562002bc281620028cd565b809150509250929050565b60006001600160401b0383111562002be95762002be962002834565b62002bfe601f8401601f19166020016200289a565b905082815283838301111562002c1357600080fd5b828260208301376000602084830101529392505050565b600082601f83011262002c3c57600080fd5b62001cb18383356020850162002bcd565b6000806000806080858703121562002c6457600080fd5b8435935060208501356001600160401b038082111562002c8357600080fd5b62002c918883890162002c2a565b9450604087013591508082111562002ca857600080fd5b62002cb68883890162002c2a565b9350606087013591508082111562002ccd57600080fd5b5062002cdc8782880162002c2a565b91505092959194509250565b60006020828403121562002cfb57600080fd5b62001cb182620027ef565b6000806000806080858703121562002d1d57600080fd5b84356001600160401b038082111562002d3557600080fd5b62002d438883890162002a2f565b9550602087013591508082111562002d5a57600080fd5b5062002d698782880162002a2f565b949794965050505060408301359260600135919050565b6000806040838503121562002d9457600080fd5b62002d9f83620027ef565b9150602083013562002bc281620028cd565b6000806000806080858703121562002dc857600080fd5b62002dd385620027ef565b935062002de360208601620027ef565b92506040850135915060608501356001600160401b0381111562002e0657600080fd5b8501601f8101871362002e1857600080fd5b62002cdc8782356020840162002bcd565b60008060006060848603121562002e3f57600080fd5b83356001600160401b038082111562002e5757600080fd5b62002e658783880162002a2f565b9450602086013591508082111562002e7c57600080fd5b5062002e8b8682870162002a2f565b925050604084013590509250925092565b6000602080835260c08301845182850152818501516040818187015280870151151560608701526060870151915060a0608087015282825180855260e0880191508584019450600093505b8084101562002f12578451805183528601518683015293850193600193909301929082019062002ee7565b50608088015160a0880152809550505050505092915050565b6000806040838503121562002f3f57600080fd5b62002f4a83620027ef565b915062002b9160208401620027ef565b600181811c9082168062002f6f57607f821691505b60208210810362002f9057634e487b7160e01b600052602260045260246000fd5b50919050565b634e487b7160e01b600052601160045260246000fd5b60006001820162002fc15762002fc162002f96565b5060010190565b634e487b7160e01b600052603260045260246000fd5b60008282101562002ff35762002ff362002f96565b500390565b60208082526031908201527f4552433732313a207472616e736665722063616c6c6572206973206e6f74206f6040820152701ddb995c881b9bdc88185c1c1c9bdd9959607a1b606082015260800190565b6020808252602d908201527f54686520746f6b656e20796f75206d616b65206465706f73697420746f20646f60408201526c32b9903737ba1032bc34b9ba1760991b606082015260800190565b6020808252602f908201527f596f7520646f6e27742068617665207065726d697373696f6e20746f2063686160408201526e3733b2903832b936b4b9b9b4b7b71760891b606082015260800190565b60208082526029908201527f596f7520646f6e27742068617665207065726d697373696f6e20746f206368616040820152683733b29034b733379760b91b606082015260800190565b601f82111562000b0357600081815260208120601f850160051c81016020861015620031575750805b601f850160051c820191505b8181101562001b945782815560010162003163565b81516001600160401b0381111562003194576200319462002834565b620031ac81620031a5845462002f5a565b846200312e565b602080601f831160018114620031e45760008415620031cb5750858301515b600019600386901b1c1916600185901b17855562001b94565b600085815260208120601f198616915b828110156200321557888601518255948401946001909101908401620031f4565b5085821015620032345787850151600019600388901b60f8161c191681555b5050505050600190811b01905550565b60008154620032538162002f5a565b8085526020600183811680156200327357600181146200328e57620032be565b60ff1985168884015283151560051b880183019550620032be565b866000528260002060005b85811015620032b65781548a820186015290830190840162003299565b890184019650505b505050505092915050565b606081526000620032de606083018662003244565b8281036020840152620032f2818662003244565b9050828103604084015262003308818562003244565b9695505050505050565b6000602082840312156200332557600080fd5b815162001cb181620028cd565b6000602082840312156200334557600080fd5b5051919050565b60008351620033608184602088016200275a565b835190830190620033768183602088016200275a565b01949350505050565b6000821982111562003395576200339562002f96565b500190565b60208082526032908201527f4552433732313a207472616e7366657220746f206e6f6e20455243373231526560408201527131b2b4bb32b91034b6b83632b6b2b73a32b960711b606082015260800190565b634e487b7160e01b600052601260045260246000fd5b600082620034145762003414620033ec565b500490565b6000826200342b576200342b620033ec565b500690565b6001600160a01b0385811682528416602082015260408101839052608060608201819052600090620033089083018462002789565b6000602082840312156200347857600080fd5b815162001cb1816200272356fe60806040523480156200001157600080fd5b5060405162001872380380620018728339810160408190526200003491620001ab565b82826000620000448382620002cb565b506001620000538282620002cb565b505050620000706200006a6200008860201b60201c565b6200008c565b60076200007e8282620002cb565b5050505062000397565b3390565b600680546001600160a01b038381166001600160a01b0319831681179093556040519116919082907f8be0079c531659141344cd1fd0a4f28419497f9722a3daafe3b4186f6b6457e090600090a35050565b634e487b7160e01b600052604160045260246000fd5b600082601f8301126200010657600080fd5b81516001600160401b0380821115620001235762000123620000de565b604051601f8301601f19908116603f011681019082821181831017156200014e576200014e620000de565b816040528381526020925086838588010111156200016b57600080fd5b600091505b838210156200018f578582018301518183018401529082019062000170565b83821115620001a15760008385830101525b9695505050505050565b600080600060608486031215620001c157600080fd5b83516001600160401b0380821115620001d957600080fd5b620001e787838801620000f4565b94506020860151915080821115620001fe57600080fd5b6200020c87838801620000f4565b935060408601519150808211156200022357600080fd5b506200023286828701620000f4565b9150509250925092565b600181811c908216806200025157607f821691505b6020821081036200027257634e487b7160e01b600052602260045260246000fd5b50919050565b601f821115620002c657600081815260208120601f850160051c81016020861015620002a15750805b601f850160051c820191505b81811015620002c257828155600101620002ad565b5050505b505050565b81516001600160401b03811115620002e757620002e7620000de565b620002ff81620002f884546200023c565b8462000278565b602080601f8311600181146200033757600084156200031e5750858301515b600019600386901b1c1916600185901b178555620002c2565b600085815260208120601f198616915b82811015620003685788860151825594840194600190910190840162000347565b5085821015620003875787850151600019600388901b60f8161c191681555b5050505050600190811b01905550565b6114cb80620003a76000396000f3fe608060405234801561001057600080fd5b506004361061010b5760003560e01c8063715018a6116100a2578063b88d4fde11610071578063b88d4fde1461021b578063c87b56dd1461022e578063e8a3d48514610241578063e985e9c514610249578063f2fde38b1461028557600080fd5b8063715018a6146101e75780638da5cb5b146101ef57806395d89b4114610200578063a22cb4651461020857600080fd5b806323b872dd116100de57806323b872dd1461018d57806342842e0e146101a05780636352211e146101b357806370a08231146101c657600080fd5b806301ffc9a71461011057806306fdde0314610138578063081812fc1461014d578063095ea7b314610178575b600080fd5b61012361011e366004610fde565b610298565b60405190151581526020015b60405180910390f35b6101406102ea565b60405161012f9190611053565b61016061015b366004611066565b61037c565b6040516001600160a01b03909116815260200161012f565b61018b61018636600461109b565b610416565b005b61018b61019b3660046110c5565b61052b565b61018b6101ae3660046110c5565b61055c565b6101606101c1366004611066565b610577565b6101d96101d4366004611101565b6105ee565b60405190815260200161012f565b61018b610675565b6006546001600160a01b0316610160565b6101406106db565b61018b61021636600461111c565b6106ea565b61018b61022936600461116e565b6106f9565b61014061023c366004611066565b610731565b610140610819565b61012361025736600461124a565b6001600160a01b03918216600090815260056020908152604080832093909416825291909152205460ff1690565b61018b610293366004611101565b6108a7565b60006001600160e01b031982166380ac58cd60e01b14806102c957506001600160e01b03198216635b5e139f60e01b145b806102e457506301ffc9a760e01b6001600160e01b03198316145b92915050565b6060600080546102f99061127d565b80601f01602080910402602001604051908101604052809291908181526020018280546103259061127d565b80156103725780601f1061034757610100808354040283529160200191610372565b820191906000526020600020905b81548152906001019060200180831161035557829003601f168201915b5050505050905090565b6000818152600260205260408120546001600160a01b03166103fa5760405162461bcd60e51b815260206004820152602c60248201527f4552433732313a20617070726f76656420717565727920666f72206e6f6e657860448201526b34b9ba32b73a103a37b5b2b760a11b60648201526084015b60405180910390fd5b506000908152600460205260409020546001600160a01b031690565b600061042182610577565b9050806001600160a01b0316836001600160a01b03160361048e5760405162461bcd60e51b815260206004820152602160248201527f4552433732313a20617070726f76616c20746f2063757272656e74206f776e656044820152603960f91b60648201526084016103f1565b336001600160a01b03821614806104aa57506104aa8133610257565b61051c5760405162461bcd60e51b815260206004820152603860248201527f4552433732313a20617070726f76652063616c6c6572206973206e6f74206f7760448201527f6e6572206e6f7220617070726f76656420666f7220616c6c000000000000000060648201526084016103f1565b6105268383610972565b505050565b61053533826109e0565b6105515760405162461bcd60e51b81526004016103f1906112b7565b610526838383610ad7565b610526838383604051806020016040528060008152506106f9565b6000818152600260205260408120546001600160a01b0316806102e45760405162461bcd60e51b815260206004820152602960248201527f4552433732313a206f776e657220717565727920666f72206e6f6e657869737460448201526832b73a103a37b5b2b760b91b60648201526084016103f1565b60006001600160a01b0382166106595760405162461bcd60e51b815260206004820152602a60248201527f4552433732313a2062616c616e636520717565727920666f7220746865207a65604482015269726f206164647265737360b01b60648201526084016103f1565b506001600160a01b031660009081526003602052604090205490565b6006546001600160a01b031633146106cf5760405162461bcd60e51b815260206004820181905260248201527f4f776e61626c653a2063616c6c6572206973206e6f7420746865206f776e657260448201526064016103f1565b6106d96000610c73565b565b6060600180546102f99061127d565b6106f5338383610cc5565b5050565b61070333836109e0565b61071f5760405162461bcd60e51b81526004016103f1906112b7565b61072b84848484610d93565b50505050565b6000818152600260205260409020546060906001600160a01b03166107b05760405162461bcd60e51b815260206004820152602f60248201527f4552433732314d657461646174613a2055524920717565727920666f72206e6f60448201526e3732bc34b9ba32b73a103a37b5b2b760891b60648201526084016103f1565b60006107c760408051602081019091526000815290565b905060008151116107e75760405180602001604052806000815250610812565b806107f184610dc6565b604051602001610802929190611308565b6040516020818303038152906040525b9392505050565b600780546108269061127d565b80601f01602080910402602001604051908101604052809291908181526020018280546108529061127d565b801561089f5780601f106108745761010080835404028352916020019161089f565b820191906000526020600020905b81548152906001019060200180831161088257829003601f168201915b505050505081565b6006546001600160a01b031633146109015760405162461bcd60e51b815260206004820181905260248201527f4f776e61626c653a2063616c6c6572206973206e6f7420746865206f776e657260448201526064016103f1565b6001600160a01b0381166109665760405162461bcd60e51b815260206004820152602660248201527f4f776e61626c653a206e6577206f776e657220697320746865207a65726f206160448201526564647265737360d01b60648201526084016103f1565b61096f81610c73565b50565b600081815260046020526040902080546001600160a01b0319166001600160a01b03841690811790915581906109a782610577565b6001600160a01b03167f8c5be1e5ebec7d5bd14f71427d1e84f3dd0314c0f7b2291e5b200ac8c7c3b92560405160405180910390a45050565b6000818152600260205260408120546001600160a01b0316610a595760405162461bcd60e51b815260206004820152602c60248201527f4552433732313a206f70657261746f7220717565727920666f72206e6f6e657860448201526b34b9ba32b73a103a37b5b2b760a11b60648201526084016103f1565b6000610a6483610577565b9050806001600160a01b0316846001600160a01b03161480610aab57506001600160a01b0380821660009081526005602090815260408083209388168352929052205460ff165b80610acf5750836001600160a01b0316610ac48461037c565b6001600160a01b0316145b949350505050565b826001600160a01b0316610aea82610577565b6001600160a01b031614610b4e5760405162461bcd60e51b815260206004820152602560248201527f4552433732313a207472616e736665722066726f6d20696e636f72726563742060448201526437bbb732b960d91b60648201526084016103f1565b6001600160a01b038216610bb05760405162461bcd60e51b8152602060048201526024808201527f4552433732313a207472616e7366657220746f20746865207a65726f206164646044820152637265737360e01b60648201526084016103f1565b610bbb600082610972565b6001600160a01b0383166000908152600360205260408120805460019290610be490849061134d565b90915550506001600160a01b0382166000908152600360205260408120805460019290610c12908490611364565b909155505060008181526002602052604080822080546001600160a01b0319166001600160a01b0386811691821790925591518493918716917fddf252ad1be2c89b69c2b068fc378daa952ba7f163c4a11628f55a4df523b3ef91a4505050565b600680546001600160a01b038381166001600160a01b0319831681179093556040519116919082907f8be0079c531659141344cd1fd0a4f28419497f9722a3daafe3b4186f6b6457e090600090a35050565b816001600160a01b0316836001600160a01b031603610d265760405162461bcd60e51b815260206004820152601960248201527f4552433732313a20617070726f766520746f2063616c6c65720000000000000060448201526064016103f1565b6001600160a01b03838116600081815260056020908152604080832094871680845294825291829020805460ff191686151590811790915591519182527f17307eab39ab6107e8899845ad3d59bd9653f200f220920489ca2b5937696c31910160405180910390a3505050565b610d9e848484610ad7565b610daa84848484610ec7565b61072b5760405162461bcd60e51b81526004016103f19061137c565b606081600003610ded5750506040805180820190915260018152600360fc1b602082015290565b8160005b8115610e175780610e01816113ce565b9150610e109050600a836113fd565b9150610df1565b60008167ffffffffffffffff811115610e3257610e32611158565b6040519080825280601f01601f191660200182016040528015610e5c576020820181803683370190505b5090505b8415610acf57610e7160018361134d565b9150610e7e600a86611411565b610e89906030611364565b60f81b818381518110610e9e57610e9e611425565b60200101906001600160f81b031916908160001a905350610ec0600a866113fd565b9450610e60565b60006001600160a01b0384163b15610fbd57604051630a85bd0160e11b81526001600160a01b0385169063150b7a0290610f0b90339089908890889060040161143b565b6020604051808303816000875af1925050508015610f46575060408051601f3d908101601f19168201909252610f4391810190611478565b60015b610fa3573d808015610f74576040519150601f19603f3d011682016040523d82523d6000602084013e610f79565b606091505b508051600003610f9b5760405162461bcd60e51b81526004016103f19061137c565b805181602001fd5b6001600160e01b031916630a85bd0160e11b149050610acf565b506001949350505050565b6001600160e01b03198116811461096f57600080fd5b600060208284031215610ff057600080fd5b813561081281610fc8565b60005b83811015611016578181015183820152602001610ffe565b8381111561072b5750506000910152565b6000815180845261103f816020860160208601610ffb565b601f01601f19169290920160200192915050565b6020815260006108126020830184611027565b60006020828403121561107857600080fd5b5035919050565b80356001600160a01b038116811461109657600080fd5b919050565b600080604083850312156110ae57600080fd5b6110b78361107f565b946020939093013593505050565b6000806000606084860312156110da57600080fd5b6110e38461107f565b92506110f16020850161107f565b9150604084013590509250925092565b60006020828403121561111357600080fd5b6108128261107f565b6000806040838503121561112f57600080fd5b6111388361107f565b91506020830135801515811461114d57600080fd5b809150509250929050565b634e487b7160e01b600052604160045260246000fd5b6000806000806080858703121561118457600080fd5b61118d8561107f565b935061119b6020860161107f565b925060408501359150606085013567ffffffffffffffff808211156111bf57600080fd5b818701915087601f8301126111d357600080fd5b8135818111156111e5576111e5611158565b604051601f8201601f19908116603f0116810190838211818310171561120d5761120d611158565b816040528281528a602084870101111561122657600080fd5b82602086016020830137600060208483010152809550505050505092959194509250565b6000806040838503121561125d57600080fd5b6112668361107f565b91506112746020840161107f565b90509250929050565b600181811c9082168061129157607f821691505b6020821081036112b157634e487b7160e01b600052602260045260246000fd5b50919050565b60208082526031908201527f4552433732313a207472616e736665722063616c6c6572206973206e6f74206f6040820152701ddb995c881b9bdc88185c1c1c9bdd9959607a1b606082015260800190565b6000835161131a818460208801610ffb565b83519083019061132e818360208801610ffb565b01949350505050565b634e487b7160e01b600052601160045260246000fd5b60008282101561135f5761135f611337565b500390565b6000821982111561137757611377611337565b500190565b60208082526032908201527f4552433732313a207472616e7366657220746f206e6f6e20455243373231526560408201527131b2b4bb32b91034b6b83632b6b2b73a32b960711b606082015260800190565b6000600182016113e0576113e0611337565b5060010190565b634e487b7160e01b600052601260045260246000fd5b60008261140c5761140c6113e7565b500490565b600082611420576114206113e7565b500690565b634e487b7160e01b600052603260045260246000fd5b6001600160a01b038581168252841660208201526040810183905260806060820181905260009061146e90830184611027565b9695505050505050565b60006020828403121561148a57600080fd5b815161081281610fc856fea2646970667358221220546d146fb9f7bdf5de28de91fef7b1f5afd29651c7ae3acbbd6837bfd7500f0264736f6c634300080f00336080604052600180805560006002556003805460ff1916909117905534801561002757600080fd5b506101e1806100376000396000f3fe608060405234801561001057600080fd5b50600436106100415760003560e01c80631ffc735d14610046578063681fe70c1461005b578063957908d114610076575b600080fd5b61005961005436600461016c565b61008c565b005b60035460ff1660405190151581526020015b60405180910390f35b61007e6100c2565b60405190815260200161006d565b60016002600082825461009f9190610185565b90915550506003805460ff19169055600254600090815260208190526040902055565b600060015460025410156101125760405162461bcd60e51b81526020600482015260136024820152722a34329038bab2bab29034b99032b6b83a3c9760691b604482015260640160405180910390fd5b5060015460008181526020819052604090205460025490910361013d576003805460ff191660011790555b6001805460009081526020819052604081208190558154829190610162908390610185565b9250508190555090565b60006020828403121561017e57600080fd5b5035919050565b600082198211156101a657634e487b7160e01b600052601160045260246000fd5b50019056fea26469706673582212209550a29885e1a5b57b5e05970e15a4c61ccc07e5898732b56ebd7032f6d5779f64736f6c634300080f0033608060405234801561001057600080fd5b5061019b806100206000396000f3fe608060405234801561001057600080fd5b50600436106100415760003560e01c8063681fe70c14610046578063959ac4841461005d578063a4ece52c1461009f575b600080fd5b600054604051901581526020015b60405180910390f35b61009d61006b366004610111565b600080546001810182559080527f290decd9548b62a8d60345a988386fc84ba6bc95484008f6362f93160ef3e5630155565b005b6100a76100b5565b604051908152602001610054565b6000805481906100c79060019061012a565b815481106100d7576100d761014f565b600091825260208220015481549092506100f39060019061012a565b815481106101035761010361014f565b600091825260208220015590565b60006020828403121561012357600080fd5b5035919050565b60008282101561014a57634e487b7160e01b600052601160045260246000fd5b500390565b634e487b7160e01b600052603260045260246000fdfea2646970667358221220e90cd6034c5b40a712f48745b9248d222fd56382fe4939a3018976f15d01a85764736f6c634300080f0033a264697066735822122058a11236cd3bf1b7500707156414cdce2ae59b91433effc799650be708e8f4ee64736f6c634300080f0033",
  "linkReferences": {},
  "deployedLinkReferences": {}
}