{
  "_format": "hh-sol-artifact-1",
  "contractName": "CopyrightToken",
  "sourceName": "src/backend/contracts/CopyrightToken.sol",
  "abi": [
    {
      "inputs": [],
      "stateMutability": "nonpayable",
      "type": "constructor"
    },
    {
      "anonymous": false,
      "inputs": [
        {
          "components": [
            {
              "internalType": "uint256",
              "name": "tokenWeight",
              "type": "uint256"
            },
            {
              "internalType": "uint256",
              "name": "timeStamp",
              "type": "uint256"
            },
            {
              "internalType": "bool",
              "name": "isBlacklisted",
              "type": "bool"
            },
            {
              "components": [
                {
                  "internalType": "uint256",
                  "name": "to",
                  "type": "uint256"
                },
                {
                  "internalType": "uint256",
                  "name": "weight",
                  "type": "uint256"
                }
              ],
              "internalType": "struct ICopyrightGraph.Edge[]",
              "name": "edges",
              "type": "tuple[]"
            },
            {
              "internalType": "uint256",
              "name": "numberOfTokensBehind",
              "type": "uint256"
            }
          ],
          "indexed": false,
          "internalType": "struct ICopyrightGraph.Token",
          "name": "token",
          "type": "tuple"
        }
      ],
      "name": "AddTokenToGraph",
      "type": "event"
    },
    {
      "anonymous": false,
      "inputs": [
        {
          "indexed": true,
          "internalType": "address",
          "name": "owner",
          "type": "address"
        },
        {
          "indexed": true,
          "internalType": "address",
          "name": "approved",
          "type": "address"
        },
        {
          "indexed": true,
          "internalType": "uint256",
          "name": "tokenId",
          "type": "uint256"
        }
      ],
      "name": "Approval",
      "type": "event"
    },
    {
      "anonymous": false,
      "inputs": [
        {
          "indexed": true,
          "internalType": "address",
          "name": "owner",
          "type": "address"
        },
        {
          "indexed": true,
          "internalType": "address",
          "name": "operator",
          "type": "address"
        },
        {
          "indexed": false,
          "internalType": "bool",
          "name": "approved",
          "type": "bool"
        }
      ],
      "name": "ApprovalForAll",
      "type": "event"
    },
    {
      "anonymous": false,
      "inputs": [
        {
          "indexed": false,
          "internalType": "uint256",
          "name": "id",
          "type": "uint256"
        },
        {
          "indexed": false,
          "internalType": "uint256",
          "name": "newWeight",
          "type": "uint256"
        }
      ],
      "name": "ChangeTokenWeight",
      "type": "event"
    },
    {
      "anonymous": false,
      "inputs": [
        {
          "indexed": false,
          "internalType": "uint256",
          "name": "id",
          "type": "uint256"
        },
        {
          "indexed": false,
          "internalType": "bool",
          "name": "isBlacklisted",
          "type": "bool"
        }
      ],
      "name": "TokenBlacklisted",
      "type": "event"
    },
    {
      "anonymous": false,
      "inputs": [
        {
          "indexed": true,
          "internalType": "address",
          "name": "from",
          "type": "address"
        },
        {
          "indexed": true,
          "internalType": "address",
          "name": "to",
          "type": "address"
        },
        {
          "indexed": true,
          "internalType": "uint256",
          "name": "tokenId",
          "type": "uint256"
        }
      ],
      "name": "Transfer",
      "type": "event"
    },
    {
      "inputs": [
        {
          "internalType": "address",
          "name": "to",
          "type": "address"
        },
        {
          "internalType": "uint256",
          "name": "tokenId",
          "type": "uint256"
        }
      ],
      "name": "approve",
      "outputs": [],
      "stateMutability": "nonpayable",
      "type": "function"
    },
    {
      "inputs": [
        {
          "internalType": "address",
          "name": "owner",
          "type": "address"
        }
      ],
      "name": "balanceOf",
      "outputs": [
        {
          "internalType": "uint256",
          "name": "",
          "type": "uint256"
        }
      ],
      "stateMutability": "view",
      "type": "function"
    },
    {
      "inputs": [
        {
          "internalType": "uint256",
          "name": "id",
          "type": "uint256"
        },
        {
          "internalType": "bool",
          "name": "isBlacklisted",
          "type": "bool"
        }
      ],
      "name": "blacklistToken",
      "outputs": [],
      "stateMutability": "nonpayable",
      "type": "function"
    },
    {
      "inputs": [
        {
          "internalType": "uint256",
          "name": "id",
          "type": "uint256"
        },
        {
          "internalType": "bool",
          "name": "permission",
          "type": "bool"
        }
      ],
      "name": "changeAdoptionPermission",
      "outputs": [],
      "stateMutability": "nonpayable",
      "type": "function"
    },
    {
      "inputs": [
        {
          "internalType": "uint256",
          "name": "id",
          "type": "uint256"
        },
        {
          "internalType": "bool",
          "name": "permission",
          "type": "bool"
        }
      ],
      "name": "changeDistributionPermission",
      "outputs": [],
      "stateMutability": "nonpayable",
      "type": "function"
    },
    {
      "inputs": [
        {
          "internalType": "uint256",
          "name": "id",
          "type": "uint256"
        },
        {
          "internalType": "uint256",
          "name": "newWeight",
          "type": "uint256"
        }
      ],
      "name": "changeTokenWeight",
      "outputs": [],
      "stateMutability": "nonpayable",
      "type": "function"
    },
    {
      "inputs": [
        {
          "internalType": "uint256",
          "name": "id",
          "type": "uint256"
        }
      ],
      "name": "deposit",
      "outputs": [],
      "stateMutability": "payable",
      "type": "function"
    },
    {
      "inputs": [
        {
          "internalType": "uint256",
          "name": "id",
          "type": "uint256"
        }
      ],
      "name": "distributeCopies",
      "outputs": [
        {
          "internalType": "address",
          "name": "",
          "type": "address"
        }
      ],
      "stateMutability": "nonpayable",
      "type": "function"
    },
    {
      "inputs": [
        {
          "internalType": "uint256",
          "name": "id",
          "type": "uint256"
        }
      ],
      "name": "doAllowAdoption",
      "outputs": [
        {
          "internalType": "bool",
          "name": "",
          "type": "bool"
        }
      ],
      "stateMutability": "view",
      "type": "function"
    },
    {
      "inputs": [
        {
          "internalType": "uint256",
          "name": "id",
          "type": "uint256"
        }
      ],
      "name": "doAllowDistribution",
      "outputs": [
        {
          "internalType": "bool",
          "name": "",
          "type": "bool"
        }
      ],
      "stateMutability": "view",
      "type": "function"
    },
    {
      "inputs": [
        {
          "internalType": "uint256",
          "name": "tokenId",
          "type": "uint256"
        }
      ],
      "name": "getApproved",
      "outputs": [
        {
          "internalType": "address",
          "name": "",
          "type": "address"
        }
      ],
      "stateMutability": "view",
      "type": "function"
    },
    {
      "inputs": [
        {
          "internalType": "uint256",
          "name": "id",
          "type": "uint256"
        }
      ],
      "name": "getDistributionToken",
      "outputs": [
        {
          "internalType": "contract ERC721",
          "name": "",
          "type": "address"
        }
      ],
      "stateMutability": "view",
      "type": "function"
    },
    {
      "inputs": [
        {
          "internalType": "uint256",
          "name": "id",
          "type": "uint256"
        }
      ],
      "name": "getToken",
      "outputs": [
        {
          "components": [
            {
              "internalType": "uint256",
              "name": "tokenWeight",
              "type": "uint256"
            },
            {
              "internalType": "uint256",
              "name": "timeStamp",
              "type": "uint256"
            },
            {
              "internalType": "bool",
              "name": "isBlacklisted",
              "type": "bool"
            },
            {
              "components": [
                {
                  "internalType": "uint256",
                  "name": "to",
                  "type": "uint256"
                },
                {
                  "internalType": "uint256",
                  "name": "weight",
                  "type": "uint256"
                }
              ],
              "internalType": "struct ICopyrightGraph.Edge[]",
              "name": "edges",
              "type": "tuple[]"
            },
            {
              "internalType": "uint256",
              "name": "numberOfTokensBehind",
              "type": "uint256"
            }
          ],
          "internalType": "struct ICopyrightGraph.Token",
          "name": "",
          "type": "tuple"
        }
      ],
      "stateMutability": "view",
      "type": "function"
    },
    {
      "inputs": [
        {
          "internalType": "uint256[]",
          "name": "parentIds",
          "type": "uint256[]"
        },
        {
          "internalType": "uint256[]",
          "name": "parentWeights",
          "type": "uint256[]"
        },
        {
          "internalType": "uint256",
          "name": "id",
          "type": "uint256"
        }
      ],
      "name": "insertEdges",
      "outputs": [],
      "stateMutability": "nonpayable",
      "type": "function"
    },
    {
      "inputs": [
        {
          "internalType": "uint256[]",
          "name": "parentIds",
          "type": "uint256[]"
        },
        {
          "internalType": "uint256[]",
          "name": "parentWeights",
          "type": "uint256[]"
        },
        {
          "internalType": "uint256",
          "name": "id",
          "type": "uint256"
        },
        {
          "internalType": "uint256",
          "name": "weight",
          "type": "uint256"
        }
      ],
      "name": "insertToken",
      "outputs": [],
      "stateMutability": "nonpayable",
      "type": "function"
    },
    {
      "inputs": [
        {
          "internalType": "address",
          "name": "owner",
          "type": "address"
        },
        {
          "internalType": "address",
          "name": "operator",
          "type": "address"
        }
      ],
      "name": "isApprovedForAll",
      "outputs": [
        {
          "internalType": "bool",
          "name": "",
          "type": "bool"
        }
      ],
      "stateMutability": "view",
      "type": "function"
    },
    {
      "inputs": [
        {
          "internalType": "uint256",
          "name": "id",
          "type": "uint256"
        },
        {
          "internalType": "address",
          "name": "nftAddress",
          "type": "address"
        }
      ],
      "name": "isDistributionOf",
      "outputs": [
        {
          "internalType": "bool",
          "name": "",
          "type": "bool"
        }
      ],
      "stateMutability": "view",
      "type": "function"
    },
    {
      "inputs": [
        {
          "internalType": "uint256",
          "name": "id",
          "type": "uint256"
        }
      ],
      "name": "isIndependent",
      "outputs": [
        {
          "internalType": "bool",
          "name": "",
          "type": "bool"
        }
      ],
      "stateMutability": "view",
      "type": "function"
    },
    {
      "inputs": [
        {
          "internalType": "uint256[]",
          "name": "parentIds",
          "type": "uint256[]"
        },
        {
          "internalType": "uint256",
          "name": "tokenWeight",
          "type": "uint256"
        }
      ],
      "name": "mint",
      "outputs": [],
      "stateMutability": "nonpayable",
      "type": "function"
    },
    {
      "inputs": [],
      "name": "name",
      "outputs": [
        {
          "internalType": "string",
          "name": "",
          "type": "string"
        }
      ],
      "stateMutability": "view",
      "type": "function"
    },
    {
      "inputs": [
        {
          "internalType": "uint256",
          "name": "tokenId",
          "type": "uint256"
        }
      ],
      "name": "ownerOf",
      "outputs": [
        {
          "internalType": "address",
          "name": "",
          "type": "address"
        }
      ],
      "stateMutability": "view",
      "type": "function"
    },
    {
      "inputs": [
        {
          "components": [
            {
              "internalType": "uint256",
              "name": "tokenWeight",
              "type": "uint256"
            },
            {
              "internalType": "uint256",
              "name": "timeStamp",
              "type": "uint256"
            },
            {
              "internalType": "bool",
              "name": "isBlacklisted",
              "type": "bool"
            },
            {
              "components": [
                {
                  "internalType": "uint256",
                  "name": "to",
                  "type": "uint256"
                },
                {
                  "internalType": "uint256",
                  "name": "weight",
                  "type": "uint256"
                }
              ],
              "internalType": "struct ICopyrightGraph.Edge[]",
              "name": "edges",
              "type": "tuple[]"
            },
            {
              "internalType": "uint256",
              "name": "numberOfTokensBehind",
              "type": "uint256"
            }
          ],
          "internalType": "struct ICopyrightGraph.Token",
          "name": "token",
          "type": "tuple"
        }
      ],
      "name": "returnId",
      "outputs": [
        {
          "internalType": "uint256",
          "name": "id",
          "type": "uint256"
        }
      ],
      "stateMutability": "pure",
      "type": "function"
    },
    {
      "inputs": [
        {
          "internalType": "uint256",
          "name": "id",
          "type": "uint256"
        }
      ],
      "name": "returnIsBlacklisted",
      "outputs": [
        {
          "internalType": "bool",
          "name": "isBlacklisted",
          "type": "bool"
        }
      ],
      "stateMutability": "view",
      "type": "function"
    },
    {
      "inputs": [],
      "name": "returnLeafTokenIDs",
      "outputs": [
        {
          "internalType": "uint256[]",
          "name": "leafTokenIDs",
          "type": "uint256[]"
        }
      ],
      "stateMutability": "view",
      "type": "function"
    },
    {
      "inputs": [
        {
          "internalType": "uint256",
          "name": "id",
          "type": "uint256"
        }
      ],
      "name": "returnTime",
      "outputs": [
        {
          "internalType": "uint256",
          "name": "timeStamp",
          "type": "uint256"
        }
      ],
      "stateMutability": "view",
      "type": "function"
    },
    {
      "inputs": [
        {
          "internalType": "uint256",
          "name": "id",
          "type": "uint256"
        }
      ],
      "name": "returnTokenWeight",
      "outputs": [
        {
          "internalType": "uint256",
          "name": "weight",
          "type": "uint256"
        }
      ],
      "stateMutability": "view",
      "type": "function"
    },
    {
      "inputs": [
        {
          "internalType": "address",
          "name": "from",
          "type": "address"
        },
        {
          "internalType": "address",
          "name": "to",
          "type": "address"
        },
        {
          "internalType": "uint256",
          "name": "tokenId",
          "type": "uint256"
        }
      ],
      "name": "safeTransferFrom",
      "outputs": [],
      "stateMutability": "nonpayable",
      "type": "function"
    },
    {
      "inputs": [
        {
          "internalType": "address",
          "name": "from",
          "type": "address"
        },
        {
          "internalType": "address",
          "name": "to",
          "type": "address"
        },
        {
          "internalType": "uint256",
          "name": "tokenId",
          "type": "uint256"
        },
        {
          "internalType": "bytes",
          "name": "_data",
          "type": "bytes"
        }
      ],
      "name": "safeTransferFrom",
      "outputs": [],
      "stateMutability": "nonpayable",
      "type": "function"
    },
    {
      "inputs": [
        {
          "internalType": "address",
          "name": "operator",
          "type": "address"
        },
        {
          "internalType": "bool",
          "name": "approved",
          "type": "bool"
        }
      ],
      "name": "setApprovalForAll",
      "outputs": [],
      "stateMutability": "nonpayable",
      "type": "function"
    },
    {
      "inputs": [
        {
          "internalType": "uint256",
          "name": "id",
          "type": "uint256"
        },
        {
          "internalType": "string",
          "name": "name",
          "type": "string"
        },
        {
          "internalType": "string",
          "name": "symbol",
          "type": "string"
        }
      ],
      "name": "setDistributionInfo",
      "outputs": [],
      "stateMutability": "nonpayable",
      "type": "function"
    },
    {
      "inputs": [
        {
          "internalType": "bytes4",
          "name": "interfaceId",
          "type": "bytes4"
        }
      ],
      "name": "supportsInterface",
      "outputs": [
        {
          "internalType": "bool",
          "name": "",
          "type": "bool"
        }
      ],
      "stateMutability": "view",
      "type": "function"
    },
    {
      "inputs": [],
      "name": "symbol",
      "outputs": [
        {
          "internalType": "string",
          "name": "",
          "type": "string"
        }
      ],
      "stateMutability": "view",
      "type": "function"
    },
    {
      "inputs": [],
      "name": "tokenCount",
      "outputs": [
        {
          "internalType": "uint256",
          "name": "",
          "type": "uint256"
        }
      ],
      "stateMutability": "view",
      "type": "function"
    },
    {
      "inputs": [
        {
          "internalType": "uint256",
          "name": "id",
          "type": "uint256"
        }
      ],
      "name": "tokenExists",
      "outputs": [
        {
          "internalType": "bool",
          "name": "exists",
          "type": "bool"
        }
      ],
      "stateMutability": "view",
      "type": "function"
    },
    {
      "inputs": [
        {
          "internalType": "uint256",
          "name": "tokenId",
          "type": "uint256"
        }
      ],
      "name": "tokenURI",
      "outputs": [
        {
          "internalType": "string",
          "name": "",
          "type": "string"
        }
      ],
      "stateMutability": "view",
      "type": "function"
    },
    {
      "inputs": [
        {
          "internalType": "address",
          "name": "from",
          "type": "address"
        },
        {
          "internalType": "address",
          "name": "to",
          "type": "address"
        },
        {
          "internalType": "uint256",
          "name": "tokenId",
          "type": "uint256"
        }
      ],
      "name": "transferFrom",
      "outputs": [],
      "stateMutability": "nonpayable",
      "type": "function"
    }
  ],
  "bytecode": "0x60806040523480156200001157600080fd5b506040518060400160405280601481526020017f5465737420436f7079726967687420546f6b656e0000000000000000000000008152506040518060400160405280600381526020017f544354000000000000000000000000000000000000000000000000000000000081525081600090816200008f91906200034e565b508060019081620000a191906200034e565b50505060076000908060018154018082558091505060019003906000526020600020016000909190919091505562000435565b600081519050919050565b7f4e487b7100000000000000000000000000000000000000000000000000000000600052604160045260246000fd5b7f4e487b7100000000000000000000000000000000000000000000000000000000600052602260045260246000fd5b600060028204905060018216806200015657607f821691505b6020821081036200016c576200016b6200010e565b5b50919050565b60008190508160005260206000209050919050565b60006020601f8301049050919050565b600082821b905092915050565b600060088302620001d67fffffffffffffffffffffffffffffffffffffffffffffffffffffffffffffffff8262000197565b620001e2868362000197565b95508019841693508086168417925050509392505050565b6000819050919050565b6000819050919050565b60006200022f620002296200022384620001fa565b62000204565b620001fa565b9050919050565b6000819050919050565b6200024b836200020e565b620002636200025a8262000236565b848454620001a4565b825550505050565b600090565b6200027a6200026b565b6200028781848462000240565b505050565b5b81811015620002af57620002a360008262000270565b6001810190506200028d565b5050565b601f821115620002fe57620002c88162000172565b620002d38462000187565b81016020851015620002e3578190505b620002fb620002f28562000187565b8301826200028c565b50505b505050565b600082821c905092915050565b6000620003236000198460080262000303565b1980831691505092915050565b60006200033e838362000310565b9150826002028217905092915050565b6200035982620000d4565b67ffffffffffffffff811115620003755762000374620000df565b5b6200038182546200013d565b6200038e828285620002b3565b600060209050601f831160018114620003c65760008415620003b1578287015190505b620003bd858262000330565b8655506200042d565b601f198416620003d68662000172565b60005b828110156200040057848901518255600182019150602085019450602081019050620003d9565b868310156200042057848901516200041c601f89168262000310565b8355505b6001600288020188555050505b505050505050565b61790a80620004456000396000f3fe608060405260043610620002415760003560e01c80636352211e11620001335780639f181b5e11620000af578063beae49421162000079578063beae4942146200091c578063c87b56dd146200094a578063ce8b4afd146200098e578063e4b50cb814620009bc578063e985e9c51462000a005762000241565b80639f181b5e1462000870578063a22cb46514620008a0578063b6b55f2514620008ce578063b88d4fde14620008ee5762000241565b806375175d9811620000fd57806375175d981462000746578063866fe41a146200078a57806395d89b4114620007b8578063981ad46814620007e85780639f0fcc11146200082c5762000241565b80636352211e146200064c5780636831dc2814620006905780636e2a00ee14620006be57806370a0823114620007025762000241565b806316b407a811620001c357806342842e0e116200018d57806342842e0e146200053a578063465365b914620005685780635a7a9cde14620005965780635b236f4d14620005c45780635e24391514620006085762000241565b806316b407a8146200045457806323b872dd14620004985780632657322414620004c6578063285a37e414620004f65762000241565b8063081812fc1162000211578063081812fc146200032c578063095ea7b314620003705780630ab71fb1146200039e5780630b8e12fc14620003e25780630bd0624614620004265762000241565b8062923f9e146200024657806301ffc9a7146200028a57806306fdde0314620002ce578063076fcc1f14620002fe575b600080fd5b3480156200025357600080fd5b506200027260048036038101906200026c919062002bb6565b62000a44565b60405162000281919062002c05565b60405180910390f35b3480156200029757600080fd5b50620002b66004803603810190620002b0919062002c7f565b62000a8e565b604051620002c5919062002c05565b60405180910390f35b348015620002db57600080fd5b50620002e662000b74565b604051620002f5919062002d55565b60405180910390f35b3480156200030b57600080fd5b506200032a600480360381019062000324919062002d79565b62000c0e565b005b3480156200033957600080fd5b5062000358600480360381019062000352919062002bb6565b62000c56565b60405162000367919062002e05565b60405180910390f35b3480156200037d57600080fd5b506200039c600480360381019062000396919062002e53565b62000ce0565b005b348015620003ab57600080fd5b50620003ca6004803603810190620003c491906200314c565b62000e08565b604051620003d99190620031ae565b60405180910390f35b348015620003ef57600080fd5b506200040e600480360381019062000408919062002bb6565b62000e52565b6040516200041d9190620031ae565b60405180910390f35b3480156200043357600080fd5b506200045260048036038101906200044c9190620032a1565b62000e9c565b005b3480156200046157600080fd5b506200048060048036038101906200047a919062002bb6565b6200126a565b6040516200048f9190620031ae565b60405180910390f35b348015620004a557600080fd5b50620004c46004803603810190620004be919062003307565b620012b4565b005b348015620004d357600080fd5b50620004de6200131d565b604051620004ed919062003431565b60405180910390f35b3480156200050357600080fd5b506200052260048036038101906200051c919062003455565b62001377565b60405162000531919062002c05565b60405180910390f35b3480156200054757600080fd5b5062000566600480360381019062000560919062003307565b620013e3565b005b3480156200057557600080fd5b506200059460048036038101906200058e91906200349c565b62001405565b005b348015620005a357600080fd5b50620005c26004803603810190620005bc9190620035ab565b620014af565b005b348015620005d157600080fd5b50620005f06004803603810190620005ea919062002bb6565b62001575565b604051620005ff919062002c05565b60405180910390f35b3480156200061557600080fd5b506200063460048036038101906200062e919062002bb6565b6200159f565b60405162000643919062002c05565b60405180910390f35b3480156200065957600080fd5b5062000678600480360381019062000672919062002bb6565b620015c9565b60405162000687919062002e05565b60405180910390f35b3480156200069d57600080fd5b50620006bc6004803603810190620006b691906200349c565b6200167d565b005b348015620006cb57600080fd5b50620006ea6004803603810190620006e4919062002bb6565b62001727565b604051620006f9919062002e05565b60405180910390f35b3480156200070f57600080fd5b506200072e600480360381019062000728919062003645565b620018c5565b6040516200073d9190620031ae565b60405180910390f35b3480156200075357600080fd5b506200077260048036038101906200076c919062002bb6565b6200197f565b604051620007819190620036e2565b60405180910390f35b3480156200079757600080fd5b50620007b66004803603810190620007b09190620036ff565b620019bc565b005b348015620007c557600080fd5b50620007d062001a06565b604051620007df919062002d55565b60405180910390f35b348015620007f557600080fd5b506200081460048036038101906200080e919062002bb6565b62001aa0565b60405162000823919062002c05565b60405180910390f35b3480156200083957600080fd5b5062000858600480360381019062000852919062002bb6565b62001aea565b60405162000867919062002c05565b60405180910390f35b3480156200087d57600080fd5b506200088862001b09565b604051620008979190620031ae565b60405180910390f35b348015620008ad57600080fd5b50620008cc6004803603810190620008c69190620037af565b62001b0f565b005b620008ec6004803603810190620008e6919062002bb6565b62001b29565b005b348015620008fb57600080fd5b506200091a6004803603810190620009149190620038aa565b62001b79565b005b3480156200092957600080fd5b506200094860048036038101906200094291906200393b565b62001be4565b005b3480156200095757600080fd5b5062000976600480360381019062000970919062002bb6565b62001c2d565b60405162000985919062002d55565b60405180910390f35b3480156200099b57600080fd5b50620009ba6004803603810190620009b491906200349c565b62001ce1565b005b348015620009c957600080fd5b50620009e86004803603810190620009e2919062002bb6565b62001d29565b604051620009f7919062003b56565b60405180910390f35b34801562000a0d57600080fd5b5062000a2c600480360381019062000a26919062003b7a565b62001e06565b60405162000a3b919062002c05565b60405180910390f35b60008062000a89576040517f08c379a000000000000000000000000000000000000000000000000000000000815260040162000a809062003c11565b60405180910390fd5b919050565b60007f80ac58cd000000000000000000000000000000000000000000000000000000007bffffffffffffffffffffffffffffffffffffffffffffffffffffffff1916827bffffffffffffffffffffffffffffffffffffffffffffffffffffffff1916148062000b5a57507f5b5e139f000000000000000000000000000000000000000000000000000000007bffffffffffffffffffffffffffffffffffffffffffffffffffffffff1916827bffffffffffffffffffffffffffffffffffffffffffffffffffffffff1916145b8062000b6d575062000b6c8262001e9a565b5b9050919050565b60606000805462000b859062003c62565b80601f016020809104026020016040519081016040528092919081815260200182805462000bb39062003c62565b801562000c045780601f1062000bd85761010080835404028352916020019162000c04565b820191906000526020600020905b81548152906001019060200180831162000be657829003601f168201915b5050505050905090565b600062000c52576040517f08c379a000000000000000000000000000000000000000000000000000000000815260040162000c499062003c11565b60405180910390fd5b5050565b600062000c638262001f04565b62000ca5576040517f08c379a000000000000000000000000000000000000000000000000000000000815260040162000c9c9062003d0d565b60405180910390fd5b6004600083815260200190815260200160002060009054906101000a900473ffffffffffffffffffffffffffffffffffffffff169050919050565b600062000ced82620015c9565b90508073ffffffffffffffffffffffffffffffffffffffff168373ffffffffffffffffffffffffffffffffffffffff160362000d60576040517f08c379a000000000000000000000000000000000000000000000000000000000815260040162000d579062003da5565b60405180910390fd5b8073ffffffffffffffffffffffffffffffffffffffff1662000d8162001f70565b73ffffffffffffffffffffffffffffffffffffffff16148062000db5575062000db48162000dae62001f70565b62001e06565b5b62000df7576040517f08c379a000000000000000000000000000000000000000000000000000000000815260040162000dee9062003e3d565b60405180910390fd5b62000e03838362001f78565b505050565b60008062000e4d576040517f08c379a000000000000000000000000000000000000000000000000000000000815260040162000e449062003c11565b60405180910390fd5b919050565b60008062000e97576040517f08c379a000000000000000000000000000000000000000000000000000000000815260040162000e8e9062003c11565b60405180910390fd5b919050565b600060066000815462000eaf9062003e8e565b919050819055905062000ecc62000ec562001f70565b8262002033565b81600960008381526020019081526020016000206000018190555042600960008381526020019081526020016000206001018190555060005b83518110156200107257600084828151811062000f275762000f2662003edb565b5b60200260200101510362000f72576040517f08c379a000000000000000000000000000000000000000000000000000000000815260040162000f699062003f80565b60405180910390fd5b62000f9a84828151811062000f8c5762000f8b62003edb565b5b602002602001015162001f04565b62000fdc576040517f08c379a000000000000000000000000000000000000000000000000000000000815260040162000fd39062003ff2565b60405180910390fd5b600b600085838151811062000ff65762000ff562003edb565b5b6020026020010151815260200190815260200160002060009054906101000a900460ff166200105c576040517f08c379a000000000000000000000000000000000000000000000000000000000815260040162001053906200408a565b60405180910390fd5b8080620010699062003e8e565b91505062000f05565b50600083511115620012105760005b835181101562001209576000848281518110620010a357620010a262003edb565b5b6020026020010151905060006040518060400160405280838152602001600960008581526020019081526020016000206000015481525090506009600060065481526020019081526020016000206003018190806001815401808255809150506001900390600052602060002090600202016000909190919091506000820151816000015560208201518160010155505060096000600654815260200190815260200160002060040160008154809291906200115f9062003e8e565b91905055506000600860008481526020019081526020016000205414620011f157600060086000848152602001908152602001600020549050600060086000858152602001908152602001600020819055508060086000878152602001908152602001600020819055508460078281548110620011e157620011e062003edb565b5b9060005260206000200181905550505b50508080620012009062003e8e565b91505062001081565b5062001265565b600781908060018154018082558091505060019003906000526020600020016000909190919091505560016007805490506200124d9190620040ac565b60086000838152602001908152602001600020819055505b505050565b600080620012af576040517f08c379a0000000000000000000000000000000000000000000000000000000008152600401620012a69062003c11565b60405180910390fd5b919050565b620012c9620012c262001f70565b8262002053565b6200130b576040517f08c379a000000000000000000000000000000000000000000000000000000000815260040162001302906200415d565b60405180910390fd5b620013188383836200213e565b505050565b606060078054806020026020016040519081016040528092919081815260200182805480156200136d57602002820191906000526020600020905b81548152602001906001019080831162001358575b5050505050905090565b60008173ffffffffffffffffffffffffffffffffffffffff16600c600085815260200190815260200160002060009054906101000a900473ffffffffffffffffffffffffffffffffffffffff1673ffffffffffffffffffffffffffffffffffffffff1614905092915050565b620014008383836040518060200160405280600081525062001b79565b505050565b3373ffffffffffffffffffffffffffffffffffffffff166200142783620015c9565b73ffffffffffffffffffffffffffffffffffffffff161462001480576040517f08c379a00000000000000000000000000000000000000000000000000000000081526004016200147790620041f5565b60405180910390fd5b80600b600084815260200190815260200160002060006101000a81548160ff0219169083151502179055505050565b3373ffffffffffffffffffffffffffffffffffffffff16620014d184620015c9565b73ffffffffffffffffffffffffffffffffffffffff16146200152a576040517f08c379a000000000000000000000000000000000000000000000000000000000815260040162001521906200428d565b60405180910390fd5b81600d600085815260200190815260200160002090816200154c919062004477565b5080600e600085815260200190815260200160002090816200156f919062004477565b50505050565b6000600b600083815260200190815260200160002060009054906101000a900460ff169050919050565b6000600a600083815260200190815260200160002060009054906101000a900460ff169050919050565b6000806002600084815260200190815260200160002060009054906101000a900473ffffffffffffffffffffffffffffffffffffffff169050600073ffffffffffffffffffffffffffffffffffffffff168173ffffffffffffffffffffffffffffffffffffffff160362001674576040517f08c379a00000000000000000000000000000000000000000000000000000000081526004016200166b90620045d4565b60405180910390fd5b80915050919050565b3373ffffffffffffffffffffffffffffffffffffffff166200169f83620015c9565b73ffffffffffffffffffffffffffffffffffffffff1614620016f8576040517f08c379a0000000000000000000000000000000000000000000000000000000008152600401620016ef90620041f5565b60405180910390fd5b80600a600084815260200190815260200160002060006101000a81548160ff0219169083151502179055505050565b6000600a600083815260200190815260200160002060009054906101000a900460ff166200178c576040517f08c379a000000000000000000000000000000000000000000000000000000000815260040162001783906200466c565b60405180910390fd5b3373ffffffffffffffffffffffffffffffffffffffff16620017ae83620015c9565b73ffffffffffffffffffffffffffffffffffffffff161462001807576040517f08c379a0000000000000000000000000000000000000000000000000000000008152600401620017fe906200428d565b60405180910390fd5b6000600d6000848152602001908152602001600020600e60008581526020019081526020016000206040516200183d9062002b28565b6200184a9291906200471e565b604051809103906000f08015801562001867573d6000803e3d6000fd5b50905080600c600085815260200190815260200160002060006101000a81548173ffffffffffffffffffffffffffffffffffffffff021916908373ffffffffffffffffffffffffffffffffffffffff16021790555080915050919050565b60008073ffffffffffffffffffffffffffffffffffffffff168273ffffffffffffffffffffffffffffffffffffffff160362001938576040517f08c379a00000000000000000000000000000000000000000000000000000000081526004016200192f90620047cf565b60405180910390fd5b600360008373ffffffffffffffffffffffffffffffffffffffff1673ffffffffffffffffffffffffffffffffffffffff168152602001908152602001600020549050919050565b6000600c600083815260200190815260200160002060009054906101000a900473ffffffffffffffffffffffffffffffffffffffff169050919050565b600062001a00576040517f08c379a0000000000000000000000000000000000000000000000000000000008152600401620019f79062003c11565b60405180910390fd5b50505050565b60606001805462001a179062003c62565b80601f016020809104026020016040519081016040528092919081815260200182805462001a459062003c62565b801562001a965780601f1062001a6a5761010080835404028352916020019162001a96565b820191906000526020600020905b81548152906001019060200180831162001a7857829003601f168201915b5050505050905090565b60008062001ae5576040517f08c379a000000000000000000000000000000000000000000000000000000000815260040162001adc9062003c11565b60405180910390fd5b919050565b6000806008600084815260200190815260200160002054119050919050565b60065481565b62001b2562001b1d62001f70565b8383620023b6565b5050565b62001b348162001f04565b62001b76576040517f08c379a000000000000000000000000000000000000000000000000000000000815260040162001b6d9062004867565b60405180910390fd5b50565b62001b8e62001b8762001f70565b8362002053565b62001bd0576040517f08c379a000000000000000000000000000000000000000000000000000000000815260040162001bc7906200415d565b60405180910390fd5b62001bde8484848462002527565b50505050565b600062001c28576040517f08c379a000000000000000000000000000000000000000000000000000000000815260040162001c1f9062003c11565b60405180910390fd5b505050565b606062001c3a8262001f04565b62001c7c576040517f08c379a000000000000000000000000000000000000000000000000000000000815260040162001c7390620048ff565b60405180910390fd5b600062001c886200258a565b9050600081511162001caa576040518060200160405280600081525062001cd9565b8062001cb684620025a1565b60405160200162001cc992919062004963565b6040516020818303038152906040525b915050919050565b600062001d25576040517f08c379a000000000000000000000000000000000000000000000000000000000815260040162001d1c9062003c11565b60405180910390fd5b5050565b62001d3362002b36565b600960008381526020019081526020016000206040518060a001604052908160008201548152602001600182015481526020016002820160009054906101000a900460ff1615151515815260200160038201805480602002602001604051908101604052809291908181526020016000905b8282101562001ded5783829060005260206000209060020201604051806040016040529081600082015481526020016001820154815250508152602001906001019062001da5565b5050505081526020016004820154815250509050919050565b6000600560008473ffffffffffffffffffffffffffffffffffffffff1673ffffffffffffffffffffffffffffffffffffffff16815260200190815260200160002060008373ffffffffffffffffffffffffffffffffffffffff1673ffffffffffffffffffffffffffffffffffffffff16815260200190815260200160002060009054906101000a900460ff16905092915050565b60007f01ffc9a7000000000000000000000000000000000000000000000000000000007bffffffffffffffffffffffffffffffffffffffffffffffffffffffff1916827bffffffffffffffffffffffffffffffffffffffffffffffffffffffff1916149050919050565b60008073ffffffffffffffffffffffffffffffffffffffff166002600084815260200190815260200160002060009054906101000a900473ffffffffffffffffffffffffffffffffffffffff1673ffffffffffffffffffffffffffffffffffffffff1614159050919050565b600033905090565b816004600083815260200190815260200160002060006101000a81548173ffffffffffffffffffffffffffffffffffffffff021916908373ffffffffffffffffffffffffffffffffffffffff160217905550808273ffffffffffffffffffffffffffffffffffffffff1662001fed83620015c9565b73ffffffffffffffffffffffffffffffffffffffff167f8c5be1e5ebec7d5bd14f71427d1e84f3dd0314c0f7b2291e5b200ac8c7c3b92560405160405180910390a45050565b6200204f8282604051806020016040528060008152506200271a565b5050565b6000620020608262001f04565b620020a2576040517f08c379a0000000000000000000000000000000000000000000000000000000008152600401620020999062004a01565b60405180910390fd5b6000620020af83620015c9565b90508073ffffffffffffffffffffffffffffffffffffffff168473ffffffffffffffffffffffffffffffffffffffff161480620020f45750620020f3818562001e06565b5b806200213557508373ffffffffffffffffffffffffffffffffffffffff166200211d8462000c56565b73ffffffffffffffffffffffffffffffffffffffff16145b91505092915050565b8273ffffffffffffffffffffffffffffffffffffffff166200216082620015c9565b73ffffffffffffffffffffffffffffffffffffffff1614620021b9576040517f08c379a0000000000000000000000000000000000000000000000000000000008152600401620021b09062004a99565b60405180910390fd5b600073ffffffffffffffffffffffffffffffffffffffff168273ffffffffffffffffffffffffffffffffffffffff16036200222b576040517f08c379a0000000000000000000000000000000000000000000000000000000008152600401620022229062004b31565b60405180910390fd5b620022388383836200277c565b6200224560008262001f78565b6001600360008573ffffffffffffffffffffffffffffffffffffffff1673ffffffffffffffffffffffffffffffffffffffff1681526020019081526020016000206000828254620022979190620040ac565b925050819055506001600360008473ffffffffffffffffffffffffffffffffffffffff1673ffffffffffffffffffffffffffffffffffffffff1681526020019081526020016000206000828254620022f0919062004b53565b92505081905550816002600083815260200190815260200160002060006101000a81548173ffffffffffffffffffffffffffffffffffffffff021916908373ffffffffffffffffffffffffffffffffffffffff160217905550808273ffffffffffffffffffffffffffffffffffffffff168473ffffffffffffffffffffffffffffffffffffffff167fddf252ad1be2c89b69c2b068fc378daa952ba7f163c4a11628f55a4df523b3ef60405160405180910390a4620023b183838362002781565b505050565b8173ffffffffffffffffffffffffffffffffffffffff168373ffffffffffffffffffffffffffffffffffffffff160362002427576040517f08c379a00000000000000000000000000000000000000000000000000000000081526004016200241e9062004c00565b60405180910390fd5b80600560008573ffffffffffffffffffffffffffffffffffffffff1673ffffffffffffffffffffffffffffffffffffffff16815260200190815260200160002060008473ffffffffffffffffffffffffffffffffffffffff1673ffffffffffffffffffffffffffffffffffffffff16815260200190815260200160002060006101000a81548160ff0219169083151502179055508173ffffffffffffffffffffffffffffffffffffffff168373ffffffffffffffffffffffffffffffffffffffff167f17307eab39ab6107e8899845ad3d59bd9653f200f220920489ca2b5937696c31836040516200251a919062002c05565b60405180910390a3505050565b620025348484846200213e565b620025428484848462002786565b62002584576040517f08c379a00000000000000000000000000000000000000000000000000000000081526004016200257b9062004c98565b60405180910390fd5b50505050565b606060405180602001604052806000815250905090565b606060008203620025ea576040518060400160405280600181526020017f3000000000000000000000000000000000000000000000000000000000000000815250905062002715565b600082905060005b6000821462002622578080620026089062003e8e565b915050600a826200261a919062004ce9565b9150620025f2565b60008167ffffffffffffffff81111562002641576200264062002e9f565b5b6040519080825280601f01601f191660200182016040528015620026745781602001600182028036833780820191505090505b5090505b600085146200270e57600182620026909190620040ac565b9150600a85620026a1919062004d21565b6030620026af919062004b53565b60f81b818381518110620026c857620026c762003edb565b5b60200101907effffffffffffffffffffffffffffffffffffffffffffffffffffffffffffff1916908160001a905350600a8562002706919062004ce9565b945062002678565b8093505050505b919050565b6200272683836200291e565b62002735600084848462002786565b62002777576040517f08c379a00000000000000000000000000000000000000000000000000000000081526004016200276e9062004c98565b60405180910390fd5b505050565b505050565b505050565b6000620027a98473ffffffffffffffffffffffffffffffffffffffff1662002b05565b1562002911578373ffffffffffffffffffffffffffffffffffffffff1663150b7a02620027d562001f70565b8786866040518563ffffffff1660e01b8152600401620027f9949392919062004db6565b6020604051808303816000875af19250505080156200283857506040513d601f19601f8201168201806040525081019062002835919062004e21565b60015b620028c0573d80600081146200286b576040519150601f19603f3d011682016040523d82523d6000602084013e62002870565b606091505b506000815103620028b8576040517f08c379a0000000000000000000000000000000000000000000000000000000008152600401620028af9062004c98565b60405180910390fd5b805181602001fd5b63150b7a0260e01b7bffffffffffffffffffffffffffffffffffffffffffffffffffffffff1916817bffffffffffffffffffffffffffffffffffffffffffffffffffffffff19161491505062002916565b600190505b949350505050565b600073ffffffffffffffffffffffffffffffffffffffff168273ffffffffffffffffffffffffffffffffffffffff160362002990576040517f08c379a0000000000000000000000000000000000000000000000000000000008152600401620029879062004ea3565b60405180910390fd5b6200299b8162001f04565b15620029de576040517f08c379a0000000000000000000000000000000000000000000000000000000008152600401620029d59062004f15565b60405180910390fd5b620029ec600083836200277c565b6001600360008473ffffffffffffffffffffffffffffffffffffffff1673ffffffffffffffffffffffffffffffffffffffff168152602001908152602001600020600082825462002a3e919062004b53565b92505081905550816002600083815260200190815260200160002060006101000a81548173ffffffffffffffffffffffffffffffffffffffff021916908373ffffffffffffffffffffffffffffffffffffffff160217905550808273ffffffffffffffffffffffffffffffffffffffff16600073ffffffffffffffffffffffffffffffffffffffff167fddf252ad1be2c89b69c2b068fc378daa952ba7f163c4a11628f55a4df523b3ef60405160405180910390a462002b016000838362002781565b5050565b6000808273ffffffffffffffffffffffffffffffffffffffff163b119050919050565b61299d8062004f3883390190565b6040518060a00160405280600081526020016000815260200160001515815260200160608152602001600081525090565b6000604051905090565b600080fd5b600080fd5b6000819050919050565b62002b908162002b7b565b811462002b9c57600080fd5b50565b60008135905062002bb08162002b85565b92915050565b60006020828403121562002bcf5762002bce62002b71565b5b600062002bdf8482850162002b9f565b91505092915050565b60008115159050919050565b62002bff8162002be8565b82525050565b600060208201905062002c1c600083018462002bf4565b92915050565b60007fffffffff0000000000000000000000000000000000000000000000000000000082169050919050565b62002c598162002c22565b811462002c6557600080fd5b50565b60008135905062002c798162002c4e565b92915050565b60006020828403121562002c985762002c9762002b71565b5b600062002ca88482850162002c68565b91505092915050565b600081519050919050565b600082825260208201905092915050565b60005b8381101562002ced57808201518184015260208101905062002cd0565b8381111562002cfd576000848401525b50505050565b6000601f19601f8301169050919050565b600062002d218262002cb1565b62002d2d818562002cbc565b935062002d3f81856020860162002ccd565b62002d4a8162002d03565b840191505092915050565b6000602082019050818103600083015262002d71818462002d14565b905092915050565b6000806040838503121562002d935762002d9262002b71565b5b600062002da38582860162002b9f565b925050602062002db68582860162002b9f565b9150509250929050565b600073ffffffffffffffffffffffffffffffffffffffff82169050919050565b600062002ded8262002dc0565b9050919050565b62002dff8162002de0565b82525050565b600060208201905062002e1c600083018462002df4565b92915050565b62002e2d8162002de0565b811462002e3957600080fd5b50565b60008135905062002e4d8162002e22565b92915050565b6000806040838503121562002e6d5762002e6c62002b71565b5b600062002e7d8582860162002e3c565b925050602062002e908582860162002b9f565b9150509250929050565b600080fd5b7f4e487b7100000000000000000000000000000000000000000000000000000000600052604160045260246000fd5b62002ed98262002d03565b810181811067ffffffffffffffff8211171562002efb5762002efa62002e9f565b5b80604052505050565b600062002f1062002b67565b905062002f1e828262002ece565b919050565b600080fd5b62002f338162002be8565b811462002f3f57600080fd5b50565b60008135905062002f538162002f28565b92915050565b600080fd5b600067ffffffffffffffff82111562002f7c5762002f7b62002e9f565b5b602082029050602081019050919050565b600080fd5b60006040828403121562002fab5762002faa62002e9a565b5b62002fb7604062002f04565b9050600062002fc98482850162002b9f565b600083015250602062002fdf8482850162002b9f565b60208301525092915050565b60006200300262002ffc8462002f5e565b62002f04565b9050808382526020820190506040840283018581111562003028576200302762002f8d565b5b835b8181101562003055578062003040888262002f92565b8452602084019350506040810190506200302a565b5050509392505050565b600082601f83011262003077576200307662002f59565b5b81356200308984826020860162002feb565b91505092915050565b600060a08284031215620030ab57620030aa62002e9a565b5b620030b760a062002f04565b90506000620030c98482850162002b9f565b6000830152506020620030df8482850162002b9f565b6020830152506040620030f58482850162002f42565b604083015250606082013567ffffffffffffffff8111156200311c576200311b62002f23565b5b6200312a848285016200305f565b6060830152506080620031408482850162002b9f565b60808301525092915050565b60006020828403121562003165576200316462002b71565b5b600082013567ffffffffffffffff81111562003186576200318562002b76565b5b620031948482850162003092565b91505092915050565b620031a88162002b7b565b82525050565b6000602082019050620031c560008301846200319d565b92915050565b600067ffffffffffffffff821115620031e957620031e862002e9f565b5b602082029050602081019050919050565b6000620032116200320b84620031cb565b62002f04565b9050808382526020820190506020840283018581111562003237576200323662002f8d565b5b835b818110156200326457806200324f888262002b9f565b84526020840193505060208101905062003239565b5050509392505050565b600082601f83011262003286576200328562002f59565b5b813562003298848260208601620031fa565b91505092915050565b60008060408385031215620032bb57620032ba62002b71565b5b600083013567ffffffffffffffff811115620032dc57620032db62002b76565b5b620032ea858286016200326e565b9250506020620032fd8582860162002b9f565b9150509250929050565b60008060006060848603121562003323576200332262002b71565b5b6000620033338682870162002e3c565b9350506020620033468682870162002e3c565b9250506040620033598682870162002b9f565b9150509250925092565b600081519050919050565b600082825260208201905092915050565b6000819050602082019050919050565b6200339a8162002b7b565b82525050565b6000620033ae83836200338f565b60208301905092915050565b6000602082019050919050565b6000620033d48262003363565b620033e081856200336e565b9350620033ed836200337f565b8060005b8381101562003424578151620034088882620033a0565b97506200341583620033ba565b925050600181019050620033f1565b5085935050505092915050565b600060208201905081810360008301526200344d8184620033c7565b905092915050565b600080604083850312156200346f576200346e62002b71565b5b60006200347f8582860162002b9f565b9250506020620034928582860162002e3c565b9150509250929050565b60008060408385031215620034b657620034b562002b71565b5b6000620034c68582860162002b9f565b9250506020620034d98582860162002f42565b9150509250929050565b600080fd5b600067ffffffffffffffff82111562003506576200350562002e9f565b5b620035118262002d03565b9050602081019050919050565b82818337600083830152505050565b6000620035446200353e84620034e8565b62002f04565b905082815260208101848484011115620035635762003562620034e3565b5b620035708482856200351e565b509392505050565b600082601f83011262003590576200358f62002f59565b5b8135620035a28482602086016200352d565b91505092915050565b600080600060608486031215620035c757620035c662002b71565b5b6000620035d78682870162002b9f565b935050602084013567ffffffffffffffff811115620035fb57620035fa62002b76565b5b620036098682870162003578565b925050604084013567ffffffffffffffff8111156200362d576200362c62002b76565b5b6200363b8682870162003578565b9150509250925092565b6000602082840312156200365e576200365d62002b71565b5b60006200366e8482850162002e3c565b91505092915050565b6000819050919050565b6000620036a26200369c620036968462002dc0565b62003677565b62002dc0565b9050919050565b6000620036b68262003681565b9050919050565b6000620036ca82620036a9565b9050919050565b620036dc81620036bd565b82525050565b6000602082019050620036f96000830184620036d1565b92915050565b600080600080608085870312156200371c576200371b62002b71565b5b600085013567ffffffffffffffff8111156200373d576200373c62002b76565b5b6200374b878288016200326e565b945050602085013567ffffffffffffffff8111156200376f576200376e62002b76565b5b6200377d878288016200326e565b9350506040620037908782880162002b9f565b9250506060620037a38782880162002b9f565b91505092959194509250565b60008060408385031215620037c957620037c862002b71565b5b6000620037d98582860162002e3c565b9250506020620037ec8582860162002f42565b9150509250929050565b600067ffffffffffffffff82111562003814576200381362002e9f565b5b6200381f8262002d03565b9050602081019050919050565b6000620038436200383d84620037f6565b62002f04565b905082815260208101848484011115620038625762003861620034e3565b5b6200386f8482856200351e565b509392505050565b600082601f8301126200388f576200388e62002f59565b5b8135620038a18482602086016200382c565b91505092915050565b60008060008060808587031215620038c757620038c662002b71565b5b6000620038d78782880162002e3c565b9450506020620038ea8782880162002e3c565b9350506040620038fd8782880162002b9f565b925050606085013567ffffffffffffffff81111562003921576200392062002b76565b5b6200392f8782880162003877565b91505092959194509250565b60008060006060848603121562003957576200395662002b71565b5b600084013567ffffffffffffffff81111562003978576200397762002b76565b5b62003986868287016200326e565b935050602084013567ffffffffffffffff811115620039aa57620039a962002b76565b5b620039b8868287016200326e565b9250506040620039cb8682870162002b9f565b9150509250925092565b620039e08162002be8565b82525050565b600081519050919050565b600082825260208201905092915050565b6000819050602082019050919050565b60408201600082015162003a2a60008501826200338f565b50602082015162003a3f60208501826200338f565b50505050565b600062003a53838362003a12565b60408301905092915050565b6000602082019050919050565b600062003a7982620039e6565b62003a858185620039f1565b935062003a928362003a02565b8060005b8381101562003ac957815162003aad888262003a45565b975062003aba8362003a5f565b92505060018101905062003a96565b5085935050505092915050565b600060a08301600083015162003af060008601826200338f565b50602083015162003b0560208601826200338f565b50604083015162003b1a6040860182620039d5565b506060830151848203606086015262003b34828262003a6c565b915050608083015162003b4b60808601826200338f565b508091505092915050565b6000602082019050818103600083015262003b72818462003ad6565b905092915050565b6000806040838503121562003b945762003b9362002b71565b5b600062003ba48582860162002e3c565b925050602062003bb78582860162002e3c565b9150509250929050565b7f4e6f7420696d706c656d656e746564207965742e000000000000000000000000600082015250565b600062003bf960148362002cbc565b915062003c068262003bc1565b602082019050919050565b6000602082019050818103600083015262003c2c8162003bea565b9050919050565b7f4e487b7100000000000000000000000000000000000000000000000000000000600052602260045260246000fd5b6000600282049050600182168062003c7b57607f821691505b60208210810362003c915762003c9062003c33565b5b50919050565b7f4552433732313a20617070726f76656420717565727920666f72206e6f6e657860008201527f697374656e7420746f6b656e0000000000000000000000000000000000000000602082015250565b600062003cf5602c8362002cbc565b915062003d028262003c97565b604082019050919050565b6000602082019050818103600083015262003d288162003ce6565b9050919050565b7f4552433732313a20617070726f76616c20746f2063757272656e74206f776e6560008201527f7200000000000000000000000000000000000000000000000000000000000000602082015250565b600062003d8d60218362002cbc565b915062003d9a8262003d2f565b604082019050919050565b6000602082019050818103600083015262003dc08162003d7e565b9050919050565b7f4552433732313a20617070726f76652063616c6c6572206973206e6f74206f7760008201527f6e6572206e6f7220617070726f76656420666f7220616c6c0000000000000000602082015250565b600062003e2560388362002cbc565b915062003e328262003dc7565b604082019050919050565b6000602082019050818103600083015262003e588162003e16565b9050919050565b7f4e487b7100000000000000000000000000000000000000000000000000000000600052601160045260246000fd5b600062003e9b8262002b7b565b91507fffffffffffffffffffffffffffffffffffffffffffffffffffffffffffffffff820362003ed05762003ecf62003e5f565b5b600182019050919050565b7f4e487b7100000000000000000000000000000000000000000000000000000000600052603260045260246000fd5b7f506172656e7420746f6b656e204944206f66206120706172656e74206973207a60008201527f65726f2e00000000000000000000000000000000000000000000000000000000602082015250565b600062003f6860248362002cbc565b915062003f758262003f0a565b604082019050919050565b6000602082019050818103600083015262003f9b8162003f59565b9050919050565b7f506172656e7420746f6b656e20646f6573206e6f742065786973742e00000000600082015250565b600062003fda601c8362002cbc565b915062003fe78262003fa2565b602082019050919050565b600060208201905081810360008301526200400d8162003fcb565b9050919050565b7f506172656e7420746f6b656e20646f6573206e6f7420616c6c6f772061646f7060008201527f74696f6e2e000000000000000000000000000000000000000000000000000000602082015250565b60006200407260258362002cbc565b91506200407f8262004014565b604082019050919050565b60006020820190508181036000830152620040a58162004063565b9050919050565b6000620040b98262002b7b565b9150620040c68362002b7b565b925082821015620040dc57620040db62003e5f565b5b828203905092915050565b7f4552433732313a207472616e736665722063616c6c6572206973206e6f74206f60008201527f776e6572206e6f7220617070726f766564000000000000000000000000000000602082015250565b60006200414560318362002cbc565b91506200415282620040e7565b604082019050919050565b60006020820190508181036000830152620041788162004136565b9050919050565b7f596f7520646f6e27742068617665207065726d697373696f6e20746f2063686160008201527f6e6765207065726d697373696f6e2e0000000000000000000000000000000000602082015250565b6000620041dd602f8362002cbc565b9150620041ea826200417f565b604082019050919050565b600060208201905081810360008301526200421081620041ce565b9050919050565b7f596f7520646f6e27742068617665207065726d697373696f6e20746f2063686160008201527f6e676520696e666f2e0000000000000000000000000000000000000000000000602082015250565b60006200427560298362002cbc565b9150620042828262004217565b604082019050919050565b60006020820190508181036000830152620042a88162004266565b9050919050565b60008190508160005260206000209050919050565b60006020601f8301049050919050565b600082821b905092915050565b600060088302620043137fffffffffffffffffffffffffffffffffffffffffffffffffffffffffffffffff82620042d4565b6200431f8683620042d4565b95508019841693508086168417925050509392505050565b600062004358620043526200434c8462002b7b565b62003677565b62002b7b565b9050919050565b6000819050919050565b620043748362004337565b6200438c62004383826200435f565b848454620042e1565b825550505050565b600090565b620043a362004394565b620043b081848462004369565b505050565b5b81811015620043d857620043cc60008262004399565b600181019050620043b6565b5050565b601f8211156200442757620043f181620042af565b620043fc84620042c4565b810160208510156200440c578190505b620044246200441b85620042c4565b830182620043b5565b50505b505050565b600082821c905092915050565b60006200444c600019846008026200442c565b1980831691505092915050565b600062004467838362004439565b9150826002028217905092915050565b620044828262002cb1565b67ffffffffffffffff8111156200449e576200449d62002e9f565b5b620044aa825462003c62565b620044b7828285620043dc565b600060209050601f831160018114620044ef5760008415620044da578287015190505b620044e6858262004459565b86555062004556565b601f198416620044ff86620042af565b60005b82811015620045295784890151825560018201915060208501945060208101905062004502565b8683101562004549578489015162004545601f89168262004439565b8355505b6001600288020188555050505b505050505050565b7f4552433732313a206f776e657220717565727920666f72206e6f6e657869737460008201527f656e7420746f6b656e0000000000000000000000000000000000000000000000602082015250565b6000620045bc60298362002cbc565b9150620045c9826200455e565b604082019050919050565b60006020820190508181036000830152620045ef81620045ad565b9050919050565b7f54686520636f70797269676874206f776e657220646f6573206e6f7420616c6c60008201527f6f7720646973747269627574696f6e2e00000000000000000000000000000000602082015250565b60006200465460308362002cbc565b91506200466182620045f6565b604082019050919050565b60006020820190508181036000830152620046878162004645565b9050919050565b600081546200469d8162003c62565b620046a9818662002cbc565b94506001821660008114620046c75760018114620046de5762004715565b60ff19831686528115156020028601935062004715565b620046e985620042af565b60005b838110156200470d57815481890152600182019150602081019050620046ec565b808801955050505b50505092915050565b600060408201905081810360008301526200473a81856200468e565b905081810360208301526200475081846200468e565b90509392505050565b7f4552433732313a2062616c616e636520717565727920666f7220746865207a6560008201527f726f206164647265737300000000000000000000000000000000000000000000602082015250565b6000620047b7602a8362002cbc565b9150620047c48262004759565b604082019050919050565b60006020820190508181036000830152620047ea81620047a8565b9050919050565b7f54686520746f6b656e20796f75206d616b65206465706f73697420746f20646f60008201527f6573206e6f742065786973742e00000000000000000000000000000000000000602082015250565b60006200484f602d8362002cbc565b91506200485c82620047f1565b604082019050919050565b60006020820190508181036000830152620048828162004840565b9050919050565b7f4552433732314d657461646174613a2055524920717565727920666f72206e6f60008201527f6e6578697374656e7420746f6b656e0000000000000000000000000000000000602082015250565b6000620048e7602f8362002cbc565b9150620048f48262004889565b604082019050919050565b600060208201905081810360008301526200491a81620048d8565b9050919050565b600081905092915050565b6000620049398262002cb1565b62004945818562004921565b93506200495781856020860162002ccd565b80840191505092915050565b60006200497182856200492c565b91506200497f82846200492c565b91508190509392505050565b7f4552433732313a206f70657261746f7220717565727920666f72206e6f6e657860008201527f697374656e7420746f6b656e0000000000000000000000000000000000000000602082015250565b6000620049e9602c8362002cbc565b9150620049f6826200498b565b604082019050919050565b6000602082019050818103600083015262004a1c81620049da565b9050919050565b7f4552433732313a207472616e736665722066726f6d20696e636f72726563742060008201527f6f776e6572000000000000000000000000000000000000000000000000000000602082015250565b600062004a8160258362002cbc565b915062004a8e8262004a23565b604082019050919050565b6000602082019050818103600083015262004ab48162004a72565b9050919050565b7f4552433732313a207472616e7366657220746f20746865207a65726f2061646460008201527f7265737300000000000000000000000000000000000000000000000000000000602082015250565b600062004b1960248362002cbc565b915062004b268262004abb565b604082019050919050565b6000602082019050818103600083015262004b4c8162004b0a565b9050919050565b600062004b608262002b7b565b915062004b6d8362002b7b565b9250827fffffffffffffffffffffffffffffffffffffffffffffffffffffffffffffffff0382111562004ba55762004ba462003e5f565b5b828201905092915050565b7f4552433732313a20617070726f766520746f2063616c6c657200000000000000600082015250565b600062004be860198362002cbc565b915062004bf58262004bb0565b602082019050919050565b6000602082019050818103600083015262004c1b8162004bd9565b9050919050565b7f4552433732313a207472616e7366657220746f206e6f6e20455243373231526560008201527f63656976657220696d706c656d656e7465720000000000000000000000000000602082015250565b600062004c8060328362002cbc565b915062004c8d8262004c22565b604082019050919050565b6000602082019050818103600083015262004cb38162004c71565b9050919050565b7f4e487b7100000000000000000000000000000000000000000000000000000000600052601260045260246000fd5b600062004cf68262002b7b565b915062004d038362002b7b565b92508262004d165762004d1562004cba565b5b828204905092915050565b600062004d2e8262002b7b565b915062004d3b8362002b7b565b92508262004d4e5762004d4d62004cba565b5b828206905092915050565b600081519050919050565b600082825260208201905092915050565b600062004d828262004d59565b62004d8e818562004d64565b935062004da081856020860162002ccd565b62004dab8162002d03565b840191505092915050565b600060808201905062004dcd600083018762002df4565b62004ddc602083018662002df4565b62004deb60408301856200319d565b818103606083015262004dff818462004d75565b905095945050505050565b60008151905062004e1b8162002c4e565b92915050565b60006020828403121562004e3a5762004e3962002b71565b5b600062004e4a8482850162004e0a565b91505092915050565b7f4552433732313a206d696e7420746f20746865207a65726f2061646472657373600082015250565b600062004e8b60208362002cbc565b915062004e988262004e53565b602082019050919050565b6000602082019050818103600083015262004ebe8162004e7c565b9050919050565b7f4552433732313a20746f6b656e20616c7265616479206d696e74656400000000600082015250565b600062004efd601c8362002cbc565b915062004f0a8262004ec5565b602082019050919050565b6000602082019050818103600083015262004f308162004eee565b905091905056fe60806040523480156200001157600080fd5b506040516200299d3803806200299d833981810160405281019062000037919062000200565b8160009081620000489190620004d0565b5080600190816200005a9190620004d0565b505050620005b7565b6000604051905090565b600080fd5b600080fd5b600080fd5b600080fd5b6000601f19601f8301169050919050565b7f4e487b7100000000000000000000000000000000000000000000000000000000600052604160045260246000fd5b620000cc8262000081565b810181811067ffffffffffffffff82111715620000ee57620000ed62000092565b5b80604052505050565b60006200010362000063565b9050620001118282620000c1565b919050565b600067ffffffffffffffff82111562000134576200013362000092565b5b6200013f8262000081565b9050602081019050919050565b60005b838110156200016c5780820151818401526020810190506200014f565b838111156200017c576000848401525b50505050565b600062000199620001938462000116565b620000f7565b905082815260208101848484011115620001b857620001b76200007c565b5b620001c58482856200014c565b509392505050565b600082601f830112620001e557620001e462000077565b5b8151620001f784826020860162000182565b91505092915050565b600080604083850312156200021a57620002196200006d565b5b600083015167ffffffffffffffff8111156200023b576200023a62000072565b5b6200024985828601620001cd565b925050602083015167ffffffffffffffff8111156200026d576200026c62000072565b5b6200027b85828601620001cd565b9150509250929050565b600081519050919050565b7f4e487b7100000000000000000000000000000000000000000000000000000000600052602260045260246000fd5b60006002820490506001821680620002d857607f821691505b602082108103620002ee57620002ed62000290565b5b50919050565b60008190508160005260206000209050919050565b60006020601f8301049050919050565b600082821b905092915050565b600060088302620003587fffffffffffffffffffffffffffffffffffffffffffffffffffffffffffffffff8262000319565b62000364868362000319565b95508019841693508086168417925050509392505050565b6000819050919050565b6000819050919050565b6000620003b1620003ab620003a5846200037c565b62000386565b6200037c565b9050919050565b6000819050919050565b620003cd8362000390565b620003e5620003dc82620003b8565b84845462000326565b825550505050565b600090565b620003fc620003ed565b62000409818484620003c2565b505050565b5b81811015620004315762000425600082620003f2565b6001810190506200040f565b5050565b601f82111562000480576200044a81620002f4565b620004558462000309565b8101602085101562000465578190505b6200047d620004748562000309565b8301826200040e565b50505b505050565b600082821c905092915050565b6000620004a56000198460080262000485565b1980831691505092915050565b6000620004c0838362000492565b9150826002028217905092915050565b620004db8262000285565b67ffffffffffffffff811115620004f757620004f662000092565b5b620005038254620002bf565b6200051082828562000435565b600060209050601f83116001811462000548576000841562000533578287015190505b6200053f8582620004b2565b865550620005af565b601f1984166200055886620002f4565b60005b8281101562000582578489015182556001820191506020850194506020810190506200055b565b86831015620005a257848901516200059e601f89168262000492565b8355505b6001600288020188555050505b505050505050565b6123d680620005c76000396000f3fe608060405234801561001057600080fd5b50600436106100cf5760003560e01c80636352211e1161008c578063a22cb46511610066578063a22cb46514610224578063b88d4fde14610240578063c87b56dd1461025c578063e985e9c51461028c576100cf565b80636352211e146101a657806370a08231146101d657806395d89b4114610206576100cf565b806301ffc9a7146100d457806306fdde0314610104578063081812fc14610122578063095ea7b31461015257806323b872dd1461016e57806342842e0e1461018a575b600080fd5b6100ee60048036038101906100e99190611433565b6102bc565b6040516100fb919061147b565b60405180910390f35b61010c61039e565b604051610119919061152f565b60405180910390f35b61013c60048036038101906101379190611587565b610430565b60405161014991906115f5565b60405180910390f35b61016c6004803603810190610167919061163c565b6104b5565b005b6101886004803603810190610183919061167c565b6105cc565b005b6101a4600480360381019061019f919061167c565b61062c565b005b6101c060048036038101906101bb9190611587565b61064c565b6040516101cd91906115f5565b60405180910390f35b6101f060048036038101906101eb91906116cf565b6106fd565b6040516101fd919061170b565b60405180910390f35b61020e6107b4565b60405161021b919061152f565b60405180910390f35b61023e60048036038101906102399190611752565b610846565b005b61025a600480360381019061025591906118c7565b61085c565b005b61027660048036038101906102719190611587565b6108be565b604051610283919061152f565b60405180910390f35b6102a660048036038101906102a1919061194a565b610965565b6040516102b3919061147b565b60405180910390f35b60007f80ac58cd000000000000000000000000000000000000000000000000000000007bffffffffffffffffffffffffffffffffffffffffffffffffffffffff1916827bffffffffffffffffffffffffffffffffffffffffffffffffffffffff1916148061038757507f5b5e139f000000000000000000000000000000000000000000000000000000007bffffffffffffffffffffffffffffffffffffffffffffffffffffffff1916827bffffffffffffffffffffffffffffffffffffffffffffffffffffffff1916145b806103975750610396826109f9565b5b9050919050565b6060600080546103ad906119b9565b80601f01602080910402602001604051908101604052809291908181526020018280546103d9906119b9565b80156104265780601f106103fb57610100808354040283529160200191610426565b820191906000526020600020905b81548152906001019060200180831161040957829003601f168201915b5050505050905090565b600061043b82610a63565b61047a576040517f08c379a000000000000000000000000000000000000000000000000000000000815260040161047190611a5c565b60405180910390fd5b6004600083815260200190815260200160002060009054906101000a900473ffffffffffffffffffffffffffffffffffffffff169050919050565b60006104c08261064c565b90508073ffffffffffffffffffffffffffffffffffffffff168373ffffffffffffffffffffffffffffffffffffffff1603610530576040517f08c379a000000000000000000000000000000000000000000000000000000000815260040161052790611aee565b60405180910390fd5b8073ffffffffffffffffffffffffffffffffffffffff1661054f610acf565b73ffffffffffffffffffffffffffffffffffffffff16148061057e575061057d81610578610acf565b610965565b5b6105bd576040517f08c379a00000000000000000000000000000000000000000000000000000000081526004016105b490611b80565b60405180910390fd5b6105c78383610ad7565b505050565b6105dd6105d7610acf565b82610b90565b61061c576040517f08c379a000000000000000000000000000000000000000000000000000000000815260040161061390611c12565b60405180910390fd5b610627838383610c6e565b505050565b6106478383836040518060200160405280600081525061085c565b505050565b6000806002600084815260200190815260200160002060009054906101000a900473ffffffffffffffffffffffffffffffffffffffff169050600073ffffffffffffffffffffffffffffffffffffffff168173ffffffffffffffffffffffffffffffffffffffff16036106f4576040517f08c379a00000000000000000000000000000000000000000000000000000000081526004016106eb90611ca4565b60405180910390fd5b80915050919050565b60008073ffffffffffffffffffffffffffffffffffffffff168273ffffffffffffffffffffffffffffffffffffffff160361076d576040517f08c379a000000000000000000000000000000000000000000000000000000000815260040161076490611d36565b60405180910390fd5b600360008373ffffffffffffffffffffffffffffffffffffffff1673ffffffffffffffffffffffffffffffffffffffff168152602001908152602001600020549050919050565b6060600180546107c3906119b9565b80601f01602080910402602001604051908101604052809291908181526020018280546107ef906119b9565b801561083c5780601f106108115761010080835404028352916020019161083c565b820191906000526020600020905b81548152906001019060200180831161081f57829003601f168201915b5050505050905090565b610858610851610acf565b8383610ed4565b5050565b61086d610867610acf565b83610b90565b6108ac576040517f08c379a00000000000000000000000000000000000000000000000000000000081526004016108a390611c12565b60405180910390fd5b6108b884848484611040565b50505050565b60606108c982610a63565b610908576040517f08c379a00000000000000000000000000000000000000000000000000000000081526004016108ff90611dc8565b60405180910390fd5b600061091261109c565b90506000815111610932576040518060200160405280600081525061095d565b8061093c846110b3565b60405160200161094d929190611e24565b6040516020818303038152906040525b915050919050565b6000600560008473ffffffffffffffffffffffffffffffffffffffff1673ffffffffffffffffffffffffffffffffffffffff16815260200190815260200160002060008373ffffffffffffffffffffffffffffffffffffffff1673ffffffffffffffffffffffffffffffffffffffff16815260200190815260200160002060009054906101000a900460ff16905092915050565b60007f01ffc9a7000000000000000000000000000000000000000000000000000000007bffffffffffffffffffffffffffffffffffffffffffffffffffffffff1916827bffffffffffffffffffffffffffffffffffffffffffffffffffffffff1916149050919050565b60008073ffffffffffffffffffffffffffffffffffffffff166002600084815260200190815260200160002060009054906101000a900473ffffffffffffffffffffffffffffffffffffffff1673ffffffffffffffffffffffffffffffffffffffff1614159050919050565b600033905090565b816004600083815260200190815260200160002060006101000a81548173ffffffffffffffffffffffffffffffffffffffff021916908373ffffffffffffffffffffffffffffffffffffffff160217905550808273ffffffffffffffffffffffffffffffffffffffff16610b4a8361064c565b73ffffffffffffffffffffffffffffffffffffffff167f8c5be1e5ebec7d5bd14f71427d1e84f3dd0314c0f7b2291e5b200ac8c7c3b92560405160405180910390a45050565b6000610b9b82610a63565b610bda576040517f08c379a0000000000000000000000000000000000000000000000000000000008152600401610bd190611eba565b60405180910390fd5b6000610be58361064c565b90508073ffffffffffffffffffffffffffffffffffffffff168473ffffffffffffffffffffffffffffffffffffffff161480610c275750610c268185610965565b5b80610c6557508373ffffffffffffffffffffffffffffffffffffffff16610c4d84610430565b73ffffffffffffffffffffffffffffffffffffffff16145b91505092915050565b8273ffffffffffffffffffffffffffffffffffffffff16610c8e8261064c565b73ffffffffffffffffffffffffffffffffffffffff1614610ce4576040517f08c379a0000000000000000000000000000000000000000000000000000000008152600401610cdb90611f4c565b60405180910390fd5b600073ffffffffffffffffffffffffffffffffffffffff168273ffffffffffffffffffffffffffffffffffffffff1603610d53576040517f08c379a0000000000000000000000000000000000000000000000000000000008152600401610d4a90611fde565b60405180910390fd5b610d5e838383611213565b610d69600082610ad7565b6001600360008573ffffffffffffffffffffffffffffffffffffffff1673ffffffffffffffffffffffffffffffffffffffff1681526020019081526020016000206000828254610db9919061202d565b925050819055506001600360008473ffffffffffffffffffffffffffffffffffffffff1673ffffffffffffffffffffffffffffffffffffffff1681526020019081526020016000206000828254610e109190612061565b92505081905550816002600083815260200190815260200160002060006101000a81548173ffffffffffffffffffffffffffffffffffffffff021916908373ffffffffffffffffffffffffffffffffffffffff160217905550808273ffffffffffffffffffffffffffffffffffffffff168473ffffffffffffffffffffffffffffffffffffffff167fddf252ad1be2c89b69c2b068fc378daa952ba7f163c4a11628f55a4df523b3ef60405160405180910390a4610ecf838383611218565b505050565b8173ffffffffffffffffffffffffffffffffffffffff168373ffffffffffffffffffffffffffffffffffffffff1603610f42576040517f08c379a0000000000000000000000000000000000000000000000000000000008152600401610f3990612103565b60405180910390fd5b80600560008573ffffffffffffffffffffffffffffffffffffffff1673ffffffffffffffffffffffffffffffffffffffff16815260200190815260200160002060008473ffffffffffffffffffffffffffffffffffffffff1673ffffffffffffffffffffffffffffffffffffffff16815260200190815260200160002060006101000a81548160ff0219169083151502179055508173ffffffffffffffffffffffffffffffffffffffff168373ffffffffffffffffffffffffffffffffffffffff167f17307eab39ab6107e8899845ad3d59bd9653f200f220920489ca2b5937696c3183604051611033919061147b565b60405180910390a3505050565b61104b848484610c6e565b6110578484848461121d565b611096576040517f08c379a000000000000000000000000000000000000000000000000000000000815260040161108d90612195565b60405180910390fd5b50505050565b606060405180602001604052806000815250905090565b6060600082036110fa576040518060400160405280600181526020017f3000000000000000000000000000000000000000000000000000000000000000815250905061120e565b600082905060005b6000821461112c578080611115906121b5565b915050600a82611125919061222c565b9150611102565b60008167ffffffffffffffff8111156111485761114761179c565b5b6040519080825280601f01601f19166020018201604052801561117a5781602001600182028036833780820191505090505b5090505b6000851461120757600182611193919061202d565b9150600a856111a2919061225d565b60306111ae9190612061565b60f81b8183815181106111c4576111c361228e565b5b60200101907effffffffffffffffffffffffffffffffffffffffffffffffffffffffffffff1916908160001a905350600a85611200919061222c565b945061117e565b8093505050505b919050565b505050565b505050565b600061123e8473ffffffffffffffffffffffffffffffffffffffff166113a4565b15611397578373ffffffffffffffffffffffffffffffffffffffff1663150b7a02611267610acf565b8786866040518563ffffffff1660e01b81526004016112899493929190612312565b6020604051808303816000875af19250505080156112c557506040513d601f19601f820116820180604052508101906112c29190612373565b60015b611347573d80600081146112f5576040519150601f19603f3d011682016040523d82523d6000602084013e6112fa565b606091505b50600081510361133f576040517f08c379a000000000000000000000000000000000000000000000000000000000815260040161133690612195565b60405180910390fd5b805181602001fd5b63150b7a0260e01b7bffffffffffffffffffffffffffffffffffffffffffffffffffffffff1916817bffffffffffffffffffffffffffffffffffffffffffffffffffffffff19161491505061139c565b600190505b949350505050565b6000808273ffffffffffffffffffffffffffffffffffffffff163b119050919050565b6000604051905090565b600080fd5b600080fd5b60007fffffffff0000000000000000000000000000000000000000000000000000000082169050919050565b611410816113db565b811461141b57600080fd5b50565b60008135905061142d81611407565b92915050565b600060208284031215611449576114486113d1565b5b60006114578482850161141e565b91505092915050565b60008115159050919050565b61147581611460565b82525050565b6000602082019050611490600083018461146c565b92915050565b600081519050919050565b600082825260208201905092915050565b60005b838110156114d05780820151818401526020810190506114b5565b838111156114df576000848401525b50505050565b6000601f19601f8301169050919050565b600061150182611496565b61150b81856114a1565b935061151b8185602086016114b2565b611524816114e5565b840191505092915050565b6000602082019050818103600083015261154981846114f6565b905092915050565b6000819050919050565b61156481611551565b811461156f57600080fd5b50565b6000813590506115818161155b565b92915050565b60006020828403121561159d5761159c6113d1565b5b60006115ab84828501611572565b91505092915050565b600073ffffffffffffffffffffffffffffffffffffffff82169050919050565b60006115df826115b4565b9050919050565b6115ef816115d4565b82525050565b600060208201905061160a60008301846115e6565b92915050565b611619816115d4565b811461162457600080fd5b50565b60008135905061163681611610565b92915050565b60008060408385031215611653576116526113d1565b5b600061166185828601611627565b925050602061167285828601611572565b9150509250929050565b600080600060608486031215611695576116946113d1565b5b60006116a386828701611627565b93505060206116b486828701611627565b92505060406116c586828701611572565b9150509250925092565b6000602082840312156116e5576116e46113d1565b5b60006116f384828501611627565b91505092915050565b61170581611551565b82525050565b600060208201905061172060008301846116fc565b92915050565b61172f81611460565b811461173a57600080fd5b50565b60008135905061174c81611726565b92915050565b60008060408385031215611769576117686113d1565b5b600061177785828601611627565b92505060206117888582860161173d565b9150509250929050565b600080fd5b600080fd5b7f4e487b7100000000000000000000000000000000000000000000000000000000600052604160045260246000fd5b6117d4826114e5565b810181811067ffffffffffffffff821117156117f3576117f261179c565b5b80604052505050565b60006118066113c7565b905061181282826117cb565b919050565b600067ffffffffffffffff8211156118325761183161179c565b5b61183b826114e5565b9050602081019050919050565b82818337600083830152505050565b600061186a61186584611817565b6117fc565b90508281526020810184848401111561188657611885611797565b5b611891848285611848565b509392505050565b600082601f8301126118ae576118ad611792565b5b81356118be848260208601611857565b91505092915050565b600080600080608085870312156118e1576118e06113d1565b5b60006118ef87828801611627565b945050602061190087828801611627565b935050604061191187828801611572565b925050606085013567ffffffffffffffff811115611932576119316113d6565b5b61193e87828801611899565b91505092959194509250565b60008060408385031215611961576119606113d1565b5b600061196f85828601611627565b925050602061198085828601611627565b9150509250929050565b7f4e487b7100000000000000000000000000000000000000000000000000000000600052602260045260246000fd5b600060028204905060018216806119d157607f821691505b6020821081036119e4576119e361198a565b5b50919050565b7f4552433732313a20617070726f76656420717565727920666f72206e6f6e657860008201527f697374656e7420746f6b656e0000000000000000000000000000000000000000602082015250565b6000611a46602c836114a1565b9150611a51826119ea565b604082019050919050565b60006020820190508181036000830152611a7581611a39565b9050919050565b7f4552433732313a20617070726f76616c20746f2063757272656e74206f776e6560008201527f7200000000000000000000000000000000000000000000000000000000000000602082015250565b6000611ad86021836114a1565b9150611ae382611a7c565b604082019050919050565b60006020820190508181036000830152611b0781611acb565b9050919050565b7f4552433732313a20617070726f76652063616c6c6572206973206e6f74206f7760008201527f6e6572206e6f7220617070726f76656420666f7220616c6c0000000000000000602082015250565b6000611b6a6038836114a1565b9150611b7582611b0e565b604082019050919050565b60006020820190508181036000830152611b9981611b5d565b9050919050565b7f4552433732313a207472616e736665722063616c6c6572206973206e6f74206f60008201527f776e6572206e6f7220617070726f766564000000000000000000000000000000602082015250565b6000611bfc6031836114a1565b9150611c0782611ba0565b604082019050919050565b60006020820190508181036000830152611c2b81611bef565b9050919050565b7f4552433732313a206f776e657220717565727920666f72206e6f6e657869737460008201527f656e7420746f6b656e0000000000000000000000000000000000000000000000602082015250565b6000611c8e6029836114a1565b9150611c9982611c32565b604082019050919050565b60006020820190508181036000830152611cbd81611c81565b9050919050565b7f4552433732313a2062616c616e636520717565727920666f7220746865207a6560008201527f726f206164647265737300000000000000000000000000000000000000000000602082015250565b6000611d20602a836114a1565b9150611d2b82611cc4565b604082019050919050565b60006020820190508181036000830152611d4f81611d13565b9050919050565b7f4552433732314d657461646174613a2055524920717565727920666f72206e6f60008201527f6e6578697374656e7420746f6b656e0000000000000000000000000000000000602082015250565b6000611db2602f836114a1565b9150611dbd82611d56565b604082019050919050565b60006020820190508181036000830152611de181611da5565b9050919050565b600081905092915050565b6000611dfe82611496565b611e088185611de8565b9350611e188185602086016114b2565b80840191505092915050565b6000611e308285611df3565b9150611e3c8284611df3565b91508190509392505050565b7f4552433732313a206f70657261746f7220717565727920666f72206e6f6e657860008201527f697374656e7420746f6b656e0000000000000000000000000000000000000000602082015250565b6000611ea4602c836114a1565b9150611eaf82611e48565b604082019050919050565b60006020820190508181036000830152611ed381611e97565b9050919050565b7f4552433732313a207472616e736665722066726f6d20696e636f72726563742060008201527f6f776e6572000000000000000000000000000000000000000000000000000000602082015250565b6000611f366025836114a1565b9150611f4182611eda565b604082019050919050565b60006020820190508181036000830152611f6581611f29565b9050919050565b7f4552433732313a207472616e7366657220746f20746865207a65726f2061646460008201527f7265737300000000000000000000000000000000000000000000000000000000602082015250565b6000611fc86024836114a1565b9150611fd382611f6c565b604082019050919050565b60006020820190508181036000830152611ff781611fbb565b9050919050565b7f4e487b7100000000000000000000000000000000000000000000000000000000600052601160045260246000fd5b600061203882611551565b915061204383611551565b92508282101561205657612055611ffe565b5b828203905092915050565b600061206c82611551565b915061207783611551565b9250827fffffffffffffffffffffffffffffffffffffffffffffffffffffffffffffffff038211156120ac576120ab611ffe565b5b828201905092915050565b7f4552433732313a20617070726f766520746f2063616c6c657200000000000000600082015250565b60006120ed6019836114a1565b91506120f8826120b7565b602082019050919050565b6000602082019050818103600083015261211c816120e0565b9050919050565b7f4552433732313a207472616e7366657220746f206e6f6e20455243373231526560008201527f63656976657220696d706c656d656e7465720000000000000000000000000000602082015250565b600061217f6032836114a1565b915061218a82612123565b604082019050919050565b600060208201905081810360008301526121ae81612172565b9050919050565b60006121c082611551565b91507fffffffffffffffffffffffffffffffffffffffffffffffffffffffffffffffff82036121f2576121f1611ffe565b5b600182019050919050565b7f4e487b7100000000000000000000000000000000000000000000000000000000600052601260045260246000fd5b600061223782611551565b915061224283611551565b925082612252576122516121fd565b5b828204905092915050565b600061226882611551565b915061227383611551565b925082612283576122826121fd565b5b828206905092915050565b7f4e487b7100000000000000000000000000000000000000000000000000000000600052603260045260246000fd5b600081519050919050565b600082825260208201905092915050565b60006122e4826122bd565b6122ee81856122c8565b93506122fe8185602086016114b2565b612307816114e5565b840191505092915050565b600060808201905061232760008301876115e6565b61233460208301866115e6565b61234160408301856116fc565b818103606083015261235381846122d9565b905095945050505050565b60008151905061236d81611407565b92915050565b600060208284031215612389576123886113d1565b5b60006123978482850161235e565b9150509291505056fea2646970667358221220d3b77b1a6d9bf5e3db4cbc3aa457430d889e488f10b937b039f34172ba6a9ecc64736f6c634300080f0033a26469706673582212209abc70eda29c17fe02ba468c807354b514da9a0a65efa28676db62a9e9180d6464736f6c634300080f0033",
  "linkReferences": {},
  "deployedLinkReferences": {}
}