{
  "_format": "hh-sol-artifact-1",
  "contractName": "CopyrightToken",
  "sourceName": "src/backend/contracts/CopyrightToken.sol",
  "abi": [
    {
      "inputs": [],
      "stateMutability": "nonpayable",
      "type": "constructor"
    },
    {
      "anonymous": false,
      "inputs": [
        {
          "components": [
            {
              "internalType": "uint256",
              "name": "tokenWeight",
              "type": "uint256"
            },
            {
              "internalType": "uint256",
              "name": "timeStamp",
              "type": "uint256"
            },
            {
              "internalType": "bool",
              "name": "isBlacklisted",
              "type": "bool"
            },
            {
              "components": [
                {
                  "internalType": "uint256",
                  "name": "to",
                  "type": "uint256"
                },
                {
                  "internalType": "uint256",
                  "name": "weight",
                  "type": "uint256"
                }
              ],
              "internalType": "struct ICopyrightGraph.Edge[]",
              "name": "edges",
              "type": "tuple[]"
            },
            {
              "internalType": "uint256",
              "name": "numberOfTokensBehind",
              "type": "uint256"
            }
          ],
          "indexed": false,
          "internalType": "struct ICopyrightGraph.Token",
          "name": "token",
          "type": "tuple"
        }
      ],
      "name": "AddTokenToGraph",
      "type": "event"
    },
    {
      "anonymous": false,
      "inputs": [
        {
          "indexed": true,
          "internalType": "address",
          "name": "owner",
          "type": "address"
        },
        {
          "indexed": true,
          "internalType": "address",
          "name": "approved",
          "type": "address"
        },
        {
          "indexed": true,
          "internalType": "uint256",
          "name": "tokenId",
          "type": "uint256"
        }
      ],
      "name": "Approval",
      "type": "event"
    },
    {
      "anonymous": false,
      "inputs": [
        {
          "indexed": true,
          "internalType": "address",
          "name": "owner",
          "type": "address"
        },
        {
          "indexed": true,
          "internalType": "address",
          "name": "operator",
          "type": "address"
        },
        {
          "indexed": false,
          "internalType": "bool",
          "name": "approved",
          "type": "bool"
        }
      ],
      "name": "ApprovalForAll",
      "type": "event"
    },
    {
      "anonymous": false,
      "inputs": [
        {
          "indexed": false,
          "internalType": "uint256",
          "name": "id",
          "type": "uint256"
        },
        {
          "indexed": false,
          "internalType": "uint256",
          "name": "newWeight",
          "type": "uint256"
        }
      ],
      "name": "ChangeTokenWeight",
      "type": "event"
    },
    {
      "anonymous": false,
      "inputs": [
        {
          "indexed": true,
          "internalType": "address",
          "name": "previousOwner",
          "type": "address"
        },
        {
          "indexed": true,
          "internalType": "address",
          "name": "newOwner",
          "type": "address"
        }
      ],
      "name": "OwnershipTransferred",
      "type": "event"
    },
    {
      "anonymous": false,
      "inputs": [
        {
          "indexed": false,
          "internalType": "uint256",
          "name": "id",
          "type": "uint256"
        },
        {
          "indexed": false,
          "internalType": "bool",
          "name": "isBlacklisted",
          "type": "bool"
        }
      ],
      "name": "TokenBlacklisted",
      "type": "event"
    },
    {
      "anonymous": false,
      "inputs": [
        {
          "indexed": true,
          "internalType": "address",
          "name": "from",
          "type": "address"
        },
        {
          "indexed": true,
          "internalType": "address",
          "name": "to",
          "type": "address"
        },
        {
          "indexed": true,
          "internalType": "uint256",
          "name": "tokenId",
          "type": "uint256"
        }
      ],
      "name": "Transfer",
      "type": "event"
    },
    {
      "inputs": [
        {
          "internalType": "address",
          "name": "to",
          "type": "address"
        },
        {
          "internalType": "uint256",
          "name": "tokenId",
          "type": "uint256"
        }
      ],
      "name": "approve",
      "outputs": [],
      "stateMutability": "nonpayable",
      "type": "function"
    },
    {
      "inputs": [
        {
          "internalType": "address",
          "name": "owner",
          "type": "address"
        }
      ],
      "name": "balanceOf",
      "outputs": [
        {
          "internalType": "uint256",
          "name": "",
          "type": "uint256"
        }
      ],
      "stateMutability": "view",
      "type": "function"
    },
    {
      "inputs": [
        {
          "internalType": "uint256",
          "name": "id",
          "type": "uint256"
        },
        {
          "internalType": "bool",
          "name": "isBlacklisted",
          "type": "bool"
        }
      ],
      "name": "blacklistToken",
      "outputs": [],
      "stateMutability": "nonpayable",
      "type": "function"
    },
    {
      "inputs": [
        {
          "internalType": "uint256",
          "name": "id",
          "type": "uint256"
        },
        {
          "internalType": "bool",
          "name": "permission",
          "type": "bool"
        }
      ],
      "name": "changeAdoptionPermission",
      "outputs": [],
      "stateMutability": "nonpayable",
      "type": "function"
    },
    {
      "inputs": [
        {
          "internalType": "uint256",
          "name": "id",
          "type": "uint256"
        },
        {
          "internalType": "bool",
          "name": "permission",
          "type": "bool"
        }
      ],
      "name": "changeDistributionPermission",
      "outputs": [],
      "stateMutability": "nonpayable",
      "type": "function"
    },
    {
      "inputs": [
        {
          "internalType": "uint256",
          "name": "id",
          "type": "uint256"
        },
        {
          "internalType": "uint256",
          "name": "newWeight",
          "type": "uint256"
        }
      ],
      "name": "changeTokenWeight",
      "outputs": [],
      "stateMutability": "nonpayable",
      "type": "function"
    },
    {
      "inputs": [
        {
          "internalType": "uint256",
          "name": "id",
          "type": "uint256"
        }
      ],
      "name": "deposit",
      "outputs": [],
      "stateMutability": "payable",
      "type": "function"
    },
    {
      "inputs": [
        {
          "internalType": "uint256",
          "name": "id",
          "type": "uint256"
        }
      ],
      "name": "distributeCopies",
      "outputs": [
        {
          "internalType": "address",
          "name": "",
          "type": "address"
        }
      ],
      "stateMutability": "nonpayable",
      "type": "function"
    },
    {
      "inputs": [
        {
          "internalType": "uint256",
          "name": "id",
          "type": "uint256"
        }
      ],
      "name": "doAllowAdoption",
      "outputs": [
        {
          "internalType": "bool",
          "name": "",
          "type": "bool"
        }
      ],
      "stateMutability": "view",
      "type": "function"
    },
    {
      "inputs": [
        {
          "internalType": "uint256",
          "name": "id",
          "type": "uint256"
        }
      ],
      "name": "doAllowDistribution",
      "outputs": [
        {
          "internalType": "bool",
          "name": "",
          "type": "bool"
        }
      ],
      "stateMutability": "view",
      "type": "function"
    },
    {
      "inputs": [
        {
          "internalType": "uint256",
          "name": "tokenId",
          "type": "uint256"
        }
      ],
      "name": "getApproved",
      "outputs": [
        {
          "internalType": "address",
          "name": "",
          "type": "address"
        }
      ],
      "stateMutability": "view",
      "type": "function"
    },
    {
      "inputs": [
        {
          "internalType": "uint256",
          "name": "id",
          "type": "uint256"
        }
      ],
      "name": "getDistributionToken",
      "outputs": [
        {
          "internalType": "contract ERC721",
          "name": "",
          "type": "address"
        }
      ],
      "stateMutability": "view",
      "type": "function"
    },
    {
      "inputs": [
        {
          "internalType": "uint256",
          "name": "id",
          "type": "uint256"
        }
      ],
      "name": "getToken",
      "outputs": [
        {
          "components": [
            {
              "internalType": "uint256",
              "name": "tokenWeight",
              "type": "uint256"
            },
            {
              "internalType": "uint256",
              "name": "timeStamp",
              "type": "uint256"
            },
            {
              "internalType": "bool",
              "name": "isBlacklisted",
              "type": "bool"
            },
            {
              "components": [
                {
                  "internalType": "uint256",
                  "name": "to",
                  "type": "uint256"
                },
                {
                  "internalType": "uint256",
                  "name": "weight",
                  "type": "uint256"
                }
              ],
              "internalType": "struct ICopyrightGraph.Edge[]",
              "name": "edges",
              "type": "tuple[]"
            },
            {
              "internalType": "uint256",
              "name": "numberOfTokensBehind",
              "type": "uint256"
            }
          ],
          "internalType": "struct ICopyrightGraph.Token",
          "name": "",
          "type": "tuple"
        }
      ],
      "stateMutability": "view",
      "type": "function"
    },
    {
      "inputs": [
        {
          "internalType": "uint256[]",
          "name": "parentIds",
          "type": "uint256[]"
        },
        {
          "internalType": "uint256[]",
          "name": "parentWeights",
          "type": "uint256[]"
        },
        {
          "internalType": "uint256",
          "name": "id",
          "type": "uint256"
        }
      ],
      "name": "insertEdges",
      "outputs": [],
      "stateMutability": "nonpayable",
      "type": "function"
    },
    {
      "inputs": [
        {
          "internalType": "uint256[]",
          "name": "parentIds",
          "type": "uint256[]"
        },
        {
          "internalType": "uint256[]",
          "name": "parentWeights",
          "type": "uint256[]"
        },
        {
          "internalType": "uint256",
          "name": "id",
          "type": "uint256"
        },
        {
          "internalType": "uint256",
          "name": "weight",
          "type": "uint256"
        }
      ],
      "name": "insertToken",
      "outputs": [],
      "stateMutability": "nonpayable",
      "type": "function"
    },
    {
      "inputs": [
        {
          "internalType": "address",
          "name": "owner",
          "type": "address"
        },
        {
          "internalType": "address",
          "name": "operator",
          "type": "address"
        }
      ],
      "name": "isApprovedForAll",
      "outputs": [
        {
          "internalType": "bool",
          "name": "",
          "type": "bool"
        }
      ],
      "stateMutability": "view",
      "type": "function"
    },
    {
      "inputs": [
        {
          "internalType": "uint256",
          "name": "id",
          "type": "uint256"
        },
        {
          "internalType": "address",
          "name": "nftAddress",
          "type": "address"
        }
      ],
      "name": "isDistributionOf",
      "outputs": [
        {
          "internalType": "bool",
          "name": "",
          "type": "bool"
        }
      ],
      "stateMutability": "view",
      "type": "function"
    },
    {
      "inputs": [
        {
          "internalType": "uint256",
          "name": "id",
          "type": "uint256"
        }
      ],
      "name": "isIndependent",
      "outputs": [
        {
          "internalType": "bool",
          "name": "",
          "type": "bool"
        }
      ],
      "stateMutability": "view",
      "type": "function"
    },
    {
      "inputs": [
        {
          "internalType": "uint256[]",
          "name": "parentIds",
          "type": "uint256[]"
        },
        {
          "internalType": "uint256",
          "name": "tokenWeight",
          "type": "uint256"
        }
      ],
      "name": "mint",
      "outputs": [],
      "stateMutability": "nonpayable",
      "type": "function"
    },
    {
      "inputs": [],
      "name": "name",
      "outputs": [
        {
          "internalType": "string",
          "name": "",
          "type": "string"
        }
      ],
      "stateMutability": "view",
      "type": "function"
    },
    {
      "inputs": [],
      "name": "owner",
      "outputs": [
        {
          "internalType": "address",
          "name": "",
          "type": "address"
        }
      ],
      "stateMutability": "view",
      "type": "function"
    },
    {
      "inputs": [
        {
          "internalType": "uint256",
          "name": "tokenId",
          "type": "uint256"
        }
      ],
      "name": "ownerOf",
      "outputs": [
        {
          "internalType": "address",
          "name": "",
          "type": "address"
        }
      ],
      "stateMutability": "view",
      "type": "function"
    },
    {
      "inputs": [],
      "name": "renounceOwnership",
      "outputs": [],
      "stateMutability": "nonpayable",
      "type": "function"
    },
    {
      "inputs": [
        {
          "components": [
            {
              "internalType": "uint256",
              "name": "tokenWeight",
              "type": "uint256"
            },
            {
              "internalType": "uint256",
              "name": "timeStamp",
              "type": "uint256"
            },
            {
              "internalType": "bool",
              "name": "isBlacklisted",
              "type": "bool"
            },
            {
              "components": [
                {
                  "internalType": "uint256",
                  "name": "to",
                  "type": "uint256"
                },
                {
                  "internalType": "uint256",
                  "name": "weight",
                  "type": "uint256"
                }
              ],
              "internalType": "struct ICopyrightGraph.Edge[]",
              "name": "edges",
              "type": "tuple[]"
            },
            {
              "internalType": "uint256",
              "name": "numberOfTokensBehind",
              "type": "uint256"
            }
          ],
          "internalType": "struct ICopyrightGraph.Token",
          "name": "token",
          "type": "tuple"
        }
      ],
      "name": "returnId",
      "outputs": [
        {
          "internalType": "uint256",
          "name": "id",
          "type": "uint256"
        }
      ],
      "stateMutability": "pure",
      "type": "function"
    },
    {
      "inputs": [
        {
          "internalType": "uint256",
          "name": "id",
          "type": "uint256"
        }
      ],
      "name": "returnIsBlacklisted",
      "outputs": [
        {
          "internalType": "bool",
          "name": "isBlacklisted",
          "type": "bool"
        }
      ],
      "stateMutability": "view",
      "type": "function"
    },
    {
      "inputs": [],
      "name": "returnLeafTokenIDs",
      "outputs": [
        {
          "internalType": "uint256[]",
          "name": "leafTokenIDs",
          "type": "uint256[]"
        }
      ],
      "stateMutability": "view",
      "type": "function"
    },
    {
      "inputs": [
        {
          "internalType": "uint256",
          "name": "id",
          "type": "uint256"
        }
      ],
      "name": "returnTime",
      "outputs": [
        {
          "internalType": "uint256",
          "name": "timeStamp",
          "type": "uint256"
        }
      ],
      "stateMutability": "view",
      "type": "function"
    },
    {
      "inputs": [
        {
          "internalType": "uint256",
          "name": "id",
          "type": "uint256"
        }
      ],
      "name": "returnTokenWeight",
      "outputs": [
        {
          "internalType": "uint256",
          "name": "weight",
          "type": "uint256"
        }
      ],
      "stateMutability": "view",
      "type": "function"
    },
    {
      "inputs": [
        {
          "internalType": "address",
          "name": "from",
          "type": "address"
        },
        {
          "internalType": "address",
          "name": "to",
          "type": "address"
        },
        {
          "internalType": "uint256",
          "name": "tokenId",
          "type": "uint256"
        }
      ],
      "name": "safeTransferFrom",
      "outputs": [],
      "stateMutability": "nonpayable",
      "type": "function"
    },
    {
      "inputs": [
        {
          "internalType": "address",
          "name": "from",
          "type": "address"
        },
        {
          "internalType": "address",
          "name": "to",
          "type": "address"
        },
        {
          "internalType": "uint256",
          "name": "tokenId",
          "type": "uint256"
        },
        {
          "internalType": "bytes",
          "name": "_data",
          "type": "bytes"
        }
      ],
      "name": "safeTransferFrom",
      "outputs": [],
      "stateMutability": "nonpayable",
      "type": "function"
    },
    {
      "inputs": [
        {
          "internalType": "address",
          "name": "operator",
          "type": "address"
        },
        {
          "internalType": "bool",
          "name": "approved",
          "type": "bool"
        }
      ],
      "name": "setApprovalForAll",
      "outputs": [],
      "stateMutability": "nonpayable",
      "type": "function"
    },
    {
      "inputs": [
        {
          "internalType": "uint256",
          "name": "id",
          "type": "uint256"
        },
        {
          "internalType": "string",
          "name": "name",
          "type": "string"
        },
        {
          "internalType": "string",
          "name": "symbol",
          "type": "string"
        },
        {
          "internalType": "string",
          "name": "uri",
          "type": "string"
        }
      ],
      "name": "setDistributionInfo",
      "outputs": [],
      "stateMutability": "nonpayable",
      "type": "function"
    },
    {
      "inputs": [
        {
          "internalType": "bytes4",
          "name": "interfaceId",
          "type": "bytes4"
        }
      ],
      "name": "supportsInterface",
      "outputs": [
        {
          "internalType": "bool",
          "name": "",
          "type": "bool"
        }
      ],
      "stateMutability": "view",
      "type": "function"
    },
    {
      "inputs": [],
      "name": "symbol",
      "outputs": [
        {
          "internalType": "string",
          "name": "",
          "type": "string"
        }
      ],
      "stateMutability": "view",
      "type": "function"
    },
    {
      "inputs": [],
      "name": "tokenCount",
      "outputs": [
        {
          "internalType": "uint256",
          "name": "",
          "type": "uint256"
        }
      ],
      "stateMutability": "view",
      "type": "function"
    },
    {
      "inputs": [
        {
          "internalType": "uint256",
          "name": "id",
          "type": "uint256"
        }
      ],
      "name": "tokenExists",
      "outputs": [
        {
          "internalType": "bool",
          "name": "exists",
          "type": "bool"
        }
      ],
      "stateMutability": "view",
      "type": "function"
    },
    {
      "inputs": [
        {
          "internalType": "uint256",
          "name": "tokenId",
          "type": "uint256"
        }
      ],
      "name": "tokenURI",
      "outputs": [
        {
          "internalType": "string",
          "name": "",
          "type": "string"
        }
      ],
      "stateMutability": "view",
      "type": "function"
    },
    {
      "inputs": [
        {
          "internalType": "address",
          "name": "from",
          "type": "address"
        },
        {
          "internalType": "address",
          "name": "to",
          "type": "address"
        },
        {
          "internalType": "uint256",
          "name": "tokenId",
          "type": "uint256"
        }
      ],
      "name": "transferFrom",
      "outputs": [],
      "stateMutability": "nonpayable",
      "type": "function"
    },
    {
      "inputs": [
        {
          "internalType": "address",
          "name": "newOwner",
          "type": "address"
        }
      ],
      "name": "transferOwnership",
      "outputs": [],
      "stateMutability": "nonpayable",
      "type": "function"
    }
  ],
  "bytecode": "0x60806040523480156200001157600080fd5b506040518060400160405280601481526020017f5465737420436f7079726967687420546f6b656e0000000000000000000000008152506040518060400160405280600381526020017f544354000000000000000000000000000000000000000000000000000000000081525081600090816200008f91906200043c565b508060019081620000a191906200043c565b505050620000c4620000b8620000f460201b60201c565b620000fc60201b60201c565b60086000908060018154018082558091505060019003906000526020600020016000909190919091505562000523565b600033905090565b6000600660009054906101000a900473ffffffffffffffffffffffffffffffffffffffff16905081600660006101000a81548173ffffffffffffffffffffffffffffffffffffffff021916908373ffffffffffffffffffffffffffffffffffffffff1602179055508173ffffffffffffffffffffffffffffffffffffffff168173ffffffffffffffffffffffffffffffffffffffff167f8be0079c531659141344cd1fd0a4f28419497f9722a3daafe3b4186f6b6457e060405160405180910390a35050565b600081519050919050565b7f4e487b7100000000000000000000000000000000000000000000000000000000600052604160045260246000fd5b7f4e487b7100000000000000000000000000000000000000000000000000000000600052602260045260246000fd5b600060028204905060018216806200024457607f821691505b6020821081036200025a5762000259620001fc565b5b50919050565b60008190508160005260206000209050919050565b60006020601f8301049050919050565b600082821b905092915050565b600060088302620002c47fffffffffffffffffffffffffffffffffffffffffffffffffffffffffffffffff8262000285565b620002d0868362000285565b95508019841693508086168417925050509392505050565b6000819050919050565b6000819050919050565b60006200031d620003176200031184620002e8565b620002f2565b620002e8565b9050919050565b6000819050919050565b6200033983620002fc565b62000351620003488262000324565b84845462000292565b825550505050565b600090565b6200036862000359565b620003758184846200032e565b505050565b5b818110156200039d57620003916000826200035e565b6001810190506200037b565b5050565b601f821115620003ec57620003b68162000260565b620003c18462000275565b81016020851015620003d1578190505b620003e9620003e08562000275565b8301826200037a565b50505b505050565b600082821c905092915050565b60006200041160001984600802620003f1565b1980831691505092915050565b60006200042c8383620003fe565b9150826002028217905092915050565b6200044782620001c2565b67ffffffffffffffff811115620004635762000462620001cd565b5b6200046f82546200022b565b6200047c828285620003a1565b600060209050601f831160018114620004b457600084156200049f578287015190505b620004ab85826200041e565b8655506200051b565b601f198416620004c48662000260565b60005b82811015620004ee57848901518255600182019150602085019450602081019050620004c7565b868310156200050e57848901516200050a601f891682620003fe565b8355505b6001600288020188555050505b505050505050565b61838a80620005336000396000f3fe608060405260043610620002655760003560e01c80636831dc28116200014b5780639f181b5e11620000bb578063c87b56dd1162000079578063c87b56dd14620009b8578063ce8b4afd14620009fc578063e4b50cb81462000a2a578063e985e9c51462000a6e578063f2fde38b1462000ab25762000265565b80639f181b5e14620008de578063a22cb465146200090e578063b6b55f25146200093c578063b88d4fde146200095c578063beae4942146200098a5762000265565b8063866fe41a1162000109578063866fe41a14620007c85780638da5cb5b14620007f657806395d89b411462000826578063981ad46814620008565780639f0fcc11146200089a5762000265565b80636831dc2814620006b45780636e2a00ee14620006e257806370a082311462000726578063715018a6146200076a57806375175d9814620007845762000265565b806316b407a811620001e7578063465365b911620001a5578063465365b9146200058c5780635b236f4d14620005ba5780635cadf4b114620005fe5780635e243915146200062c5780636352211e14620006705762000265565b806316b407a8146200047857806323b872dd14620004bc5780632657322414620004ea578063285a37e4146200051a57806342842e0e146200055e5762000265565b8063081812fc1162000235578063081812fc1462000350578063095ea7b314620003945780630ab71fb114620003c25780630b8e12fc14620004065780630bd06246146200044a5762000265565b8062923f9e146200026a57806301ffc9a714620002ae57806306fdde0314620002f2578063076fcc1f1462000322575b600080fd5b3480156200027757600080fd5b5062000296600480360381019062000290919062002f0e565b62000ae0565b604051620002a5919062002f5d565b60405180910390f35b348015620002bb57600080fd5b50620002da6004803603810190620002d4919062002fd7565b62000b2a565b604051620002e9919062002f5d565b60405180910390f35b348015620002ff57600080fd5b506200030a62000c10565b604051620003199190620030ad565b60405180910390f35b3480156200032f57600080fd5b506200034e6004803603810190620003489190620030d1565b62000caa565b005b3480156200035d57600080fd5b506200037c600480360381019062000376919062002f0e565b62000cf2565b6040516200038b91906200315d565b60405180910390f35b348015620003a157600080fd5b50620003c06004803603810190620003ba9190620031ab565b62000d7c565b005b348015620003cf57600080fd5b50620003ee6004803603810190620003e89190620034a4565b62000ea4565b604051620003fd919062003506565b60405180910390f35b3480156200041357600080fd5b506200043260048036038101906200042c919062002f0e565b62000eee565b60405162000441919062003506565b60405180910390f35b3480156200045757600080fd5b50620004766004803603810190620004709190620035f9565b62000f38565b005b3480156200048557600080fd5b50620004a460048036038101906200049e919062002f0e565b62001306565b604051620004b3919062003506565b60405180910390f35b348015620004c957600080fd5b50620004e86004803603810190620004e291906200365f565b62001350565b005b348015620004f757600080fd5b5062000502620013b9565b60405162000511919062003789565b60405180910390f35b3480156200052757600080fd5b50620005466004803603810190620005409190620037ad565b62001413565b60405162000555919062002f5d565b60405180910390f35b3480156200056b57600080fd5b506200058a60048036038101906200058491906200365f565b6200147f565b005b3480156200059957600080fd5b50620005b86004803603810190620005b29190620037f4565b620014a1565b005b348015620005c757600080fd5b50620005e66004803603810190620005e0919062002f0e565b6200154b565b604051620005f5919062002f5d565b60405180910390f35b3480156200060b57600080fd5b506200062a600480360381019062000624919062003903565b62001575565b005b3480156200063957600080fd5b5062000658600480360381019062000652919062002f0e565b6200165f565b60405162000667919062002f5d565b60405180910390f35b3480156200067d57600080fd5b506200069c600480360381019062000696919062002f0e565b62001689565b604051620006ab91906200315d565b60405180910390f35b348015620006c157600080fd5b50620006e06004803603810190620006da9190620037f4565b6200173d565b005b348015620006ef57600080fd5b506200070e600480360381019062000708919062002f0e565b620017e7565b6040516200071d91906200315d565b60405180910390f35b3480156200073357600080fd5b506200075260048036038101906200074c9190620039d2565b62001999565b60405162000761919062003506565b60405180910390f35b3480156200077757600080fd5b506200078262001a53565b005b3480156200079157600080fd5b50620007b06004803603810190620007aa919062002f0e565b62001ae4565b604051620007bf919062003a6f565b60405180910390f35b348015620007d557600080fd5b50620007f46004803603810190620007ee919062003a8c565b62001b21565b005b3480156200080357600080fd5b506200080e62001b6b565b6040516200081d91906200315d565b60405180910390f35b3480156200083357600080fd5b506200083e62001b95565b6040516200084d9190620030ad565b60405180910390f35b3480156200086357600080fd5b506200088260048036038101906200087c919062002f0e565b62001c2f565b60405162000891919062002f5d565b60405180910390f35b348015620008a757600080fd5b50620008c66004803603810190620008c0919062002f0e565b62001c79565b604051620008d5919062002f5d565b60405180910390f35b348015620008eb57600080fd5b50620008f662001c98565b60405162000905919062003506565b60405180910390f35b3480156200091b57600080fd5b506200093a600480360381019062000934919062003b3c565b62001c9e565b005b6200095a600480360381019062000954919062002f0e565b62001cb8565b005b3480156200096957600080fd5b5062000988600480360381019062000982919062003c37565b62001d08565b005b3480156200099757600080fd5b50620009b66004803603810190620009b0919062003cc8565b62001d73565b005b348015620009c557600080fd5b50620009e46004803603810190620009de919062002f0e565b62001dbc565b604051620009f39190620030ad565b60405180910390f35b34801562000a0957600080fd5b5062000a28600480360381019062000a229190620037f4565b62001e70565b005b34801562000a3757600080fd5b5062000a56600480360381019062000a50919062002f0e565b62001eb8565b60405162000a65919062003ee3565b60405180910390f35b34801562000a7b57600080fd5b5062000a9a600480360381019062000a94919062003f07565b62001f95565b60405162000aa9919062002f5d565b60405180910390f35b34801562000abf57600080fd5b5062000ade600480360381019062000ad89190620039d2565b62002029565b005b60008062000b25576040517f08c379a000000000000000000000000000000000000000000000000000000000815260040162000b1c9062003f9e565b60405180910390fd5b919050565b60007f80ac58cd000000000000000000000000000000000000000000000000000000007bffffffffffffffffffffffffffffffffffffffffffffffffffffffff1916827bffffffffffffffffffffffffffffffffffffffffffffffffffffffff1916148062000bf657507f5b5e139f000000000000000000000000000000000000000000000000000000007bffffffffffffffffffffffffffffffffffffffffffffffffffffffff1916827bffffffffffffffffffffffffffffffffffffffffffffffffffffffff1916145b8062000c09575062000c08826200212c565b5b9050919050565b60606000805462000c219062003fef565b80601f016020809104026020016040519081016040528092919081815260200182805462000c4f9062003fef565b801562000ca05780601f1062000c745761010080835404028352916020019162000ca0565b820191906000526020600020905b81548152906001019060200180831162000c8257829003601f168201915b5050505050905090565b600062000cee576040517f08c379a000000000000000000000000000000000000000000000000000000000815260040162000ce59062003f9e565b60405180910390fd5b5050565b600062000cff8262002196565b62000d41576040517f08c379a000000000000000000000000000000000000000000000000000000000815260040162000d38906200409a565b60405180910390fd5b6004600083815260200190815260200160002060009054906101000a900473ffffffffffffffffffffffffffffffffffffffff169050919050565b600062000d898262001689565b90508073ffffffffffffffffffffffffffffffffffffffff168373ffffffffffffffffffffffffffffffffffffffff160362000dfc576040517f08c379a000000000000000000000000000000000000000000000000000000000815260040162000df39062004132565b60405180910390fd5b8073ffffffffffffffffffffffffffffffffffffffff1662000e1d62002202565b73ffffffffffffffffffffffffffffffffffffffff16148062000e51575062000e508162000e4a62002202565b62001f95565b5b62000e93576040517f08c379a000000000000000000000000000000000000000000000000000000000815260040162000e8a90620041ca565b60405180910390fd5b62000e9f83836200220a565b505050565b60008062000ee9576040517f08c379a000000000000000000000000000000000000000000000000000000000815260040162000ee09062003f9e565b60405180910390fd5b919050565b60008062000f33576040517f08c379a000000000000000000000000000000000000000000000000000000000815260040162000f2a9062003f9e565b60405180910390fd5b919050565b600060076000815462000f4b906200421b565b919050819055905062000f6862000f6162002202565b82620022c5565b81600a60008381526020019081526020016000206000018190555042600a60008381526020019081526020016000206001018190555060005b83518110156200110e57600084828151811062000fc35762000fc262004268565b5b6020026020010151036200100e576040517f08c379a000000000000000000000000000000000000000000000000000000000815260040162001005906200430d565b60405180910390fd5b6200103684828151811062001028576200102762004268565b5b602002602001015162002196565b62001078576040517f08c379a00000000000000000000000000000000000000000000000000000000081526004016200106f906200437f565b60405180910390fd5b600c600085838151811062001092576200109162004268565b5b6020026020010151815260200190815260200160002060009054906101000a900460ff16620010f8576040517f08c379a0000000000000000000000000000000000000000000000000000000008152600401620010ef9062004417565b60405180910390fd5b808062001105906200421b565b91505062000fa1565b50600083511115620012ac5760005b8351811015620012a55760008482815181106200113f576200113e62004268565b5b6020026020010151905060006040518060400160405280838152602001600a6000858152602001908152602001600020600001548152509050600a6000600754815260200190815260200160002060030181908060018154018082558091505060019003906000526020600020906002020160009091909190915060008201518160000155602082015181600101555050600a600060075481526020019081526020016000206004016000815480929190620011fb906200421b565b919050555060006009600084815260200190815260200160002054146200128d576000600960008481526020019081526020016000205490506000600960008581526020019081526020016000208190555080600960008781526020019081526020016000208190555084600882815481106200127d576200127c62004268565b5b9060005260206000200181905550505b505080806200129c906200421b565b9150506200111d565b5062001301565b60088190806001815401808255809150506001900390600052602060002001600090919091909150556001600880549050620012e9919062004439565b60096000838152602001908152602001600020819055505b505050565b6000806200134b576040517f08c379a0000000000000000000000000000000000000000000000000000000008152600401620013429062003f9e565b60405180910390fd5b919050565b620013656200135e62002202565b82620022e5565b620013a7576040517f08c379a00000000000000000000000000000000000000000000000000000000081526004016200139e90620044ea565b60405180910390fd5b620013b4838383620023d0565b505050565b606060088054806020026020016040519081016040528092919081815260200182805480156200140957602002820191906000526020600020905b815481526020019060010190808311620013f4575b5050505050905090565b60008173ffffffffffffffffffffffffffffffffffffffff16600d600085815260200190815260200160002060009054906101000a900473ffffffffffffffffffffffffffffffffffffffff1673ffffffffffffffffffffffffffffffffffffffff1614905092915050565b6200149c8383836040518060200160405280600081525062001d08565b505050565b3373ffffffffffffffffffffffffffffffffffffffff16620014c38362001689565b73ffffffffffffffffffffffffffffffffffffffff16146200151c576040517f08c379a0000000000000000000000000000000000000000000000000000000008152600401620015139062004582565b60405180910390fd5b80600c600084815260200190815260200160002060006101000a81548160ff0219169083151502179055505050565b6000600c600083815260200190815260200160002060009054906101000a900460ff169050919050565b3373ffffffffffffffffffffffffffffffffffffffff16620015978562001689565b73ffffffffffffffffffffffffffffffffffffffff1614620015f0576040517f08c379a0000000000000000000000000000000000000000000000000000000008152600401620015e7906200461a565b60405180910390fd5b82600e6000868152602001908152602001600020908162001612919062004804565b5081600f6000868152602001908152602001600020908162001635919062004804565b508060106000868152602001908152602001600020908162001658919062004804565b5050505050565b6000600b600083815260200190815260200160002060009054906101000a900460ff169050919050565b6000806002600084815260200190815260200160002060009054906101000a900473ffffffffffffffffffffffffffffffffffffffff169050600073ffffffffffffffffffffffffffffffffffffffff168173ffffffffffffffffffffffffffffffffffffffff160362001734576040517f08c379a00000000000000000000000000000000000000000000000000000000081526004016200172b9062004961565b60405180910390fd5b80915050919050565b3373ffffffffffffffffffffffffffffffffffffffff166200175f8362001689565b73ffffffffffffffffffffffffffffffffffffffff1614620017b8576040517f08c379a0000000000000000000000000000000000000000000000000000000008152600401620017af9062004582565b60405180910390fd5b80600b600084815260200190815260200160002060006101000a81548160ff0219169083151502179055505050565b6000600b600083815260200190815260200160002060009054906101000a900460ff166200184c576040517f08c379a00000000000000000000000000000000000000000000000000000000081526004016200184390620049f9565b60405180910390fd5b3373ffffffffffffffffffffffffffffffffffffffff166200186e8362001689565b73ffffffffffffffffffffffffffffffffffffffff1614620018c7576040517f08c379a0000000000000000000000000000000000000000000000000000000008152600401620018be906200461a565b60405180910390fd5b6000600e6000848152602001908152602001600020600f600085815260200190815260200160002060106000868152602001908152602001600020604051620019109062002e80565b6200191e9392919062004aab565b604051809103906000f0801580156200193b573d6000803e3d6000fd5b50905080600d600085815260200190815260200160002060006101000a81548173ffffffffffffffffffffffffffffffffffffffff021916908373ffffffffffffffffffffffffffffffffffffffff16021790555080915050919050565b60008073ffffffffffffffffffffffffffffffffffffffff168273ffffffffffffffffffffffffffffffffffffffff160362001a0c576040517f08c379a000000000000000000000000000000000000000000000000000000000815260040162001a039062004b73565b60405180910390fd5b600360008373ffffffffffffffffffffffffffffffffffffffff1673ffffffffffffffffffffffffffffffffffffffff168152602001908152602001600020549050919050565b62001a5d62002202565b73ffffffffffffffffffffffffffffffffffffffff1662001a7d62001b6b565b73ffffffffffffffffffffffffffffffffffffffff161462001ad6576040517f08c379a000000000000000000000000000000000000000000000000000000000815260040162001acd9062004be5565b60405180910390fd5b62001ae2600062002648565b565b6000600d600083815260200190815260200160002060009054906101000a900473ffffffffffffffffffffffffffffffffffffffff169050919050565b600062001b65576040517f08c379a000000000000000000000000000000000000000000000000000000000815260040162001b5c9062003f9e565b60405180910390fd5b50505050565b6000600660009054906101000a900473ffffffffffffffffffffffffffffffffffffffff16905090565b60606001805462001ba69062003fef565b80601f016020809104026020016040519081016040528092919081815260200182805462001bd49062003fef565b801562001c255780601f1062001bf95761010080835404028352916020019162001c25565b820191906000526020600020905b81548152906001019060200180831162001c0757829003601f168201915b5050505050905090565b60008062001c74576040517f08c379a000000000000000000000000000000000000000000000000000000000815260040162001c6b9062003f9e565b60405180910390fd5b919050565b6000806009600084815260200190815260200160002054119050919050565b60075481565b62001cb462001cac62002202565b83836200270e565b5050565b62001cc38162002196565b62001d05576040517f08c379a000000000000000000000000000000000000000000000000000000000815260040162001cfc9062004c7d565b60405180910390fd5b50565b62001d1d62001d1662002202565b83620022e5565b62001d5f576040517f08c379a000000000000000000000000000000000000000000000000000000000815260040162001d5690620044ea565b60405180910390fd5b62001d6d848484846200287f565b50505050565b600062001db7576040517f08c379a000000000000000000000000000000000000000000000000000000000815260040162001dae9062003f9e565b60405180910390fd5b505050565b606062001dc98262002196565b62001e0b576040517f08c379a000000000000000000000000000000000000000000000000000000000815260040162001e029062004d15565b60405180910390fd5b600062001e17620028e2565b9050600081511162001e39576040518060200160405280600081525062001e68565b8062001e4584620028f9565b60405160200162001e5892919062004d79565b6040516020818303038152906040525b915050919050565b600062001eb4576040517f08c379a000000000000000000000000000000000000000000000000000000000815260040162001eab9062003f9e565b60405180910390fd5b5050565b62001ec262002e8e565b600a60008381526020019081526020016000206040518060a001604052908160008201548152602001600182015481526020016002820160009054906101000a900460ff1615151515815260200160038201805480602002602001604051908101604052809291908181526020016000905b8282101562001f7c5783829060005260206000209060020201604051806040016040529081600082015481526020016001820154815250508152602001906001019062001f34565b5050505081526020016004820154815250509050919050565b6000600560008473ffffffffffffffffffffffffffffffffffffffff1673ffffffffffffffffffffffffffffffffffffffff16815260200190815260200160002060008373ffffffffffffffffffffffffffffffffffffffff1673ffffffffffffffffffffffffffffffffffffffff16815260200190815260200160002060009054906101000a900460ff16905092915050565b6200203362002202565b73ffffffffffffffffffffffffffffffffffffffff166200205362001b6b565b73ffffffffffffffffffffffffffffffffffffffff1614620020ac576040517f08c379a0000000000000000000000000000000000000000000000000000000008152600401620020a39062004be5565b60405180910390fd5b600073ffffffffffffffffffffffffffffffffffffffff168173ffffffffffffffffffffffffffffffffffffffff16036200211e576040517f08c379a0000000000000000000000000000000000000000000000000000000008152600401620021159062004e17565b60405180910390fd5b620021298162002648565b50565b60007f01ffc9a7000000000000000000000000000000000000000000000000000000007bffffffffffffffffffffffffffffffffffffffffffffffffffffffff1916827bffffffffffffffffffffffffffffffffffffffffffffffffffffffff1916149050919050565b60008073ffffffffffffffffffffffffffffffffffffffff166002600084815260200190815260200160002060009054906101000a900473ffffffffffffffffffffffffffffffffffffffff1673ffffffffffffffffffffffffffffffffffffffff1614159050919050565b600033905090565b816004600083815260200190815260200160002060006101000a81548173ffffffffffffffffffffffffffffffffffffffff021916908373ffffffffffffffffffffffffffffffffffffffff160217905550808273ffffffffffffffffffffffffffffffffffffffff166200227f8362001689565b73ffffffffffffffffffffffffffffffffffffffff167f8c5be1e5ebec7d5bd14f71427d1e84f3dd0314c0f7b2291e5b200ac8c7c3b92560405160405180910390a45050565b620022e182826040518060200160405280600081525062002a72565b5050565b6000620022f28262002196565b62002334576040517f08c379a00000000000000000000000000000000000000000000000000000000081526004016200232b9062004eaf565b60405180910390fd5b6000620023418362001689565b90508073ffffffffffffffffffffffffffffffffffffffff168473ffffffffffffffffffffffffffffffffffffffff16148062002386575062002385818562001f95565b5b80620023c757508373ffffffffffffffffffffffffffffffffffffffff16620023af8462000cf2565b73ffffffffffffffffffffffffffffffffffffffff16145b91505092915050565b8273ffffffffffffffffffffffffffffffffffffffff16620023f28262001689565b73ffffffffffffffffffffffffffffffffffffffff16146200244b576040517f08c379a0000000000000000000000000000000000000000000000000000000008152600401620024429062004f47565b60405180910390fd5b600073ffffffffffffffffffffffffffffffffffffffff168273ffffffffffffffffffffffffffffffffffffffff1603620024bd576040517f08c379a0000000000000000000000000000000000000000000000000000000008152600401620024b49062004fdf565b60405180910390fd5b620024ca83838362002ad4565b620024d76000826200220a565b6001600360008573ffffffffffffffffffffffffffffffffffffffff1673ffffffffffffffffffffffffffffffffffffffff168152602001908152602001600020600082825462002529919062004439565b925050819055506001600360008473ffffffffffffffffffffffffffffffffffffffff1673ffffffffffffffffffffffffffffffffffffffff168152602001908152602001600020600082825462002582919062005001565b92505081905550816002600083815260200190815260200160002060006101000a81548173ffffffffffffffffffffffffffffffffffffffff021916908373ffffffffffffffffffffffffffffffffffffffff160217905550808273ffffffffffffffffffffffffffffffffffffffff168473ffffffffffffffffffffffffffffffffffffffff167fddf252ad1be2c89b69c2b068fc378daa952ba7f163c4a11628f55a4df523b3ef60405160405180910390a46200264383838362002ad9565b505050565b6000600660009054906101000a900473ffffffffffffffffffffffffffffffffffffffff16905081600660006101000a81548173ffffffffffffffffffffffffffffffffffffffff021916908373ffffffffffffffffffffffffffffffffffffffff1602179055508173ffffffffffffffffffffffffffffffffffffffff168173ffffffffffffffffffffffffffffffffffffffff167f8be0079c531659141344cd1fd0a4f28419497f9722a3daafe3b4186f6b6457e060405160405180910390a35050565b8173ffffffffffffffffffffffffffffffffffffffff168373ffffffffffffffffffffffffffffffffffffffff16036200277f576040517f08c379a00000000000000000000000000000000000000000000000000000000081526004016200277690620050ae565b60405180910390fd5b80600560008573ffffffffffffffffffffffffffffffffffffffff1673ffffffffffffffffffffffffffffffffffffffff16815260200190815260200160002060008473ffffffffffffffffffffffffffffffffffffffff1673ffffffffffffffffffffffffffffffffffffffff16815260200190815260200160002060006101000a81548160ff0219169083151502179055508173ffffffffffffffffffffffffffffffffffffffff168373ffffffffffffffffffffffffffffffffffffffff167f17307eab39ab6107e8899845ad3d59bd9653f200f220920489ca2b5937696c318360405162002872919062002f5d565b60405180910390a3505050565b6200288c848484620023d0565b6200289a8484848462002ade565b620028dc576040517f08c379a0000000000000000000000000000000000000000000000000000000008152600401620028d39062005146565b60405180910390fd5b50505050565b606060405180602001604052806000815250905090565b60606000820362002942576040518060400160405280600181526020017f3000000000000000000000000000000000000000000000000000000000000000815250905062002a6d565b600082905060005b600082146200297a57808062002960906200421b565b915050600a8262002972919062005197565b91506200294a565b60008167ffffffffffffffff811115620029995762002998620031f7565b5b6040519080825280601f01601f191660200182016040528015620029cc5781602001600182028036833780820191505090505b5090505b6000851462002a6657600182620029e8919062004439565b9150600a85620029f99190620051cf565b603062002a07919062005001565b60f81b81838151811062002a205762002a1f62004268565b5b60200101907effffffffffffffffffffffffffffffffffffffffffffffffffffffffffffff1916908160001a905350600a8562002a5e919062005197565b9450620029d0565b8093505050505b919050565b62002a7e838362002c76565b62002a8d600084848462002ade565b62002acf576040517f08c379a000000000000000000000000000000000000000000000000000000000815260040162002ac69062005146565b60405180910390fd5b505050565b505050565b505050565b600062002b018473ffffffffffffffffffffffffffffffffffffffff1662002e5d565b1562002c69578373ffffffffffffffffffffffffffffffffffffffff1663150b7a0262002b2d62002202565b8786866040518563ffffffff1660e01b815260040162002b51949392919062005264565b6020604051808303816000875af192505050801562002b9057506040513d601f19601f8201168201806040525081019062002b8d9190620052cf565b60015b62002c18573d806000811462002bc3576040519150601f19603f3d011682016040523d82523d6000602084013e62002bc8565b606091505b50600081510362002c10576040517f08c379a000000000000000000000000000000000000000000000000000000000815260040162002c079062005146565b60405180910390fd5b805181602001fd5b63150b7a0260e01b7bffffffffffffffffffffffffffffffffffffffffffffffffffffffff1916817bffffffffffffffffffffffffffffffffffffffffffffffffffffffff19161491505062002c6e565b600190505b949350505050565b600073ffffffffffffffffffffffffffffffffffffffff168273ffffffffffffffffffffffffffffffffffffffff160362002ce8576040517f08c379a000000000000000000000000000000000000000000000000000000000815260040162002cdf9062005351565b60405180910390fd5b62002cf38162002196565b1562002d36576040517f08c379a000000000000000000000000000000000000000000000000000000000815260040162002d2d90620053c3565b60405180910390fd5b62002d446000838362002ad4565b6001600360008473ffffffffffffffffffffffffffffffffffffffff1673ffffffffffffffffffffffffffffffffffffffff168152602001908152602001600020600082825462002d96919062005001565b92505081905550816002600083815260200190815260200160002060006101000a81548173ffffffffffffffffffffffffffffffffffffffff021916908373ffffffffffffffffffffffffffffffffffffffff160217905550808273ffffffffffffffffffffffffffffffffffffffff16600073ffffffffffffffffffffffffffffffffffffffff167fddf252ad1be2c89b69c2b068fc378daa952ba7f163c4a11628f55a4df523b3ef60405160405180910390a462002e596000838362002ad9565b5050565b6000808273ffffffffffffffffffffffffffffffffffffffff163b119050919050565b612f6f80620053e683390190565b6040518060a00160405280600081526020016000815260200160001515815260200160608152602001600081525090565b6000604051905090565b600080fd5b600080fd5b6000819050919050565b62002ee88162002ed3565b811462002ef457600080fd5b50565b60008135905062002f088162002edd565b92915050565b60006020828403121562002f275762002f2662002ec9565b5b600062002f378482850162002ef7565b91505092915050565b60008115159050919050565b62002f578162002f40565b82525050565b600060208201905062002f74600083018462002f4c565b92915050565b60007fffffffff0000000000000000000000000000000000000000000000000000000082169050919050565b62002fb18162002f7a565b811462002fbd57600080fd5b50565b60008135905062002fd18162002fa6565b92915050565b60006020828403121562002ff05762002fef62002ec9565b5b6000620030008482850162002fc0565b91505092915050565b600081519050919050565b600082825260208201905092915050565b60005b838110156200304557808201518184015260208101905062003028565b8381111562003055576000848401525b50505050565b6000601f19601f8301169050919050565b6000620030798262003009565b62003085818562003014565b93506200309781856020860162003025565b620030a2816200305b565b840191505092915050565b60006020820190508181036000830152620030c981846200306c565b905092915050565b60008060408385031215620030eb57620030ea62002ec9565b5b6000620030fb8582860162002ef7565b92505060206200310e8582860162002ef7565b9150509250929050565b600073ffffffffffffffffffffffffffffffffffffffff82169050919050565b6000620031458262003118565b9050919050565b620031578162003138565b82525050565b60006020820190506200317460008301846200314c565b92915050565b620031858162003138565b81146200319157600080fd5b50565b600081359050620031a5816200317a565b92915050565b60008060408385031215620031c557620031c462002ec9565b5b6000620031d58582860162003194565b9250506020620031e88582860162002ef7565b9150509250929050565b600080fd5b7f4e487b7100000000000000000000000000000000000000000000000000000000600052604160045260246000fd5b62003231826200305b565b810181811067ffffffffffffffff82111715620032535762003252620031f7565b5b80604052505050565b60006200326862002ebf565b905062003276828262003226565b919050565b600080fd5b6200328b8162002f40565b81146200329757600080fd5b50565b600081359050620032ab8162003280565b92915050565b600080fd5b600067ffffffffffffffff821115620032d457620032d3620031f7565b5b602082029050602081019050919050565b600080fd5b600060408284031215620033035762003302620031f2565b5b6200330f60406200325c565b90506000620033218482850162002ef7565b6000830152506020620033378482850162002ef7565b60208301525092915050565b60006200335a6200335484620032b6565b6200325c565b9050808382526020820190506040840283018581111562003380576200337f620032e5565b5b835b81811015620033ad5780620033988882620032ea565b84526020840193505060408101905062003382565b5050509392505050565b600082601f830112620033cf57620033ce620032b1565b5b8135620033e184826020860162003343565b91505092915050565b600060a08284031215620034035762003402620031f2565b5b6200340f60a06200325c565b90506000620034218482850162002ef7565b6000830152506020620034378482850162002ef7565b60208301525060406200344d848285016200329a565b604083015250606082013567ffffffffffffffff8111156200347457620034736200327b565b5b6200348284828501620033b7565b6060830152506080620034988482850162002ef7565b60808301525092915050565b600060208284031215620034bd57620034bc62002ec9565b5b600082013567ffffffffffffffff811115620034de57620034dd62002ece565b5b620034ec84828501620033ea565b91505092915050565b620035008162002ed3565b82525050565b60006020820190506200351d6000830184620034f5565b92915050565b600067ffffffffffffffff821115620035415762003540620031f7565b5b602082029050602081019050919050565b600062003569620035638462003523565b6200325c565b905080838252602082019050602084028301858111156200358f576200358e620032e5565b5b835b81811015620035bc5780620035a7888262002ef7565b84526020840193505060208101905062003591565b5050509392505050565b600082601f830112620035de57620035dd620032b1565b5b8135620035f084826020860162003552565b91505092915050565b6000806040838503121562003613576200361262002ec9565b5b600083013567ffffffffffffffff81111562003634576200363362002ece565b5b6200364285828601620035c6565b9250506020620036558582860162002ef7565b9150509250929050565b6000806000606084860312156200367b576200367a62002ec9565b5b60006200368b8682870162003194565b93505060206200369e8682870162003194565b9250506040620036b18682870162002ef7565b9150509250925092565b600081519050919050565b600082825260208201905092915050565b6000819050602082019050919050565b620036f28162002ed3565b82525050565b6000620037068383620036e7565b60208301905092915050565b6000602082019050919050565b60006200372c82620036bb565b620037388185620036c6565b93506200374583620036d7565b8060005b838110156200377c578151620037608882620036f8565b97506200376d8362003712565b92505060018101905062003749565b5085935050505092915050565b60006020820190508181036000830152620037a581846200371f565b905092915050565b60008060408385031215620037c757620037c662002ec9565b5b6000620037d78582860162002ef7565b9250506020620037ea8582860162003194565b9150509250929050565b600080604083850312156200380e576200380d62002ec9565b5b60006200381e8582860162002ef7565b925050602062003831858286016200329a565b9150509250929050565b600080fd5b600067ffffffffffffffff8211156200385e576200385d620031f7565b5b62003869826200305b565b9050602081019050919050565b82818337600083830152505050565b60006200389c620038968462003840565b6200325c565b905082815260208101848484011115620038bb57620038ba6200383b565b5b620038c884828562003876565b509392505050565b600082601f830112620038e857620038e7620032b1565b5b8135620038fa84826020860162003885565b91505092915050565b6000806000806080858703121562003920576200391f62002ec9565b5b6000620039308782880162002ef7565b945050602085013567ffffffffffffffff81111562003954576200395362002ece565b5b6200396287828801620038d0565b935050604085013567ffffffffffffffff81111562003986576200398562002ece565b5b6200399487828801620038d0565b925050606085013567ffffffffffffffff811115620039b857620039b762002ece565b5b620039c687828801620038d0565b91505092959194509250565b600060208284031215620039eb57620039ea62002ec9565b5b6000620039fb8482850162003194565b91505092915050565b6000819050919050565b600062003a2f62003a2962003a238462003118565b62003a04565b62003118565b9050919050565b600062003a438262003a0e565b9050919050565b600062003a578262003a36565b9050919050565b62003a698162003a4a565b82525050565b600060208201905062003a86600083018462003a5e565b92915050565b6000806000806080858703121562003aa95762003aa862002ec9565b5b600085013567ffffffffffffffff81111562003aca5762003ac962002ece565b5b62003ad887828801620035c6565b945050602085013567ffffffffffffffff81111562003afc5762003afb62002ece565b5b62003b0a87828801620035c6565b935050604062003b1d8782880162002ef7565b925050606062003b308782880162002ef7565b91505092959194509250565b6000806040838503121562003b565762003b5562002ec9565b5b600062003b668582860162003194565b925050602062003b79858286016200329a565b9150509250929050565b600067ffffffffffffffff82111562003ba15762003ba0620031f7565b5b62003bac826200305b565b9050602081019050919050565b600062003bd062003bca8462003b83565b6200325c565b90508281526020810184848401111562003bef5762003bee6200383b565b5b62003bfc84828562003876565b509392505050565b600082601f83011262003c1c5762003c1b620032b1565b5b813562003c2e84826020860162003bb9565b91505092915050565b6000806000806080858703121562003c545762003c5362002ec9565b5b600062003c648782880162003194565b945050602062003c778782880162003194565b935050604062003c8a8782880162002ef7565b925050606085013567ffffffffffffffff81111562003cae5762003cad62002ece565b5b62003cbc8782880162003c04565b91505092959194509250565b60008060006060848603121562003ce45762003ce362002ec9565b5b600084013567ffffffffffffffff81111562003d055762003d0462002ece565b5b62003d1386828701620035c6565b935050602084013567ffffffffffffffff81111562003d375762003d3662002ece565b5b62003d4586828701620035c6565b925050604062003d588682870162002ef7565b9150509250925092565b62003d6d8162002f40565b82525050565b600081519050919050565b600082825260208201905092915050565b6000819050602082019050919050565b60408201600082015162003db76000850182620036e7565b50602082015162003dcc6020850182620036e7565b50505050565b600062003de0838362003d9f565b60408301905092915050565b6000602082019050919050565b600062003e068262003d73565b62003e12818562003d7e565b935062003e1f8362003d8f565b8060005b8381101562003e5657815162003e3a888262003dd2565b975062003e478362003dec565b92505060018101905062003e23565b5085935050505092915050565b600060a08301600083015162003e7d6000860182620036e7565b50602083015162003e926020860182620036e7565b50604083015162003ea7604086018262003d62565b506060830151848203606086015262003ec1828262003df9565b915050608083015162003ed86080860182620036e7565b508091505092915050565b6000602082019050818103600083015262003eff818462003e63565b905092915050565b6000806040838503121562003f215762003f2062002ec9565b5b600062003f318582860162003194565b925050602062003f448582860162003194565b9150509250929050565b7f4e6f7420696d706c656d656e746564207965742e000000000000000000000000600082015250565b600062003f8660148362003014565b915062003f938262003f4e565b602082019050919050565b6000602082019050818103600083015262003fb98162003f77565b9050919050565b7f4e487b7100000000000000000000000000000000000000000000000000000000600052602260045260246000fd5b600060028204905060018216806200400857607f821691505b6020821081036200401e576200401d62003fc0565b5b50919050565b7f4552433732313a20617070726f76656420717565727920666f72206e6f6e657860008201527f697374656e7420746f6b656e0000000000000000000000000000000000000000602082015250565b600062004082602c8362003014565b91506200408f8262004024565b604082019050919050565b60006020820190508181036000830152620040b58162004073565b9050919050565b7f4552433732313a20617070726f76616c20746f2063757272656e74206f776e6560008201527f7200000000000000000000000000000000000000000000000000000000000000602082015250565b60006200411a60218362003014565b91506200412782620040bc565b604082019050919050565b600060208201905081810360008301526200414d816200410b565b9050919050565b7f4552433732313a20617070726f76652063616c6c6572206973206e6f74206f7760008201527f6e6572206e6f7220617070726f76656420666f7220616c6c0000000000000000602082015250565b6000620041b260388362003014565b9150620041bf8262004154565b604082019050919050565b60006020820190508181036000830152620041e581620041a3565b9050919050565b7f4e487b7100000000000000000000000000000000000000000000000000000000600052601160045260246000fd5b6000620042288262002ed3565b91507fffffffffffffffffffffffffffffffffffffffffffffffffffffffffffffffff82036200425d576200425c620041ec565b5b600182019050919050565b7f4e487b7100000000000000000000000000000000000000000000000000000000600052603260045260246000fd5b7f506172656e7420746f6b656e204944206f66206120706172656e74206973207a60008201527f65726f2e00000000000000000000000000000000000000000000000000000000602082015250565b6000620042f560248362003014565b9150620043028262004297565b604082019050919050565b600060208201905081810360008301526200432881620042e6565b9050919050565b7f506172656e7420746f6b656e20646f6573206e6f742065786973742e00000000600082015250565b600062004367601c8362003014565b915062004374826200432f565b602082019050919050565b600060208201905081810360008301526200439a8162004358565b9050919050565b7f506172656e7420746f6b656e20646f6573206e6f7420616c6c6f772061646f7060008201527f74696f6e2e000000000000000000000000000000000000000000000000000000602082015250565b6000620043ff60258362003014565b91506200440c82620043a1565b604082019050919050565b600060208201905081810360008301526200443281620043f0565b9050919050565b6000620044468262002ed3565b9150620044538362002ed3565b925082821015620044695762004468620041ec565b5b828203905092915050565b7f4552433732313a207472616e736665722063616c6c6572206973206e6f74206f60008201527f776e6572206e6f7220617070726f766564000000000000000000000000000000602082015250565b6000620044d260318362003014565b9150620044df8262004474565b604082019050919050565b600060208201905081810360008301526200450581620044c3565b9050919050565b7f596f7520646f6e27742068617665207065726d697373696f6e20746f2063686160008201527f6e6765207065726d697373696f6e2e0000000000000000000000000000000000602082015250565b60006200456a602f8362003014565b915062004577826200450c565b604082019050919050565b600060208201905081810360008301526200459d816200455b565b9050919050565b7f596f7520646f6e27742068617665207065726d697373696f6e20746f2063686160008201527f6e676520696e666f2e0000000000000000000000000000000000000000000000602082015250565b60006200460260298362003014565b91506200460f82620045a4565b604082019050919050565b600060208201905081810360008301526200463581620045f3565b9050919050565b60008190508160005260206000209050919050565b60006020601f8301049050919050565b600082821b905092915050565b600060088302620046a07fffffffffffffffffffffffffffffffffffffffffffffffffffffffffffffffff8262004661565b620046ac868362004661565b95508019841693508086168417925050509392505050565b6000620046e5620046df620046d98462002ed3565b62003a04565b62002ed3565b9050919050565b6000819050919050565b6200470183620046c4565b620047196200471082620046ec565b8484546200466e565b825550505050565b600090565b6200473062004721565b6200473d818484620046f6565b505050565b5b8181101562004765576200475960008262004726565b60018101905062004743565b5050565b601f821115620047b4576200477e816200463c565b620047898462004651565b8101602085101562004799578190505b620047b1620047a88562004651565b83018262004742565b50505b505050565b600082821c905092915050565b6000620047d960001984600802620047b9565b1980831691505092915050565b6000620047f48383620047c6565b9150826002028217905092915050565b6200480f8262003009565b67ffffffffffffffff8111156200482b576200482a620031f7565b5b62004837825462003fef565b6200484482828562004769565b600060209050601f8311600181146200487c576000841562004867578287015190505b620048738582620047e6565b865550620048e3565b601f1984166200488c866200463c565b60005b82811015620048b6578489015182556001820191506020850194506020810190506200488f565b86831015620048d65784890151620048d2601f891682620047c6565b8355505b6001600288020188555050505b505050505050565b7f4552433732313a206f776e657220717565727920666f72206e6f6e657869737460008201527f656e7420746f6b656e0000000000000000000000000000000000000000000000602082015250565b60006200494960298362003014565b91506200495682620048eb565b604082019050919050565b600060208201905081810360008301526200497c816200493a565b9050919050565b7f54686520636f70797269676874206f776e657220646f6573206e6f7420616c6c60008201527f6f7720646973747269627574696f6e2e00000000000000000000000000000000602082015250565b6000620049e160308362003014565b9150620049ee8262004983565b604082019050919050565b6000602082019050818103600083015262004a1481620049d2565b9050919050565b6000815462004a2a8162003fef565b62004a36818662003014565b9450600182166000811462004a54576001811462004a6b5762004aa2565b60ff19831686528115156020028601935062004aa2565b62004a76856200463c565b60005b8381101562004a9a5781548189015260018201915060208101905062004a79565b808801955050505b50505092915050565b6000606082019050818103600083015262004ac7818662004a1b565b9050818103602083015262004add818562004a1b565b9050818103604083015262004af3818462004a1b565b9050949350505050565b7f4552433732313a2062616c616e636520717565727920666f7220746865207a6560008201527f726f206164647265737300000000000000000000000000000000000000000000602082015250565b600062004b5b602a8362003014565b915062004b688262004afd565b604082019050919050565b6000602082019050818103600083015262004b8e8162004b4c565b9050919050565b7f4f776e61626c653a2063616c6c6572206973206e6f7420746865206f776e6572600082015250565b600062004bcd60208362003014565b915062004bda8262004b95565b602082019050919050565b6000602082019050818103600083015262004c008162004bbe565b9050919050565b7f54686520746f6b656e20796f75206d616b65206465706f73697420746f20646f60008201527f6573206e6f742065786973742e00000000000000000000000000000000000000602082015250565b600062004c65602d8362003014565b915062004c728262004c07565b604082019050919050565b6000602082019050818103600083015262004c988162004c56565b9050919050565b7f4552433732314d657461646174613a2055524920717565727920666f72206e6f60008201527f6e6578697374656e7420746f6b656e0000000000000000000000000000000000602082015250565b600062004cfd602f8362003014565b915062004d0a8262004c9f565b604082019050919050565b6000602082019050818103600083015262004d308162004cee565b9050919050565b600081905092915050565b600062004d4f8262003009565b62004d5b818562004d37565b935062004d6d81856020860162003025565b80840191505092915050565b600062004d87828562004d42565b915062004d95828462004d42565b91508190509392505050565b7f4f776e61626c653a206e6577206f776e657220697320746865207a65726f206160008201527f6464726573730000000000000000000000000000000000000000000000000000602082015250565b600062004dff60268362003014565b915062004e0c8262004da1565b604082019050919050565b6000602082019050818103600083015262004e328162004df0565b9050919050565b7f4552433732313a206f70657261746f7220717565727920666f72206e6f6e657860008201527f697374656e7420746f6b656e0000000000000000000000000000000000000000602082015250565b600062004e97602c8362003014565b915062004ea48262004e39565b604082019050919050565b6000602082019050818103600083015262004eca8162004e88565b9050919050565b7f4552433732313a207472616e736665722066726f6d20696e636f72726563742060008201527f6f776e6572000000000000000000000000000000000000000000000000000000602082015250565b600062004f2f60258362003014565b915062004f3c8262004ed1565b604082019050919050565b6000602082019050818103600083015262004f628162004f20565b9050919050565b7f4552433732313a207472616e7366657220746f20746865207a65726f2061646460008201527f7265737300000000000000000000000000000000000000000000000000000000602082015250565b600062004fc760248362003014565b915062004fd48262004f69565b604082019050919050565b6000602082019050818103600083015262004ffa8162004fb8565b9050919050565b60006200500e8262002ed3565b91506200501b8362002ed3565b9250827fffffffffffffffffffffffffffffffffffffffffffffffffffffffffffffffff03821115620050535762005052620041ec565b5b828201905092915050565b7f4552433732313a20617070726f766520746f2063616c6c657200000000000000600082015250565b60006200509660198362003014565b9150620050a3826200505e565b602082019050919050565b60006020820190508181036000830152620050c98162005087565b9050919050565b7f4552433732313a207472616e7366657220746f206e6f6e20455243373231526560008201527f63656976657220696d706c656d656e7465720000000000000000000000000000602082015250565b60006200512e60328362003014565b91506200513b82620050d0565b604082019050919050565b6000602082019050818103600083015262005161816200511f565b9050919050565b7f4e487b7100000000000000000000000000000000000000000000000000000000600052601260045260246000fd5b6000620051a48262002ed3565b9150620051b18362002ed3565b925082620051c457620051c362005168565b5b828204905092915050565b6000620051dc8262002ed3565b9150620051e98362002ed3565b925082620051fc57620051fb62005168565b5b828206905092915050565b600081519050919050565b600082825260208201905092915050565b6000620052308262005207565b6200523c818562005212565b93506200524e81856020860162003025565b62005259816200305b565b840191505092915050565b60006080820190506200527b60008301876200314c565b6200528a60208301866200314c565b620052996040830185620034f5565b8181036060830152620052ad818462005223565b905095945050505050565b600081519050620052c98162002fa6565b92915050565b600060208284031215620052e857620052e762002ec9565b5b6000620052f884828501620052b8565b91505092915050565b7f4552433732313a206d696e7420746f20746865207a65726f2061646472657373600082015250565b60006200533960208362003014565b9150620053468262005301565b602082019050919050565b600060208201905081810360008301526200536c816200532a565b9050919050565b7f4552433732313a20746f6b656e20616c7265616479206d696e74656400000000600082015250565b6000620053ab601c8362003014565b9150620053b88262005373565b602082019050919050565b60006020820190508181036000830152620053de816200539c565b905091905056fe60806040523480156200001157600080fd5b5060405162002f6f38038062002f6f833981810160405281019062000037919062000305565b828281600090816200004a919062000609565b5080600190816200005c919062000609565b5050506200007f620000736200009a60201b60201c565b620000a260201b60201c565b806007908162000090919062000609565b50505050620006f0565b600033905090565b6000600660009054906101000a900473ffffffffffffffffffffffffffffffffffffffff16905081600660006101000a81548173ffffffffffffffffffffffffffffffffffffffff021916908373ffffffffffffffffffffffffffffffffffffffff1602179055508173ffffffffffffffffffffffffffffffffffffffff168173ffffffffffffffffffffffffffffffffffffffff167f8be0079c531659141344cd1fd0a4f28419497f9722a3daafe3b4186f6b6457e060405160405180910390a35050565b6000604051905090565b600080fd5b600080fd5b600080fd5b600080fd5b6000601f19601f8301169050919050565b7f4e487b7100000000000000000000000000000000000000000000000000000000600052604160045260246000fd5b620001d18262000186565b810181811067ffffffffffffffff82111715620001f357620001f262000197565b5b80604052505050565b60006200020862000168565b9050620002168282620001c6565b919050565b600067ffffffffffffffff82111562000239576200023862000197565b5b620002448262000186565b9050602081019050919050565b60005b838110156200027157808201518184015260208101905062000254565b8381111562000281576000848401525b50505050565b60006200029e62000298846200021b565b620001fc565b905082815260208101848484011115620002bd57620002bc62000181565b5b620002ca84828562000251565b509392505050565b600082601f830112620002ea57620002e96200017c565b5b8151620002fc84826020860162000287565b91505092915050565b60008060006060848603121562000321576200032062000172565b5b600084015167ffffffffffffffff81111562000342576200034162000177565b5b6200035086828701620002d2565b935050602084015167ffffffffffffffff81111562000374576200037362000177565b5b6200038286828701620002d2565b925050604084015167ffffffffffffffff811115620003a657620003a562000177565b5b620003b486828701620002d2565b9150509250925092565b600081519050919050565b7f4e487b7100000000000000000000000000000000000000000000000000000000600052602260045260246000fd5b600060028204905060018216806200041157607f821691505b602082108103620004275762000426620003c9565b5b50919050565b60008190508160005260206000209050919050565b60006020601f8301049050919050565b600082821b905092915050565b600060088302620004917fffffffffffffffffffffffffffffffffffffffffffffffffffffffffffffffff8262000452565b6200049d868362000452565b95508019841693508086168417925050509392505050565b6000819050919050565b6000819050919050565b6000620004ea620004e4620004de84620004b5565b620004bf565b620004b5565b9050919050565b6000819050919050565b6200050683620004c9565b6200051e6200051582620004f1565b8484546200045f565b825550505050565b600090565b6200053562000526565b62000542818484620004fb565b505050565b5b818110156200056a576200055e6000826200052b565b60018101905062000548565b5050565b601f821115620005b95762000583816200042d565b6200058e8462000442565b810160208510156200059e578190505b620005b6620005ad8562000442565b83018262000547565b50505b505050565b600082821c905092915050565b6000620005de60001984600802620005be565b1980831691505092915050565b6000620005f98383620005cb565b9150826002028217905092915050565b6200061482620003be565b67ffffffffffffffff81111562000630576200062f62000197565b5b6200063c8254620003f8565b620006498282856200056e565b600060209050601f8311600181146200068157600084156200066c578287015190505b620006788582620005eb565b865550620006e8565b601f19841662000691866200042d565b60005b82811015620006bb5784890151825560018201915060208501945060208101905062000694565b86831015620006db5784890151620006d7601f891682620005cb565b8355505b6001600288020188555050505b505050505050565b61286f80620007006000396000f3fe608060405234801561001057600080fd5b506004361061010b5760003560e01c8063715018a6116100a2578063b88d4fde11610071578063b88d4fde146102a4578063c87b56dd146102c0578063e8a3d485146102f0578063e985e9c51461030e578063f2fde38b1461033e5761010b565b8063715018a6146102425780638da5cb5b1461024c57806395d89b411461026a578063a22cb465146102885761010b565b806323b872dd116100de57806323b872dd146101aa57806342842e0e146101c65780636352211e146101e257806370a08231146102125761010b565b806301ffc9a71461011057806306fdde0314610140578063081812fc1461015e578063095ea7b31461018e575b600080fd5b61012a600480360381019061012591906117ce565b61035a565b6040516101379190611816565b60405180910390f35b61014861043c565b60405161015591906118ca565b60405180910390f35b61017860048036038101906101739190611922565b6104ce565b6040516101859190611990565b60405180910390f35b6101a860048036038101906101a391906119d7565b610553565b005b6101c460048036038101906101bf9190611a17565b61066a565b005b6101e060048036038101906101db9190611a17565b6106ca565b005b6101fc60048036038101906101f79190611922565b6106ea565b6040516102099190611990565b60405180910390f35b61022c60048036038101906102279190611a6a565b61079b565b6040516102399190611aa6565b60405180910390f35b61024a610852565b005b6102546108da565b6040516102619190611990565b60405180910390f35b610272610904565b60405161027f91906118ca565b60405180910390f35b6102a2600480360381019061029d9190611aed565b610996565b005b6102be60048036038101906102b99190611c62565b6109ac565b005b6102da60048036038101906102d59190611922565b610a0e565b6040516102e791906118ca565b60405180910390f35b6102f8610ab5565b60405161030591906118ca565b60405180910390f35b61032860048036038101906103239190611ce5565b610b43565b6040516103359190611816565b60405180910390f35b61035860048036038101906103539190611a6a565b610bd7565b005b60007f80ac58cd000000000000000000000000000000000000000000000000000000007bffffffffffffffffffffffffffffffffffffffffffffffffffffffff1916827bffffffffffffffffffffffffffffffffffffffffffffffffffffffff1916148061042557507f5b5e139f000000000000000000000000000000000000000000000000000000007bffffffffffffffffffffffffffffffffffffffffffffffffffffffff1916827bffffffffffffffffffffffffffffffffffffffffffffffffffffffff1916145b80610435575061043482610cce565b5b9050919050565b60606000805461044b90611d54565b80601f016020809104026020016040519081016040528092919081815260200182805461047790611d54565b80156104c45780601f10610499576101008083540402835291602001916104c4565b820191906000526020600020905b8154815290600101906020018083116104a757829003601f168201915b5050505050905090565b60006104d982610d38565b610518576040517f08c379a000000000000000000000000000000000000000000000000000000000815260040161050f90611df7565b60405180910390fd5b6004600083815260200190815260200160002060009054906101000a900473ffffffffffffffffffffffffffffffffffffffff169050919050565b600061055e826106ea565b90508073ffffffffffffffffffffffffffffffffffffffff168373ffffffffffffffffffffffffffffffffffffffff16036105ce576040517f08c379a00000000000000000000000000000000000000000000000000000000081526004016105c590611e89565b60405180910390fd5b8073ffffffffffffffffffffffffffffffffffffffff166105ed610da4565b73ffffffffffffffffffffffffffffffffffffffff16148061061c575061061b81610616610da4565b610b43565b5b61065b576040517f08c379a000000000000000000000000000000000000000000000000000000000815260040161065290611f1b565b60405180910390fd5b6106658383610dac565b505050565b61067b610675610da4565b82610e65565b6106ba576040517f08c379a00000000000000000000000000000000000000000000000000000000081526004016106b190611fad565b60405180910390fd5b6106c5838383610f43565b505050565b6106e5838383604051806020016040528060008152506109ac565b505050565b6000806002600084815260200190815260200160002060009054906101000a900473ffffffffffffffffffffffffffffffffffffffff169050600073ffffffffffffffffffffffffffffffffffffffff168173ffffffffffffffffffffffffffffffffffffffff1603610792576040517f08c379a00000000000000000000000000000000000000000000000000000000081526004016107899061203f565b60405180910390fd5b80915050919050565b60008073ffffffffffffffffffffffffffffffffffffffff168273ffffffffffffffffffffffffffffffffffffffff160361080b576040517f08c379a0000000000000000000000000000000000000000000000000000000008152600401610802906120d1565b60405180910390fd5b600360008373ffffffffffffffffffffffffffffffffffffffff1673ffffffffffffffffffffffffffffffffffffffff168152602001908152602001600020549050919050565b61085a610da4565b73ffffffffffffffffffffffffffffffffffffffff166108786108da565b73ffffffffffffffffffffffffffffffffffffffff16146108ce576040517f08c379a00000000000000000000000000000000000000000000000000000000081526004016108c59061213d565b60405180910390fd5b6108d860006111a9565b565b6000600660009054906101000a900473ffffffffffffffffffffffffffffffffffffffff16905090565b60606001805461091390611d54565b80601f016020809104026020016040519081016040528092919081815260200182805461093f90611d54565b801561098c5780601f106109615761010080835404028352916020019161098c565b820191906000526020600020905b81548152906001019060200180831161096f57829003601f168201915b5050505050905090565b6109a86109a1610da4565b838361126f565b5050565b6109bd6109b7610da4565b83610e65565b6109fc576040517f08c379a00000000000000000000000000000000000000000000000000000000081526004016109f390611fad565b60405180910390fd5b610a08848484846113db565b50505050565b6060610a1982610d38565b610a58576040517f08c379a0000000000000000000000000000000000000000000000000000000008152600401610a4f906121cf565b60405180910390fd5b6000610a62611437565b90506000815111610a825760405180602001604052806000815250610aad565b80610a8c8461144e565b604051602001610a9d92919061222b565b6040516020818303038152906040525b915050919050565b60078054610ac290611d54565b80601f0160208091040260200160405190810160405280929190818152602001828054610aee90611d54565b8015610b3b5780601f10610b1057610100808354040283529160200191610b3b565b820191906000526020600020905b815481529060010190602001808311610b1e57829003601f168201915b505050505081565b6000600560008473ffffffffffffffffffffffffffffffffffffffff1673ffffffffffffffffffffffffffffffffffffffff16815260200190815260200160002060008373ffffffffffffffffffffffffffffffffffffffff1673ffffffffffffffffffffffffffffffffffffffff16815260200190815260200160002060009054906101000a900460ff16905092915050565b610bdf610da4565b73ffffffffffffffffffffffffffffffffffffffff16610bfd6108da565b73ffffffffffffffffffffffffffffffffffffffff1614610c53576040517f08c379a0000000000000000000000000000000000000000000000000000000008152600401610c4a9061213d565b60405180910390fd5b600073ffffffffffffffffffffffffffffffffffffffff168173ffffffffffffffffffffffffffffffffffffffff1603610cc2576040517f08c379a0000000000000000000000000000000000000000000000000000000008152600401610cb9906122c1565b60405180910390fd5b610ccb816111a9565b50565b60007f01ffc9a7000000000000000000000000000000000000000000000000000000007bffffffffffffffffffffffffffffffffffffffffffffffffffffffff1916827bffffffffffffffffffffffffffffffffffffffffffffffffffffffff1916149050919050565b60008073ffffffffffffffffffffffffffffffffffffffff166002600084815260200190815260200160002060009054906101000a900473ffffffffffffffffffffffffffffffffffffffff1673ffffffffffffffffffffffffffffffffffffffff1614159050919050565b600033905090565b816004600083815260200190815260200160002060006101000a81548173ffffffffffffffffffffffffffffffffffffffff021916908373ffffffffffffffffffffffffffffffffffffffff160217905550808273ffffffffffffffffffffffffffffffffffffffff16610e1f836106ea565b73ffffffffffffffffffffffffffffffffffffffff167f8c5be1e5ebec7d5bd14f71427d1e84f3dd0314c0f7b2291e5b200ac8c7c3b92560405160405180910390a45050565b6000610e7082610d38565b610eaf576040517f08c379a0000000000000000000000000000000000000000000000000000000008152600401610ea690612353565b60405180910390fd5b6000610eba836106ea565b90508073ffffffffffffffffffffffffffffffffffffffff168473ffffffffffffffffffffffffffffffffffffffff161480610efc5750610efb8185610b43565b5b80610f3a57508373ffffffffffffffffffffffffffffffffffffffff16610f22846104ce565b73ffffffffffffffffffffffffffffffffffffffff16145b91505092915050565b8273ffffffffffffffffffffffffffffffffffffffff16610f63826106ea565b73ffffffffffffffffffffffffffffffffffffffff1614610fb9576040517f08c379a0000000000000000000000000000000000000000000000000000000008152600401610fb0906123e5565b60405180910390fd5b600073ffffffffffffffffffffffffffffffffffffffff168273ffffffffffffffffffffffffffffffffffffffff1603611028576040517f08c379a000000000000000000000000000000000000000000000000000000000815260040161101f90612477565b60405180910390fd5b6110338383836115ae565b61103e600082610dac565b6001600360008573ffffffffffffffffffffffffffffffffffffffff1673ffffffffffffffffffffffffffffffffffffffff168152602001908152602001600020600082825461108e91906124c6565b925050819055506001600360008473ffffffffffffffffffffffffffffffffffffffff1673ffffffffffffffffffffffffffffffffffffffff16815260200190815260200160002060008282546110e591906124fa565b92505081905550816002600083815260200190815260200160002060006101000a81548173ffffffffffffffffffffffffffffffffffffffff021916908373ffffffffffffffffffffffffffffffffffffffff160217905550808273ffffffffffffffffffffffffffffffffffffffff168473ffffffffffffffffffffffffffffffffffffffff167fddf252ad1be2c89b69c2b068fc378daa952ba7f163c4a11628f55a4df523b3ef60405160405180910390a46111a48383836115b3565b505050565b6000600660009054906101000a900473ffffffffffffffffffffffffffffffffffffffff16905081600660006101000a81548173ffffffffffffffffffffffffffffffffffffffff021916908373ffffffffffffffffffffffffffffffffffffffff1602179055508173ffffffffffffffffffffffffffffffffffffffff168173ffffffffffffffffffffffffffffffffffffffff167f8be0079c531659141344cd1fd0a4f28419497f9722a3daafe3b4186f6b6457e060405160405180910390a35050565b8173ffffffffffffffffffffffffffffffffffffffff168373ffffffffffffffffffffffffffffffffffffffff16036112dd576040517f08c379a00000000000000000000000000000000000000000000000000000000081526004016112d49061259c565b60405180910390fd5b80600560008573ffffffffffffffffffffffffffffffffffffffff1673ffffffffffffffffffffffffffffffffffffffff16815260200190815260200160002060008473ffffffffffffffffffffffffffffffffffffffff1673ffffffffffffffffffffffffffffffffffffffff16815260200190815260200160002060006101000a81548160ff0219169083151502179055508173ffffffffffffffffffffffffffffffffffffffff168373ffffffffffffffffffffffffffffffffffffffff167f17307eab39ab6107e8899845ad3d59bd9653f200f220920489ca2b5937696c31836040516113ce9190611816565b60405180910390a3505050565b6113e6848484610f43565b6113f2848484846115b8565b611431576040517f08c379a00000000000000000000000000000000000000000000000000000000081526004016114289061262e565b60405180910390fd5b50505050565b606060405180602001604052806000815250905090565b606060008203611495576040518060400160405280600181526020017f300000000000000000000000000000000000000000000000000000000000000081525090506115a9565b600082905060005b600082146114c75780806114b09061264e565b915050600a826114c091906126c5565b915061149d565b60008167ffffffffffffffff8111156114e3576114e2611b37565b5b6040519080825280601f01601f1916602001820160405280156115155781602001600182028036833780820191505090505b5090505b600085146115a25760018261152e91906124c6565b9150600a8561153d91906126f6565b603061154991906124fa565b60f81b81838151811061155f5761155e612727565b5b60200101907effffffffffffffffffffffffffffffffffffffffffffffffffffffffffffff1916908160001a905350600a8561159b91906126c5565b9450611519565b8093505050505b919050565b505050565b505050565b60006115d98473ffffffffffffffffffffffffffffffffffffffff1661173f565b15611732578373ffffffffffffffffffffffffffffffffffffffff1663150b7a02611602610da4565b8786866040518563ffffffff1660e01b815260040161162494939291906127ab565b6020604051808303816000875af192505050801561166057506040513d601f19601f8201168201806040525081019061165d919061280c565b60015b6116e2573d8060008114611690576040519150601f19603f3d011682016040523d82523d6000602084013e611695565b606091505b5060008151036116da576040517f08c379a00000000000000000000000000000000000000000000000000000000081526004016116d19061262e565b60405180910390fd5b805181602001fd5b63150b7a0260e01b7bffffffffffffffffffffffffffffffffffffffffffffffffffffffff1916817bffffffffffffffffffffffffffffffffffffffffffffffffffffffff191614915050611737565b600190505b949350505050565b6000808273ffffffffffffffffffffffffffffffffffffffff163b119050919050565b6000604051905090565b600080fd5b600080fd5b60007fffffffff0000000000000000000000000000000000000000000000000000000082169050919050565b6117ab81611776565b81146117b657600080fd5b50565b6000813590506117c8816117a2565b92915050565b6000602082840312156117e4576117e361176c565b5b60006117f2848285016117b9565b91505092915050565b60008115159050919050565b611810816117fb565b82525050565b600060208201905061182b6000830184611807565b92915050565b600081519050919050565b600082825260208201905092915050565b60005b8381101561186b578082015181840152602081019050611850565b8381111561187a576000848401525b50505050565b6000601f19601f8301169050919050565b600061189c82611831565b6118a6818561183c565b93506118b681856020860161184d565b6118bf81611880565b840191505092915050565b600060208201905081810360008301526118e48184611891565b905092915050565b6000819050919050565b6118ff816118ec565b811461190a57600080fd5b50565b60008135905061191c816118f6565b92915050565b6000602082840312156119385761193761176c565b5b60006119468482850161190d565b91505092915050565b600073ffffffffffffffffffffffffffffffffffffffff82169050919050565b600061197a8261194f565b9050919050565b61198a8161196f565b82525050565b60006020820190506119a56000830184611981565b92915050565b6119b48161196f565b81146119bf57600080fd5b50565b6000813590506119d1816119ab565b92915050565b600080604083850312156119ee576119ed61176c565b5b60006119fc858286016119c2565b9250506020611a0d8582860161190d565b9150509250929050565b600080600060608486031215611a3057611a2f61176c565b5b6000611a3e868287016119c2565b9350506020611a4f868287016119c2565b9250506040611a608682870161190d565b9150509250925092565b600060208284031215611a8057611a7f61176c565b5b6000611a8e848285016119c2565b91505092915050565b611aa0816118ec565b82525050565b6000602082019050611abb6000830184611a97565b92915050565b611aca816117fb565b8114611ad557600080fd5b50565b600081359050611ae781611ac1565b92915050565b60008060408385031215611b0457611b0361176c565b5b6000611b12858286016119c2565b9250506020611b2385828601611ad8565b9150509250929050565b600080fd5b600080fd5b7f4e487b7100000000000000000000000000000000000000000000000000000000600052604160045260246000fd5b611b6f82611880565b810181811067ffffffffffffffff82111715611b8e57611b8d611b37565b5b80604052505050565b6000611ba1611762565b9050611bad8282611b66565b919050565b600067ffffffffffffffff821115611bcd57611bcc611b37565b5b611bd682611880565b9050602081019050919050565b82818337600083830152505050565b6000611c05611c0084611bb2565b611b97565b905082815260208101848484011115611c2157611c20611b32565b5b611c2c848285611be3565b509392505050565b600082601f830112611c4957611c48611b2d565b5b8135611c59848260208601611bf2565b91505092915050565b60008060008060808587031215611c7c57611c7b61176c565b5b6000611c8a878288016119c2565b9450506020611c9b878288016119c2565b9350506040611cac8782880161190d565b925050606085013567ffffffffffffffff811115611ccd57611ccc611771565b5b611cd987828801611c34565b91505092959194509250565b60008060408385031215611cfc57611cfb61176c565b5b6000611d0a858286016119c2565b9250506020611d1b858286016119c2565b9150509250929050565b7f4e487b7100000000000000000000000000000000000000000000000000000000600052602260045260246000fd5b60006002820490506001821680611d6c57607f821691505b602082108103611d7f57611d7e611d25565b5b50919050565b7f4552433732313a20617070726f76656420717565727920666f72206e6f6e657860008201527f697374656e7420746f6b656e0000000000000000000000000000000000000000602082015250565b6000611de1602c8361183c565b9150611dec82611d85565b604082019050919050565b60006020820190508181036000830152611e1081611dd4565b9050919050565b7f4552433732313a20617070726f76616c20746f2063757272656e74206f776e6560008201527f7200000000000000000000000000000000000000000000000000000000000000602082015250565b6000611e7360218361183c565b9150611e7e82611e17565b604082019050919050565b60006020820190508181036000830152611ea281611e66565b9050919050565b7f4552433732313a20617070726f76652063616c6c6572206973206e6f74206f7760008201527f6e6572206e6f7220617070726f76656420666f7220616c6c0000000000000000602082015250565b6000611f0560388361183c565b9150611f1082611ea9565b604082019050919050565b60006020820190508181036000830152611f3481611ef8565b9050919050565b7f4552433732313a207472616e736665722063616c6c6572206973206e6f74206f60008201527f776e6572206e6f7220617070726f766564000000000000000000000000000000602082015250565b6000611f9760318361183c565b9150611fa282611f3b565b604082019050919050565b60006020820190508181036000830152611fc681611f8a565b9050919050565b7f4552433732313a206f776e657220717565727920666f72206e6f6e657869737460008201527f656e7420746f6b656e0000000000000000000000000000000000000000000000602082015250565b600061202960298361183c565b915061203482611fcd565b604082019050919050565b600060208201905081810360008301526120588161201c565b9050919050565b7f4552433732313a2062616c616e636520717565727920666f7220746865207a6560008201527f726f206164647265737300000000000000000000000000000000000000000000602082015250565b60006120bb602a8361183c565b91506120c68261205f565b604082019050919050565b600060208201905081810360008301526120ea816120ae565b9050919050565b7f4f776e61626c653a2063616c6c6572206973206e6f7420746865206f776e6572600082015250565b600061212760208361183c565b9150612132826120f1565b602082019050919050565b600060208201905081810360008301526121568161211a565b9050919050565b7f4552433732314d657461646174613a2055524920717565727920666f72206e6f60008201527f6e6578697374656e7420746f6b656e0000000000000000000000000000000000602082015250565b60006121b9602f8361183c565b91506121c48261215d565b604082019050919050565b600060208201905081810360008301526121e8816121ac565b9050919050565b600081905092915050565b600061220582611831565b61220f81856121ef565b935061221f81856020860161184d565b80840191505092915050565b600061223782856121fa565b915061224382846121fa565b91508190509392505050565b7f4f776e61626c653a206e6577206f776e657220697320746865207a65726f206160008201527f6464726573730000000000000000000000000000000000000000000000000000602082015250565b60006122ab60268361183c565b91506122b68261224f565b604082019050919050565b600060208201905081810360008301526122da8161229e565b9050919050565b7f4552433732313a206f70657261746f7220717565727920666f72206e6f6e657860008201527f697374656e7420746f6b656e0000000000000000000000000000000000000000602082015250565b600061233d602c8361183c565b9150612348826122e1565b604082019050919050565b6000602082019050818103600083015261236c81612330565b9050919050565b7f4552433732313a207472616e736665722066726f6d20696e636f72726563742060008201527f6f776e6572000000000000000000000000000000000000000000000000000000602082015250565b60006123cf60258361183c565b91506123da82612373565b604082019050919050565b600060208201905081810360008301526123fe816123c2565b9050919050565b7f4552433732313a207472616e7366657220746f20746865207a65726f2061646460008201527f7265737300000000000000000000000000000000000000000000000000000000602082015250565b600061246160248361183c565b915061246c82612405565b604082019050919050565b6000602082019050818103600083015261249081612454565b9050919050565b7f4e487b7100000000000000000000000000000000000000000000000000000000600052601160045260246000fd5b60006124d1826118ec565b91506124dc836118ec565b9250828210156124ef576124ee612497565b5b828203905092915050565b6000612505826118ec565b9150612510836118ec565b9250827fffffffffffffffffffffffffffffffffffffffffffffffffffffffffffffffff0382111561254557612544612497565b5b828201905092915050565b7f4552433732313a20617070726f766520746f2063616c6c657200000000000000600082015250565b600061258660198361183c565b915061259182612550565b602082019050919050565b600060208201905081810360008301526125b581612579565b9050919050565b7f4552433732313a207472616e7366657220746f206e6f6e20455243373231526560008201527f63656976657220696d706c656d656e7465720000000000000000000000000000602082015250565b600061261860328361183c565b9150612623826125bc565b604082019050919050565b600060208201905081810360008301526126478161260b565b9050919050565b6000612659826118ec565b91507fffffffffffffffffffffffffffffffffffffffffffffffffffffffffffffffff820361268b5761268a612497565b5b600182019050919050565b7f4e487b7100000000000000000000000000000000000000000000000000000000600052601260045260246000fd5b60006126d0826118ec565b91506126db836118ec565b9250826126eb576126ea612696565b5b828204905092915050565b6000612701826118ec565b915061270c836118ec565b92508261271c5761271b612696565b5b828206905092915050565b7f4e487b7100000000000000000000000000000000000000000000000000000000600052603260045260246000fd5b600081519050919050565b600082825260208201905092915050565b600061277d82612756565b6127878185612761565b935061279781856020860161184d565b6127a081611880565b840191505092915050565b60006080820190506127c06000830187611981565b6127cd6020830186611981565b6127da6040830185611a97565b81810360608301526127ec8184612772565b905095945050505050565b600081519050612806816117a2565b92915050565b6000602082840312156128225761282161176c565b5b6000612830848285016127f7565b9150509291505056fea2646970667358221220599c3b049fda507c188e18baa39c84ce2e43b4096356969afad5999b2341651a64736f6c634300080f0033a26469706673582212200a374b0b3a8538a37ea7f649130f0fbf89f6aafc4806cd9e71f1f03202fe05dc64736f6c634300080f0033",
  "linkReferences": {},
  "deployedLinkReferences": {}
}